:100000007BC000009AC0000098C0000096C00000AD
:1000100094C000000C943F0D0C94120D8EC0000093
:100020008CC000008AC0000088C0000086C00000AC
:1000300084C0000082C0000080C000007EC00000BC
:100040007CC000007AC0000078C0000076C00000CC
:1000500074C0000072C0000070C000006EC00000DC
:100060006CC000006AC0000068C0000066C00000EC
:1000700064C0000062C0000060C000005EC00000FC
:100080005CC000005AC0000058C0000056C000000C
:1000900054C0000052C0000050C000004EC000001C
:1000A0004CC000004AC0000048C0000046C000002C
:1000B00044C0000042C0000040C000003EC000003C
:1000C0003CC000003AC0000038C0000036C000004C
:1000D00034C0000032C0000030C000002EC000005C
:1000E0002CC00000D90FE00FE70FEE0FF50FFC0F4B
:1000F00003100A101710241011241FBECFEFD1E2F5
:10010000DEBFCDBF00E00CBF12E0A0E0B2E0EAEE3F
:10011000FAE400E00BBF02C007900D92A83AB107C5
:10012000D9F722E0A8EAB2E001C01D92A83CB207CC
:10013000E1F70E94AA220C94732562CFCF93DF933C
:10014000CDB7DEB787E290E027E230E0F901208109
:10015000276FFC01208388E290E028E230E0F9017B
:1001600020812870FC012083DF91CF9108950F93A7
:100170001F93CF93DF93CDB7DEB7C057D1090FB62A
:10018000F894DEBF0FBECDBF80E090E0A0E8BFE3F3
:1001900089839A83AB83BC8326E636E646E655E43C
:1001A00069817A818B819C810E94FB24DC01CB01D7
:1001B0008D839E83AF83B88720E030E040E85FE323
:1001C0006D817E818F8198850E94AD2388232CF4D8
:1001D00081E090E09A8789873FC020E03FEF4FE7BA
:1001E00057E46D817E818F8198850E94F7241816CF
:1001F0004CF520E030E040E251E469817A818B8166
:100200009C810E94FB24DC01CB01BC01CD010E943A
:100210001924DC01CB019A8789870FC080E791E020
:100220009C878B878B859C850197F1F79C878B87B3
:1002300089859A8501979A87898789859A85009704
:1002400069F714C06D817E818F8198850E94192481
:10025000DC01CB019A87898789859A859E878D875E
:100260008D859E850197F1F79E878D8788E290E0C6
:1002700028E230E0F90120812E7FFC01208388E212
:1002800090E028E230E0F90120812D7FFC012083FD
:1002900088E290E020E3FC01208388E290E028E2FD
:1002A00030E0F90120812460FC01208380E090E0AF
:1002B000A0EAB0E48F87988BA98BBA8B26E636E646
:1002C00046E655E46F85788989899A890E94FB24DE
:1002D000DC01CB018B8B9C8BAD8BBE8B20E030E0A7
:1002E00040E85FE36B897C898D899E890E94AD23FC
:1002F00088232CF481E090E0988F8F8B3FC020E022
:100300003FEF4FE757E46B897C898D899E890E9476
:10031000F72418164CF520E030E040E251E46F85F8
:10032000788989899A890E94FB24DC01CB01BC0170
:10033000CD010E941924DC01CB01988F8F8B0FC057
:1003400080E791E09A8F898F898D9A8D0197F1F7D7
:100350009A8F898F8F89988D0197988F8F8B8F892E
:10036000988D009769F714C06B897C898D899E8967
:100370000E941924DC01CB01988F8F8B8F89988D77
:100380009C8F8B8F8B8D9C8D0197F1F79C8F8B8F22
:1003900088E290E028E230E0F90120812B7FFC0127
:1003A000208380E090E0A0E8BFE38D8F9E8FAF8F29
:1003B000B8A326E636E646E655E46D8D7E8D8F8D34
:1003C00098A10E94FB24DC01CB0189A39AA3ABA3D3
:1003D000BCA320E030E040E85FE369A17AA18BA1F3
:1003E0009CA10E94AD2388232CF481E090E09EA381
:1003F0008DA33FC020E03FEF4FE757E469A17AA10A
:100400008BA19CA10E94F72418164CF520E030E047
:1004100040E251E46D8D7E8D8F8D98A10E94FB246A
:10042000DC01CB01BC01CD010E941924DC01CB0110
:100430009EA38DA30FC080E791E098A78FA38FA103
:1004400098A50197F1F798A78FA38DA19EA1019779
:100450009EA38DA38DA19EA1009769F714C069A1E9
:100460007AA18BA19CA10E941924DC01CB019EA33F
:100470008DA38DA19EA19AA789A789A59AA5019769
:10048000F1F79AA789A788E290E028E230E0F90125
:1004900020812E7FFC01208388E290E028E230E07A
:1004A000F90120812D7FFC01208388E290E020E388
:1004B000FC01208388E290E028E230E0F90120810D
:1004C0002460FC01208380E090E0A0EAB0E48BA7E8
:1004D0009CA7ADA7BEA726E636E646E655E46BA583
:1004E0007CA58DA59EA50E94FB24DC01CB018FA7D6
:1004F00098ABA9ABBAAB20E030E040E85FE36FA572
:1005000078A989A99AA90E94AD2388232CF481E0B7
:1005100090E09CAB8BAB3FC020E03FEF4FE757E450
:100520006FA578A989A99AA90E94F72418164CF5F5
:1005300020E030E040E251E46BA57CA58DA59EA5AE
:100540000E94FB24DC01CB01BC01CD010E941924D7
:10055000DC01CB019CAB8BAB0FC080E791E09EAB85
:100560008DAB8DA99EA90197F1F79EAB8DAB8BA9A1
:100570009CA901979CAB8BAB8BA99CA9009769F7B1
:1005800014C06FA578A989A99AA90E941924DC0131
:10059000CB019CAB8BAB8BA99CA998AF8FAB8FA9E0
:1005A00098AD0197F1F798AF8FAB88E290E028E221
:1005B00030E0F90120812B7FFC01208380E090E076
:1005C000A0E8BFE389AF9AAFABAFBCAF26E636E693
:1005D00046E655E469AD7AAD8BAD9CAD0E94FB2437
:1005E000DC01CB019E01235C3F4FF90180839183A5
:1005F000A283B38320E030E040E85FE3CE01CD96F4
:10060000FC0160817181828193810E94AD238823E6
:100610004CF4CE018F5B9F4F21E030E0FC01318331
:10062000208367C020E03FEF4FE757E4CE01CD962F
:10063000FC0160817181828193810E94F7241816E8
:100640000CF046C020E030E040E251E469AD7AAD04
:100650008BAD9CAD0E94FB24DC01CB018E010F5BB6
:100660001F4FBC01CD010E941924DC01CB01F80110
:100670009183808324C0CE018D5B9F4F20E731E0C2
:10068000FC0131832083CE018D5B9F4FFC01808173
:1006900091810197F1F79E012D5B3F4FF901918305
:1006A0008083CE018F5B9F4F9E012F5B3F4FF901EF
:1006B0002081318121503109FC0131832083CE0119
:1006C0008F5B9F4FFC01808191810097A1F62BC029
:1006D0008E010F5B1F4FCE01CD96FC0160817181B1
:1006E000828193810E941924DC01CB01F80191835E
:1006F0008083CE018B5B9F4F9E012F5B3F4FF901A3
:1007000020813181FC0131832083CE018B5B9F4F9F
:10071000FC01808191810197F1F79E012B5B3F4F96
:10072000F9019183808388E290E028E230E0F901CA
:1007300020812E7FFC01208388E290E028E230E0D7
:10074000F90120812D7FFC01208388E290E020E3E5
:10075000FC01208388E290E028E230E0F90120816A
:100760002460FC0120839E01295B3F4F80E090E0E4
:10077000A0EAB0E4F90180839183A283B3838E0160
:10078000055B1F4FCE01895B9F4F26E636E646E6A6
:1007900055E4FC0160817181828193810E94FB2478
:1007A000DC01CB01F80180839183A283B383CE0166
:1007B000855B9F4F20E030E040E85FE3FC01608113
:1007C0007181828193810E94AD2388234CF4CE01F4
:1007D000815B9F4F21E030E0FC01318320836DC0BD
:1007E000CE01855B9F4F20E03FEF4FE757E4FC01D0
:1007F00060817181828193810E94F72418160CF028
:100800004AC0CE01895B9F4F20E030E040E251E4D6
:10081000FC0160817181828193810E94FB24DC0153
:10082000CB018E01015B1F4FBC01CD010E94192439
:10083000DC01CB01F8019183808324C0CE018F5A63
:100840009F4F20E731E0FC0131832083CE018F5A96
:100850009F4FFC01808191810197F1F79E012F5AF2
:100860003F4FF90191838083CE01815B9F4F9E01B1
:10087000215B3F4FF9012081318121503109FC0179
:1008800031832083CE01815B9F4FFC018081918168
:100890000097A1F62CC08E01015B1F4FCE01855B36
:1008A0009F4FFC0160817181828193810E94192494
:1008B000DC01CB01F80191838083CE018D5A9F4FDB
:1008C0009E01215B3F4FF90120813181FC01318381
:1008D0002083CE018D5A9F4FFC0180819181019729
:1008E000F1F79E012D5A3F4FF9019183808388E2F1
:1008F00090E028E230E0F90120812B7FFC01208389
:100900009E012B5A3F4F80E090E0A0E8BFE3F90141
:1009100080839183A283B3838E01075A1F4FCE0138
:100920008B5A9F4F26E636E646E655E4FC01608189
:100930007181828193810E94FB24DC01CB01F8014B
:1009400080839183A283B383CE01875A9F4F20E097
:1009500030E040E85FE3FC01608171818281938136
:100960000E94AD2388234CF4CE01835A9F4F21E08F
:1009700030E0FC01318320836DC0CE01875A9F4F48
:1009800020E03FEF4FE757E4FC01608171818281F5
:1009900093810E94F72418160CF04AC0CE018B5A9E
:1009A0009F4F20E030E040E251E4FC016081718122
:1009B000828193810E94FB24DC01CB018E01035ACA
:1009C0001F4FBC01CD010E941924DC01CB01F801AD
:1009D0009183808324C0CE01815A9F4F20E731E06C
:1009E000FC0131832083CE01815A9F4FFC0180811D
:1009F00091810197F1F79E01215A3F4FF9019183AF
:100A00008083CE01835A9F4F9E01235A3F4FF901A5
:100A10002081318121503109FC0131832083CE01B5
:100A2000835A9F4FFC01808191810097A1F62CC0D1
:100A30008E01035A1F4FCE01875A9F4FFC016081E0
:100A40007181828193810E941924DC01CB01F8011C
:100A500091838083CE018F599F4F9E01235A3F4F30
:100A6000F90120813181FC0131832083CE018F592E
:100A70009F4FFC01808191810197F1F79E012F59D1
:100A80003F4FF9019183808388E290E028E230E0D3
:100A9000F90120812E7FFC01208388E290E028E28A
:100AA00030E0F90120812D7FFC01208388E290E075
:100AB00020E2FC01208388E290E028E230E0F901A6
:100AC00020812460FC0120839E012D593F4F80E04E
:100AD00090E0A0EAB0E4F90180839183A283B3831C
:100AE0008E0109591F4FCE018D599F4F26E636E6DC
:100AF00046E655E4FC0160817181828193810E9408
:100B0000FB24DC01CB01F80180839183A283B383B2
:100B1000CE0189599F4F20E030E040E85FE3FC01BF
:100B200060817181828193810E94AD2388234CF47E
:100B3000CE0185599F4F21E030E0FC0131832083B5
:100B40006DC0CE0189599F4F20E03FEF4FE757E43A
:100B5000FC0160817181828193810E94F7241816C3
:100B60000CF04AC0CE018D599F4F20E030E040E2AA
:100B700051E4FC0160817181828193810E94FB2498
:100B8000DC01CB018E0105591F4FBC01CD010E9434
:100B90001924DC01CB01F8019183808324C0CE01AC
:100BA00083599F4F20E731E0FC0131832083CE0140
:100BB00083599F4FFC01808191810197F1F79E013C
:100BC00023593F4FF90191838083CE0185599F4F6F
:100BD0009E0125593F4FF901208131812150310972
:100BE000FC0131832083CE0185599F4FFC01808118
:100BF00091810097A1F62CC08E0105591F4FCE019F
:100C000089599F4FFC0160817181828193810E948B
:100C10001924DC01CB01F80191838083CE01815935
:100C20009F4F9E0125593F4FF90120813181FC01E1
:100C300031832083CE0181599F4FFC0180819181B6
:100C40000197F1F79E0121593F4FF901918380836C
:100C500088E290E028E230E0F90120812B7FFC015E
:100C60002083C059DF4F0FB6F894DEBF0FBECDBF53
:100C7000DF91CF911F910F910895CF93DF93CDB75F
:100C8000DEB72E970FB6F894DEBF0FBECDBF6FDA7A
:100C900080E090E0A0E8BFE389839A83AB83BC83C4
:100CA00026E636E646E655E469817A818B819C81A9
:100CB0000E94FB24DC01CB018D839E83AF83B88728
:100CC00020E030E040E85FE36D817E818F81988590
:100CD0000E94AD2388232CF481E090E09A878987D5
:100CE0003FC020E03FEF4FE757E46D817E818F8169
:100CF00098850E94F72418164CF520E030E040E279
:100D000051E469817A818B819C810E94FB24DC0102
:100D1000CB01BC01CD010E941924DC01CB019A87D3
:100D200089870FC080E791E09C878B878B859C85A6
:100D30000197F1F79C878B8789859A8501979A8718
:100D4000898789859A85009769F714C06D817E81AE
:100D50008F8198850E941924DC01CB019A878987AD
:100D600089859A859E878D878D859E850197F1F768
:100D70009E878D8788E211D081E00FD086E00DD06C
:100D80008EE00BD080E809D02E960FB6F894DEBF27
:100D90000FBECDBFDF91CF910895CF93DF93CDB735
:100DA000DEB76E970FB6F894DEBF0FBECDBF8E8F45
:100DB0008E8D89838981807F898388E290E028E213
:100DC00030E0F90120812F70FC01208388E290E05F
:100DD00028E230E0F90130812981232BFC012083B6
:100DE00088E290E028E230E0F90120812E7FFC01CA
:100DF000208388E290E028E230E0F90120812D7F15
:100E0000FC01208388E290E028E230E0F9012081B3
:100E10002460FC01208380E090E0A0EAB0E48A83B3
:100E20009B83AC83BD8326E636E646E655E46A81BD
:100E30007B818C819D810E94FB24DC01CB018E8310
:100E40009F83A887B98720E030E040E85FE36E81A8
:100E50007F81888599850E94AD2388232CF481E0C9
:100E600090E09B878A873FC020E03FEF4FE757E441
:100E70006E817F81888599850E94F72418164CF52C
:100E800020E030E040E251E46A817B818C819D81E9
:100E90000E94FB24DC01CB01BC01CD010E9419247E
:100EA000DC01CB019B878A870FC080E791E09D879B
:100EB0008C878C859D850197F1F79D878C878A8526
:100EC0009B8501979B878A878A859B85009769F711
:100ED00014C06E817F81888599850E941924DC0168
:100EE000CB019B878A878A859B859F878E878E8586
:100EF0009F850197F1F79F878E8788E290E028E22F
:100F000030E0F90120812B7FFC0120838E8D8F70D2
:100F10008E8F8E8D8295807F8E8F88E290E028E282
:100F200030E0F90120812F70FC01208388E290E0FD
:100F300028E230E0F90130812E8D232BFC01208343
:100F400088E290E028E230E0F90120812E7FFC0168
:100F5000208388E290E028E230E0F90120812D7FB3
:100F6000FC01208388E290E028E230E0F901208152
:100F70002460FC01208380E090E0A0EAB0E4888B4C
:100F8000998BAA8BBB8B26E636E646E655E4688944
:100F900079898A899B890E94FB24DC01CB018C8B97
:100FA0009D8BAE8BBF8B20E030E040E85FE36C8927
:100FB0007D898E899F890E94AD2388232CF481E04E
:100FC00090E0998F888F3FC020E03FEF4FE757E4D4
:100FD0006C897D898E899F890E94F72418164CF5AB
:100FE00020E030E040E251E4688979898A899B8970
:100FF0000E94FB24DC01CB01BC01CD010E9419241D
:10100000DC01CB01998F888F0FC080E791E09B8F27
:101010008A8F8A8D9B8D0197F1F79B8F8A8F888DA0
:10102000998D0197998F888F888D998D009769F791
:1010300014C06C897D898E899F890E941924DC01E6
:10104000CB01998F888F888D998D9D8F8C8F8C8DFA
:101050009D8D0197F1F79D8F8C8F88E290E028E2BB
:1010600030E0F90120812B7FFC0120836E960FB6C2
:10107000F894DEBF0FBECDBFDF91CF910895CF931F
:10108000DF93CDB7DEB76E970FB6F894DEBF0FBE15
:10109000CDBF8E8F8E8D89838981807F898388E201
:1010A00090E028E230E0F90120812F70FC012083DC
:1010B00088E290E028E230E0F90130812981232B99
:1010C000FC01208388E290E028E230E0F9012081F1
:1010D0002160FC01208388E290E028E230E0F90101
:1010E00020812D7FFC01208388E290E028E230E01F
:1010F000F90120812460FC01208380E090E0A0EAD7
:10110000B0E48A839B83AC83BD8326E636E646E65D
:1011100055E46A817B818C819D810E94FB24DC01E6
:10112000CB018E839F83A887B98720E030E040E819
:101130005FE36E817F81888599850E94AD23882336
:101140002CF481E090E09B878A873FC020E03FEF4E
:101150004FE757E46E817F81888599850E94F72447
:1011600018164CF520E030E040E251E46A817B81C2
:101170008C819D810E94FB24DC01CB01BC01CD014F
:101180000E941924DC01CB019B878A870FC080E76E
:1011900091E09D878C878C859D850197F1F79D87D0
:1011A0008C878A859B8501979B878A878A859B8503
:1011B000009769F714C06E817F81888599850E94A8
:1011C0001924DC01CB019B878A878A859B859F87B1
:1011D0008E878E859F850197F1F79F878E8788E29E
:1011E00090E028E230E0F90120812B7FFC01208390
:1011F0008E8D8F708E8F8E8D8295807F8E8F88E200
:1012000090E028E230E0F90120812F70FC0120837A
:1012100088E290E028E230E0F90130812E8D232B26
:10122000FC01208388E290E028E230E0F90120818F
:101230002160FC01208388E290E028E230E0F9019F
:1012400020812D7FFC01208388E290E028E230E0BD
:10125000F90120812460FC01208380E090E0A0EA75
:10126000B0E4888B998BAA8BBB8B26E636E646E6E4
:1012700055E4688979898A899B890E94FB24DC016D
:10128000CB018C8B9D8BAE8BBF8B20E030E040E898
:101290005FE36C897D898E899F890E94AD238823B5
:1012A0002CF481E090E0998F888F3FC020E03FEFE1
:1012B0004FE757E46C897D898E899F890E94F724C6
:1012C00018164CF520E030E040E251E46889798955
:1012D0008A899B890E94FB24DC01CB01BC01CD01E2
:1012E0000E941924DC01CB01998F888F0FC080E701
:1012F00091E09B8F8A8F8A8D9B8D0197F1F79B8F51
:101300008A8F888D998D0197998F888F888D998D77
:10131000009769F714C06C897D898E899F890E9426
:101320001924DC01CB01998F888F888D998D9D8F31
:101330008C8F8C8D9D8D0197F1F79D8F8C8F88E21E
:1013400090E028E230E0F90120812B7FFC0120832E
:101350006E960FB6F894DEBF0FBECDBFDF91CF9172
:101360000895CF93DF93CDB7DEB780E816DDDF9128
:10137000CF910895CF93DF931F921F92CDB7DEB721
:101380009A8389830AC089819A81FC01808177DEF2
:1013900089819A8101969A83898389819A81FC0146
:1013A0008081882381F70F900F90DF91CF9108956E
:1013B000CF93DF931F921F92CDB7DEB789836A83E5
:1013C0008981882F90E08230910591F083309105DA
:1013D00024F48130910541F017C08330910561F00C
:1013E0008430910569F010C08A818158D6DC0CC028
:1013F0008A818154D2DC08C08A818D56CEDC04C03B
:101400008A818D52CADC00000F900F90DF91CF913E
:101410000895CF93DF93CDB7DEB727970FB6F89433
:10142000DEBF0FBECDBF8A836B835D834C833F835A
:101430002E8319828A81882319F08B81882311F4E5
:1014400090DF03C06B818A81B3DF8E819F818530FD
:10145000910519F089818130F9F48C819D819295F3
:1014600082958F7089279F7089279C01A7E4B3E03C
:101470000E9464259695879596958795969587956C
:10148000C0969093B3028093B2028091B202909181
:10149000B302F5DD81E089838E819F8184309105DF
:1014A00021F08981813009F03FC08C819D81969522
:1014B000879596958795969587959C01A5ECB0E2C2
:1014C0000E946425929582958F7089279F70892745
:1014D0009093B7028093B6024091B6025091B70242
:1014E0009A01ADECBCEC0E94642596958795969583
:1014F000879596958795880F991F9C01220F331F1A
:10150000220F331F820F931F9A01281B390BC90129
:10151000C0969093C5028093C4028091C4029091BA
:10152000C502ADDD81E089838E819F818330910585
:1015300019F089818130C9F58C819D8196958795B7
:10154000969587959C01ABE7B4E10E94642596953A
:1015500087959093B7028093B6024091B60250915E
:10156000B7029A01ADECBCEC0E9464259695879574
:101570009695879596958795880F991F9C01220FC0
:10158000331F220F331F820F931F9A01281B390B21
:10159000C901C0969093BE028093BD028091BD02A6
:1015A0009091BE026CDD81E089838E819F818230C3
:1015B000910519F089818130C9F58C819D819C014B
:1015C000ADECBCEC0E946425969587959695879521
:1015D000969587959093B7028093B6024091B60294
:1015E0005091B7029A01ADECBCEC0E94642596952F
:1015F00087959695879596958795880F991F9C0155
:10160000220F331F220F331F820F931F9A01281BB3
:10161000390BC901C0969093BC028093BB028091A4
:10162000BB029091BC022BDD81E089838E819F817A
:101630008130910519F08981813021F54C815D81DE
:101640009A01ADECBCEC0E94642596958795969521
:10165000879596958795880F991F9C01220F331FB8
:10166000220F331F820F931F9A01281B390BC901C8
:10167000C0969093C3028093C2028091C20290915F
:10168000C302FDDC8E819F818630910514F085E4D4
:10169000F6DC27960FB6F894DEBF0FBECDBFDF9104
:1016A000CF910895CF93DF93CDB7DEB781E890E077
:1016B000FC01108285E890E02CEFFC01208384E897
:1016C00090E021E0FC01208389E890E023E0FC0128
:1016D000208388E890E02FEFFC0120838BE890E0E6
:1016E00023E0FC0120838AE890E02FEFFC012083B7
:1016F0008DE890E023E0FC0120838CE890E02FEF60
:10170000FC01208387E890E023E0FC01208386E849
:1017100090E02FEFFC01208380E890E02BEAFC01B1
:10172000208382E890E0FC01108281E890E02CE0C8
:10173000FC012083DF91CF910895CF93DF93CDB744
:10174000DEB781E291E0FC01108285E291E02FEFAB
:10175000FC01208384E291E021E0FC01208389E206
:1017600091E0FC01108288E291E02FEFFC012083E0
:101770008BE291E0FC0110828AE291E02FEFFC0104
:1017800020838DE291E0FC0110828CE291E02FEF4A
:10179000FC01208380E291E029EAFC01208381E2C0
:1017A00091E02BE0FC012083DF91CF910895CF934E
:1017B000DF93CDB7DEB783E390E023E330E0F901B8
:1017C00020812860FC01208384E390E024E330E062
:1017D000F9012081277FFC012083DF91CF910895BB
:1017E000CF93DF93CDB7DEB781E290E021E230E026
:1017F000F90120812F60FC01208382E290E022E247
:1018000030E0F9012081207FFC0120838AE091E013
:101810002AE031E0F90120812861FC0120838BE07E
:1018200091E02BE031E0F90120812861FC01208367
:10183000DF91CF910895CF93DF93CDB7DEB78DE2DF
:1018400090E02DE230E0F90120812F7EFC01208321
:101850008EE290E02EE230E0F90120812061FC016F
:101860002083DF91CF910895CF93DF93CDB7DEB77B
:101870008DE290E02DE230E0F90120812F7DFC0126
:1018800020838EE290E02EE230E0F9012081206298
:10189000FC012083DF91CF910895CF93DF93CDB7E3
:1018A000DEB7F8948AE690E02AE630E0F90120817C
:1018B0002260FC0120838DE390E02DE330E0F9010C
:1018C00020812061FC0120837894DF91CF910895DD
:1018D000CF93DF93CDB7DEB7F8948AE690E02AE69F
:1018E00030E0F90120812860FC0120838DE390E045
:1018F0002DE330E0F90120812062FC0120837894FF
:10190000DF91CF910895CF93DF93CDB7DEB784E217
:1019100090E024E230E0F90120812062FC01208384
:1019200085E290E025E230E0F90120812062FC01AF
:101930002083DF91CF910895CF93DF93CDB7DEB7AA
:1019400084E290E024E230E0F90120812064FC018F
:10195000208385E290E025E230E0F90120812064D7
:10196000FC012083DF91CF910895CF93DF93CDB712
:10197000DEB784E290E024E230E0F90120812068C3
:10198000FC01208385E290E025E230E0F90120812E
:101990002068FC012083DF91CF910895CF93DF93DE
:1019A000CDB7DEB781E091E0FC01808181E091E07C
:1019B0002FEFFC01208382E091E022E031E0F90189
:1019C00020812E7FFC012083DF91CF910895CF935A
:1019D000DF93CDB7DEB780E390E0FC01108281E3B6
:1019E00090E0FC01108287E091E0FC01108288E029
:1019F00091E0FC011082DF91CF910895CF93DF93A6
:101A0000CDB7DEB7D4DEECDE16DF2EDF46DF60DFDB
:101A10007ADF92DFAADFC2DF0E949E00D8DFDF916B
:101A2000CF9108951F920F9200905F000F921124A2
:101A30008F939F93AF93BF93CF93DF93CDB7DEB7D1
:101A40008091AC029091AD02A091AE02B091AF0234
:101A50000196A11DB11D8093AC029093AD02A0939D
:101A6000AE02B093AF02DF91CF91BF91AF919F9142
:101A70008F910F9000925F000F901F9018951F920A
:101A80000F9200905F000F9211248F939F93AF935A
:101A9000BF93CF93DF93CDB7DEB78091A80290912B
:101AA000A902A091AA02B091AB020196A11DB11D9D
:101AB0008093A8029093A902A093AA02B093AB02CC
:101AC000DF91CF91BF91AF919F918F910F90009235
:101AD0005F000F901F901895CF93DF931F921F9276
:101AE000CDB7DEB78A8319828A818F708A8382E2BA
:101AF00090E0FC01808189838981807F898399813D
:101B00008A81892B898382E290E02981FC012083EC
:101B10000F900F90DF91CF910895CF93DF93CDB7C2
:101B2000DEB786E0D9DFDF91CF910895CF93DF93C1
:101B3000CDB7DEB789E0D0DFDF91CF910895CF93A5
:101B4000DF93CDB7DEB785E0C7DFDF91CF91089592
:101B5000CF93DF93CDB7DEB78AE0BEDFDF91CF91C1
:101B60000895CF93DF93CDB7DEB784E0B5DFDF9183
:101B7000CF910895CF93DF93CDB7DEB782E0ACDF8E
:101B8000DF91CF910895CF93DF93CDB7DEB780E09B
:101B9000A3DFDF91CF910895CF93DF931F921F9220
:101BA000CDB7DEB789836A8388E291E02981FC01A1
:101BB00020838AE291E02A81FC0120830F900F901C
:101BC000DF91CF9108950F931F93CF93DF9300D0B0
:101BD0001F921F92CDB7DEB78D8319821A821B82A6
:101BE0001C828D81882F90E0A0E0B0E0BC01CD0187
:101BF0000E944524DC01CB012BE734E14EEE5FE38C
:101C0000BC01CD010E94B123DC01CB0120E030E01A
:101C10004CE052E4BC01CD010E944923DC01CB0120
:101C200089839A83AB83BC8389E890E0FC011082AE
:101C300008E810E069817A818B819C810E941924D7
:101C4000DC01CB01F80180830F900F900F900F9073
:101C50000F90DF91CF911F910F9108950F931F93D4
:101C6000CF93DF9300D01F921F92CDB7DEB78D8345
:101C700019821A821B821C828D81882F90E0A0E03D
:101C8000B0E0BC01CD010E944524DC01CB012BE773
:101C900034E14EEE5FE3BC01CD010E94B123DC01D3
:101CA000CB0120E030E04CE052E4BC01CD010E94C9
:101CB0004923DC01CB0189839A83AB83BC838BE806
:101CC00090E0FC0110820AE810E069817A818B8142
:101CD0009C810E941924DC01CB01F80180830F90C4
:101CE0000F900F900F900F90DF91CF911F910F9158
:101CF00008950F931F93CF93DF93CDB7DEB763970C
:101D00000FB6F894DEBF0FBECDBF8B8B82E091E0A3
:101D100022E031E0F90120812160FC01208380E094
:101D200090E0A0EAB1E48D839E83AF83B88726E676
:101D300036E646E655E46D817E818F8198850E9466
:101D4000FB24DC01CB0189879A87AB87BC8720E025
:101D500030E040E85FE369857A858B859C850E9449
:101D6000AD2388232CF481E090E09E878D873FC0CF
:101D700020E03FEF4FE757E469857A858B859C85A6
:101D80000E94F72418164CF520E030E040E251E4C0
:101D90006D817E818F8198850E94FB24DC01CB01BF
:101DA000BC01CD010E941924DC01CB019E878D87E7
:101DB0000FC080E791E0988B8F878F859889019776
:101DC000F1F7988B8F878D859E8501979E878D87EC
:101DD0008D859E85009769F714C069857A858B8506
:101DE0009C850E941924DC01CB019E878D878D85FF
:101DF0009E859A8B898B89899A890197F1F79A8BAD
:101E0000898B19821A821B821C828B89882F90E011
:101E1000A0E0B0E0BC01CD010E944524DC01CB0173
:101E20002BE734E14EEE5FE3BC01CD010E94B1230C
:101E3000DC01CB0120E030E04CE052E4BC01CD01FC
:101E40000E944923DC01CB0189839A83AB83BC8345
:101E50008DE890E0FC0110820CE810E069817A8145
:101E60008B819C810E941924DC01CB01F8018083C5
:101E700063960FB6F894DEBF0FBECDBFDF91CF9152
:101E80001F910F910895CF93DF93CDB7DEB789E807
:101E900090E023E0FC01208388E890E02FEFFC0134
:101EA0002083DF91CF910895CF93DF93CDB7DEB735
:101EB0008BE890E023E0FC0120838AE890E02FEF9C
:101EC000FC012083DF91CF910895CF93DF93CDB7AD
:101ED000DEB78DE890E023E0FC0120838CE890E001
:101EE0002FEFFC012083DF91CF910895CF93DF93F3
:101EF0001F921F92CDB7DEB78A838A81883028F07F
:101F00008BE790E028E0FC0120838A8187708A8338
:101F10008CE790E02A812062FC0120838AE790E030
:101F20002AE730E0F90120812064FC0120830000D1
:101F30008AE790E0FC018081882F90E080719927EA
:101F40000097B1F389E790E0FC01808189838AE7FB
:101F500090E02AE730E0F90120812061FC01208334
:101F60008BE790E0FC01108289810F900F90DF9148
:101F7000CF910895CF93DF931F921F92CDB7DEB715
:101F80009A8389830E943D0689819A81AA2797FDB9
:101F9000A095BA2F41E050E029E030E0841B950B7A
:101FA0002817390708F456C08E589F4FFC010C942F
:101FB0005E2563E081E0FCD983E092E0DBD94AC092
:101FC00063E081E0F5D981E192E0D4D943C063E0D8
:101FD00081E0EED98FE192E0CDD93CC063E081E0B1
:101FE000E7D987E292E0C6D935C063E081E0E0D965
:101FF0008BE392E0BFD92EC063E081E0D9D98EE4B3
:1020000092E0B8D927C063E081E0D2D984E692E0BB
:10201000B1D920C067E081E0CBD989E792E0AAD9A5
:1020200063E082E0C5D98FE792E0A4D913C066E0EF
:1020300081E0BED989E892E09DD963E082E0B8D919
:1020400080E992E097D906C063E081E0B1D98EE9DA
:1020500092E090D90F900F90DF91CF9108950F9358
:102060001F93CF93DF93CDB7DEB7C256D1090FB61A
:10207000F894DEBF0FBECDBF80E090E0AAEFB3E4DE
:1020800089839A83AB83BC8326E636E646E655E42D
:1020900069817A818B819C810E94FB24DC01CB01C8
:1020A0008D839E83AF83B88720E030E040E85FE314
:1020B0006D817E818F8198850E94AD2388232CF4C9
:1020C00081E090E09A8789873FC020E03FEF4FE7AB
:1020D00057E46D817E818F8198850E94F7241816C0
:1020E0004CF520E030E040E251E469817A818B8157
:1020F0009C810E94FB24DC01CB01BC01CD010E942C
:102100001924DC01CB019A8789870FC080E791E011
:102110009C878B878B859C850197F1F79C878B87A4
:1021200089859A8501979A87898789859A850097F5
:1021300069F714C06D817E818F8198850E94192472
:10214000DC01CB019A87898789859A859E878D874F
:102150008D859E850197F1F79E878D8780E033DD21
:1021600080E090E0AAE7B4E48F87988BA98BBA8BC4
:1021700026E636E646E655E46F85788989899A89A8
:102180000E94FB24DC01CB018B8B9C8BAD8BBE8B27
:1021900020E030E040E85FE36B897C898D899E898F
:1021A0000E94AD2388232CF481E090E0988F8F8BE0
:1021B0003FC020E03FEF4FE757E46B897C898D8972
:1021C0009E890E94F72418164CF520E030E040E28A
:1021D00051E46F85788989899A890E94FB24DC0102
:1021E000CB01BC01CD010E941924DC01CB01988FE9
:1021F0008F8B0FC080E791E09A8F898F898D9A8DA0
:102200000197F1F79A8F898F8F89988D0197988F11
:102210008F8B8F89988D009769F714C06B897C89A3
:102220008D899E890E941924DC01CB01988F8F8BA8
:102230008F89988D9C8F8B8F8B8D9C8D0197F1F75B
:102240009C8F8B8F20DE8EE154DD80E090E8ABE345
:10225000B4E48D8F9E8FAF8FB8A326E636E646E6B0
:1022600055E46D8D7E8D8F8D98A10E94FB24DC013D
:10227000CB0189A39AA3ABA3BCA320E030E040E844
:102280005FE369A17AA18BA19CA10E94AD23882361
:102290002CF481E090E09EA38DA33FC020E03FEFAF
:1022A0004FE757E469A17AA18BA19CA10E94F72472
:1022B00018164CF520E030E040E251E46D8D7E8D43
:1022C0008F8D98A10E94FB24DC01CB01BC01CD01C4
:1022D0000E941924DC01CB019EA38DA30FC080E7CF
:1022E00091E098A78FA38FA198A50197F1F798A7E0
:1022F0008FA38DA19EA101979EA38DA38DA19EA1C9
:10230000009769F714C069A17AA18BA19CA10E94D2
:102310001924DC01CB019EA38DA38DA19EA19AA7B8
:1023200089A789A59AA50197F1F79AA789A78DE2B0
:1023300095DC80E090E0AAE7B4E48BA79CA7ADA76A
:10234000BEA726E636E646E655E46BA57CA58DA538
:102350009EA50E94FB24DC01CB018FA798ABA9AB03
:10236000BAAB20E030E040E85FE36FA578A989A927
:102370009AA90E94AD2388232CF481E090E09CABC5
:102380008BAB3FC020E03FEF4FE757E46FA578A944
:1023900089A99AA90E94F72418164CF520E030E08C
:1023A00040E251E46BA57CA58DA59EA50E94FB246F
:1023B000DC01CB01BC01CD010E941924DC01CB0161
:1023C0009CAB8BAB0FC080E791E09EAB8DAB8DA932
:1023D0009EA90197F1F79EAB8DAB8BA99CA90197A4
:1023E0009CAB8BAB8BA99CA9009769F714C06FA518
:1023F00078A989A99AA90E941924DC01CB019CAB78
:102400008BAB8BA99CA998AF8FAB8FA998AD019787
:10241000F1F798AF8FAB89E66CDC80E090E8ABE336
:10242000B4E489AF9AAFABAFBCAF26E636E646E67A
:1024300055E469AD7AAD8BAD9CAD0E94FB24DC0107
:10244000CB019E01235C3F4FF90180839183A283DE
:10245000B38320E030E040E85FE3CE01CD96FC019D
:1024600060817181828193810E94AD2388234CF425
:10247000CE018F5B9F4F21E030E0FC013183208350
:1024800067C020E03FEF4FE757E4CE01CD96FC0157
:1024900060817181828193810E94F72418160CF06B
:1024A00046C020E030E040E251E469AD7AAD8BAD4A
:1024B0009CAD0E94FB24DC01CB018E010F5B1F4F02
:1024C000BC01CD010E941924DC01CB01F8019183EC
:1024D000808324C0CE018D5B9F4F20E731E0FC015B
:1024E00031832083CE018D5B9F4FFC0180819181E0
:1024F0000197F1F79E012D5B3F4FF9019183808396
:10250000CE018F5B9F4F9E012F5B3F4FF9012081D2
:10251000318121503109FC0131832083CE018F5B51
:102520009F4FFC01808191810097A1F62BC08E0105
:102530000F5B1F4FCE01CD96FC01608171818281BE
:1025400093810E941924DC01CB01F80191838083DF
:10255000CE018B5B9F4F9E012F5B3F4FF901208186
:102560003181FC0131832083CE018B5B9F4FFC01C5
:10257000808191810197F1F79E012B5B3F4FF9011B
:1025800091838083A2DC80E069DB9E01295B3F4F61
:1025900080E090E0AAE7B4E4F90180839183A2830C
:1025A000B3838E01055B1F4FCE01895B9F4F26E6EB
:1025B00036E646E655E4FC016081718182819381B3
:1025C0000E94FB24DC01CB01F80180839183A2836C
:1025D000B383CE01855B9F4F20E030E040E85FE3AE
:1025E000FC0160817181828193810E94AD238823E7
:1025F0004CF4CE01815B9F4F21E030E0FC01318340
:1026000020836DC0CE01855B9F4F20E03FEF4FE7F9
:1026100057E4FC0160817181828193810E94F724DB
:1026200018160CF04AC0CE01895B9F4F20E030E0C5
:1026300040E251E4FC0160817181828193810E94BA
:10264000FB24DC01CB018E01015B1F4FBC01CD01DE
:102650000E941924DC01CB01F8019183808324C0FE
:10266000CE018F5A9F4F20E731E0FC013183208358
:10267000CE018F5A9F4FFC01808191810197F1F724
:102680009E012F5A3F4FF90191838083CE01815BD8
:102690009F4F9E01215B3F4FF901208131812150E5
:1026A0003109FC0131832083CE01815B9F4FFC0106
:1026B000808191810097A1F62CC08E01015B1F4F94
:1026C000CE01855B9F4FFC01608171818281938186
:1026D0000E941924DC01CB01F80191838083CE0193
:1026E0008D5A9F4F9E01215B3F4FF901208131811F
:1026F000FC0131832083CE018D5A9F4FFC018081E4
:1027000091810197F1F79E012D5A3F4FF901918375
:102710008083CADB8FE557DA9E012B5A3F4F80E05A
:1027200090E0AAE7B4E4F90180839183A283B383A4
:102730008E01075A1F4FCE018B5A9F4F26E636E671
:1027400046E655E4FC0160817181828193810E949B
:10275000FB24DC01CB01F80180839183A283B38346
:10276000CE01875A9F4F20E030E040E85FE3FC0154
:1027700060817181828193810E94AD2388234CF412
:10278000CE01835A9F4F21E030E0FC01318320834A
:102790006DC0CE01875A9F4F20E03FEF4FE757E4CF
:1027A000FC0160817181828193810E94F724181657
:1027B0000CF04AC0CE018B5A9F4F20E030E040E23F
:1027C00051E4FC0160817181828193810E94FB242C
:1027D000DC01CB018E01035A1F4FBC01CD010E94C9
:1027E0001924DC01CB01F8019183808324C0CE0140
:1027F000815A9F4F20E731E0FC0131832083CE01D5
:10280000815A9F4FFC01808191810197F1F79E01D0
:10281000215A3F4FF90191838083CE01835A9F4F04
:102820009E01235A3F4FF901208131812150310906
:10283000FC0131832083CE01835A9F4FFC018081AC
:1028400091810097A1F62CC08E01035A1F4FCE0133
:10285000875A9F4FFC0160817181828193810E9420
:102860001924DC01CB01F80191838083CE018F59BB
:102870009F4F9E01235A3F4FF90120813181FC0176
:1028800031832083CE018F599F4FFC01808191813C
:102890000197F1F79E012F593F4FF90191838083F2
:1028A000F2DACE59DF4F0FB6F894DEBF0FBECDBFC0
:1028B000DF91CF911F910F910895CF93DF93CDB703
:1028C000DEB7E8970FB6F894DEBF0FBECDBF82E04B
:1028D00090E050DB2BD99091000280910002692F8B
:1028E0005BD980E090E0AAEFB3E489839A83AB835D
:1028F000BC8326E636E646E655E469817A818B811B
:102900009C810E94FB24DC01CB018D839E83AF83DD
:10291000B88720E030E040E85FE36D817E818F8101
:1029200098850E94AD2388232CF481E090E09A875B
:1029300089873FC020E03FEF4FE757E46D817E81FC
:102940008F8198850E94F72418164CF520E030E01E
:1029500040E251E469817A818B819C810E94FB2451
:10296000DC01CB01BC01CD010E941924DC01CB01AB
:102970009A8789870FC080E791E09C878B878B853A
:102980009C850197F1F79C878B8789859A850197AC
:102990009A87898789859A85009769F714C06D8120
:1029A0007E818F8198850E941924DC01CB019A8752
:1029B000898789859A859E878D878D859E850197D4
:1029C000F1F79E878D878BE091DA8093BF0280912B
:1029D000BF02833708F483C08091BF02833808F0B8
:1029E0007EC0A4D888E291E02CEDFC0120838AE22D
:1029F00091E02CEDFC01208380E090E0A4E3B2E4C0
:102A00008F87988BA98BBA8B26E636E646E655E487
:102A10006F85788989899A890E94FB24DC01CB0122
:102A20008B8B9C8BAD8BBE8B20E030E040E85FE36E
:102A30006B897C898D899E890E94AD2388232CF423
:102A400081E090E0988F8F8B3FC020E03FEF4FE711
:102A500057E46B897C898D899E890E94F72418161A
:102A60004CF520E030E040E251E46F8578898989B7
:102A70009A890E94FB24DC01CB01BC01CD010E949C
:102A80001924DC01CB01988F8F8B0FC080E791E078
:102A90009A8F898F898D9A8D0197F1F79A8F898FF7
:102AA0008F89988D0197988F8F8B8F89988D00973C
:102AB00069F726C16B897C898D899E890E941924BA
:102AC000DC01CB01988F8F8B8F89988D9C8F8B8F9A
:102AD0008B8D9C8D0197F1F79C8F8B8F11C180910D
:102AE000BF02833808F47EC03CD888E291E025E735
:102AF000FC0120838AE291E02FE6FC01208380E044
:102B000090E0A0E0B0E48D8F9E8FAF8FB8A326E653
:102B100036E646E655E46D8D7E8D8F8D98A10E9438
:102B2000FB24DC01CB0189A39AA3ABA3BCA320E0C7
:102B300030E040E85FE369A17AA18BA19CA10E94EB
:102B4000AD2388232CF481E090E09EA38DA33FC0A9
:102B500020E03FEF4FE757E469A17AA18BA19CA148
:102B60000E94F72418164CF520E030E040E251E4D2
:102B70006D8D7E8D8F8D98A10E94FB24DC01CB0191
:102B8000BC01CD010E941924DC01CB019EA38DA3C1
:102B90000FC080E791E098A78FA38FA198A5019718
:102BA000F1F798A78FA38DA19EA101979EA38DA356
:102BB0008DA19EA1009769F7A3C069A17AA18BA1FD
:102BC0009CA10E941924DC01CB019EA38DA38DA1A1
:102BD0009EA19AA789A789A59AA50197F1F79AA717
:102BE00089A7F1CE8091BF02833708F084C080911D
:102BF000BF02813508F47FC00E94BA0D88E291E0DF
:102C000022E7FC0120838AE291E025E7FC01208392
:102C100080E090E0A0E0B0E48BA79CA7ADA7BEA7A2
:102C200026E636E646E655E46BA57CA58DA59EA571
:102C30000E94FB24DC01CB018FA798ABA9ABBAABF8
:102C400020E030E040E85FE36FA578A989A99AA960
:102C50000E94AD2388232CF481E090E09CAB8BABE9
:102C60003FC020E03FEF4FE757E46FA578A989A95F
:102C70009AA90E94F72418164CF520E030E040E2B3
:102C800051E46BA57CA58DA59EA50E94FB24DC01CB
:102C9000CB01BC01CD010E941924DC01CB019CAB0E
:102CA0008BAB0FC080E791E09EAB8DAB8DA99EA949
:102CB0000197F1F79EAB8DAB8BA99CA901979CABBB
:102CC0008BAB8BA99CA9009769F71AC06FA578A94F
:102CD00089A99AA90E941924DC01CB019CAB8BAB7A
:102CE0008BA99CA998AF8FAB8FA998AD0197F1F7ED
:102CF00098AF8FAB05C08091BF02803508F401C04A
:102D000062CE61E070E080E090E009D0E8960FB616
:102D1000F894DEBF0FBECDBFDF91CF910895CF9362
:102D2000DF93CDB7DEB7E0970FB6F894DEBF0FBEE6
:102D3000CDBF9EA78DA778AB6FA781E090E09A8367
:102D400089838CC281E090E015D90E94960D909104
:102D5000000280910002692F0E94CC0D81E0C6D84C
:102D60008093C00282E0C2D88093B50283E0BED8CF
:102D70008093B8028DA59EA58230910509F088C088
:102D80008091C002282F30E08091B502882F90E01A
:102D9000280F391F8091B802882F90E0820F931F6F
:102DA000893121E092070CF473C080E090E0A0EA42
:102DB000B2E48B839C83AD83BE8326E636E646E68B
:102DC00055E46B817C818D819E810E94FB24DC0116
:102DD000CB018F839887A987BA8720E030E040E84D
:102DE0005FE36F81788589859A850E94AD2388236A
:102DF0002CF481E090E09C878B873FC020E03FEF80
:102E00004FE757E46F81788589859A850E94F7247A
:102E100018164CF520E030E040E251E46B817C81F3
:102E20008D819E810E94FB24DC01CB01BC01CD0180
:102E30000E941924DC01CB019C878B870FC080E79F
:102E400091E09E878D878D859E850197F1F79E87FE
:102E50008D878B859C8501979C878B878B859C852F
:102E6000009769F7EAC16F81788589859A850E9404
:102E70001924DC01CB019C878B878B859C85988BE3
:102E80008F878F8598890197F1F7988B8F87D5C1A8
:102E90008DA59EA58330910509F07FC08091C00269
:102EA000893708F4C9C18091B802893708F4C4C1D0
:102EB0000E94C30D80E090E0A8ECB2E4898B9A8B6D
:102EC000AB8BBC8B26E636E646E655E469897A8903
:102ED0008B899C890E94FB24DC01CB018D8B9E8B0E
:102EE000AF8BB88F20E030E040E85FE36D897E89EA
:102EF0008F89988D0E94AD2388232CF481E090E087
:102F00009A8F898F3FC020E03FEF4FE757E46D89EC
:102F10007E898F89988D0E94F72418164CF520E041
:102F200030E040E251E469897A898B899C890E946A
:102F3000FB24DC01CB01BC01CD010E941924DC0182
:102F4000CB019A8F898F0FC080E791E09C8F8B8F88
:102F50008B8D9C8D0197F1F79C8F8B8F898D9A8D2E
:102F600001979A8F898F898D9A8D009769F765C12E
:102F70006D897E898F89988D0E941924DC01CB018F
:102F80009A8F898F898D9A8D9E8F8D8F8D8D9E8D35
:102F90000197F1F79E8F8D8F50C18DA59EA5813031
:102FA000910509F089C08BE00E94760F8093BF02E3
:102FB0008091BF028C3408F43FC18091C0028035FB
:102FC00008F03AC18091B802803508F035C10E94FE
:102FD000C30D80E090E0A8ECB2E48F8F98A3A9A382
:102FE000BAA326E636E646E655E46F8D78A189A1B8
:102FF0009AA10E94FB24DC01CB018BA39CA3ADA36F
:10300000BEA320E030E040E85FE36BA17CA18DA18E
:103010009EA10E94AD2388232CF481E090E098A724
:103020008FA33FC020E03FEF4FE757E46BA17CA1A7
:103030008DA19EA10E94F72418164CF520E030E0E7
:1030400040E251E46F8D78A189A19AA10E94FB24EE
:10305000DC01CB01BC01CD010E941924DC01CB01B4
:1030600098A78FA30FC080E791E09AA789A789A5A9
:103070009AA50197F1F79AA789A78FA198A501971B
:1030800098A78FA38FA198A5009769F7D6C06BA1C9
:103090007CA18DA19EA10E941924DC01CB0198A7DF
:1030A0008FA38FA198A59CA78BA78BA59CA5019703
:1030B000F1F79CA78BA7C1C08DA59EA50097A9F489
:1030C0008091C002282F30E08091B502882F90E0D7
:1030D000280F391F8091B802882F90E0820F931F2C
:1030E0008139E1E09E070CF0A8C08091C0028C33CA
:1030F000A8F48091B5028D3788F08091B8028C33A6
:1031000068F488E291E020910002FC0120838AE2C9
:1031100091E020910002FC0120838EC08091C002CA
:103120008832A8F48091B5028C3388F48091B8027B
:103130008D3868F088E291E020910002FC01208344
:103140008AE291E020910102FC01208375C0809108
:10315000B8028832A8F48091B5028C3388F480914B
:10316000C0028D3868F088E291E020910102FC01F4
:1031700020838AE291E020910002FC0120835CC060
:103180008091C002282F30E08091B502882F90E016
:10319000280F391F8091B802882F90E0820F931F6B
:1031A000883C9105DCF48091B5028333B8F08091BE
:1031B000B502843698F49091C0028091B8028917C4
:1031C00068F488E291E020910202FC0120838AE207
:1031D00091E020910002FC0120832EC08091C0026A
:1031E000282F30E08091B502882F90E0280F391FFA
:1031F0008091B802882F90E0820F931F883C910540
:10320000DCF48091B5028333B8F08091B502843646
:1032100098F49091C0028091B802981768F488E2FF
:1032200091E020910002FC0120838AE291E020914C
:103230000202FC01208392CD91CD8DA59EA5813007
:10324000910509F43ADB8DA59EA58330910509F41B
:103250001CD089819A8101969A83898329813A8138
:103260008FA598A9821793070CF06CCD82E290E0AD
:10327000FC0110820E94C30DE0960FB6F894DEBFE9
:103280000FBECDBFDF91CF9108950F931F93CF93C2
:10329000DF93CDB7DEB7C754D1090FB6F894DEBFC0
:1032A0000FBECDBF19828AE090E00E94BA0F8981DB
:1032B000882F90E022E030E0AC0167E082E00E94DD
:1032C000090A0E94960D9091000280910002692FD8
:1032D0000E94CC0D81E00E94760F8093C00282E0B4
:1032E0000E94760F8093B50283E00E94760F809350
:1032F000B8028091C002282F30E08091B502882F5B
:1033000090E0280F391F8091B802882F90E0820F3B
:10331000931F8A3421E092070CF075C18091B502A9
:103320008A3508F070C18981882309F06CC180E07A
:1033300090E0A8ECB2E48A839B83AC83BD8326E64D
:1033400036E646E655E46A817B818C819D810E9448
:10335000FB24DC01CB018E839F83A887B98720E003
:1033600030E040E85FE36E817F81888599850E9427
:10337000AD2388232CF481E090E09B878A873FC0AF
:1033800020E03FEF4FE757E46E817F818885998584
:103390000E94F72418164CF520E030E040E251E49A
:1033A0006A817B818C819D810E94FB24DC01CB01A1
:1033B000BC01CD010E941924DC01CB019B878A87C7
:1033C0000FC080E791E09D878C878C859D85019754
:1033D000F1F79D878C878A859B8501979B878A87D4
:1033E0008A859B85009769F714C06E817F818885E7
:1033F00099850E941924DC01CB019B878A878A85E5
:103400009B859F878E878E859F850197F1F79F8784
:103410008E8789818F5F89838981882F90E022E060
:1034200030E0AC0167E082E00E94090A0E948D0D45
:1034300080E090E0AAE7B3E4888B998BAA8BBB8BE2
:1034400026E636E646E655E4688979898A899B89C5
:103450000E94FB24DC01CB018C8B9D8BAE8BBF8B40
:1034600020E030E040E85FE36C897D898E899F89A8
:103470000E94AD2388232CF481E090E0998F888FFF
:103480003FC020E03FEF4FE757E46C897D898E898C
:103490009F890E94F72418164CF520E030E040E2A6
:1034A00051E4688979898A899B890E94FB24DC011F
:1034B000CB01BC01CD010E941924DC01CB01998F05
:1034C000888F0FC080E791E09B8F8A8F8A8D9B8DBC
:1034D0000197F1F79B8F8A8F888D998D0197998F2E
:1034E000888F888D998D009769F714C06C897D89C4
:1034F0008E899F890E941924DC01CB01998F888FC6
:10350000888D998D9D8F8C8F8C8D9D8D0197F1F776
:103510009D8F8C8F0E94C30D0E942F100E94960DCC
:1035200080E090E0A8ECB2E48E8F9F8FA8A3B9A3AF
:1035300026E636E646E655E46E8D7F8D88A199A194
:103540000E94FB24DC01CB018AA39BA3ACA3BDA3F7
:1035500020E030E040E85FE36AA17BA18CA19DA15F
:103560000E94AD2388232CF481E090E09FA38EA3DA
:103570003FC020E03FEF4FE757E46AA17BA18CA159
:103580009DA10E94F72418164CF520E030E040E29F
:1035900051E46E8D7F8D88A199A10E94FB24DC01EE
:1035A000CB01BC01CD010E941924DC01CB019FA3FA
:1035B0008EA30FC080E791E099A788A788A599A559
:1035C0000197F1F799A788A78EA19FA101979FA3C3
:1035D0008EA38EA19FA1009769F79DC16AA17BA1CF
:1035E0008CA19DA10E941924DC01CB019FA38EA375
:1035F0008EA19FA19BA78AA78AA59BA50197F1F7FA
:103600009BA78AA788C18091C002853BA8F08091C2
:10361000B502823888F48091B802853B68F088E270
:1036200091E020910002FC0120838AE291E0209148
:103630000002FC0120836FC18091C002803508F038
:103640008CC08091B502833808F487C08091B8029D
:10365000873908F482C00E94BA0D88E291E0209177
:1036600001022253FC0120838AE291E020910002B2
:10367000FC01208380E090E0A0E8BFE38CA79DA739
:10368000AEA7BFA726E636E646E655E46CA57DA5BF
:103690008EA59FA50E94FB24DC01CB0188AB99ABD2
:1036A000AAABBBAB20E030E040E85FE368A979A9B2
:1036B0008AA99BA90E94AD2388232CF481E090E085
:1036C0009DAB8CAB3FC020E03FEF4FE757E468A9CC
:1036D00079A98AA99BA90E94F72418164CF520E025
:1036E00030E040E251E46CA57DA58EA59FA50E9427
:1036F000FB24DC01CB01BC01CD010E941924DC01BB
:10370000CB019DAB8CAB0FC080E791E09FAB8EAB44
:103710008EA99FA90197F1F79FAB8EAB8CA99DA9AC
:1037200001979DAB8CAB8CA99DA9009769F7F3C05D
:1037300068A979A98AA99BA90E941924DC01CB0157
:103740009DAB8CAB8CA99DA999AF88AF88AD99AD85
:103750000197F1F799AF88AFDEC08091B802863942
:1037600008F0CCC08091B502833808F4C7C08091BE
:10377000C002813508F4C2C00E94B10D88E291E018
:1037800020910002FC0120838AE291E02091010255
:103790002253FC01208380E090E0A0E8BFE38AAFE1
:1037A0009BAFACAFBDAF8E01025C1F4F26E636E685
:1037B00046E655E46AAD7BAD8CAD9DAD0E94FB2421
:1037C000DC01CB01F80180839183A283B383CE0116
:1037D000CE9620E030E040E85FE3FC01608171813B
:1037E00082819381BAD788234CF4CE018E5B9F4FA0
:1037F00021E030E0FC013183208365C0CE01CE960C
:1038000020E03FEF4FE757E4FC0160817181828146
:1038100093810E94F72418160CF045C020E030E098
:1038200040E251E46AAD7BAD8CAD9DAD0E94FB24BE
:10383000DC01CB018E010E5B1F4FBC01CD01F9D71E
:10384000DC01CB01F8019183808324C0CE018C5B25
:103850009F4F20E731E0FC0131832083CE018C5B58
:103860009F4FFC01808191810197F1F79E012C5BB4
:103870003F4FF90191838083CE018E5B9F4F9E0164
:103880002E5B3F4FF9012081318121503109FC012C
:1038900031832083CE018E5B9F4FFC01808191811B
:1038A0000097A1F638C08E010E5B1F4FCE01CE9659
:1038B000FC016081718182819381BBD7DC01CB01E6
:1038C000F80191838083CE018A5B9F4F9E012E5B1E
:1038D0003F4FF90120813181FC0131832083CE01EA
:1038E0008A5B9F4FFC01808191810197F1F79E01D6
:1038F0002A5B3F4FF901918380830DC08091B8020C
:10390000843648F48091B502853628F08091C00253
:10391000843608F401C0D5CC61E070E082E090E02C
:10392000FED9C95BDF4F0FB6F894DEBF0FBECDBF27
:10393000DF91CF911F910F910895CF93DF93CDB772
:10394000DEB7E8970FB6F894DEBF0FBECDBF81E0BB
:103950000E94760F8093C00282E00E94760F8093CF
:10396000B50283E00E94760F8093B8028091C00276
:10397000873968F08091B502873448F48091B802A5
:10398000863928F482E290E0FC011082EDC188E2E1
:1039900091E02BE9FC0120838AE291E02BE9FC0114
:1039A00020830E94C30D80E090E0A0E2B1E489830F
:1039B0009A83AB83BC8326E636E646E655E4698106
:1039C0007A818B819C810E94FB24DC01CB018D8359
:1039D0009E83AF83B88720E030E040E85FE36D81ED
:1039E0007E818F819885B9D688232CF481E090E080
:1039F0009A8789873BC020E03FEF4FE757E46D810E
:103A00007E818F819885F3D718163CF520E030E051
:103A100040E251E469817A818B819C81ECD7DC01A1
:103A2000CB01BC01CD0105D7DC01CB019A87898789
:103A30000FC080E791E09C878B878B859C850197E1
:103A4000F1F79C878B8789859A8501979A87898763
:103A500089859A85009769F713C06D817E818F8172
:103A60009885E7D6DC01CB019A87898789859A8575
:103A70009E878D878D859E850197F1F79E878D871F
:103A80000E949F0D80E090E0AAE7B3E48F87988BB7
:103A9000A98BBA8B26E636E646E655E46F8578892B
:103AA00089899A89A8D7DC01CB018B8B9C8BAD8B44
:103AB000BE8B20E030E040E85FE36B897C898D8934
:103AC0009E894BD688232CF481E090E0988F8F8BD1
:103AD0003BC020E03FEF4FE757E46B897C898D893D
:103AE0009E8985D718163CF520E030E040E251E48D
:103AF0006F85788989899A897ED7DC01CB01BC01E1
:103B0000CD0197D6DC01CB01988F8F8B0FC080E75A
:103B100091E09A8F898F898D9A8D0197F1F79A8F0D
:103B2000898F8F89988D0197988F8F8B8F89988D2A
:103B3000009769F713C06B897C898D899E8979D636
:103B4000DC01CB01988F8F8B8F89988D9C8F8B8F09
:103B50008B8D9C8D0197F1F79C8F8B8F0E94C30DED
:103B60000E94A80D88E291E024E6FC0120838AE20D
:103B700091E024E6FC01208381E00E94760F80938F
:103B8000B5028091B502873450F582E290E0FC01E5
:103B9000108200000E94A80D80E090E0A0EFB1E448
:103BA0008D8F9E8FAF8FB8A326E636E646E655E4A6
:103BB0006D8D7E8D8F8D98A11ED7DC01CB0189A3E1
:103BC0009AA3ABA3BCA320E030E040E85FE369A187
:103BD0007AA18BA19CA1C1D5882314F006C0CCCFBB
:103BE00081E090E09EA38DA33BC020E03FEF4FE734
:103BF00057E469A17AA18BA19CA1F9D618163CF5CE
:103C000020E030E040E251E46D8D7E8D8F8D98A1F3
:103C1000F2D6DC01CB01BC01CD010BD6DC01CB011E
:103C20009EA38DA30FC080E791E098A78FA38FA1DB
:103C300098A50197F1F798A78FA38DA19EA1019751
:103C40009EA38DA38DA19EA1009769F713C069A1C2
:103C50007AA18BA19CA1EDD5DC01CB019EA38DA304
:103C60008DA19EA19AA789A789A59AA50197F1F789
:103C70009AA789A70E94C30D80E090E0A8E4B3E46E
:103C80008BA79CA7ADA7BEA726E636E646E655E479
:103C90006BA57CA58DA59EA5AED6DC01CB018FA71B
:103CA00098ABA9ABBAAB20E030E040E85FE36FA58A
:103CB00078A989A99AA951D588232CF481E090E0AC
:103CC0009CAB8BAB3BC020E03FEF4FE757E46FA5C9
:103CD00078A989A99AA98BD618163CF520E030E07E
:103CE00040E251E46BA57CA58DA59EA584D6DC01A0
:103CF000CB01BC01CD019DD5DC01CB019CAB8BABD5
:103D00000FC080E791E09EAB8DAB8DA99EA9019776
:103D1000F1F79EAB8DAB8BA99CA901979CAB8BABAC
:103D20008BA99CA9009769F713C06FA578A989A9E9
:103D30009AA97FD5DC01CB019CAB8BAB8BA99CA94D
:103D400098AF8FAB8FA998AD0197F1F798AF8FAB74
:103D500088E291E020910002FC0120838AE291E058
:103D600020910002FC012083E8960FB6F894DEBF94
:103D70000FBECDBFDF91CF9108950F931F93CF93C7
:103D8000DF93CDB7DEB7C654D1090FB6F894DEBFC6
:103D90000FBECDBF0E94960D80E090E0A8E4B3E492
:103DA00089839A83AB83BC8326E636E646E655E4F0
:103DB00069817A818B819C811ED6DC01CB018D8348
:103DC0009E83AF83B88720E030E040E85FE36D81F9
:103DD0007E818F819885C1D488232CF481E090E086
:103DE0009A8789873BC020E03FEF4FE757E46D811A
:103DF0007E818F819885FBD518163CF520E030E058
:103E000040E251E469817A818B819C81F4D5DC01A7
:103E1000CB01BC01CD010DD5DC01CB019A8789878F
:103E20000FC080E791E09C878B878B859C850197ED
:103E3000F1F79C878B8789859A8501979A8789876F
:103E400089859A85009769F713C06D817E818F817E
:103E50009885EFD4DC01CB019A87898789859A857B
:103E60009E878D878D859E850197F1F79E878D872B
:103E70000E94A80D80E090E0A8E4B3E48F87988BBF
:103E8000A98BBA8B26E636E646E655E46F85788937
:103E900089899A89B0D5DC01CB018B8B9C8BAD8B4A
:103EA000BE8B20E030E040E85FE36B897C898D8940
:103EB0009E8953D488232CF481E090E0988F8F8BD7
:103EC0003BC020E03FEF4FE757E46B897C898D8949
:103ED0009E898DD518163CF520E030E040E251E493
:103EE0006F85788989899A8986D5DC01CB01BC01E7
:103EF000CD019FD4DC01CB01988F8F8B0FC080E761
:103F000091E09A8F898F898D9A8D0197F1F79A8F19
:103F1000898F8F89988D0197988F8F8B8F89988D36
:103F2000009769F713C06B897C898D899E8981D43C
:103F3000DC01CB01988F8F8B8F89988D9C8F8B8F15
:103F40008B8D9C8D0197F1F79C8F8B8F0E94C30DF9
:103F500080E090E0A8E4B2E48D8F9E8FAF8FB8A38D
:103F600026E636E646E655E46D8D7E8D8F8D98A16A
:103F700042D5DC01CB0189A39AA3ABA3BCA320E06B
:103F800030E040E85FE369A17AA18BA19CA1E5D371
:103F900088232CF481E090E09EA38DA33BC020E019
:103FA0003FEF4FE757E469A17AA18BA19CA11FD5F0
:103FB00018163CF520E030E040E251E46D8D7E8D36
:103FC0008F8D98A118D5DC01CB01BC01CD0131D476
:103FD000DC01CB019EA38DA30FC080E791E098A7E1
:103FE0008FA38FA198A50197F1F798A78FA38DA113
:103FF0009EA101979EA38DA38DA19EA1009769F715
:1040000013C069A17AA18BA19CA113D4DC01CB01BF
:104010009EA38DA38DA19EA19AA789A789A59AA5E4
:104020000197F1F79AA789A70E94A80D88E291E06D
:1040300024E6FC0120838AE291E024E6FC0120834F
:1040400083E00E94760F8093B80282E00E94760F90
:104050008093B50281E00E94760F8093C002809128
:10406000C002803570F18091B502803550F582E252
:1040700090E0FC01108200000E94A80D80E090E01A
:10408000A8E4B3E48BA79CA7ADA7BEA726E636E6B7
:1040900046E655E46BA57CA58DA59EA5ACD4DC01B8
:1040A000CB018FA798ABA9ABBAAB20E030E040E8DA
:1040B0005FE36FA578A989A99AA94FD3882314F043
:1040C00006C0BECF81E090E09CAB8BAB3BC020E054
:1040D0003FEF4FE757E46FA578A989A99AA987D43C
:1040E00018163CF520E030E040E251E46BA57CA5D9
:1040F0008DA59EA580D4DC01CB01BC01CD0199D357
:10410000DC01CB019CAB8BAB0FC080E791E09EAB99
:104110008DAB8DA99EA90197F1F79EAB8DAB8BA9B5
:104120009CA901979CAB8BAB8BA99CA9009769F7C5
:1041300013C06FA578A989A99AA97BD3DC01CB010B
:104140009CAB8BAB8BA99CA998AF8FAB8FA998AD7B
:104150000197F1F798AF8FAB0E94C30D80E090E01C
:10416000A8E4B3E489AF9AAFABAFBCAF26E636E6BE
:1041700046E655E469AD7AAD8BAD9CAD3CD4DC012F
:10418000CB019E01235C3F4FF90180839183A28381
:10419000B38320E030E040E85FE3CE01CD96FC0140
:1041A0006081718182819381D8D288234CF4CE01C1
:1041B0008F5B9F4F21E030E0FC013183208363C09F
:1041C00020E03FEF4FE757E4CE01CD96FC01608140
:1041D0007181828193810BD418160CF044C020E0C9
:1041E00030E040E251E469AD7AAD8BAD9CAD03D4D3
:1041F000DC01CB018E010F5B1F4FBC01CD0119D338
:10420000DC01CB01F8019183808324C0CE018D5B5A
:104210009F4F20E731E0FC0131832083CE018D5B8D
:104220009F4FFC01808191810197F1F79E012D5BE9
:104230003F4FF90191838083CE018F5B9F4F9E0199
:104240002F5B3F4FF9012081318121503109FC0161
:1042500031832083CE018F5B9F4FFC018081918150
:104260000097A1F62AC08E010F5B1F4FCE01CD969D
:10427000FC016081718182819381DBD2DC01CB0101
:10428000F80191838083CE018B5B9F4F9E012F5B52
:104290003F4FF90120813181FC0131832083CE0120
:1042A0008B5B9F4FFC01808191810197F1F79E010B
:1042B0002B5B3F4FF9019183808388E291E020914D
:1042C0000002FC0120838AE291E020910002FC01BF
:1042D000208333DBCA5BDF4F0FB6F894DEBF0FBE1F
:1042E000CDBFDF91CF911F910F910895CF93DF93B1
:1042F000CDB7DEB72A970FB6F894DEBF0FBECDBF9D
:104300009A87898719821A821B821C821D821E82CB
:104310001F82188689859A85CC01A0E0B0E0BC0197
:10432000CD01B3D2DC01CB012DE435E14CE050E40A
:10433000BC01CD0160D3DC01CB0189839A83AB83BF
:10434000BC8369817A818B819C8173D2DC01CB0132
:104350008D839E83AF83B8871092AC021092AD021A
:104360001092AE021092AF022091AC023091AD02D9
:104370004091AE025091AF028D819E81AF81B88590
:1043800082179307A407B50708F401C0EDCF0E9478
:10439000C30D2A960FB6F894DEBF0FBECDBFDF91D6
:1043A000CF910895CF93DF931F921F92CDB7DEB7C1
:1043B0009A8389830E94960D89819A8197DF0F9055
:1043C0000F90DF91CF910895CF93DF93CDB7DEB7F4
:1043D00028970FB6F894DEBF0FBECDBF8FE590E0F3
:1043E000E1DF0E94C30D0E94A80D68E788E70E94E4
:1043F000CC0D19821A821B821C821D821E821F8292
:1044000018868091B0029091B102CC01A0E0B0E09A
:10441000BC01CD013AD2DC01CB0128E431EE42E807
:1044200050E4BC01CD019DD1DC01CB0189839A838D
:10443000AB83BC8369817A818B819C81FAD1DC0159
:10444000CB01CC01A0E0B0E08D839E83AF83B88721
:104450001092AC021092AD021092AE021092AF0216
:104460001092A8021092A9021092AA021092AB0216
:104470002091AC023091AD024091AE025091AF025A
:1044800071E08D819E81AF81B885281739074A0771
:104490005B0708F470E02091A8023091A9024091D6
:1044A000AA025091AB0261E08D819E81AF81B885F7
:1044B000281739074A075B0708F460E0872F862B27
:1044C000882351F081E00E94760F8093C002809192
:1044D000C002813508F001C0CBCF0E94C30D2896E1
:1044E0000FB6F894DEBF0FBECDBFDF91CF91089518
:1044F000CF93DF93CDB7DEB78AE790E0FC0110825F
:104500008BE790E0FC0110828CE790E020E2FC0158
:10451000208380E590E020E8FC0120838AE790E09A
:1045200026E8FC012083DF91CF910895CF93DF939C
:10453000CDB7DEB7F8940E94FE0CDADF0E949D0B27
:104540000E94520B78940E94B7000E943D06DF91B2
:10455000CF910895CF93DF93CDB7DEB72E970FB6E7
:10456000F894DEBF0FBECDBFE1DF61E070E082E016
:1045700090E00E948F1601DC61E070E083E090E043
:104580000E948F160E94C30D1FDF0E948D0D80E0D8
:1045900090E0A8ECB2E489839A83AB83BC8326E6DF
:1045A00036E646E655E469817A818B819C8123D287
:1045B000DC01CB018D839E83AF83B88720E030E0A0
:1045C00040E85FE36D817E818F819885C6D0882326
:1045D0002CF481E090E09A8789873BC020E03FEF90
:1045E0004FE757E46D817E818F81988500D2181640
:1045F0003CF520E030E040E251E469817A818B8132
:104600009C81F9D1DC01CB01BC01CD0112D1DC01CF
:10461000CB019A8789870FC080E791E09C878B87C1
:104620008B859C850197F1F79C878B8789859A8577
:1046300001979A87898789859A85009769F713C0BA
:104640006D817E818F819885F4D0DC01CB019A87C2
:10465000898789859A859E878D878D859E85019717
:10466000F1F79E878D870E94C30D65E070E080E0C2
:1046700090E00E948F160E94C30D80E090E02E967D
:104680000FB6F894DEBF0FBECDBFDF91CF91089576
:104690005058BB27AA270ED070C161D130F066D127
:1046A00020F031F49F3F11F41EF456C10EF4E09552
:1046B000E7FB4CC1E92F72D180F3BA176207730789
:1046C0008407950718F071F49EF58AC10EF4E09501
:1046D0000B2EBA2FA02D0B01B90190010C01CA01BC
:1046E000A0011124FF27591B99F0593F50F4503E67
:1046F00068F11A16F040A22F232F342F4427585F59
:10470000F3CF469537952795A795F0405395C9F770
:104710007EF41F16BA0B620B730B840BBAF0915028
:10472000A1F0FF0FBB1F661F771F881FC2F70EC0C7
:10473000BA0F621F731F841F48F48795779567959A
:10474000B795F7959E3F08F0B3CF9395880F08F083
:104750009927EE0F979587950895D4D008F481E0B6
:1047600008950CD00AC102D140F0F9D030F021F404
:104770005F3F19F0EBC0511134C1EEC00FD198F377
:104780009923C9F35523B1F3951B550BBB27AA27D2
:1047900062177307840738F09F5F5F4F220F331F44
:1047A000441FAA1FA9F333D00E2E3AF0E0E830D010
:1047B00091505040E695001CCAF729D0FE2F27D013
:1047C000660F771F881FBB1F261737074807AB07E1
:1047D000B0E809F0BB0B802DBF01FF2793585F4F56
:1047E0002AF09E3F510568F0B1C0FBC05F3FECF37B
:1047F000983EDCF3869577956795B795F7959F5F1B
:10480000C9F7880F911D9695879597F90895E1E06E
:10481000660F771F881FBB1F621773078407BA07CD
:1048200020F0621B730B840BBA0BEE1F88F7E09528
:104830000895BCD088F09F5790F0B92F9927B751B1
:10484000A0F0D1F0660F771F881F991F1AF0BA9554
:10485000C9F712C0B13081F0C3D0B1E00895C0C033
:10486000672F782F8827B85F39F0B93FCCF386954A
:1048700077956795B395D9F73EF4909580957095A7
:1048800061957F4F8F4F9F4F0895E89409C097FB24
:104890003EF490958095709561957F4F8F4F9F4F17
:1048A0009923A9F0F92F96E9BB279395F69587955B
:1048B00077956795B795F111F8CFFAF4BB0F11F41E
:1048C00060FF1BC06F5F7F4F8F4F9F4F16C08823C5
:1048D00011F096E911C0772321F09EE8872F762FFB
:1048E00005C0662371F096E8862F70E060E02AF03C
:1048F0009A95660F771F881FDAF7880F9695879528
:1049000097F90895990F0008550FAA0BE0E8FEEFFC
:1049100016161706E807F907C0F012161306E40783
:10492000F50798F0621B730B840B950B39F40A267C
:1049300061F0232B242B252B21F408950A2609F45A
:10494000A140A6958FEF811D811D089597F99F675E
:1049500080E870E060E008959FEF80EC0895002407
:104960000A941616170618060906089500240A94D4
:1049700012161306140605060895092E0394000C5A
:1049800011F4882352F0BB0F40F4BF2B11F460FFE9
:1049900004C06F5F7F4F8F4F9F4F089557FD905812
:1049A000440F551F59F05F3F71F04795880F97FBF3
:1049B000991F61F09F3F79F08795089512161306AD
:1049C0001406551FF2CF4695F1DF08C016161706DC
:1049D0001806991FF1CF8695710561050894089511
:1049E000E894BB2766277727CB0197F908958ADFDC
:1049F00008F48FEF08950BD0C0CFB1DF28F0B6DFF9
:104A000018F0952309F0A2CFA7CF1124EACFC6DF73
:104A1000A0F3959FD1F3950F50E0551F629FF001D1
:104A2000729FBB27F00DB11D639FAA27F00DB11D2A
:104A3000AA1F649F6627B00DA11D661F829F2227B3
:104A4000B00DA11D621F739FB00DA11D621F839F3A
:104A5000A00D611D221F749F3327A00D611D231F10
:104A6000849F600D211D822F762F6A2F11249F575E
:104A700050408AF0E1F088234AF0EE0FFF1FBB1F81
:104A8000661F771F881F91505040A9F79E3F510520
:104A900070F05CCFA6CF5F3FECF3983EDCF38695D9
:104AA00077956795B795F795E7959F5FC1F7FE2BCB
:104AB000880F911D9695879597F90895EE0FFF1F22
:104AC0000590F491E02D1994A29FB001B39FC0010D
:104AD000A39F700D811D1124911DB29F700D811D2A
:0A4AE0001124911D0895F894FFCFF2
:104AEA00FFB9CD4C696E652D466F6C6C6F77657238
:104AFA000057616C6C2D466F6C6C6F776572005A4B
:104B0A0069672D5A61670020317374205069636B9D
:104B1A00202D3E204D61737465720020326E642030
:104B2A005069636B202D3E20536C617665002031FD
:104B3A00737420506C616365202D3E204D6173743F
:104B4A006572200020326E6420506C616365202DEE
:104B5A003E20536C617665200020454E4420002D8E
:104B6A002D2D2A2A2A2D2D2D005374617469630074
:104B7A0052656F7269656E746174696F6E00496E11
:084B8A0076657273696F6E001D
:00000001FF
