:100000007BC0000098C0000096C0000094C00000B3
:1000100092C0000090C000008EC000008CC00000A4
:100020008AC0000088C0000086C0000084C00000B4
:1000300082C0000080C000007EC000007CC00000C4
:100040007AC0000078C0000076C0000074C00000D4
:1000500072C0000070C000006EC000006CC00000E4
:100060006AC0000068C0000066C0000064C00000F4
:1000700062C0000060C000005EC000005CC0000004
:100080005AC0000058C0000056C0000054C0000014
:1000900052C0000050C000004EC000004CC0000024
:1000A0004AC0000048C0000046C0000044C0000034
:1000B00042C0000040C000003EC000003CC0000044
:1000C0003AC0000038C0000036C0000034C0000054
:1000D00032C0000030C000002EC000002CC0000064
:1000E0002AC000001C0223022A02310238023F0209
:1000F00046024D025A02670211241FBECFEFD1E221
:10010000DEBFCDBF00E00CBF12E0A0E0B2E0EAEB42
:10011000F6E000E00BBF02C007900D92A63AB107CF
:10012000D9F722E0A6EAB2E001C01D92AC3BB207CB
:10013000E1F7B6D2C0C264CF87B1876F87B988B103
:10014000887088B9089586E69EE00197F1F700006F
:100150004098419880E388B9429A8FEF97E40197DD
:10016000F1F700C00000429886E69EE00197F1F7A3
:1001700000004098419880E388B9429A8FEF97E455
:100180000197F1F700C00000429886E69EE00197D3
:10019000F1F700004098419880E388B9429A8FEFC8
:1001A00097E40197F1F700C00000429886E69EE0D0
:1001B0000197F1F700004098419880E288B9429A8F
:1001C0008FEF97E40197F1F700C00000429808957F
:1001D00098B19F7098B998B1282F207F922B98B929
:1001E00040984198429AEFEFF7E43197F1F700C059
:1001F0000000429898B19F7098B998B18295807F1D
:10020000892B88B940984198429A8FEF97E40197DB
:10021000F1F700C000004298089595DF86E69EE061
:100220000197F1F7000088E2D3DF81E0D1DF86E0BB
:10023000CFDF8EE0CDDF80E8CBCF089598B19F70FF
:1002400098B998B1282F207F922B98B9409A41985D
:10025000429AEFEFF7E43197F1F700C000004298BF
:1002600098B19F7098B998B18295807F892B88B991
:10027000409A4198429A8FEF97E40197F1F700C0B6
:10028000000042980895CF93DF93EC018881882382
:1002900029F02196D3DF89918111FCCFDF91CF9195
:1002A0000895823069F018F4813031F00895833078
:1002B00059F0843069F008958FE7860F89CF08954B
:1002C0008FEB860F85CF089583E9860F81CF089540
:1002D00083ED860F7DCF0895E1E8F0E010828CEF8A
:1002E0008093850081E08093840093E0909389005F
:1002F0008FEF8093880090938B0080938A00909377
:100300008D0080938C0090938700809386008BEA09
:1003100080938000109282008CE080830895E1E257
:10032000F1E010828FEF8093250191E090932401FA
:10033000109229018093280110922B0180932A01A9
:1003400010922D0180932C0189EA809320018BE08B
:10035000808308959B9AA398089581B18F6081B995
:1003600082B1807F82B9EAE0F1E080818861808398
:10037000EBE0F1E08081886180830895259A2D9AD1
:100380000895269A2E9A0895279A2F9A0895E1E0C3
:10039000F1E080818FEF8083E2E0F1E080818E7F69
:1003A0008083089510BA11BA1092070110920801C3
:1003B0000895D0DFD2DFE2DFE4DFE6DFE8DFBCDE96
:1003C000F1CF089592B1907F8F70982B92B90895D4
:1003D00089E0F8CF089585E0F5CF08958AE0F2CF5F
:1003E000089580E0EFCF0895883018F098E090935A
:1003F0007B008770806280937C00EAE7F0E0808178
:1004000080648083808184FFFDCF80917900EAE75A
:10041000F0E090819061908310927B000895CF93DB
:10042000DF93EC01FADEFE013197EA30F10508F0C6
:1004300054C0EE58FF4F39C163E081E032DF81E004
:1004400092E021DF4AC063E081E02BDF8FE092E0A1
:100450001ADF43C063E081E024DF8DE192E013DF27
:100460003CC063E081E01DDF85E292E00CDF35C037
:1004700063E081E016DF89E392E005DF2EC063E0F0
:1004800081E00FDF8CE492E0FEDE27C063E081E0D4
:1004900008DF82E692E0F7DE20C067E081E001DF5E
:1004A00087E792E0F0DE63E082E0FBDE8DE792E03A
:1004B000EADE13C066E081E0F4DE87E892E0E3DE86
:1004C00063E082E0EEDE8EE892E0DDDE06C063E00F
:1004D00081E0E7DE8CE992E0D6DEDF91CF910895EE
:1004E0007DDF84E68093280180932A0181E07CDF10
:1004F0008093A9028035D0F312B86DDF8FEF9FE8AB
:100500000197F1F700C000006CDF9FEF2FEF88E04C
:10051000915020408040E1F700C00000809100022F
:10052000809328018091000280932A01089582E03F
:100530005BDF8093A9029091B402963440F48E362A
:1005400030F08091AC02863410F412B808958BE933
:100550008093280180932A0144DF8FEF9FE8019761
:10056000F1F700C0000037DF99E929E98CE09150EC
:1005700020408040E1F7000034DFB2CF0895DF92E1
:10058000EF92FF920F931F93CF93DF9383E090E05E
:1005900046DF08E211E00F2EFAEFFF2EF02DCAE23F
:1005A000D1E00F2EF0EADF2EF02D0F2EF4EBEF2E20
:1005B000F02D81E019DF8093B40282E015DF809393
:1005C000A90283E011DF8093AC0202DFF801F08220
:1005D000F8823091B4022091A9024091AC02822F9E
:1005E00090E0830F911D840F911D8139914064F03B
:1005F000F8DEF7DE2FEF5FEF80EE215050408040B5
:10060000E1F700C000002EC0253658F0E1DEF80109
:10061000F082F8828FEF97E40197F1F700C00000B5
:10062000C8CF343130F4243120F4443110F47FDF6A
:10063000C0CF231750F4D2DEF801E082D88286E6DC
:100640009EE00197F1F70000B4CF241708F0B1CF76
:10065000C2DEF801D082E88286E69EE00197F1F7DB
:100660000000A7CFDF91CF911F910F91FF90EF90E6
:10067000DF900895EAE7F0E0108210927B0080E2BC
:1006800080937C0080E880BF86E880830895F8949A
:1006900090DEF0DF44DE20DE789455DDBECD089597
:1006A000F6DF6DDF80E090E00895EE0FFF1F05900C
:0A06B000F491E02D1994F894FFCFA7
:1006BA00E64C696E652D466F6C6C6F7765720057F4
:1006CA00616C6C2D466F6C6C6F776572005A696746
:1006DA002D5A61670020317374205069636B202D95
:1006EA003E204D61737465720020326E6420506939
:1006FA00636B202D3E20536C617665002031737444
:10070A0020506C616365202D3E204D6173746572C3
:10071A00200020326E6420506C616365202D3E20DB
:10072A00536C617665200020454E4420002D2D2D06
:10073A002A2A2A2D2D2D005374617469630052658B
:10074A006F7269656E746174696F6E00496E766561
:06075A007273696F6E006E
:00000001FF
