S00D00005461736B352E737265634F
S113000071C0000090C000008EC000008CC00000D1
S11300108AC0000053C600002CC6000084C0000043
S113002082C0000080C000007EC000007CC00000D0
S11300307AC0000078C0000076C0000074C00000E0
S113004072C0000070C000006EC000006CC00000F0
S11300506AC0000068C0000066C0000064C0000000
S113006062C0000060C000005EC000005CC0000010
S11300705AC0000058C0000056C0000054C0000020
S113008052C0000050C000004EC000004CC0000030
S11300904AC0000048C0000046C0000044C0000040
S11300A042C0000040C000003EC000003CC0000050
S11300B03AC0000038C0000036C0000034C0000060
S11300C032C0000030C000002EC000002CC0000070
S11300D02AC0000028C0000026C0000024C0000080
S11300E022C0000011241FBECFEFD1E2DEBFCDBF7E
S11300F000E00CBF14E0A0E0B2E0E0E5F6E400E0CC
S11301000BBF02C007900D92A23EB107D9F725E0BC
S1130110A2EEB4E001C01D92AC35B207E1F70E9433
S113012076170C9426236CCF87B1876F87B988B173
S1130130887088B9089586E69EE00197F1F700007B
S11301404098419880E388B9429A8FEF97E40197E9
S1130150F1F700C00000429886E69EE00197F1F7AF
S113016000004098419880E388B9429A8FEF97E461
S11301700197F1F700C00000429886E69EE00197DF
S1130180F1F700004098419880E388B9429A8FEFD4
S113019097E40197F1F700C00000429886E69EE0DC
S11301A00197F1F700004098419880E288B9429A9B
S11301B08FEF97E40197F1F700C00000429808958B
S11301C098B19F7098B998B1282F207F922B98B935
S11301D040984198429AEFEFF7E43197F1F700C065
S11301E00000429898B19F7098B998B18295807F29
S11301F0892B88B940984198429A8FEF97E40197E8
S1130200F1F700C000004298089595DF86E69EE06D
S11302100197F1F7000088E2D3DF81E0D1DF86E0C7
S1130220CFDF8EE0CDDF80E8CBCF089598B19F700B
S113023098B998B1282F207F922B98B9409A419869
S1130240429AEFEFF7E43197F1F700C000004298CB
S113025098B19F7098B998B18295807F892B88B99D
S1130260409A4198429A8FEF97E40197F1F700C0C2
S113027000004298089580E8A3CF0895CF93DF93B8
S1130280EC018881882329F02196D0DF899181119E
S1130290FCCFDF91CF9108950F931F93CF93DF93FA
S11302A08A01E901882311F0611102C0E4DF1AC058
S11302B0823069F018F4813031F014C0833059F081
S11302C0843069F00FC08FE7860F7ADF0BC08FEBA5
S11302D0860F76DF07C083E9860F72DF03C083EDE4
S11302E0860F6EDFC530D10509F0D5C0980132956F
S11302F022952F7023273F702327A7E4B3E00E94A1
S1130300F021969587959695879596958795C096AD
S1130310909325058093240589DF980136952795C8
S11303203695279536952795A5ECB0E20E94F021E5
S1130330AC01529542954F7045275F704527509305
S11303402905409328059A01ADECBCEC0E94F021EC
S11303509695879596958795969587959C01220FF6
S1130360331F880F991F880F991F880F991F820FB9
S1130370931F481B590BCA01C0969093550580934F
S1130380540554DF04C0C330D10509F089C0980175
S11303903695279536952795ABE7B4E10E94F02171
S11303A0AC015695479550932905409328059A0129
S11303B0ADECBCEC0E94F0219695879596958795B7
S11303C0969587959C01220F331F880F991F880FDC
S11303D0991F880F991F820F931F481B590BCA013D
S11303E0C0969093300580932F0520DF9801ADECE3
S11303F0BCEC0E94F021AC01569547955695479563
S11304005695479550932905409328059A010E94D3
S1130410F0219695879596958795969587959C0155
S1130420220F331F880F991F880F991F880F991F58
S1130430820F931F481B590BCA01C09690932E0537
S113044080932D05F3DE03C0C130D105F9F4980182
S1130450ADECBCEC0E94F021969587959695879516
S1130460969587959C01220F331F880F991F880F3B
S1130470991F880F991F820F931F081B190BC8011E
S1130480C0969093530580935205D0DE269764F06E
S113049085E4CCDE09C0C430D10509F074CF3DCF6A
S11304A0C230D10589F6A2CFDF91CF911F910F9170
S11304B008959B01215031093323C4F0DB01AA0FB5
S11304C0BB1FA80FB91FFC0140E050E0808191815F
S11304D07E916E916193719311969C938E934F5F6D
S11304E05F4F215031092417350784F708952F925F
S11304F03F924F925F926F927F928F929F92AF92B0
S1130500BF92CF92DF92EF92FF920F931F93CF93FC
S1130510DF93CDB7DEB7C252D2400FB6F894DEBF38
S11305200FBECDBF4B01161617060CF05AC0082F8C
S1130530192FCE0101967C018EE1869F5001879F81
S1130540B00C1124AE0CBF1C6B01CC0CDD1C6FE095
S113055077E217C081919191009721F411967C93D1
S11305606E9303C011969C938E931296E217F30731
S113057089F7025E1F4F9EE1E90EF11CEA14FB04A9
S113058031F098012C0D3D1DD701F801E3CF8EE128
S1130590849F9001859F300D1124A1E0B0E0AC0F41
S11305A0BD1F2A0F3B1FFE01ED53FE4FCE018F519D
S11305B09E4FDE01A150BE4FCE0EDF1E89019D016C
S11305C0D8016D917D918D0161937193DC014D93FF
S11305D05D93CD01D9011D921D929D01EC15FD0580
S11305E079F7440F551FE3ECF1E0EC0FFD1FE40F26
S11305F0F51F11821082EFEFF1E0EC0FFD1FE40F05
S1130600F51F81E090E091838083C4010197C15E6E
S1130610DD4F99838883CF51D24002970CF49DC05B
S1130620B401660F771FAA24A394B12CDE01A15054
S1130630BE4FC35EDD4FB983A883CD51D240C35EA4
S1130640DD4F5880CD51D240C25EDD4F4880CE513F
S1130650D240312C212C73C02D913D9124173507A4
S113066034F460817181672B11F43C01A901019676
S113067032968815990581F7B801E62CF72CF30119
S1130680EE0FFF1F8FEF91E08C0F9D1FE80FF91FF6
S1130690A1E0B0E0B183A083BEE1B69D6001B79D47
S11306A0D00C112481E090E08C0F9D1FC80ED91E40
S11306B0FE01ED53FE4FA52DB42D832D922DCF5D5C
S11306C0DD4FB983A883C152D240CF5DDD4FA881ED
S11306D0B981C152D2402D913D91CF5DDD4FB98397
S11306E0A883C152D240232BC9F49601280F391F85
S11306F0D9012D913C91240F351F008111812017C0
S1130700310764F43183208321EE31E02C0F3D1F47
S1130710280F391FD901EC921196FC920296329659
S11307208617970791F6BFEFAB1ABB0AC15EDD4F80
S113073088819981CF51D240A816B90674F418144F
S1130740190474F5E52DF42DDE01AD53BE4F832D50
S1130750922D4FE057E28B017FCF1814190474F5E2
S1130760FE01ED53FE4FA4E3B5E0880C991C9401FF
S11307702E0F3F1F819191918D939D93E217F30763
S1130780C9F7FE01EF51FE4FA4E0B5E08E0E9F1EA7
S1130790819191918D939D93E815F905C9F70EC048
S11307A0F301EE0FFF1FAFEFB1E0AC0FBD1FEA0F77
S11307B0FB1F81E090E091838083B5CFCE5DDD4F58
S11307C00FB6F894DEBF0FBECDBFDF91CF911F915E
S11307D00F91FF90EF90DF90CF90BF90AF909F90DC
S11307E08F907F906F905F904F903F902F900895DF
S11307F00F931F93CF93DF93EC018B01F901880FC3
S1130800991F8C5C9A4FDB01AA0FBB1FBD016C5C66
S11308107A4FDC012D913C91DB018D919C918217E3
S11308209307D4F180910205909103058C179D07DD
S113083051F1A081B181AA0FBB1FA40FB51FCD93A5
S1130840DC93808191810196918380839E01D901FB
S1130850AA0FBB1FAC5FBA4F2D913C91A081B1810F
S1130860AA0FBB1FA40FB51F2D933C936081718108
S11308706F5F7F4F71836083609102057091030500
S11308802617370721F760817181CA0112DED093E0
S11308900305C093020538C08091020590910305B9
S11308A08017910749F1A081B181AA0FBB1FA40F42
S11308B0B51F0D931C938081918101969183808350
S11308C09801D901AA0FBB1FAC5FBA4F2D913C917F
S11308D0A081B181AA0FBB1FA40FB51F2D933C9318
S11308E0808191810196918380838091020590910A
S11308F003052817390729F760817181CA01D9DDF9
S11309001093030500930205DF91CF911F910F917E
S113091008958130910529F48091650490916604CD
S113092008958230910529F48091630490916404C0
S113093008958330910529F48091610490916204B3
S113094008958430910529F480915F0490916004A6
S113095008958530910529F480915D0490915E0499
S113096008958630910529F480915B0490915C048C
S113097008958730910529F48091590490915A047F
S113098008958830910529F4809157049091580472
S113099008958930910529F4809155049091560465
S11309A008958A30910529F4809153049091540458
S11309B008958B30910529F480915104909152044B
S11309C008950C9729F480914F0490915004089550
S11309D08FEF9FEF0895209165043091660482178C
S11309E0930729F420918604273709F483C02091C2
S11309F06304309164048217930729F420918604D8
S1130A00253609F47AC0209161043091620482177A
S1130A10930729F420918604273709F471C02091A3
S1130A205F04309160048217930729F420918604AF
S1130A30253609F468C020915D0430915E04821764
S1130A40930729F420918604273709F45FC0209185
S1130A505B0430915C048217930729F42091860487
S1130A60253609F456C02091590430915A0482174E
S1130A70930729F420918604273709F44DC0209167
S1130A805704309158048217930729F4209186045F
S1130A90253609F444C02091550430915604821738
S1130AA0930721F4209186042737E1F12091530420
S1130AB0309154048217930721F42091860425363B
S1130AC0A1F120915104309152048217930721F42B
S1130AD020918604273761F120914F04309150040E
S1130AE08217930741F580918604853639F18FEF9B
S1130AF09FEF089581E090E0089582E090E00895EA
S1130B0083E090E0089584E090E0089585E090E02B
S1130B10089586E090E0089587E090E0089588E0E5
S1130B2090E0089589E090E008958AE090E00895C7
S1130B308BE090E008958FEF9FEF08958CE090E0B4
S1130B4008958130910529F480914D0490914E04CB
S1130B5008958230910529F480914B0490914C04BE
S1130B6008958330910529F48091490490914A04B1
S1130B700895049729F480914704909148040895B6
S1130B808FEF9FEF0895E1E8F0E010828CEF8093FF
S1130B90850081E08093840093E0909389008FEF37
S1130BA08093880090938B0080938A0090938D00AB
S1130BB080938C0090938700809386008BEA8093C7
S1130BC08000109282008CE080830895E1E2F1E0DD
S1130BD010828FEF8093250191E09093240110926D
S1130BE029018093280110922B0180932A011092ED
S1130BF02D0180932C0189EA809320018BE080836E
S1130C0008959B9AA398089581B18F6081B982B1A8
S1130C10807F82B9EAE0F1E0808188618083EBE043
S1130C20F1E08081886180830895259A2D9A089542
S1130C30269A2E9A0895279A2F9A0895E1E0F1E0D2
S1130C4080818FEF8083E2E0F1E080818E7F80837A
S1130C50089510BA11BA109207011092080108956C
S1130C60D0DFD2DFE2DFE4DFE6DFE8DF5DDAF1CF19
S1130C7008951F920F920FB60F9211248F939F9392
S1130C80AF93BF938091E2049091E304A091E404B4
S1130C90B091E5040196A11DB11D8093E2049093E7
S1130CA0E304A093E404B093E504BF91AF919F9152
S1130CB08F910F900FBE0F901F9018951F920F9257
S1130CC00FB60F9211248F939F93AF93BF9380918C
S1130CD0E6049091E704A091E804B091E904019638
S1130CE0A11DB11D8093E6049093E704A093E8044A
S1130CF0B093E904BF91AF919F918F910F900FBE74
S1130D000F901F90189592B1907F8F70982B92B985
S1130D10089586E0F8CF089589E0F5CF089585E039
S1130D20F2CF08958AE0EFCF089584E0ECCF0895E0
S1130D3082E0E9CF089580E0E6CF0895682FE2E0ED
S1130D40F1E080818160808326E686EE90E0215088
S1130D5080409040E1F710928D0070E080E090E0D8
S1130D600E9462212BE734E14EEE5FE30E94CE2025
S1130D7020E030E04CE052E40E946A200E943621D8
S1130D8060938C000895682FE2E0F1E080818E7F0B
S1130D90808326E686EE90E0215080409040E1F783
S1130DA010928D0070E080E090E00E9462212BE7B9
S1130DB034E14EEE5FE30E94CE2020E030E04CE0D0
S1130DC052E40E946A200E94362160938C000895A8
S1130DD083E0809389008FEF80938800089583E0F7
S1130DE080938B008FEF80938A00089583E0809333
S1130DF08D008FEF80938C00089583E080938D00A5
S1130E008FEF80938C000895883018F098E09093C9
S1130E107B008770806280937C00EAE7F0E0808149
S1130E2080648083808184FFFDCF80917900EAE72C
S1130E30F0E090819061908310927B000895CF93AD
S1130E40DF93EC01E2D9C330D10509F435C02CF4A9
S1130E50209751F0219771F034C0C530D10581F04D
S1130E6004F1269799F02DC082E8AAD989E894E084
S1130E7005DA27C082E8A4D987E994E0FFD921C024
S1130E8082E89ED985EA94E0F9D91BC085E898D90F
S1130E908DEA94E0F3D980EC93D983EB94E0EED916
S1130EA010C085E88DD982EC94E0E8D982EC88D929
S1130EB089EC94E0E3D905C082E882D987ED94E017
S1130EC0DDD9DF91CF9108952FEF8FE796E121507F
S1130ED080409040E1F700C000001092890083E256
S1130EE0809388002FEF8FEF9CE221508040904048
S1130EF0E1F700C000006CDF8EE120DF2FEF8FEB05
S1130F0091E2215080409040E1F700C0000010922F
S1130F108B008BE380938A002FEF8FEF9CE22150AC
S1130F2080409040E1F700C0000089E607DF2FEF22
S1130F308FEB91E2215080409040E1F700C0000027
S1130F4055DF10928B0083E280938A002FEF8FEF9E
S1130F509CE2215080409040E1F700C000003FDF58
S1130F601092890086E5809388002FEF8FEF9CE232
S1130F70215080409040E1F700C0000029CF08953F
S1130F801092890086E5809388002FEF8FEB91E221
S1130F90215080409040E1F700C0000019DF8EE14D
S1130FA0CDDE2FEF8FEB91E2215080409040E1F7AE
S1130FB000C0000010928B0085E480938A002FEF1C
S1130FC08FEB91E2215080409040E1F700C0000097
S1130FD089E6B4DE2FEF8FEB91E221508040904000
S1130FE0E1F700C0000010928B0083E280938A0036
S1130FF02FEF8FEF9CE2215080409040E1F700C03A
S1131000000008951092890089E4809388002FEFEE
S11310108FEB91E2215080409040E1F700C0000046
S113102086E9B1DE2FEF8FEB91E2215080409040B2
S1131030E1F700C0000010928B0085E480938A00E1
S11310402FEF8FEF9CE2215080409040E1F700C0E9
S1131050000088E298DE2FEF8FEB91E22150804070
S11310609040E1F700C0000010928B0083E280936F
S11310708A002FEF8FEF9CE2215080409040E1F7EF
S113108000C000001092890086E5809388000895CE
S11310901092890089E4809388002FEF8FEB91E20E
S11310A0215080409040E1F700C0000086E96BDEEB
S11310B02FEF8FEB91E2215080409040E1F700C088
S11310C0000010928B0085E380938A002FEF8FEF4E
S11310D09CE2215080409040E1F700C0000088E28B
S11310E052DE2FEF8FEB91E2215080409040E1F7E8
S11310F000C0000010928B0083E280938A002FEFDF
S11311008FEF9CE2215080409040E1F700C0000046
S11311101092890086E5809388000895FF920F93CA
S11311201F93CF93DF9383E090E089DE22E030E0E9
S113113040E050E067E082E0AFD8F12C08E211E033
S1131140CAE2D1E0E9DD80914204F801808388831A
S113115081E05ADE8093320582E056DE80932705D3
S113116083E052DE80932A05909132054091270551
S1131170242F30E0290F311D280F311D2A3431402E
S11311806CF54A3558F5F11029C02FEF5FE784E07C
S1131190215050408040E1F700C0000022E030E0E0
S11311A041E050E067E082E077D8B3DD9FEFEFE302
S11311B0FBE09150E040F040E1F700C00000BBDDEF
S11311C083DEAADD2FEF5FE784E0215050408040AA
S11311D0E1F700C00000FF24F394B4CF953B60F026
S11311E0423850F4853B40F080914204F8018083FA
S11311F0809142048883A6CF903598F4433830F127
S1131200873998F195DD809141048253F8018083F8
S113121080914204888386E69EE00197F1F70000FE
S113122091CF863998F4433888F0913578F07DDD94
S113123080914204F8018083809141048253888321
S113124086E69EE00197F1F700007CCF843608F033
S113125079CF453608F476CF943608F073CF61E041
S113126070E082E090E00AD003C08639F0F2EECF5D
S1131270DF91CF911F910F91FF900895DF92EF922C
S1131280FF920F931F93CF93DF93EC0180E090E0E4
S1131290D6DD0F2EF8E2EF2EFF24F394F02D0AE2B0
S11312A011E00F2EF8E7DF2EF02D36DD8091420499
S11312B0F701808380914204F801808381E0A4DDFA
S11312C08093320582E0A0DD8093270583E09CDDD6
S11312D080932A058BE098DD80933105C230D105D7
S11312E0D1F4209132058091270590E0820F911D61
S11312F020912A05820F911D893191400CF442C03E
S11313002FEF8FEB96E0215080409040E1F700C032
S1131310000011DDA8C0C330D10569F48091320505
S1131320893708F4C2CF80912A05893708F4BDCFE4
S113133002DDF4DE98C0C130D10559F4909127053F
S1131340943608F0B2CF853508F4AFCFF4DCA2D0E0
S11313508AC02097B9F4209132058091270590E046
S1131360820F911D20912A05820F911D8139914090
S11313704CF0FCEC2CEE82E0F15020408040E1F790
S113138000C071C0209132052C33A8F48091270548
S11313908D3788F080912A058C3368F4809142045B
S11313A0F701808380914204F801808383E39BE208
S11313B00197F1F77ACF4091270530912A05842FC0
S11313C090E0820F911D830F911D883C91052CF5AF
S11313D08DEC840F813308F5321708F050C08091EA
S11313E04004F701808380914204F80180838CECEF
S11313F09CE10197F1F700C0000057CF80914204AF
S1131400F701808380914004F80180838CEC9CE197
S11314100197F1F700C0000048CF283280F44C3324
S113142008F043CF3D3840F180DCF701D082F80169
S1131430D08286E69EE00197F1F7000036CF38327D
S113144008F033CF4C3308F030CF2D3808F42DCFCB
S11314506FDCF701D082F801D08286E69EE0019726
S1131460F1F7000022CF96E6E6EEF0E09150E0407E
S1131470F040E1F760DC06C0383238F316CF2317AA
S113148060F6BCCFDF91CF911F910F91FF90EF9049
S1131490DF900895DF92EF92FF920F931F93CF9303
S11314A0DF9381E090E0CBDC37DC2FEF8FE39BE030
S11314B0215080409040E1F700C000008091420438
S11314C08093280180932A0108E211E00F2EF8E7A7
S11314D0DF2EF02DCAE2D1E00F2EF5E7EF2EF02D2E
S11314E00F2EFCEDFF2EF02D17DC8BE08DDC8093AE
S11314F0310583E089DC80932A0582E085DC8093D2
S1131500270590912A05913510F4813558F0809182
S11315103105843638F40FDC61E070E080E090E05F
S1131520ADDE2BC0809131059DE8980F903158F4C1
S1131530F801F082F882F6E626EE80E0F1502040D1
S11315408040E1F7D1CF833850F0E9DBF801E08245
S1131550D88286E69EE00197F1F70000C5CF835359
S1131560803408F0C1CFDEDBF801D082E88286E661
S11315709EE00197F1F70000B7CFDF91CF911F9163
S11315800F91FF90EF90DF90089584E090E057DC96
S113159081E03ADC8093320582E036DC80932705D3
S11315A083E032DC80932A0590913205973940F02C
S11315B090912705973420F4863910F412B80895D1
S11315C08BE98093280180932A01B5DB8FEF9FE894
S11315D00197F1F700C00000A2DB9FEF2FE38BE03F
S11315E0915020408040E1F700C00000A4DB9ADB6A
S11315F088E78093280180932A0181E005DC8093A9
S113160027058734D0F712B88DDB96E626EE80E006
S1131610915020408040E1F78EDB9FEF2FEF88E070
S1131620915020408040E1F700C000008AEF809391
S1131630280180932A0108956FDB2FEF8FEF98E044
S1131640215080409040E1F700C0000068DB2FEF9C
S11316508FEF98E0215080409040E1F700C00000F7
S11316606ADB2FEF8FE392E0215080409040E1F756
S113167000C0000054DB84E68093280180932A0193
S113168083E0C2DB80932A058035D0F312B84ADBAD
S11316908FEF97ED0197F1F700C000004CDB9FEF4F
S11316A02FEF88E0915020408040E1F700C0000017
S11316B080914204809328018091420480932A01FE
S11316C008952ADB2FEF8FEF98E02150804090405F
S11316D0E1F700C0000023DB2FEF8FEF98E02150EB
S11316E080409040E1F700C0000025DB2FEF8FE33E
S11316F092E0215080409040E1F700C000000FDBF1
S113170084E68093280180932A0183E07DDB809323
S11317102A0582E079DB8093270581E075DB8093DD
S1131720320580912A05803580F380912705803524
S113173060F712B8F4DA2FEF8FEF98E02150804071
S11317409040E1F700C00000F6DA2FEF8FEF98E049
S1131750215080409040E1F700C000008AEF809360
S1131760280180932A0111CF0895D9DA2FEF8FEF42
S113177098E0215080409040E1F700C00000DBDA9F
S11317802FEF8FE392E0215080409040E1F700C0BA
S11317900000C5DA84E68093280180932A0183E05F
S11317A033DB80932A058035D0F312B8B8DA8FEF93
S11317B097E40197F1F700C00000BDDA9FEF2FEF27
S11317C088E0915020408040E1F700C00000809103
S11317D04204809328018091420480932A01089551
S11317E09BDA2FEF8FE39BE0215080409040E1F79C
S11317F000C0000097DA2FEF8FEF98E0215080406F
S11318009040E1F700C0000096DA2FEF8FE392E0FA
S1131810215080409040E1F700C0000083DA84E664
S11318208093280180932A0182E0EEDA80932705D1
S11318308035D0F312B87FDA2FEF8FEF98E0215084
S113184080409040E1F700C0000080914204809302
S113185028018091420480932A010895809186048E
S11318608E36A1F5909185049E3641F486EC0E9453
S1131870E000809186040C9416010895953669F46D
S1131880DBDE809185048093860486EC0E94E00070
S1131890809186040C9416010895933739F4CCDEB4
S11318A064DF80918504809386040895973709F056
S11318B089C096DF809185048093860486EC0E941B
S11318C0E000809186040C9416010895853609F091
S11318D03BC080918504853641F486EC0E94E0008B
S11318E0809186040C9416010895833769F4A4DE6C
S11318F0809185048093860486EC0E94E0008091A8
S113190086040C9416010895873771F495DE2DDF53
S1131910809185048093860486EC0E94E000809187
S113192086040C94160108958E3609F086C058DF9B
S1131930809185048093860486EC0E94E000809167
S113194086040C9416010895833709F03BC08091F6
S11319508504833741F486EC0E94E000809186047C
S11319600C9416010895873769F466DE8091850426
S11319708093860486EC0E94E000809186040C9497
S1131980160108958E3671F457DEEFDE80918504DA
S11319908093860486EC0E94E000809186040C9477
S11319A016010895853609F048C01ADF8091850430
S11319B08093860486EC0E94E000809186040C9457
S11319C0160108958737C9F580918504873741F456
S11319D086EC0E94E000809186040C941601089520
S11319E08E3669F429DE809185048093860486EC22
S11319F00E94E000809186040C94160108958536B7
S1131A0071F41ADEB2DE809185048093860486EC3C
S1131A100E94E000809186040C9416010895833797
S1131A2061F4DEDE809185048093860486EC0E9456
S1131A30E000809186040C9416010895CF93DF93FF
S1131A40EB018230910589F588819981892BA1F474
S1131A5087E78093850402DF81E090E0998388839F
S1131A6058D92FEF8FEF98E0215080409040E1F754
S1131A7000C0000060D91AC18A819B81892B09F0BA
S1131A8015C185E680938504E9DE81E090E09B83BF
S1131A908A833FD92FEF8FEF98E021508040904008
S1131AA0E1F700C0000047D901C18D30910589F5E7
S1131AB08C819D81892BA1F487E780938504CEDEF8
S1131AC081E090E09D838C8324D92FEF8FEF98E001
S1131AD0215080409040E1F700C000002CD9E6C0BE
S1131AE08E819F81892B09F0E1C085E6809385046E
S1131AF0B5DE81E090E09F838E830BD92FEF8FEFCB
S1131B0098E0215080409040E1F700C0000013D9D4
S1131B10CDC08430910589F588859985892BA1F4F8
S1131B2087E7809385049ADE81E090E0998788872F
S1131B30F0D82FEF8FEF98E0215080409040E1F7EC
S1131B4000C00000F8D8B2C08A859B85892B09F0B3
S1131B50ADC085E68093850481DE81E090E09B87BB
S1131B608A87D7D82FEF8FEF98E02150804090409C
S1131B70E1F700C00000DFD899C08B30910589F5EA
S1131B808C859D85892BA1F487E78093850466DE87
S1131B9081E090E09D878C87BCD82FEF8FEF98E091
S1131BA0215080409040E1F700C00000C4D87EC0BE
S1131BB08E859F85892B09F079C085E680938504FD
S1131BC04DDE81E090E09F878E87A3D82FEF8FEFC3
S1131BD098E0215080409040E1F700C00000ABD86D
S1131BE065C08630910589F588899989892BA1F486
S1131BF087E78093850432DE81E090E0998B888BBF
S1131C0088D82FEF8FEF98E0215080409040E1F783
S1131C1000C0000090D84AC08A899B89892B09F0AA
S1131C2045C085E68093850419DE81E090E09B8BB6
S1131C308A8B6FD82FEF8FEF98E02150804090402F
S1131C40E1F700C0000077D831C0099779F58C8995
S1131C509D89892BA1F487E780938504FFDD81E0CA
S1131C6090E09D8B8C8B55D82FEF8FEF98E021500F
S1131C7080409040E1F700C000005DD817C08E8915
S1131C809F89892B99F485E680938504E7DD81E0BB
S1131C9090E09F8B8E8B3DD82FEF8FEF98E02150F3
S1131CA080409040E1F700C0000045D8DF91CF911B
S1131CB0089532D82FEF8FE39BE02150804090406D
S1131CC0E1F700C000002ED82FEF8FEF98E02150ED
S1131CD080409040E1F700C000002DD82FEF8FE343
S1131CE092E0215080409040E1F700C000001AD8F3
S1131CF088E78093280180932A0183E085D8809324
S1131D002A0582E081D88093270581E07DD88093DD
S1131D103205803590F380912705803570F712B82D
S1131D2001D829E989E198E0215080409040E1F709
S1131D30000001D82FEF8FEF98E0215080409040B1
S1131D40E1F700C000008AEF8093280180932A0104
S1131D501CCC08950E9492062FEF8FEF98E021503B
S1131D6080409040E1F700C000000E949B062FEFE6
S1131D708FE392E0215080409040E1F700C00000E2
S1131D800E94920684E68093280180932A0181E0D0
S1131D903BD8809332058035D0F312B80E94920666
S1131DA08FEF97E40197F1F700C000000E949B06B3
S1131DB09FEF2FEF88E0915020408040E1F700C072
S1131DC00000809142048093280180914204809312
S1131DD02A01089584E090E032D881E015D88093F8
S1131DE0320582E011D88093270583E00DD88093D3
S1131DF02A0590913205963440F4909127059E3639
S1131E0020F0863410F412B814C086E980932801B7
S1131E1080932A010E949B060E948F0629E989E982
S1131E209CE0215080409040E1F700000E949B0616
S1131E3091DF0E9492062FEF8FE191E021508040C4
S1131E409040E1F700C000000C949B060895C2DFA7
S1131E501092890083E5809388002FEF8FEB91E245
S1131E60215080409040E1F700C000000E94E80645
S1131E7088E70E949E062FEF8FEB91E2215080406D
S1131E809040E1F700C000000E94F60610928B001B
S1131E9089E580938A002FEF8FEF9CE221508040E8
S1131EA09040E1F700C0000084E10E949E062FEFFD
S1131EB08FEB91E2215080409040E1F700C0000098
S1131EC010928B0083E280938A002FEF8FEF9CE2C5
S1131ED0215080409040E1F700C0000008957ADF6F
S1131EE01092890087E4809388002FEF8FEB91E2B2
S1131EF0215080409040E1F700C000000E94E806B5
S1131F0088E20E94C3062FEF8FEF9CE221508040AD
S1131F109040E1F700C000000E94FD0610928B0083
S1131F2088E580938A002FEF8FE793E42150804067
S1131F309040E1F700C0000080EA0E94C3062FEF42
S1131F408FEB91E2215080409040E1F700C0000007
S1131F5010928B0083E280938A002FEF8FEF9CE234
S1131F60215080409040E1F700C000000E94EF063D
S1131F701092890083E5809388002FEF8FEB91E224
S1131F80215080409040E1F700C000000C94E80626
S1131F900895DF92EF92FF920F931F93CF93DF93F5
S1131FA085E090E00E941F0708E211E00F2EFAEF8F
S1131FB0FF2EF02DCAE2D1E00F2EF0EADF2EF02D35
S1131FC00F2EF4EBEF2EF02D81E00E940407809396
S1131FD0320582E00E9404078093270583E00E9473
S1131FE0040780932A050E948C06F801F082F88287
S1131FF0309132052091270540912A05822F90E0E7
S1132000830F911D840F911D8139914074F00E94BA
S11320109B060E949B062FEF5FE784E0215050400F
S11320208040E1F700C0000031C0253660F00E9416
S11320308C06F801F082F8828FEF97E40197F1F7AC
S113204000C00000C1CF343130F4243120F44431D5
S113205010F4C0DEB9CF231758F40E949206F80199
S1132060E082D88286E69EE00197F1F70000ACCFCB
S1132070241708F0A9CF0E948F06F801D082E882C5
S113208086E69EE00197F1F700009ECFDF91CF91A5
S11320901F910F91FF90EF90DF9008952F923F9240
S11320A04F925F926F927F928F929F92AF92BF9264
S11320B0CF92DF92EF92FF920F931F93CF93DF9310
S11320C0DA010D911C919801215031091216130661
S11320D00CF0DEC6282E392EEE24E394F12CCC2409
S11320E0C394D12CB12CA12C0F2EF7E77F2EF02D09
S11320F00F2EF3E76F2EF02D0F2EF5E65F2EF02D49
S11321000F2EFEE64F2EF02DF10180819181009774
S113211049F42281338121303105B1F12E3031056A
S113212099F432C08930910531F422813381283009
S11321303105A1F429C08630910531F4228133811F
S113214027303105A9F420C08D30910539F422815E
S113215033812E30310509F0B6C116C082309105A5
S113216039F4228133812130310509F068C30CC070
S11321708E30910521F08130910509F0A4C12281AE
S11321803381232B09F09FC14C2D5D2D2B2D3A2D2E
S113219004C02F5F3F4F4F5F5F4FD9018081918112
S11321A0880F991F880F991F820F931F880F991FFB
S11321B08A5F9D4FEC0168817981828193816817E0
S11321C07907B9F4109719F440928504E2CF2130CD
S11321D0310519F450928504DCCF2230310519F40D
S11321E060928504D6CF2330310519F470928504AA
S11321F003C0443051056CF2809186048E3609F098
S113220054C0909185049E3689F46C2D7D2D82E016
S113221090E034D8809185048093860486EC0E94F3
S1132220E000809186040E94160128C6953691F438
S113223003DA6C2D7D2D82E090E020D88091850416
S11322408093860486EC0E94E000809186040E94BC
S1132250160114C6933799F4EFD9EED96C2D7D2D60
S113226082E090E00BD8809185048093860486EC0C
S11322700E94E000809186040E941601FFC59737F2
S113228009F0C7C0ADDA6C2D7D2D82E090E00E948C
S11322903E09809185048093860486EC0E94E000C8
S11322A0809186040E941601E9C5853609F057C05D
S11322B080918504853691F46C2D7D2D82E090E02B
S11322C00E943E09809185048093860486EC0E94D6
S11322D0E000809186040E941601D0C5833799F4EA
S11322E0ABD96C2D7D2D82E090E00E943E09809157
S11322F085048093860486EC0E94E0008091860425
S11323000E941601BBC58737A1F496D995D96C2DC7
S11323107D2D82E090E00E943E09809185048093A7
S1132320860486EC0E94E000809186040E941601D7
S1132330A5C58E3609F0A2C553DA6C2D7D2D82E039
S113234090E00E943E09809185048093860486EC87
S11323500E94E000809186040E9416018FC5833795
S113236009F057C080918504833791F46C2D7D2D3D
S113237082E090E00E943E09809185048093860467
S113238086EC0E94E000809186040E94160176C5C6
S1132390873799F451D96C2D7D2D82E090E00E940D
S11323A03E09809185048093860486EC0E94E000B7
S11323B0809186040E94160161C58E36A1F43CD931
S11323C03BD96C2D7D2D82E090E00E943E098091E6
S11323D085048093860486EC0E94E0008091860444
S11323E00E9416014BC5853609F048C5F9D96C2DF4
S11323F07D2D82E090E00E943E09809185048093C7
S1132400860486EC0E94E000809186040E941601F6
S113241035C5873709F032C580918504873791F433
S11324206C2D7D2D82E090E00E943E098091850410
S11324308093860486EC0E94E000809186040E94CA
S113244016011CC58E3699F4F7D86C2D7D2D82E0CB
S113245090E00E943E09809185048093860486EC76
S11324600E94E000809186040E94160107C585360B
S1132470A1F4E2D8E1D86C2D7D2D82E090E00E9499
S11324803E09809185048093860486EC0E94E000D6
S1132490809186040E941601F1C4833709F0EEC4CA
S11324A09FD96C2D7D2D82E090E00E943E098091A1
S11324B085048093860486EC0E94E0008091860463
S11324C00E941601DBC48330910539F422813381E3
S11324D02C30310509F0BCC109C08C30910509F0DC
S11324E0AEC182819381039709F019C32C2D3D2D30
S11324F08B2D9A2D03C001962F5F3F4FA081B18190
S1132500AA0FBB1FAA0FBB1FA80FB91FAA0FBB1F7F
S1132510AA5FBD4F6D917C91428153816417750709
S1132520B9F4009719F440928504E5CF8130910500
S113253019F450928504DFCF8230910519F460922A
S11325408504D9CF8330910519F47092850403C0B2
S11325502430310584F2809186048E3609F057C008
S1132560909185049E3691F46C2D7D2D8C2D9D2D9E
S11325700E943E09809185048093860486EC0E9423
S1132580E000809186040E94160178C4953699F47F
S113259053D86C2D7D2D8C2D9D2D0E943E0980914C
S11325A085048093860486EC0E94E0008091860472
S11325B00E94160163C49337A1F43ED83DD86C2D14
S11325C07D2D8C2D9D2D0E943E0980918504809344
S11325D0860486EC0E94E000809186040E94160125
S11325E04DC4973709F0CDC0FBD86C2D7D2D8C2DB3
S11325F09D2D0E943E09809185048093860486EC7B
S11326000E94E000809186040E94160137C485363A
S113261009F05AC080918504853691F46C2D7D2D86
S11326208C2D9D2D0E943E09809185048093860403
S113263086EC0E94E000809186040E9416011EC46C
S11326408337A1F40E941C0B6C2D7D2D8C2D9D2DA8
S11326500E943E09809185048093860486EC0E9442
S1132660E000809186040E94160108C48737B1F403
S11326700E941C0B0E941C0B6C2D7D2D8C2D9D2DFE
S11326800E943E09809185048093860486EC0E9412
S1132690E000809186040E941601F0C38E3609F092
S11326A0EDC39ED86C2D7D2D8C2D9D2D0E943E0951
S11326B0809185048093860486EC0E94E0008091DA
S11326C086040E941601DAC3833709F05AC0809148
S11326D08504833791F46C2D7D2D8C2D9D2D0E94C6
S11326E03E09809185048093860486EC0E94E00074
S11326F0809186040E941601C1C38737A1F40E9409
S11327001C0B6C2D7D2D8C2D9D2D0E943E098091DE
S113271085048093860486EC0E94E0008091860400
S11327200E941601ABC38E36B1F40E941C0B0E94AA
S11327301C0B6C2D7D2D8C2D9D2D0E943E098091AE
S113274085048093860486EC0E94E00080918604D0
S11327500E94160193C3853609F090C341D86C2DAD
S11327607D2D8C2D9D2D0E943E09809185048093A2
S1132770860486EC0E94E000809186040E94160183
S11327807DC3873709F07AC380918504873791F434
S11327906C2D7D2D8C2D9D2D0E943E0980918504EC
S11327A08093860486EC0E94E000809186040E9457
S11327B0160164C38E36A1F40E941C0B6C2D7D2D72
S11327C08C2D9D2D0E943E09809185048093860462
S11327D086EC0E94E000809186040E9416014EC39C
S11327E08536B1F40E941C0B0E941C0B6C2D7D2DB0
S11327F08C2D9D2D0E943E09809185048093860432
S113280086EC0E94E000809186040E94160136C383
S1132810833709F033C30E94F00B6C2D7D2D8C2D72
S11328209D2D0E943E09809185048093860486EC48
S11328300E94E000809186040E9416011FC38A3022
S1132840910531F482819381059709F068C108C02C
S1132850059709F064C1828193810A9709F05FC1E9
S11328606C2D7D2D8B2D9A2D03C001966F5F7F4FAC
S1132870A081B181AA0FBB1FAA0FBB1FA80FB91F4C
S1132880AA0FBB1FAA5FBD4F4D915C91228133817A
S113289042175307B9F4009719F440928504E5CF21
S11328A08130910519F450928504DFCF823091056F
S11328B019F460928504D9CF8330910519F470928C
S11328C0850403C06430710584F2809186048E36D9
S11328D009F047C0909185049E3669F45ADB8091D3
S11328E085048093860486EC0E94E000809186042F
S11328F00E941601C3C2953679F40E941C0B49DB71
S1132900809185048093860486EC0E94E000809187
S113291086040E941601B2C2933789F40E941C0BEC
S11329200E941C0B36DB809185048093860486EC20
S11329300E94E000809186040E9416019FC297378E
S113294009F0A3C00E94F00B24DB809185048093DE
S1132950860486EC0E94E000809186040E941601A1
S11329608DC2853609F047C080918504853669F4A7
S113297010DB809185048093860486EC0E94E0003D
S1132980809186040E94160179C2833779F40E94EB
S11329901C0BFFDA809185048093860486EC0E94E8
S11329A0E000809186040E94160168C2873789F48A
S11329B00E941C0B0E941C0BECDA8091850480930E
S11329C0860486EC0E94E000809186040E94160131
S11329D055C28E3609F052C20E94F00BDADA8091A9
S11329E085048093860486EC0E94E000809186042E
S11329F00E94160143C2833709F047C080918504C1
S1132A00833769F4C6DA809185048093860486EC62
S1132A100E94E000809186040E9416012FC287372D
S1132A2079F40E941C0BB5DA8091850480938604A6
S1132A3086EC0E94E000809186040E9416011EC26A
S1132A408E3689F40E941C0B0E941C0BA2DA809122
S1132A5085048093860486EC0E94E00080918604BD
S1132A600E9416010BC2853609F008C20E94F00BC1
S1132A7090DA809185048093860486EC0E94E000BD
S1132A80809186040E941601F9C1873709F0F6C1C6
S1132A9080918504873769F47CDA8091850480937A
S1132AA0860486EC0E94E000809186040E94160150
S1132AB0E5C18E3679F40E941C0B6BDA8091850493
S1132AC08093860486EC0E94E000809186040E9434
S1132AD01601D4C1853689F40E941C0B0E941C0B7C
S1132AE058DA809185048093860486EC0E94E00085
S1132AF0809186040E941601C1C1833709F0BEC1CA
S1132B000E94F00B46DA809185048093860486EC5B
S1132B100E94E000809186040E941601AFC18C2DB2
S1132B209D2D2B2D3A2D03C02F5F3F4F0196A08181
S1132B30B181AA0FBB1FAA0FBB1FA20FB31FAA0FFD
S1132B40BB1FAA5FBD4F0D90BC91A02D6281738104
S1132B50A617B707C1F42115310519F4409285046D
S1132B60E3CF2130310519F450928504DDCF2230B2
S1132B70310519F460928504D7CF2330310519F457
S1132B807092850403C08430910574F280918604A8
S1132B908E3609F05BC0909185049E3691F46C2DBD
S1132BA07D2D8B2D9A2D0E943E0980918504809362
S1132BB0860486EC0E94E000809186040E9416013F
S1132BC05DC19536A1F40E941C0B6C2D7D2D8B2DBF
S1132BD09A2D0E943E09809185048093860486EC98
S1132BE00E94E000809186040E94160147C1933739
S1132BF0B1F40E941C0B0E941C0B6C2D7D2D8B2D9F
S1132C009A2D0E943E09809185048093860486EC67
S1132C100E94E000809186040E9416012FC197371C
S1132C2009F0D0C00E94F00B6C2D7D2D8B2D9A2DB8
S1132C300E943E09809185048093860486EC0E945C
S1132C40E000809186040E94160118C1853609F0BF
S1132C505BC080918504853691F46C2D7D2D8B2D80
S1132C609A2D0E943E09809185048093860486EC07
S1132C700E94E000809186040E941601FFC0833701
S1132C80A1F40E941C0B6C2D7D2D8B2D9A2D0E947E
S1132C903E09809185048093860486EC0E94E000BE
S1132CA0809186040E941601E9C08737B1F40E941E
S1132CB01C0B0E941C0B6C2D7D2D8B2D9A2D0E94BC
S1132CC03E09809185048093860486EC0E94E0008E
S1132CD0809186040E941601D1C08E3609F0CEC0C0
S1132CE00E94F00B6C2D7D2D8B2D9A2D0E943E0998
S1132CF0809185048093860486EC0E94E000809194
S1132D0086040E941601BAC0833709F05BC0809123
S1132D108504833791F46C2D7D2D8B2D9A2D0E9483
S1132D203E09809185048093860486EC0E94E0002D
S1132D30809186040E941601A1C08737A1F40E94E5
S1132D401C0B6C2D7D2D8B2D9A2D0E943E0980919C
S1132D5085048093860486EC0E94E00080918604BA
S1132D600E9416018BC08E36B1F40E941C0B0E9487
S1132D701C0B6C2D7D2D8B2D9A2D0E943E0980916C
S1132D8085048093860486EC0E94E000809186048A
S1132D900E94160173C0853609F070C00E94F00BC2
S1132DA06C2D7D2D8B2D9A2D0E943E0980918504DA
S1132DB08093860486EC0E94E000809186040E9441
S1132DC016015CC0873709F059C0809185048737A4
S1132DD091F46C2D7D2D8B2D9A2D0E943E098091AE
S1132DE085048093860486EC0E94E000809186042A
S1132DF00E94160143C08E36A1F40E941C0B6C2D58
S1132E007D2D8B2D9A2D0E943E09809185048093FF
S1132E10860486EC0E94E000809186040E941601DC
S1132E202DC08536B1F40E941C0B0E941C0B6C2D26
S1132E307D2D8B2D9A2D0E943E09809185048093CF
S1132E40860486EC0E94E000809186040E941601AC
S1132E5015C0833799F40E94F00B6C2D7D2D8B2DBA
S1132E609A2D0E943E09809185048093860486EC05
S1132E700E94E000809186040E941601EFEFEE1A92
S1132E80FE0AF2E02F0E311CE016F10609F03CC9EF
S1132E90DF91CF911F910F91FF90EF90DF90CF9032
S1132EA0BF90AF909F908F907F906F905F904F9066
S1132EB03F902F900895EAE7F0E0108210927B0093
S1132EC080E280937C0080E880BF86E88083089558
S1132ED0F8940E943006EFDF0E94E6050E94C305C5
S1132EE078940E949B000C9405010895AF92BF92C0
S1132EF0CF92DF92EF92FF920F931F93CF93DF93C2
S1132F001F921F92CDB7DEB7E3DF1A82198280E5E4
S1132F1090E00E94FF218C0110920305109202059B
S1132F2083E78093860461E070E080E090E00E9493
S1132F303E09E0907704F0907804E114F10409F07C
S1132F409BC0E0907904F0907A040E940501C701C7
S1132F500E9489045C01409102055091030560912F
S1132F608704709188048EE792E00E9477029E01A4
S1132F702F5F3F4FA801B501C5010E94F803898165
S1132F809A81181619063CF420E030E02F5F3F4F79
S1132F9028173907D9F76091020570910305AE012E
S1132FA04F5F5F4FC8017AD8C8010E9497221A82E6
S1132FB019826AEE74E0C5010E941E0D0E946F0F13
S1132FC00E9405016801E12CF12CF6018191919197
S1132FD06F01019739F422E030E0A70161E081E05C
S1132FE00E944C01FFEFEF1AFF0A2DE0E216F104F4
S1132FF061F7B0920305A092020560918704709175
S11330008804A5018EE792E00E9477026091430450
S1133010709144049E012F5F3F4FA80180914504A5
S1133020909146040E94F80329813A8112161306EE
S113303034F480E090E0019682179307E1F7609101
S1133040020570910305AE014F5F5F4FC80126D89A
S1133050E981FA81E150F048EE0FFF1FE00FF11F04
S1133060808191819093030580930205C8010E9499
S113307097221A821982DEC00E940501C7010E94AC
S113308089047C01409102055091030560918704F5
S1133090709188048EE792E00E9477029E012F5F70
S11330A03F4FA801B701C7010E94F80349815A8123
S11330B0141615063CF420E030E02F5F3F4F241730
S11330C03507D9F76091020570910305AE014F5F92
S11330D05F4FC8010E944E10C8010E9497221A82B5
S11330E019826AEE74E0C7010E941E0D0E94270F28
S11330F00E940501F0920305E0920205E090790434
S1133100F0907A040E940501C7010E9489045C01C1
S113311040910205509103056091870470918804E1
S11331208EE792E00E9477029E012F5F3F4FA80135
S1133130B501C5010E94F80389819A811816190600
S11331403CF420E030E02F5F3F4F28173907D9F7D0
S11331506091020570910305AE014F5F5F4FC80196
S11331600E944E10C8010E9497221A8219826AEEA8
S113317074E0C5010E941E0D0E946F0F0E9405019C
S11331806801E12CF12CF601819191916F01019775
S113319039F422E030E0A70161E081E00E944C01B3
S11331A0FFEFEF1AFF0A2DE0E216F10461F7B09287
S11331B00305A09202056091870470918804A5011B
S11331C08EE792E00E947702609143047091440478
S11331D09E012F5F3F4FA8018091450490914604C2
S11331E00E94F80329813A811216130634F480E010
S11331F090E0019682179307E1F7609102057091C0
S11332000305AE014F5F5F4FC8010E944E10E98174
S1133210FA81E150F048EE0FFF1FE00FF11F8081AB
S113322091819093030580930205C8010E9497221F
S11332301A821982809102059091030587309105C5
S113324091F40E94610B61E070E083E090E00E94E1
S11332503E0985E68093860488E090E09093030518
S11332608093020513C0089789F40E94590E61E007
S113327070E083E090E00E943E0987E78093860433
S113328087E090E090930305809302054091020546
S11332905091030560918704709188048EE792E051
S11332A00E94770260915104709152049E012F5F35
S11332B03F4FA80180915504909156040E94F80351
S11332C029813A811216130634F480E090E00196C5
S11332D082179307E1F721503048F901EE0FFF1FE1
S11332E0E00FF11FE080F180609102057091030509
S11332F0AE014F5F5F4FC8010E944E10C8010E948B
S113330097221A8219826AEE74E0C7010E941E0D88
S11333100E940501F0920305E0920205C7010E9494
S1133320EB047C01E7E6F4E080E090E020E030E0AC
S1133330BFEFAFEF419151914E155F05C1F4AC0160
S11333408230910508F43EC6BC01625071096230B6
S1133350710508F43BC6625071096230710508F4C6
S11333603AC6465051094230510518F43AC62B2F3B
S11333703A2F01968A309105E9F669012F3F8FEFC4
S1133380380799F591E0E916F10489F1E2E0EE16C7
S1133390F10491F1F3E0EF16F10491F124E0E21667
S11333A0F10499F185E0E816F104A9F196E0E91633
S11333B0F104B9F1E7E0EE16F104C9F1F8E0EF1613
S11333C0F104D1F129E0E216F104E1F18AE0E81612
S11333D0F104F1F19BE0E916F10409F43FC0ECE0DB
S11333E0EE16F10409F045C03FC0690142C068947B
S11333F0EE24E1F8F12C3DC0EE24E394F12C39C025
S11334006894EE24E2F8F12C34C00F2EF3E0EF2E92
S1133410F12CF02D2EC00F2EF6E0EF2EF12CF02D16
S113342028C00F2EF5E0EF2EF12CF02D22C0689469
S1133430EE24E3F8F12C1DC00F2EF7E0EF2EF12C53
S1133440F02D17C00F2EFAE0EF2EF12CF02D11C045
S11334500F2EF9E0EF2EF12CF02D0BC00F2EFCE017
S1133460EF2EF12CF02D05C00F2EFBE0EF2EF12CEA
S1133470F02DE7E6F4E080E090E07FEF6FEF21913C
S113348031912E153F05C1F49C018230910508F459
S1133490ADC5AC01425051094230510508F4AAC5EA
S11334A0425051094230510508F4A9C5265031094A
S11334B02230310518F4A9C5C72ED62E01968A30BC
S11334C09105E9F6FFEFCF16DF0611F00E94270FF2
S11334D0C601880F991FFC01EE0FFF1FEB59FB4F2C
S11334E0A080B180AE14BF0439F4FC01EE0FFF1FBD
S11334F0ED59FB4FA080B180409102055091030526
S113350060918704709188048EE792E00E947702AC
S1133510C5010E9489049E012F5F3F4FA801BC0191
S11335200E94F80329813A811216130634F480E0CC
S113353090E0019682179307E1F721503048F90192
S1133540EE0FFF1FE00FF11FE080F1806091020594
S113355070910305AE014F5F5F4FC8010E944E108A
S1133560C801E5D71A8219826AEE74E0C7010E9485
S11335701E0D0E946F0F409102055091030560914A
S11335808704709188048EE792E00E947702C60156
S11335900E94A1059E012F5F3F4FA801BC010E941C
S11335A0F80389819A81181619063CF420E030E06A
S11335B02F5F3F4F28173907D9F7609102057091A3
S11335C00305AE014F5F5F4FC8010E944E10C80152
S11335D0AED71A82198221E0C216D10401F587E719
S11335E0809385040E942E0C0E9489068FEF9FE72A
S11335F0E4E081509040E040E1F700C000000E9408
S11336009B0680917B0490917C04892B29F40E9471
S1133610C0070E9402086EC00E9448086BC0F2E016
S1133620CF16D10401F585E6809385040E942E0C03
S11336300E9489062FEF8FE794E02150804090404C
S1133640E1F700C000000E949B0680917D049091E8
S11336507E04892B29F40E94C0070E9402084AC0F4
S11336600E94480847C0E3E0CE16D10401F587E77D
S1133670809385040E942E0C0E948906FFEF2FE799
S113368084E0F15020408040E1F700C000000E9437
S11336909B0680917F0490918004892B29F40E94D9
S11336A0C0070E94020826C00E94480823C094E074
S11336B0C916D104F9F485E6809385040E942E0C82
S11336C00E948906EFEFFFE724E0E150F04020403C
S11336D0E1F700C000000E949B0680918104909154
S11336E08204892B29F40E94C0070E94020802C0A8
S11336F00E94480840910205509103056091870497
S1133700709188048EE792E00E94770260915904D8
S113371070915A049E012F5F3F4FA80180915D0470
S113372090915E040E94F80389819A811816190603
S11337303CF420E030E02F5F3F4F28173907D9F7DA
S113374081509048FC01EE0FFF1FE00FF11FE08055
S1133750F1806091020570910305AE014F5F5F4FE8
S1133760C8010E944E10C801E2D61A8219826AEE7C
S113377074E0C7010E941E0D0E940501F09203052A
S1133780E0920205C7010E94EB045C01E7E6F4E065
S113379080E090E07FEF6FEF219131912A153B0596
S11337A0C1F49C018230910508F434C4AC01425048
S11337B051094230510508F431C442505109423094
S11337C0510508F430C4265031092230310518F46B
S11337D030C4C72ED62E01968A309105E9F67601BB
S11337E08FEFC816D80699F591E0A916B10489F1AE
S11337F0E2E0AE16B10491F1F3E0AF16B10491F139
S113380024E0A216B10499F185E0A816B104A9F147
S113381096E0A916B104B9F1E7E0AE16B104C9F116
S1133820F8E0AF16B104D1F129E0A216B104E1F138
S11338308AE0A816B104F1F19BE0A916B10409F4D9
S11338403FC0ECE0AE16B10409F045C03FC07601BC
S113385042C06894AA24A1F8B12C3DC0AA24A39420
S1133860B12C39C06894AA24A2F8B12C34C00F2E0C
S1133870F3E0AF2EB12CF02D2EC00F2EF6E0AF2EBC
S1133880B12CF02D28C00F2EF5E0AF2EB12CF02D69
S113389022C06894AA24A3F8B12C1DC00F2EF7E00F
S11338A0AF2EB12CF02D17C00F2EFAE0AF2EB12C95
S11338B0F02D11C00F2EF9E0AF2EB12CF02D0BC05E
S11338C00F2EFCE0AF2EB12CF02D05C00F2EFBE027
S11338D0AF2EB12CF02DE7E6F4E080E090E07FEF2E
S11338E06FEF219131912A153B05C1F49C0182307F
S11338F0910508F4A3C3AC0142505109423051056B
S113390008F4A0C3425051094230510508F49FC342
S1133910265031092230310518F49FC3E72EF62EC4
S113392001968A309105E9F6FFEFEF16FF0611F0D4
S11339300E94270FC701880F991FFC01EE0FFF1F7C
S1133940EB59FB4FC080D180CA14DB0439F4FC016D
S1133950EE0FFF1FED59FB4FC080D180409102054F
S11339605091030560918704709188048EE792E07A
S11339700E947702C6010E9489049E012F5F3F4F77
S1133980A801BC010E94F80389819A8118161906BE
S11339903CF420E030E02F5F3F4F28173907D9F778
S11339A081509048FC01EE0FFF1FE00FF11FC08013
S11339B0D1806091020570910305AE014F5F5F4FA6
S11339C0C8010E944E10C801B2D51A8219826AEE4B
S11339D074E0C6010E941E0D0E946F0F4091020503
S11339E05091030560918704709188048EE792E0FA
S11339F00E947702C7010E94A1059E012F5F3F4FDD
S1133A00A801BC010E94F80389819A81181619063D
S1133A103CF420E030E02F5F3F4F28173907D9F7F7
S1133A206091020570910305AE014F5F5F4FC801BD
S1133A300E944E10C8017BD51A82198221E0E21639
S1133A40F10401F587E7809385040E942E0C0E94FF
S1133A5089068FEF9FE7E4E081509040E040E1F772
S1133A6000C000000E949B0680917B0490917C041E
S1133A70892B29F40E94C0070E9402086EC00E948C
S1133A8048086BC0F2E0EF16F10401F585E6809377
S1133A9085040E942E0C0E9489062FEF8FE794E084
S1133AA0215080409040E1F700C000000E949B0636
S1133AB080917D0490917E04892B29F40E94C00793
S1133AC00E9402084AC00E94480847C0E3E0EE167C
S1133AD0F10401F587E7809385040E942E0C0E946F
S1133AE08906FFEF2FE784E0F15020408040E1F7A2
S1133AF000C000000E949B0680917F049091800486
S1133B00892B29F40E94C0070E94020826C00E9443
S1133B10480823C094E0E916F104F9F485E680939B
S1133B2085040E942E0C0E948906EFEFFFE724E033
S1133B30E150F0402040E1F700C000000E949B06E5
S1133B408091810490918204892B29F40E94C007FA
S1133B500E94020802C00E94480840910205509148
S1133B60030560918704709188048EE792E00E94B7
S1133B70770260915F04709160049E012F5F3F4F54
S1133B80A80180916304909164040E94F8038981E0
S1133B909A81181619063CF420E030E02F5F3F4F5D
S1133BA028173907D9F781509048FC01EE0FFF1F01
S1133BB0E00FF11FC080D180609102057091030570
S1133BC0AE014F5F5F4FC8010E944E10C801AFD4D1
S1133BD01A8219826AEE74E0C6010E941E0D0E94C8
S1133BE00501D0920305C0920205C6010E94EB04B0
S1133BF05C01E7E6F4E080E090E07FEF6FEF219175
S1133C0031912A153B05C1F49C018230910508F4D9
S1133C1029C2AC01425051094230510508F426C270
S1133C20425051094230510508F425C22650310949
S1133C302230310518F425C2E72EF62E01968A307B
S1133C409105E9F667018FEFE816F80699F591E01A
S1133C50A916B10489F1E2E0AE16B10491F1F3E0E2
S1133C60AF16B10491F124E0A216B10499F185E0F4
S1133C70A816B104A9F196E0A916B104B9F1E7E0D8
S1133C80AE16B104C9F1F8E0AF16B104D1F129E0E0
S1133C90A216B104E1F18AE0A816B104F1F19BE0A7
S1133CA0A916B10409F43FC0ECE0AE16B10409F062
S1133CB045C03FC0670142C06894AA24A1F8B12C52
S1133CC03DC0AA24A394B12C39C06894AA24A2F8B4
S1133CD0B12C34C00F2EF3E0AF2EB12CF02D2EC03A
S1133CE00F2EF6E0AF2EB12CF02D28C00F2EF5E0EC
S1133CF0AF2EB12CF02D22C06894AA24A3F8B12CC5
S1133D001DC00F2EF7E0AF2EB12CF02D17C00F2ED3
S1133D10FAE0AF2EB12CF02D11C00F2EF9E0AF2E2A
S1133D20B12CF02D0BC00F2EFCE0AF2EB12CF02DDA
S1133D3005C00F2EFBE0AF2EB12CF02DE7E6F4E02A
S1133D4080E090E07FEF6FEF219131912A153B05E0
S1133D50C1F49C018230910508F498C1AC01425031
S1133D6051094230510508F495C14250510942307D
S1133D70510508F494C1265031092230310518F454
S1133D8094C1C72ED62E01968A309105E9F6FFEF2D
S1133D90CF16DF0611F00E94270FC601880F991F66
S1133DA0FC01EE0FFF1FEB59FB4FE080F180EA149A
S1133DB0FB0439F4FC01EE0FFF1FED59FB4FE080CB
S1133DC0F180409102055091030560918704709140
S1133DD088048EE792E00E947702C7010E9489045A
S1133DE09E012F5F3F4FA801BC010E94F803898107
S1133DF09A81181619063CF420E030E02F5F3F4FFB
S1133E0028173907D9F781509048FC01EE0FFF1F9E
S1133E10E00FF11FE080F1806091020570910305CD
S1133E20AE014F5F5F4FC8010E944E10C8017FD39F
S1133E301A8219826AEE74E0C7010E941E0D0E9464
S1133E406F0F4091020550910305609187047091B2
S1133E5088048EE792E00E947702C6010E94A105C1
S1133E609E012F5F3F4FA801BC010E94F803898186
S1133E709A81181619063CF420E030E02F5F3F4F7A
S1133E8028173907D9F76091020570910305AE012F
S1133E904F5F5F4FC8010E944E10C80148D31A8279
S1133EA0198221E0C216D10401F587E780938504C5
S1133EB00E942E0C0E9489068FEF9FE7E4E0815058
S1133EC09040E040E1F700C000000E949B06809112
S1133ED07B0490917C04892B29F40E94C0070E94E2
S1133EE00208E8C00E944808E5C0F2E0CF16D104F9
S1133EF001F585E6809385040E942E0C0E948906B4
S1133F002FEF8FE794E0215080409040E1F700C00C
S1133F1000000E949B0680917D0490917E04892B71
S1133F2029F40E94C0070E940208C4C00E944808E5
S1133F30C1C0E3E0CE16D10401F587E78093850480
S1133F400E942E0C0E948906FFEF2FE784E0F150B7
S1133F5020408040E1F700C000000E949B06809151
S1133F607F0490918004892B29F40E94C0070E9449
S1133F700208A0C00E9448089DC094E0C916D1045C
S1133F8009F098C085E6809385040E942E0C0E9457
S1133F908906EFEFFFE724E0E150F0402040E1F72D
S1133FA000C000000E949B068091810490918204CD
S1133FB0892B29F40E94C0070E9402087BC00E943A
S1133FC0480878C0CC24C394D12C53CA6894CC2418
S1133FD0C1F8D12C4ECA0F2EF3E0CF2ED12CF02DE8
S1133FE048CA6894CC24C2F8D12C43CACC24C394C4
S1133FF0D12C6CCA6894CC24C1F8D12C67CA0F2E7A
S1134000F3E0CF2ED12CF02D61CA6894CC24C2F8F1
S1134010D12C5CCAEE24E394F12C5DCC6894EE249C
S1134020E1F8F12C58CC0F2EF3E0EF2EF12CF02D0B
S113403052CC6894EE24E2F8F12C4DCCEE24E394B7
S1134040F12C76CC6894EE24E1F8F12C71CC0F2E8F
S1134050F3E0EF2EF12CF02D6BCC6894EE24E2F813
S1134060F12C66CCCC24C394D12C68CE6894CC2497
S1134070C1F8D12C63CE0F2EF3E0CF2ED12CF02D2E
S11340805DCE6894CC24C2F8D12C58CECC24C394F1
S1134090D12C81CE6894CC24C1F8D12C7CCE0F2EA7
S11340A0F3E0CF2ED12CF02D76CE6894CC24C2F838
S11340B0D12C71CE80E090E00F900F90DF91CF91E2
S11340C01F910F91FF90EF90DF90CF90BF90AF9032
S11340D008955058BB27AA270ED048C139D130F0D3
S11340E03ED120F031F49F3F11F41EF42EC10EF4A2
S11340F0E095E7FB24C1E92F4AD180F3BA176207A0
S113410073078407950718F071F49EF562C10EF4E5
S1134110E0950B2EBA2FA02D0B01B90190010C01D3
S1134120CA01A0011124FF27591B99F0593F50F4EB
S1134130503E68F11A16F040A22F232F342F442743
S1134140585FF3CF469537952795A795F04053953B
S1134150C9F77EF41F16BA0B620B730B840BBAF00B
S11341609150A1F0FF0FBB1F661F771F881FC2F776
S11341700EC0BA0F621F731F841F48F4879577958A
S11341806795B795F7959E3F08F0B3CF9395880F41
S113419008F09927EE0F9795879508950CD0E6C0FF
S11341A0DED040F0D5D030F021F45F3F19F0C7C025
S11341B0511110C1CAC0EBD098F39923C9F3552308
S11341C0B1F3951B550BBB27AA2762177307840706
S11341D038F09F5F5F4F220F331F441FAA1FA9F3BC
S11341E033D00E2E3AF0E0E830D091505040E695AE
S11341F0001CCAF729D0FE2F27D0660F771F881F0F
S1134200BB1F261737074807AB07B0E809F0BB0BFD
S1134210802DBF01FF2793585F4F2AF09E3F510521
S113422068F08DC0D7C05F3FECF3983EDCF3869511
S113423077956795B795F7959F5FC9F7880F911D97
S11342409695879597F90895E1E0660F771F881F83
S1134250BB1F621773078407BA0720F0621B730B36
S1134260840BBA0BEE1F88F7E095089598D088F078
S11342709F5790F0B92F9927B751A0F0D1F0660F4E
S1134280771F881F991F1AF0BA95C9F712C0B13069
S113429081F09FD0B1E008959CC0672F782F8827C4
S11342A0B85F39F0B93FCCF3869577956795B395A8
S11342B0D9F73EF490958095709561957F4F8F4F17
S11342C09F4F0895E89409C097FB3EF4909580951C
S11342D0709561957F4F8F4F9F4F9923A9F0F92FC8
S11342E096E9BB279395F695879577956795B79546
S11342F0F111F8CFFAF4BB0F11F460FF1BC06F5F2C
S11343007F4F8F4F9F4F16C0882311F096E911C03D
S1134310772321F09EE8872F762F05C0662371F05E
S113432096E8862F70E060E02AF09A95660F771F72
S1134330881FDAF7880F9695879597F9089597F966
S11343409F6780E870E060E008959FEF80EC089537
S113435000240A9416161706180609060895002460
S11343600A9412161306140605060895092E0394DA
S1134370000C11F4882352F0BB0F40F4BF2B11F44E
S113438060FF04C06F5F7F4F8F4F9F4F089557FDAD
S11343909058440F551F59F05F3F71F04795880FAF
S11343A097FB991F61F09F3F79F087950895121646
S11343B013061406551FF2CF4695F1DF08C01616F2
S11343C017061806991FF1CF8695710561050894A3
S11343D00895E894BB2766277727CB0197F90895BA
S11343E0A29FB001B39FC001A39F700D811D112432
S11343F0911DB29F700D811D1124911D0895CF93BD
S1134400DF938230910510F482E090E0E0915A0548
S1134410F0915B0520E030E0A0E0B0E0309739F1A6
S11344204081518148175907B8F04817590771F46A
S113443082819381109729F013969C938E931297FF
S11344402CC090935B0580935A0527C02115310534
S113445031F04217530718F0A901DB0101C0EF0145
S11344609A01BD01DF010280F381E02DD7CF211530
S11344703105F9F0281B390B2430310580F48A8189
S11344809B816115710521F0FB019383828304C034
S113449090935B0580935A05FE01329644C0FE0159
S11344A0E20FF31F819391932250310939832883BA
S11344B03AC02091580530915905232B41F420919D
S11344C0020230910302309359052093580520913C
S11344D00002309101022115310541F42DB73EB798
S11344E04091040250910502241B350BE0915805BC
S11344F0F0915905E217F307A0F42E1B3F0B281780
S1134500390778F0AC014E5F5F4F2417350748F048
S11345104E0F5F1F50935905409358058193919313
S113452002C0E0E0F0E0CF01DF91CF910895CF9396
S1134530DF93009709F487C0FC013297138212823B
S1134540C0915A05D0915B05209781F42081318177
S1134550280F391F809158059091590582179307A8
S113456079F5F0935905E09358056DC0DE0120E01C
S113457030E0AE17BF0750F412964D915C9113973B
S11345809D014115510509F1DA01F3CFB383A283EB
S113459040815181840F951F8A179B0771F48D9177
S11345A09C911197840F951F029691838083129694
S11345B08D919C911397938382832115310529F45E
S11345C0F0935B05E0935A053EC0D9011396FC9322
S11345D0EE9312974D915D91A40FB51FEA17FB0757
S11345E079F480819181840F951F0296D9011196E7
S11345F09C938E938281938113969C938E931297AE
S1134600E0E0F0E08A819B81009719F0FE01EC0163
S1134610F9CFCE01029628813981820F931F209110
S11346205805309159052817390769F4309729F44A
S113463010925B0510925A0502C013821282D09325
S11346405905C0935805DF91CF910895F894FFCF91
S113465000005C05200000000E00000001000200C4
S1134660000000000000030000000100000004003E
S11346700C0002000000050000000300000006001A
S11346800A0004000000070000000500000000000C
S113469008000600000000000000090007000800F0
S11346A000000A000000090000000B0005000A00D9
S11346B000000C0000000B0000000D0003000C00C3
S11346C000000E0000000D000000000000000000CB
S11346D002000000000000000000000000000000D4
S11346E000000000000000000000020002000000C2
S11346F001000000000000000000000000000000B5
S113470000000000000000000000000001000000A4
S11347100100000000000000000000000000000094
S11347200000000000000000000000000100000084
S11347300100000000000000000000000000000074
S1134740060000000000000000000000010000005E
S11347500100000000000000000000000000000054
S11347600000000000000000000000000100000044
S1134770010000000000000006000000000000002E
S11347800000000000000000000000000100000024
S11347900100000000000000000000000000000014
S11347A00000000000000000000000000100000004
S11347B008000000000000000000000000000000ED
S11347C000000000000000000000000008000000DD
S11347D001000000000000000000000000000000D4
S11347E000000000000000000000000001000000C4
S11347F001000000000000000000000000000000B4
S1134800000000000600000000000000010000009D
S11348100100000000000000000000000000000093
S11348200000000000000000000000000100000083
S1134830010000000000000000000000060000006D
S11348400000000000000000000000000100000063
S11348500100000000000000000000000000000053
S11348600000000000000000000000000100000043
S11348700100020000000000000000000000000031
S11348800000000000000000000000000100000023
S1134890CDB9E6080007000A0005000C0003000972
S11348A0000900060006000B000B00040004000DC4
S11348B0000D000200020003000B000900050004C3
S11348C000070001000000020008000100000000D1
S11348D000010000006E770F004C696E652D466F75
S11348E06C6C6F7765720057616C6C2D466F6C6CE5
S11348F06F776572005A69672D5A61670020454ECB
S11349004420002D2D2D2D2D2A2A2A2A2D2D2D2D02
S11349102D005374617469630052656F7269656E2A
S1134920746174696F6E00496E76657273696F6E37
S1054930000081
S9030000FC
