S00D00005461736B352E737265634F
S113000071C000008EC000008CC000008AC00000D7
S113001088C0000086C0000084C0000082C00000C8
S113002080C000007EC000007CC000007AC00000D8
S113003078C0000076C0000074C0000072C00000E8
S113004070C000006EC000006CC000006AC00000F8
S113005068C0000066C0000064C0000062C0000008
S113006060C000005EC000005CC000005AC0000018
S113007058C0000056C0000054C0000052C0000028
S113008050C000004EC000004CC000004AC0000038
S113009048C0000046C0000044C0000042C0000048
S11300A040C000003EC000003CC000003AC0000058
S11300B038C0000036C0000034C0000032C0000068
S11300C030C000002EC000002CC000002AC0000078
S11300D028C0000026C0000024C0000022C0000088
S11300E020C0000011241FBECFEFD1E2DEBFCDBF80
S11300F000E00CBF12E0A0E0B2E0E4E6F6E000E0CD
S11301000BBF02C007900D92A430B107D9F722E0CB
S1130110A4E0B2E001C01D92AA31B207E1F797D280
S11301209FC26ECF87B1876F87B988B1887088B94D
S1130130089586E69EE00197F1F700004098419803
S113014080E388B9429A8FEF97E40197F1F700C0F2
S11301500000429886E69EE00197F1F7000040987F
S1130160419880E388B9429A8FEF97E40197F1F7B9
S113017000C00000429886E69EE00197F1F7000077
S11301804098419880E388B9429A8FEF97E40197A9
S1130190F1F700C00000429886E69EE00197F1F76F
S11301A000004098419880E288B9429A8FEF97E422
S11301B00197F1F700C000004298089598B19F702C
S11301C098B998B1282F207F922B98B940984198DC
S11301D0429AEFEFF7E43197F1F700C0000042983C
S11301E098B19F7098B998B18295807F892B88B90E
S11301F040984198429A8FEF97E40197F1F700C035
S113020000004298089595DF86E69EE00197F1F795
S1130210000088E2D3DF81E0D1DF86E0CFDF8EE02B
S1130220CDDF80E8CBCF0895E1E8F0E010828CEFD9
S11302308093850081E08093840093E0909389000B
S11302408FEF8093880090938B0080938A00909323
S11302508D0080938C0090938700809386008BEAB6
S113026080938000109282008CE080830895E1E204
S1130270F1E010828FEF8093250191E090932401A7
S1130280109229018093280110922B0180932A0156
S113029010922D0180932C0189EA809320018BE038
S11302A0808308959B9AA398089581B18F6081B942
S11302B082B1807F82B9EAE0F1E080818861808345
S11302C0EBE0F1E08081886180830895259A2D9A7E
S11302D00895269A2E9A0895279A2F9A0895E1E070
S11302E0F1E080818FEF8083E2E0F1E080818E7F16
S11302F08083089510BA11BA109207011092080170
S11303000895D0DFD2DFE2DFE4DFE6DFE8DF0ADFF3
S1130310F1CF089592B1907F8F70982B92B9089580
S113032089E0F8CF089584E0F5CF089582E0F2CF14
S1130330089580E0EFCF0895883018F098E0909306
S11303407B008770806280937C00EAE7F0E0808124
S113035080648083808184FFFDCF80917900EAE707
S1130360F0E090819061908310927B000895AF92A9
S1130370BF92CF92DF92EF92FF920F931F93CF938E
S1130380DF93EC015B01161617060CF0D3C0CC24E6
S1130390C394D12C0F2EF8E2EF2EFF24F394F02D0A
S11303A00AE211E0BDDF80910202F7018083F801C7
S11303B0808381E0C1DF8093120282E0BDDF8093FD
S11303C0070283E0B9DF80930A02C230D105B9F491
S11303D0909112022091070230E0290F311D280F5D
S11303E0311D2D32314024F1A4DF2FEF8FE794E04B
S11303F0215080409040E1F700C0000090C0209759
S1130400B9F4909112022091070230E0290F311DB6
S1130410280F311D213931405CF08BDFFFEF2FE7CE
S113042086E1F15020408040E1F700C0000077C031
S1130430909112029C3378F4209107022D3758F0E2
S11304408C3348F480910202F70180838091020288
S1130450F8018083AECF983278F4209107022C33D0
S113046058F48D3848F080910202F701808380911E
S11304700102F80180839DCF883278F4209107022D
S11304802C3358F49D3848F080910102F7018083A1
S113049080910202F80180838CCF40910702242FBF
S11304A030E0290F311D280F311D283C3105BCF4E3
S11304B043534133A0F48917D0F580910002F7012A
S11304C0808380910202F801808373CF80910202BD
S11304D0F701808380910002F80180836ACFC130E4
S11304E0D10509F066CF8BE027DF809311028C34AD
S11304F008F45FCF80911202803508F05ACF8091C2
S11305000A02803508F055CF14DFFFEF2FE78DE0A6
S1130510F15020408040E1F700C0000016D09FEF6A
S1130520C91AD90AAC14BD040CF03CCF03C0981707
S113053068F2D5CFDF91CF911F910F91FF90EF908B
S1130540DF90CF90BF90AF900895CF92DF92EF925B
S1130550FF920F931F93CF93DF93E2DE8091020209
S11305608093280180932A012FEF8FE796E1215091
S113057080409040E1F700C0000008E211E00F2E37
S1130580F2E7CF2EF02DCAE2D1E00F2EF5E7EF2EE1
S1130590F02D0F2EFFE6DF2EF02D0F2EFCEDFF2E9B
S11305A0F02D8BE0C9DE809311029DE8980F903105
S11305B060F4B6DEF801F082F882F6E626E082E026
S11305C0F15020408040E1F7ECCF833858F0ABDEA7
S11305D0F801E082D8828CEC9CE10197F1F700C02D
S11305E00000DFCF9FEA980F923258F49FDEF801A3
S11305F0C082E8828CEC9CE10197F1F700C0000016
S1130600D0CF803570F661E070E080E090E0AFDE3E
S1130610DF91CF911F910F91FF90EF90DF90CF90DA
S11306200895EAE7F0E0108210927B0080E2809364
S11306307C0080E880BF86E880830895F89461DEBA
S1130640F0DF15DEF1DD789474DDDDCD0895F6DF9D
S113065061E070E081E090E08ADE80E090E008955F
S1070660F894FFCF38
S1070664CDB9FF0009
S9030000FC
