S00D00005461736B352E737265634F
S11300007BC0000099C0000097C0000095C00000AC
S113001093C0000091C000008FC000008DC000009C
S11300208BC0000089C0000087C0000085C00000AC
S113003083C0000081C000007FC000007DC00000BC
S11300407BC0000079C0000077C0000075C00000CC
S113005073C0000071C000006FC000006DC00000DC
S11300606BC0000069C0000067C0000065C00000EC
S113007063C0000061C000005FC000005DC00000FC
S11300805BC0000059C0000057C0000055C000000C
S113009053C0000051C000004FC000004DC000001C
S11300A04BC0000049C0000047C0000045C000002C
S11300B043C0000041C000003FC000003DC000003C
S11300C03BC0000039C0000037C0000035C000004C
S11300D033C0000031C000002FC000002DC000005C
S11300E02BC0000076037D0384038B0392039903E2
S11300F0A003A703B403C10311241FBECFEFD1E2B1
S1130100DEBFCDBF00E00CBF12E0A0E0B2E0E2ED44
S1130110F3E100E00BBF02C007900D92A83AB107CB
S1130120D9F722E0A8EAB2E001C01D92AE3BB207C3
S1130130E1F777D70C94E70963CF87B1876F87B965
S113014088B1887088B9089586E69EE00197F1F732
S113015000004098419880E388B9429A8FEF97E471
S11301600197F1F700C00000429886E69EE00197EF
S1130170F1F700004098419880E388B9429A8FEFE4
S113018097E40197F1F700C00000429886E69EE0EC
S11301900197F1F700004098419880E388B9429AAA
S11301A08FEF97E40197F1F700C00000429886E6CC
S11301B09EE00197F1F700004098419880E288B9E9
S11301C0429A8FEF97E40197F1F700C0000042983C
S11301D0089598B19F7098B998B1282F207F922BD9
S11301E098B940984198429AEFEFF7E43197F1F7C4
S11301F000C00000429898B19F7098B998B1829558
S1130200807F892B88B940984198429A8FEF97E470
S11302100197F1F700C000004298089595DF86E643
S11302209EE00197F1F7000088E2D3DF81E0D1DF9F
S113023086E0CFDF8EE0CDDF80E8CBCF089598B1A4
S11302409F7098B998B1282F207F922B98B9409A23
S11302504198429AEFEFF7E43197F1F700C00000BC
S1130260429898B19F7098B998B18295807F892BF4
S113027088B9409A4198429A8FEF97E40197F1F731
S113028000C000004298089580E8A3CF0895CF935A
S1130290DF93EC018881882329F02196D0DF8991AE
S11302A08111FCCFDF91CF910895823069F018F469
S11302B0813031F00895833059F0843069F0089525
S11302C08FE7860F86CF08958FEB860F82CF089530
S11302D083E9860F7ECF089583ED860F7ACF089544
S11302E00F931F93CF93DF938A01E901882311F0C1
S11302F0611102C0C9DF01C0D8DFC530D10509F0E2
S1130300D0C09801329522952F7023273F70232760
S1130310A7E4B3E00E94D8099695879596958795AA
S113032096958795C0969093A9028093A80287DF3B
S11303309801369527953695279536952795A5ECFA
S1130340B0E20E94D809AC01529542954F704527FE
S11303505F7045275093AD024093AC029A01ADEC17
S1130360BCEC0E94D80996958795969587959695A5
S113037087959C01220F331F880F991F880F991F9F
S1130380880F991F820F931F481B590BCA01C096EF
S11303909093BB028093BA0252DF04C0C330D105EC
S11303A009F084C098013695279536952795ABE7D3
S11303B0B4E1FED7AC01569547955093AD024093F6
S11303C0AC029A01ADECBCECF3D796958795969563
S11303D08795969587959C01220F331F880F991F47
S11303E0880F991F880F991F820F931F481B590B61
S11303F0CA01C0969093B4028093B30220DF98019F
S1130400ADECBCECD5D7AC015695479556954795C0
S1130410569547955093AD024093AC029A01C8D7C4
S11304209695879596958795969587959C01220F25
S1130430331F880F991F880F991F880F991F820FE8
S1130440931F481B590BCA01C0969093B202809324
S1130450B102F5DE03C0C130D105F1F49801ADEC71
S1130460BCECA6D79695879596958795969587958E
S11304709C01220F331F880F991F880F991F880F23
S1130480991F820F931F081B190BC801C0969093E4
S1130490B9028093B802D3DE269764F085E4CFDEF8
S11304A009C0C430D10509F079CF42CFC230D1059B
S11304B091F6A5CFDF91CF911F910F910895E1E8B7
S11304C0F0E010828CEF8093850081E080938400BB
S11304D093E0909389008FEF8093880090938B0032
S11304E080938A0090938D0080938C009093870072
S11304F0809386008BEA80938000109282008CE0C7
S113050080830895E1E2F1E010828FEF809325016A
S113051091E0909324011092290180932801109274
S11305202B0180932A0110922D0180932C0189EADA
S1130530809320018BE0808308959B9AA39808956B
S113054081B18F6081B982B1807F82B9EAE0F1E044
S1130550808188618083EBE0F1E080818861808321
S11305600895259A2D9A0895269A2E9A0895279AE1
S11305702F9A0895E1E0F1E080818FEF8083E2E03B
S1130580F1E080818E7F8083089510BA11BA1092B1
S11305900701109208010895D0DFD2DFE2DFE4DF23
S11305A0E6DFE8DFCADDF1CF089592B1907F8F7066
S11305B0982B92B9089586E0F8CF089589E0F5CF95
S11305C0089585E0F2CF08958AE0EFCF089584E09E
S11305D0ECCF089582E0E9CF089580E0E6CF089556
S11305E0682FE2E0F1E080818160808326E686EE78
S11305F090E0215080409040E1F710928D0070E02F
S113060080E090E041D62BE734E14EEE5FE3A8D5DD
S113061020E030E04CE052E43FD50AD660938C00F1
S11306200895682FE2E0F1E080818E7F808326E6E2
S113063086EE90E0215080409040E1F710928D00CA
S113064070E080E090E020D62BE734E14EEE5FE3EB
S113065087D520E030E04CE052E41ED5E9D5609324
S11306608C00089583E0809389008FEF8093880045
S1130670089583E080938B008FEF80938A00089520
S113068083E080938D008FEF80938C00089583E046
S113069080938D008FEF80938C000895883018F03C
S11306A098E090937B008770806280937C00EAE7F7
S11306B0F0E0808180648083808184FFFDCF80911D
S11306C07900EAE7F0E090819061908310927B00DA
S11306D00895CF93DF93EC01A1DDFE013197EA3059
S11306E0F10508F054C0EE58FF4F5CC663E081E0AA
S11306F0DCDD83E092E0CBDD4AC063E081E0D5DD60
S113070081E192E0C4DD43C063E081E0CEDD8FE1AE
S113071092E0BDDD3CC063E081E0C7DD87E292E0AA
S1130720B6DD35C063E081E0C0DD8BE392E0AFDD90
S11307302EC063E081E0B9DD8EE492E0A8DD27C03D
S113074063E081E0B2DD84E692E0A1DD20C067E0F1
S113075081E0ABDD89E792E09ADD63E082E0A5DD2C
S11307608FE792E094DD13C066E081E09EDD89E8C6
S113077092E08DDD63E082E098DD80E992E087DD40
S113078006C063E081E091DD8EE992E080DDDF91D7
S1130790CF9108951092890086E5809388002FEF09
S11307A08FEB91E2215080409040E1F700C00000BF
S11307B059DF88E715DF2FEF8FEB91E2215080405E
S11307C09040E1F700C000005BDF10928B0089E5E8
S11307D080938A002FEF8FEF9CE22150804090405D
S11307E0E1F700C0000084E1FBDE2FEF8FEB91E224
S11307F0215080409040E1F700C0000010928B002F
S113080083E280938A002FEF8FEF9CE22150804097
S11308109040E1F700C0000008951092890087E439
S1130820809388002FEF8FEB91E22150804090401D
S1130830E1F700C0000016DF8CE3F3DE2FEF8FEF4B
S11308409CE2215080409040E1F700C000001FDF8F
S113085010928B0088E580938A002FEF8FE793E452
S1130860215080409040E1F700C0000080EAD9DECA
S11308702FEF8FEB91E2215080409040E1F700C0D0
S1130880000010928B0083E280938A002FEF8FEF99
S11308909CE2215080409040E1F700C00000E9DE76
S11308A01092890086E5809388002FEF8FEB91E208
S11308B0215080409040E1F700C00000D3CE08955D
S11308C02FEF8FE796E1215080409040E1F700C080
S11308D000001092890083E8809388002FEF8FEF47
S11308E09CE2215080409040E1F700C00000BADE55
S11308F08EE176DE2FEF8FEB91E221508040904025
S1130900E1F700C0000010928B008BE380938A0013
S11309102FEF8FEF9CE2215080409040E1F700C020
S1130920000089E65DDE2FEF8FEB91E221508040DD
S11309309040E1F700C00000A3DE10928B0083E238
S113094080938A002FEF8FEF9CE2215080409040EB
S1130950E1F700C000008DDE1092890086E58093E7
S113096088002FEF8FEF9CE2215080409040E1F708
S113097000C0000077CE0895FF920F931F93CF938A
S1130980DF938AE090E0A5DE22E030E040E050E032
S113099067E082E0A5DCF12C08E211E0CAE2D1E0D4
S11309A00DDE80910202F8018083888381E076DE87
S11309B08093B60282E072DE8093AB0283E06EDE47
S11309C08093AE024091B6029091AB02292F30E0A1
S11309D0240F311D280F311D2A34314054F59A3526
S11309E040F52FEF5FE784E0215050408040E1F76D
S11309F000C00000F3944F2D50E022E030E067E0A7
S1130A0082E06EDCD8DD9FEFEFE3FBE09150E04045
S1130A10F040E1F700C00000E0DD52DFCFDD2FEF52
S1130A205FE784E0215050408040E1F700C00000BF
S1130A30B7CF453B60F0923850F4853B40F080914D
S1130A400202F8018083809102028883A9CF403595
S1130A5060F49338D0F08D3838F180910102F801B8
S1130A6080838091020288839BCF803508F098CFE1
S1130A70933808F495CF4D3858F080910202F8016C
S1130A8080838091010288838BCF803580F088CF6A
S1130A90993708F485CF403508F082CF61E070E0E3
S1130AA082E090E00DD006C0803528F379CF9937E5
S1130AB0A8F776CFDF91CF911F910F91FF90089502
S1130AC0AF92BF92CF92DF92EF92FF920F931F9358
S1130AD0CF93DF93EC015B01161617060CF0E6C00A
S1130AE0CC24C394D12C0F2EF8E2EF2EFF24F394E0
S1130AF0F02D0AE211E081E090E0EBDD5FDD809112
S1130B000202F7018083F801808381E0C7DD8093CE
S1130B10B60282E0C3DD8093AB0283E0BFDD809345
S1130B20AE02C230D105B1F49091B6022091AB026D
S1130B3030E0290F311D280F311D2D3231400CF4C6
S1130B4055C029E989E993E0215080409040E1F7BC
S1130B500000A5C0C330D10591F49091B602993735
S1130B60A0F2893790F239DDEFEFFFE724E0E1509E
S1130B70F0402040E1F700C00000FEDE90C0C1302C
S1130B80D105E9F48BE08ADD8093B5028C3408F456
S1130B90BCCF8091B602803508F0B7CF8091AE0209
S1130BA0803508F0B2CF19DD8FEF9FE7E4E0815084
S1130BB09040E040E1F700C0000089D070C0209769
S1130BC0A9F49091B6022091AB0230E0290F311DB7
S1130BD0280F311D213931404CF02CEC8CEE92E081
S1130BE0215080409040E1F700C059C09091B60276
S1130BF09C3378F42091AB022D3758F08C3348F4B1
S1130C0080910202F701808380910202F8018083BF
S1130C107CCF983278F42091AB022C3358F48D3881
S1130C2048F080910202F701808380910102F8016B
S1130C3080836BCF883278F42091AB022C3358F444
S1130C409D3848F080910102F7018083809102026F
S1130C50F80180835ACF4091AB02242F30E0290F52
S1130C60311D280F311D283C31050CF04ECF435364
S1130C70413308F04ACF8917E0F480910002F7016C
S1130C80808380910202F80180833FCF8091020229
S1130C90F701808380910002F801808336CFFFEF53
S1130CA0CF1ADF0AAC14BD040CF025CF12B895DCC2
S1130CB003C0981758F329CFDF91CF911F910F915B
S1130CC0FF90EF90DF90CF90BF90AF900895CF92B8
S1130CD0DF92EF92FF920F931F93CF93DF9382E003
S1130CE090E0F7DC6BDC8091020280932801809312
S1130CF02A012FEF8FE796E1215080409040E1F7E1
S1130D0000C0000008E211E00F2EF2E7CF2EF02D14
S1130D10CAE2D1E00F2EF5E7EF2EF02D0F2EFFE6FD
S1130D20DF2EF02D0F2EFCEDFF2EF02D8BE0B6DC28
S1130D308093B5029DE8980F903160F43FDCF80190
S1130D40F082F882F6E626E082E0F150204080400E
S1130D50E1F7ECCF833858F03ADCF801E082D8822E
S1130D608CEC9CE10197F1F700C00000DFCF9FEA13
S1130D70980F923258F42EDCF801C082E8828CEC91
S1130D809CE10197F1F700C00000D0CF803570F6E8
S1130D9061E070E080E090E093DEDF91CF911F91FD
S1130DA00F91FF90EF90DF90CF90089581E076DC73
S1130DB08093B60282E072DC8093AB0283E06EDC47
S1130DC08093AE029091B602973940F09091AB02B5
S1130DD0973420F4863910F412B808958BE980937F
S1130DE0280180932A01F9DB8FEF9FE80197F1F73F
S1130DF000C00000E6DB9FEF2FE38BE09150204022
S1130E008040E1F700C00000E8DBDEDB84E680938D
S1130E10280180932A0181E041DC8093AB0287346E
S1130E20D0F712B8D1DB99E929E581E0915020404F
S1130E308040E1F70000D1DB9FEF2FEF88E0915075
S1130E4020408040E1F700C00000809102028093BE
S1130E5028018091020280932A010895AFDB2FEFCD
S1130E608FEF98E0215080409040E1F700C00000EF
S1130E70A8DB2FEF8FEF98E0215080409040E1F7FE
S1130E8000C00000AADB2FEF8FE392E021508040E6
S1130E909040E1F700C0000094DB84E680932801D1
S1130EA080932A0183E0FADB8093AE0282E0F6DBD2
S1130EB08093AB0281E0F2DB8093B6028091AE02B4
S1130EC0803580F38091AB02803560F712B879DB0E
S1130ED02FEF8FEF98E0215080409040E1F700C061
S1130EE000007BDB2FEF8FEF98E021508040904093
S1130EF0E1F700C0000080910202809328018091F4
S1130F00020280932A0152CF08955BDB2FEF8FEF0B
S1130F1098E0215080409040E1F700C000005DDB84
S1130F202FEF8FE392E0215080409040E1F700C022
S1130F30000047DB84E68093280180932A0183E044
S1130F40ADDB8093AE028035D0F312B83ADB8FEF7D
S1130F5097E40197F1F700C000003FDB9FEF2FEF0C
S1130F6088E0915020408040E1F700C0000080916B
S1130F700202809328018091020280932A0108953D
S1130F8023DB2FEF8FEF98E0215080409040E1F772
S1130F9000C0000022DB2FEF8FE392E0215080405D
S1130FA09040E1F700C000000FDB84E68093280145
S1130FB080932A0181E072DB8093AB028035D0F309
S1130FC012B8FFDA8FEF9FE80197F1F700C0000035
S1130FD004DB9FEF2FEF88E0915020408040E1F741
S1130FE000C00000809102028093280180910202D7
S1130FF080932A010895EAE7F0E0108210927B00C2
S113100080E280937C0080E880BF86E88083089536
S1131010F894C2DAF0DF76DA52DA789495D8FEC81A
S11310200895F6DF61E070E080E090E049DDC6DA23
S11310302FEF8FE39BE0215080409040E1F700C008
S113104000009EDFB8DA2FEF8FEF98E02150804048
S11310509040E1F700C00000C0DA9CDB56DF55DFAA
S1131060AADA2FEF8FEF98E0215080409040E1F70B
S113107000C00000B2DAD1DB83DF61E070E082E01F
S113108090E01EDDEBDE61E070E083E090E018DDCF
S113109080E090E008955058BB27AA270ED048C19D
S11310A039D130F03ED120F031F49F3F11F41EF4D9
S11310B02EC10EF4E095E7FB24C1E92F4AD180F359
S11310C0BA17620773078407950718F071F49EF541
S11310D062C10EF4E0950B2EBA2FA02D0B01B901BD
S11310E090010C01CA01A0011124FF27591B99F09A
S11310F0593F50F4503E68F11A16F040A22F232FA6
S1131100342F4427585FF3CF469537952795A795F5
S1131110F0405395C9F77EF41F16BA0B620B730B9C
S1131120840BBAF09150A1F0FF0FBB1F661F771F0D
S1131130881FC2F70EC0BA0F621F731F841F48F4C2
S1131140879577956795B795F7959E3F08F0B3CF48
S11311509395880F08F09927EE0F97958795089532
S11311600CD0E6C0DED040F0D5D030F021F45F3FA3
S113117019F0C7C0511110C1CAC0EBD098F399231C
S1131180C9F35523B1F3951B550BBB27AA27621747
S11311907307840738F09F5F5F4F220F331F441F8C
S11311A0AA1FA9F333D00E2E3AF0E0E830D09150C4
S11311B05040E695001CCAF729D0FE2F27D0660FB1
S11311C0771F881FBB1F261737074807AB07B0E8F0
S11311D009F0BB0B802DBF01FF2793585F4F2AF006
S11311E09E3F510568F08DC0D7C05F3FECF3983E39
S11311F0DCF3869577956795B795F7959F5FC9F763
S1131200880F911D9695879597F90895E1E0660FEB
S1131210771F881FBB1F621773078407BA0720F064
S1131220621B730B840BBA0BEE1F88F7E0950895CD
S113123098D088F09F5790F0B92F9927B751A0F014
S1131240D1F0660F771F881F991F1AF0BA95C9F756
S113125012C0B13081F09FD0B1E008959CC0672FD7
S1131260782F8827B85F39F0B93FCCF38695779506
S11312706795B395D9F73EF49095809570956195EF
S11312807F4F8F4F9F4F0895E89409C097FB3EF41A
S113129090958095709561957F4F8F4F9F4F9923BF
S11312A0A9F0F92F96E9BB279395F695879577953D
S11312B06795B795F111F8CFFAF4BB0F11F460FFFD
S11312C01BC06F5F7F4F8F4F9F4F16C0882311F055
S11312D096E911C0772321F09EE8872F762F05C069
S11312E0662371F096E8862F70E060E02AF09A9504
S11312F0660F771F881FDAF7880F9695879597F9F9
S1131300089597F99F6780E870E060E008959FEF83
S113131080EC089500240A94161617061806090688
S1131320089500240A941216130614060506089557
S1131330092E0394000C11F4882352F0BB0F40F4DF
S1131340BF2B11F460FF04C06F5F7F4F8F4F9F4F1F
S1131350089557FD9058440F551F59F05F3F71F0A1
S11313604795880F97FB991F61F09F3F79F0879508
S11313700895121613061406551FF2CF4695F1DF91
S113138008C0161617061806991FF1CF8695710521
S1131390610508940895E894BB2766277727CB0155
S11313A097F90895EE0FFF1F0590F491E02D19941D
S11313B0A29FB001B39FC001A39F700D811D112492
S11313C0911DB29F700D811D1124911D0895F894F3
S10513D0FFCF49
S11313D2CDB9F64C696E652D466F6C6C6F7765728C
S11313E20057616C6C2D466F6C6C6F776572005A96
S11313F269672D5A61670020317374205069636BE9
S1131402202D3E204D61737465720020326E64207B
S11314125069636B202D3E20536C61766500203148
S1131422737420506C616365202D3E204D6173748A
S11314326572200020326E6420506C616365202D39
S11314423E20536C617665200020454E4420002DD9
S11314522D2D2A2A2A2D2D2D0053746174696300BF
S113146252656F7269656E746174696F6E00496E5C
S10B147276657273696F6E0068
S9030000FC
