:1000000071C0000090C000008EC000008CC00000D5
:100010008AC00000E9C20000C2C2000084C0000023
:1000200082C0000080C000007EC000007CC00000D4
:100030007AC0000078C0000076C0000074C00000E4
:1000400072C0000070C000006EC000006CC00000F4
:100050006AC0000068C0000066C0000064C0000004
:1000600062C0000060C000005EC000005CC0000014
:100070005AC0000058C0000056C0000054C0000024
:1000800052C0000050C000004EC000004CC0000034
:100090004AC0000048C0000046C0000044C0000044
:1000A00042C0000040C000003EC000003CC0000054
:1000B0003AC0000038C0000036C0000034C0000064
:1000C00032C0000030C000002EC000002CC0000074
:1000D0002AC0000028C0000026C0000024C0000084
:1000E00022C0000011241FBECFEFD1E2DEBFCDBF82
:1000F00000E00CBF12E0A0E0B2E0ECE5F9E100E0C6
:100100000BBF02C007900D92AC35B107D9F722E0C2
:10011000ACE5B2E001C01D92AC3BB207E1F70E9432
:10012000620A0C94AC0C6CCF87B1876F87B988B129
:10013000887088B9089586E69EE00197F1F700007F
:100140004098419880E388B9429A8FEF97E40197ED
:10015000F1F700C00000429886E69EE00197F1F7B3
:1001600000004098419880E388B9429A8FEF97E465
:100170000197F1F700C00000429886E69EE00197E3
:10018000F1F700004098419880E388B9429A8FEFD8
:1001900097E40197F1F700C00000429886E69EE0E0
:1001A0000197F1F700004098419880E288B9429A9F
:1001B0008FEF97E40197F1F700C00000429808958F
:1001C00098B19F7098B998B1282F207F922B98B939
:1001D00040984198429AEFEFF7E43197F1F700C069
:1001E0000000429898B19F7098B998B18295807F2D
:1001F000892B88B940984198429A8FEF97E40197EC
:10020000F1F700C000004298089595DF86E69EE071
:100210000197F1F7000088E2D3DF81E0D1DF86E0CB
:10022000CFDF8EE0CDDF80E8CBCF089598B19F700F
:1002300098B998B1282F207F922B98B9409A41986D
:10024000429AEFEFF7E43197F1F700C000004298CF
:1002500098B19F7098B998B18295807F892B88B9A1
:10026000409A4198429A8FEF97E40197F1F700C0C6
:1002700000004298089580E8A3CF0895CF93DF93BC
:10028000EC018881882329F02196D0DF89918111A2
:10029000FCCFDF91CF9108950F931F93CF93DF93FE
:1002A0008A01E901882311F0611102C0E4DF1AC05C
:1002B000823069F018F4813031F014C0833059F085
:1002C000843069F00FC08FE7860F7ADF0BC08FEBA9
:1002D000860F76DF07C083E9860F72DF03C083EDE8
:1002E000860F6EDFC530D10509F0D5C09801329573
:1002F00022952F7023273F702327A7E4B3E00E94A5
:100300009D0C969587959695879596958795C09619
:10031000909389028093880289DF9801369527950A
:100320003695279536952795A5ECB0E20E949D0C51
:10033000AC01529542954F7045275F704527509309
:100340008D0240938C029A01ADECBCEC0E949D0C96
:100350009695879596958795969587959C01220FFA
:10036000331F880F991F880F991F880F991F820FBD
:10037000931F481B590BCA01C0969093B9028093F2
:10038000B80254DF04C0C330D10509F089C0980118
:100390003695279536952795ABE7B4E10E949D0CDD
:1003A000AC015695479550938D0240938C029A016B
:1003B000ADECBCEC0E949D0C969587959695879523
:1003C000969587959C01220F331F880F991F880FE0
:1003D000991F880F991F820F931F481B590BCA0141
:1003E000C096909394028093930220DF9801ADEC25
:1003F000BCEC0E949D0CAC015695479556954795CF
:100400005695479550938D0240938C029A010E9415
:100410009D0C9695879596958795969587959C01C1
:10042000220F331F880F991F880F991F880F991F5C
:10043000820F931F481B590BCA01C09690939202DA
:1004400080939102F3DE03C0C130D105F9F4980125
:10045000ADECBCEC0E949D0C969587959695879582
:10046000969587959C01220F331F880F991F880F3F
:10047000991F880F991F820F931F081B190BC80122
:10048000C0969093B7028093B602D0DE269764F0B0
:1004900085E4CCDE09C0C430D10509F074CF3DCF6E
:1004A000C230D10589F6A2CFDF91CF911F910F9174
:1004B0000895E1E8F0E010828CEF8093850081E000
:1004C0008093840093E0909389008FEF809388005D
:1004D00090938B0080938A0090938D0080938C0082
:1004E00090938700809386008BEA8093800010921F
:1004F00082008CE080830895E1E2F1E010828FEFCA
:100500008093250191E0909324011092290180931A
:10051000280110922B0180932A0110922D018093C3
:100520002C0189EA809320018BE0808308959B9AB7
:10053000A398089581B18F6081B982B1807F82B91B
:10054000EAE0F1E0808188618083EBE0F1E0808186
:10055000886180830895259A2D9A0895269A2E9A67
:100560000895279A2F9A0895E1E0F1E080818FEFB6
:100570008083E2E0F1E080818E7F8083089510BA6D
:1005800011BA10920701109208010895D0DFD2DF4E
:10059000E2DFE4DFE6DFE8DFC7DDF1CF08951F9299
:1005A0000F920FB60F9211248F939F93AF93BF9327
:1005B0008091600290916102A0916202B091630209
:1005C0000196A11DB11D8093600290936102A093DA
:1005D0006202B0936302BF91AF919F918F910F9090
:1005E0000FBE0F901F9018951F920F920FB60F928B
:1005F00011248F939F93AF93BF9380916402909146
:100600006502A0916602B09167020196A11DB11D1D
:100610008093640290936502A0936602B093670290
:10062000BF91AF919F918F910F900FBE0F901F9030
:10063000189592B1907F8F70982B92B9089586E0AB
:10064000F8CF089589E0F5CF089585E0F2CF0895B9
:100650008AE0EFCF089584E0ECCF089582E0E9CFFF
:10066000089580E0E6CF089510928B00682F70E027
:1006700080E090E00E940F0C2BE734E14EEE5FE348
:100680000E947B0B20E030E04CE052E4D0D70E9487
:10069000E30B60938A00089583E0809389008FEFD5
:1006A00080938800089583E080938B008FEF809380
:1006B0008A00089583E080938D008FEF80938C00F3
:1006C000089583E080938D008FEF80938C000895D0
:1006D000883018F098E090937B0087708062809358
:1006E0007C00EAE7F0E0808180648083808184FF81
:1006F000FDCF80917900EAE7F0E0908190619083EE
:1007000010927B000895CF93DF93EC017EDDC33020
:10071000D10509F435C02CF4209751F0219771F0E0
:1007200034C0C530D10581F004F1269799F02DC071
:1007300082E846DD83E092E0A1DD27C082E840DD6B
:1007400081E192E09BDD21C082E83ADD8FE192E019
:1007500095DD1BC085E834DD87E292E08FDD80EC1B
:100760002FDD8DE292E08ADD10C085E829DD8CE383
:1007700092E084DD82EC24DD83E492E07FDD05C03D
:1007800082E81EDD81E592E079DDDF91CF91089569
:10079000CF93E2E0F1E08081816080832FEF8FE7EB
:1007A00094E0215080409040E1F700C0000010929A
:1007B000890086E5809388002FEF8FEB91E221502E
:1007C00080409040E1F700C0000066DF10928D008D
:1007D0008EE680938C002FEF8FEB91E221508040CA
:1007E0009040E1F700C0000065DFC0E08C2F3CDFE7
:1007F0008FEF9FE80197F1F700C00000CF5FC1368F
:10080000A9F710928D008DE280938C009FEF2FEF5F
:100810008CE2915020408040E1F700C000009FEF43
:100820002FE786E1915020408040E1F700C00000B2
:1008300080E01ADF9FEF2FEF8CE291502040804044
:10084000E1F700C00000CF910895CF93E2E0F1E01E
:1008500080818E7F80832FEF8FE794E0215080404E
:100860009040E1F700C000001092890085E4809379
:1008700088002FEF8FEB91E2215080409040E1F70C
:1008800000C0000009DF10928D0083E280938C008D
:100890002FEF8FEF9CE2215080409040E1F700C0A5
:1008A00000000FDFC0E08C2FDFDE8FEF9FE80197A5
:1008B000F1F700C00000CF5FC136A9F710928D009C
:1008C00089E780938C009FEF2FEF8CE291502040BE
:1008D0008040E1F700C0000080E0C6DE9FEF2FEF10
:1008E0008CE2915020408040E1F700C00000DBDE48
:1008F0001092890083E5809388009FEF2FEB81E2BF
:10090000915020408040E1F700C00000C5DECF914B
:1009100008951092890085E2809388002FEF8FEF71
:100920009CE2215080409040E1F700C00000B4DE1E
:100930008DE29ADE2FEF8FEF9CE2215080409040B5
:10094000E1F700C00000E2E0F1E080818160808397
:100950002FEF8FE794E0215080409040E1F700C0F6
:10096000000010928D008BE580938C002FEF8FEFAD
:100970009CE2215080409040E1F700C000009ADEE8
:100980001092890083E2809388002FEF8FEF9CE222
:10099000215080409040E1F700C000007DDEE2E0A1
:1009A000F1E080818E7F80832FEF8FE794E02150EC
:1009B00080409040E1F700C0000010928D0088E375
:1009C00080938C002FEF8FEF9CE22150804090406D
:1009D000E1F700C000006EDE80E046DE2FEF8FEF13
:1009E0009CE2215080409040E1F700C000005BDEB7
:1009F0001092890086E5809388002FEF8FEF9CE2AC
:100A0000215080409040E1F700C0000045CE08959D
:100A10001092890081E8809388002FEF8FEF9CE28D
:100A2000215080409040E1F700C0000035DE8DE2AB
:100A30001BDE2FEF8FEF9CE2215080409040E1F7CA
:100A400000C00000E2E0F1E08081816080832FEF50
:100A50008FE794E0215080409040E1F700C0000013
:100A600010928D008BE580938C002FEF8FEF9CE22E
:100A7000215080409040E1F700C000001BDE109242
:100A8000890083E8809388002FEF8FEF9CE221504C
:100A900080409040E1F700C00000FEDDE2E0F1E0C0
:100AA00080818E7F80832FEF8FE794E021508040FC
:100AB0009040E1F700C0000010928D0088E3809321
:100AC0008C002FEF8FEF9CE2215080409040E1F7A7
:100AD00000C00000EFDD80E0C7DD2FEF8FEF9CE26C
:100AE000215080409040E1F700C00000DCDD109212
:100AF000890086E5809388002FEF8FEF9CE22150DC
:100B000080409040E1F700C00000C6CD0895E2E0CB
:100B1000F1E08081816080832FEF8FE794E02150A6
:100B200080409040E1F700C000001092890086E507
:100B3000809388002FEF8FEB91E22150804090400E
:100B4000E1F700C00000A8DD81E48EDD2FEF8FEB20
:100B500091E2215080409040E1F700C000001092E7
:100B60008D008BE580938C002FEF8FEB91E221506D
:100B700080409040E1F700C00000E2E0F1E08081B9
:100B80008E7F80832FEF8FE794E02150804090404C
:100B9000E1F700C000001092890089E4809388008A
:100BA0002FEF8FEB91E2215080409040E1F700C0A1
:100BB000000010928D0088E380938C002FEF8FEB64
:100BC00091E2215080409040E1F700C0000080E0B9
:100BD0004BDD2FEF8FEF9CE2215080409040E1F7FA
:100BE00000C000001092890086E580938800089577
:100BF000E2E0F1E08081816080832FEF8FE794E075
:100C0000215080409040E1F700C000001092890020
:100C100086E5809388002FEF8FEB91E22150804092
:100C20009040E1F700C0000037DD83E21DDD2FEFCB
:100C30008FEB91E2215080409040E1F700C000002E
:100C400010928D008BE580938C002FEF8FEB91E25B
:100C5000215080409040E1F700C00000E2E0F1E068
:100C600080818E7F80832FEF8FE794E0215080403A
:100C70009040E1F700C000001092890089E4809361
:100C800088002FEF8FEB91E2215080409040E1F7F8
:100C900000C0000010928D0088E380938C002FEF3D
:100CA0008FEB91E2215080409040E1F700C00000BE
:100CB00080E0DADC2FEF8FEF9CE221508040904003
:100CC000E1F700C000001092890086E5809388005B
:100CD0000895C7DC82E0FCDC80938B028E3630F511
:100CE00086E98093280180932A01AFDC2FEF8FE7FC
:100CF0009DE0215080409040E1F700C00000B1DC51
:100D00008EE68093280180932A01A2DC82E0E0DC59
:100D100080938B028035D0F312B8A3DC809102025D
:100D2000809328018091020280932A010895AF9256
:100D3000BF92CF92DF92EF92FF920F931F93CF93C8
:100D4000DF93EC0180E090E0DEDCC12CD12C0F2E93
:100D5000F8E2EF2EFF24F394F02D0AE211E00F2EBB
:100D6000F6E9AF2EF02D0F2EF8E7BF2EF02D81E023
:100D7000AFDC8093960282E0ABDC80938B0283E051
:100D8000A7DC80938E028BE0A3DC809395025ADC73
:100D900080910202F701808380910202F801808332
:100DA000C230D10549F52091960280918B0290E0E6
:100DB000820F911D20918E02820F911D8D329140E4
:100DC0000CF463C04EDC2FEF8FE392E021508040A3
:100DD0009040E1F700C0000080910202809328015A
:100DE00080932A012FDCE6E6F6EE29E0E150F040A0
:100DF0002040E1F736DC07C1C330D10569F48091AA
:100E00009602893708F441C080918E02893708F430
:100E10003CC027DC03D1F7C0C130D10559F4809123
:100E20008B02843690F580919502853570F119DC3E
:100E3000BBD1E9C0209749F52091960280918B02A1
:100E400090E0820F911D20918E02820F911D8139B9
:100E50009140DCF006DCFFEF2FE382E0F150204010
:100E60008040E1F700C000008091020280932801D9
:100E700080932A01E7DB9CECECE8F8E09150E0403D
:100E8000F040E1F700C0EDDBBEC0209196022C33AC
:100E9000B0F480918B028D3790F080918E028C336C
:100EA00070F480910202F701808380910202F801C0
:100EB000808386E69EE00197F1F7000054C04091E0
:100EC0008B0230918E02842F90E0820F911D830F50
:100ED000911D883C91052CF58DEC840F813308F52C
:100EE000321708F08CC080910002F7018083809156
:100EF0000202F80180838CEC9CE10197F1F700C0BD
:100F0000000031C080910202F701808380910002CD
:100F1000F80180838CEC9CE10197F1F700C00000A0
:100F200022C0283280F44C3308F021CF3D3808F439
:100F300062C091DBF701B082F801B08283E39BE2EB
:100F40000197F1F710C0383270F44C3308F00FCF2E
:100F50002D3870F083DBF701B082F801B08283E3B3
:100F60009BE20197F1F780918B028C3308F0FFCE62
:100F70002091960280918E0290E0820F911D803523
:100F800091050CF0F4CE209709F0F1CE80915E022D
:100F900090915F02019690935F0280935E02EFEF63
:100FA000CE1ADE0AF6E9CF16D10420F4843F914030
:100FB00008F4DDCE12B855DB8FEF9FE7E4E08150F7
:100FC0009040E040E1F700C00000F701A082F80186
:100FD000A08235DBFFEF2FEB86E0F1502040804010
:100FE000E1F700C0000075DE10925F0210925E0211
:100FF000C12CD12CBCCE383208F4AACFB9CF2317DC
:1010000008F08FCF7FCFDF91CF911F910F91FF908D
:10101000EF90DF90CF90BF90AF900895FF920F9325
:101020001F93CF93DF9383E090E06DDB22E030E00D
:1010300040E050E067E082E02FD9F12C08E211E0B7
:10104000CAE2D1E0FFDA80910202F801808388834E
:1010500081E03EDB8093960282E03ADB80938B0254
:1010600083E036DB80938E029091960240918B0252
:10107000242F30E0290F311D280F311D2A34314033
:10108000C4F54A35B0F5F11034C02FEF5FE784E0C6
:10109000215050408040E1F700C0000022E030E0E5
:1010A00041E050E067E082E0F7D8C9DA9FEFEFEF68
:1010B000F1E19150E040F040E1F700C00000D1DAEA
:1010C00080915C0290915D028130910511F421DCE8
:1010D00003C0892B09F49CDCB5DA2FEF5FEF88E0C1
:1010E000215050408040E1F700C00000FF24F394FD
:1010F000A9CF8436A0F4943690F412B8B2DA9FEFF8
:10110000EFE7F4E09150E040F040E1F700C000006C
:10111000E0DD61E070E082E090E009DE3FC0953BF9
:1011200060F0423850F4853B40F080910202F801B3
:10113000808380910202888385CF9035A0F4433864
:1011400008F480CF873938F189DA8091010282531F
:10115000F801808380910202888386E69EE00197F1
:10116000F1F700006FCF863908F06CCF433808F4F0
:1011700069CF913508F466CF6EDA80910202F801EA
:101180008083809101028253888386E69EE00197E6
:10119000F1F7000057CF863960F354CFDF91CF913C
:1011A0001F910F91FF9008958F929F92AF92BF92DF
:1011B000CF92DF92EF92FF920F931F93CF93DF9323
:1011C00081E090E0A0DA3EDA80910202809328016B
:1011D00080932A012FEF8FE796E1215080409040C5
:1011E000E1F700C00000C0E0D0E00F2EF8E2EF2EE3
:1011F000FF24F394F02D0F2EF8E7AF2EF02D0AE226
:1012000011E06894882487F8B12CC12C0F2EF5E7E3
:101210009F2EF02D0F2EFCEDDF2EF02D13DA8BE03C
:1012200057DA8093950283E053DA80938E0282E04E
:101230004FDA80938B0290918E02913510F48135B4
:1012400058F080919502803538F40BDA61E070E057
:1012500080E090E06CDD42C0809195029DE8980F9F
:101260009031E0F42196C430D1056CF080910202F7
:10127000F701808380910202F801808383E39BE27F
:101280000197F1F7CBCFF701D082F801D0828FEF31
:1012900097E40197F1F700C00000C0CF833868F0F1
:1012A000D4D9F7019082F801A08286E69EE00197EA
:1012B000F1F70000CB2DDC2DB1CF8353803408F043
:1012C000ADCFC6D9F701A082F801808286E69EE004
:1012D0000197F1F70000CB2DDC2DA0CFDF91CF914E
:1012E0001F910F91FF90EF90DF90CF90BF90AF9044
:1012F0009F908F900895B5D981E0EAD980939602A6
:1013000082E0E6D980938B0283E0E2D980938E025B
:1013100080918B028F3608F441C086E980932801C2
:1013200080932A0192D92FEF8FEF91E121508040D5
:101330009040E1F700C0000094D98EE68093280128
:1013400080932A0185D92FEF8FE392E021508040CE
:101350009040E1F700C0000081E0BAD98093960286
:1013600082E0B6D980938B0283E0B2D980938E025B
:101370009091960220918B0230E0290F311D2B3F76
:10138000310554F7823840F312B86BD980910202CC
:10139000809328018091020280932A01089586E9B2
:1013A0008093280180932A0150D92FEF8FEF98E086
:1013B000215080409040E1F700C0000084E6809317
:1013C000280180932A0183E083D980938E0281359E
:1013D000D0F312B846D980910202809328018091FF
:1013E000020280932A01089586E980932801809360
:1013F0002A012ED92FEF8FEF91E1215080409040AC
:10140000E1F700C000008EE68093280180932A0156
:1014100081E05ED9809396028035D0F312B821D94D
:1014200080910202809328018091020280932A0118
:10143000089586E98093280180932A0109D92FEF26
:101440008FEF98E0215080409040E1F700C000000D
:101450008EE68093280180932A0182E039D9809317
:101460008B0281E035D98093960283E031D9809355
:101470008E029091960220918B0230E0290F311D4F
:101480002B3F310554F7823840F312B8EAD833CFF6
:101490000895EAE7F0E0108210927B0080E28093EA
:1014A0007C0080E880BF86E880830895F8946ED839
:1014B000F0DF22D80E94590278940E949B000C947D
:1014C00005010895F3DF61E070E080E090E02FDC3B
:1014D0008BDFB5D82FEF8FE39BE021508040904009
:1014E000E1F700C00000BDD8B0D959DF58DFA7D858
:1014F0002FEF8FE79DE0215080409040E1F700C042
:101500000000AFD845D970DF61E070E080E090E086
:101510000EDC45DF94D82FEF8FEF91E12150804012
:101520009040E1F700C000009CD8F1DA8BD82FEF93
:101530008FEB96E0215080409040E1F700C0000022
:1015400090D852DF61E070E080E090E0F0DB4CDFAB
:1015500076D82FEF8FE39BE0215080409040E1F759
:1015600000C000007ED871D91ADF19DF68D82FEFCC
:101570008FE79DE0215080409040E1F700C00000DF
:1015800070D806D931DF61E070E080E090E0CFDB19
:1015900006DF55D82FEF8FEF91E12150804090402A
:1015A000E1F700C000005DD823DB4CD82FEF8FEBB4
:1015B00096E0215080409040E1F700C0000051D8F3
:1015C00013DF61E070E080E090E0B1DB0DDF37D841
:1015D0002FEF8FE39BE0215080409040E1F700C067
:1015E00000003FD832D9DBDEDADE29D82FEF8FE7D3
:1015F0009DE0215080409040E1F700C0000031D8CC
:10160000C7D8F2DE61E070E082E090E090DB11DFAD
:1016100081E090E090935D0280935C0261E070E075
:1016200083E090E084DB80E090E008955058BB2791
:10163000AA270ED048C139D130F03ED120F031F484
:101640009F3F11F41EF42EC10EF4E095E7FB24C178
:10165000E92F4AD180F3BA17620773078407950709
:1016600018F071F49EF562C10EF4E0950B2EBA2FBE
:10167000A02D0B01B90190010C01CA01A001112498
:10168000FF27591B99F0593F50F4503E68F11A1644
:10169000F040A22F232F342F4427585FF3CF4695D5
:1016A00037952795A795F0405395C9F77EF41F16F7
:1016B000BA0B620B730B840BBAF09150A1F0FF0FC1
:1016C000BB1F661F771F881FC2F70EC0BA0F621FAD
:1016D000731F841F48F4879577956795B795F7959D
:1016E0009E3F08F0B3CF9395880F08F09927EE0F2F
:1016F0009795879508950CD0E6C0DED040F0D5D000
:1017000030F021F45F3F19F0C7C0511110C1CAC0B9
:10171000EBD098F39923C9F35523B1F3951B550BDF
:10172000BB27AA2762177307840738F09F5F5F4FB4
:10173000220F331F441FAA1FA9F333D00E2E3AF0F5
:10174000E0E830D091505040E695001CCAF729D00F
:10175000FE2F27D0660F771F881FBB1F261737075E
:101760004807AB07B0E809F0BB0B802DBF01FF278E
:1017700093585F4F2AF09E3F510568F08DC0D7C047
:101780005F3FECF3983EDCF3869577956795B795C8
:10179000F7959F5FC9F7880F911D9695879597F9E3
:1017A0000895E1E0660F771F881FBB1F621773075C
:1017B0008407BA0720F0621B730B840BBA0BEE1F71
:1017C00088F7E095089598D088F09F5790F0B92F4A
:1017D0009927B751A0F0D1F0660F771F881F991F86
:1017E0001AF0BA95C9F712C0B13081F09FD0B1E0BC
:1017F00008959CC0672F782F8827B85F39F0B93FCC
:10180000CCF3869577956795B395D9F73EF4909587
:101810008095709561957F4F8F4F9F4F0895E89405
:1018200009C097FB3EF490958095709561957F4F28
:101830008F4F9F4F9923A9F0F92F96E9BB279395D6
:10184000F695879577956795B795F111F8CFFAF4E6
:10185000BB0F11F460FF1BC06F5F7F4F8F4F9F4F17
:1018600016C0882311F096E911C0772321F09EE875
:10187000872F762F05C0662371F096E8862F70E0DB
:1018800060E02AF09A95660F771F881FDAF7880FB5
:101890009695879597F9089597F99F6780E870E086
:1018A00060E008959FEF80EC089500240A941616D6
:1018B000170618060906089500240A94121613063E
:1018C000140605060895092E0394000C11F48823CC
:1018D00052F0BB0F40F4BF2B11F460FF04C06F5FE8
:1018E0007F4F8F4F9F4F089557FD9058440F551FBE
:1018F00059F05F3F71F04795880F97FB991F61F092
:101900009F3F79F087950895121613061406551F08
:10191000F2CF4695F1DF08C0161617061806991F74
:10192000F1CF86957105610508940895E894BB2769
:1019300066277727CB0197F90895A29FB001B39F3F
:10194000C001A39F700D811D1124911DB29F700DC8
:0C195000811D1124911D0895F894FFCF13
:10195C00CDB9FA4C696E652D466F6C6C6F776572FC
:10196C000057616C6C2D466F6C6C6F776572005A0A
:10197C0069672D5A61670020454E4420002D2D2D9E
:10198C002D2D2A2A2A2A2D2D2D2D2D0053746174CC
:10199C0069630052656F7269656E746174696F6E0C
:0C19AC0000496E76657273696F6E000072
:00000001FF
