S00D00005461736B352E737265634F
S113000071C0000090C000008EC000008CC00000D1
S11300108AC0000019C50000F2C4000084C00000BA
S113002082C0000080C000007EC000007CC00000D0
S11300307AC0000078C0000076C0000074C00000E0
S113004072C0000070C000006EC000006CC00000F0
S11300506AC0000068C0000066C0000064C0000000
S113006062C0000060C000005EC000005CC0000010
S11300705AC0000058C0000056C0000054C0000020
S113008052C0000050C000004EC000004CC0000030
S11300904AC0000048C0000046C0000044C0000040
S11300A042C0000040C000003EC000003CC0000050
S11300B03AC0000038C0000036C0000034C0000060
S11300C032C0000030C000002EC000002CC0000070
S11300D02AC0000028C0000026C0000024C0000080
S11300E022C0000011241FBECFEFD1E2DEBFCDBF7E
S11300F000E00CBF14E0A0E0B2E0E8E4FAE200E0C3
S11301000BBF02C007900D92AC3CB107D9F725E0B4
S1130110ACECB4E001C01D92A634B207E1F70E9432
S113012004110C9422156CCF87B1876F87B988B1FD
S1130130887088B9089586E69EE00197F1F700007B
S11301404098419880E388B9429A8FEF97E40197E9
S1130150F1F700C00000429886E69EE00197F1F7AF
S113016000004098419880E388B9429A8FEF97E461
S11301700197F1F700C00000429886E69EE00197DF
S1130180F1F700004098419880E388B9429A8FEFD4
S113019097E40197F1F700C00000429886E69EE0DC
S11301A00197F1F700004098419880E288B9429A9B
S11301B08FEF97E40197F1F700C00000429808958B
S11301C098B19F7098B998B1282F207F922B98B935
S11301D040984198429AEFEFF7E43197F1F700C065
S11301E00000429898B19F7098B998B18295807F29
S11301F0892B88B940984198429A8FEF97E40197E8
S1130200F1F700C000004298089595DF86E69EE06D
S11302100197F1F7000088E2D3DF81E0D1DF86E0C7
S1130220CFDF8EE0CDDF80E8CBCF089598B19F700B
S113023098B998B1282F207F922B98B9409A419869
S1130240429AEFEFF7E43197F1F700C000004298CB
S113025098B19F7098B998B18295807F892B88B99D
S1130260409A4198429A8FEF97E40197F1F700C0C2
S113027000004298089580E8A3CF0895CF93DF93B8
S1130280EC018881882329F02196D0DF899181119E
S1130290FCCFDF91CF9108950F931F93CF93DF93FA
S11302A08A01E901882311F0611102C0E4DF1AC058
S11302B0823069F018F4813031F014C0833059F081
S11302C0843069F00FC08FE7860F7ADF0BC08FEBA5
S11302D0860F76DF07C083E9860F72DF03C083EDE4
S11302E0860F6EDFC530D10509F0D5C0980132956F
S11302F022952F7023273F702327A7E4B3E00E94A1
S1130300EC13969587959695879596958795C096BF
S113031090930F0580930E0589DF980136952795F4
S11303203695279536952795A5ECB0E20E94EC13F7
S1130330AC01529542954F7045275F704527509305
S11303401305409312059A01ADECBCEC0E94EC132A
S11303509695879596958795969587959C01220FF6
S1130360331F880F991F880F991F880F991F820FB9
S1130370931F481B590BCA01C09690933F05809365
S11303803E0554DF04C0C330D10509F089C098018B
S11303903695279536952795ABE7B4E10E94EC1383
S11303A0AC015695479550931305409312059A0155
S11303B0ADECBCEC0E94EC139695879596958795C9
S11303C0969587959C01220F331F880F991F880FDC
S11303D0991F880F991F820F931F481B590BCA013D
S11303E0C09690931A058093190520DF9801ADEC0F
S11303F0BCEC0E94EC13AC01569547955695479575
S11304005695479550931305409312059A010E94FF
S1130410EC139695879596958795969587959C0167
S1130420220F331F880F991F880F991F880F991F58
S1130430820F931F481B590BCA01C096909318054D
S113044080931705F3DE03C0C130D105F9F4980198
S1130450ADECBCEC0E94EC13969587959695879528
S1130460969587959C01220F331F880F991F880F3B
S1130470991F880F991F820F931F081B190BC8011E
S1130480C09690933D0580933C05D0DE269764F09A
S113049085E4CCDE09C0C430D10509F074CF3DCF6A
S11304A0C230D10589F6A2CFDF91CF911F910F9170
S11304B008959B01215031093323C4F0DB01AA0FB5
S11304C0BB1FA80FB91FFC0140E050E0808191815F
S11304D07E916E916193719311969C938E934F5F6D
S11304E05F4F215031092417350784F708952F925F
S11304F03F924F925F926F927F928F929F92AF92B0
S1130500BF92CF92DF92EF92FF920F931F93CF93FC
S1130510DF93CDB7DEB7C252D2400FB6F894DEBF38
S11305200FBECDBF4B01161617060CF05AC0082F8C
S1130530192FCE0101967C018EE1869F5001879F81
S1130540B00C1124AE0CBF1C6B01CC0CDD1C6FE095
S113055077E217C081919191009721F411967C93D1
S11305606E9303C011969C938E931296E217F30731
S113057089F7025E1F4F9EE1E90EF11CEA14FB04A9
S113058031F098012C0D3D1DD701F801E3CF8EE128
S1130590849F9001859F300D1124A1E0B0E0AC0F41
S11305A0BD1F2A0F3B1FFE01ED53FE4FCE018F519D
S11305B09E4FDE01A150BE4FCE0EDF1E89019D016C
S11305C0D8016D917D918D0161937193DC014D93FF
S11305D05D93CD01D9011D921D929D01EC15FD0580
S11305E079F7440F551FE3ECF1E0EC0FFD1FE40F26
S11305F0F51F11821082EFEFF1E0EC0FFD1FE40F05
S1130600F51F81E090E091838083C4010197C15E6E
S1130610DD4F99838883CF51D24002970CF49DC05B
S1130620B401660F771FAA24A394B12CDE01A15054
S1130630BE4FC35EDD4FB983A883CD51D240C35EA4
S1130640DD4F5880CD51D240C25EDD4F4880CE513F
S1130650D240312C212C73C02D913D9124173507A4
S113066034F460817181672B11F43C01A901019676
S113067032968815990581F7B801E62CF72CF30119
S1130680EE0FFF1F8FEF91E08C0F9D1FE80FF91FF6
S1130690A1E0B0E0B183A083BEE1B69D6001B79D47
S11306A0D00C112481E090E08C0F9D1FC80ED91E40
S11306B0FE01ED53FE4FA52DB42D832D922DCF5D5C
S11306C0DD4FB983A883C152D240CF5DDD4FA881ED
S11306D0B981C152D2402D913D91CF5DDD4FB98397
S11306E0A883C152D240232BC9F49601280F391F85
S11306F0D9012D913C91240F351F008111812017C0
S1130700310764F43183208321EE31E02C0F3D1F47
S1130710280F391FD901EC921196FC920296329659
S11307208617970791F6BFEFAB1ABB0AC15EDD4F80
S113073088819981CF51D240A816B90674F418144F
S1130740190474F5E52DF42DDE01AD53BE4F832D50
S1130750922D4FE057E28B017FCF1814190474F5E2
S1130760FE01ED53FE4FAEE1B5E0880C991C9401F7
S11307702E0F3F1F819191918D939D93E217F30763
S1130780C9F7FE01EF51FE4FAEEEB4E08E0E9F1E90
S1130790819191918D939D93E815F905C9F70EC048
S11307A0F301EE0FFF1FAFEFB1E0AC0FBD1FEA0F77
S11307B0FB1F81E090E091838083B5CFCE5DDD4F58
S11307C00FB6F894DEBF0FBECDBFDF91CF911F915E
S11307D00F91FF90EF90DF90CF90BF90AF909F90DC
S11307E08F907F906F905F904F903F902F900895DF
S11307F00F931F93CF93DF93EC018B01F901880FC3
S1130800991F825E9A4FDB01AA0FBB1FBD01625E76
S11308107A4FDC012D913C91DB018D919C918217E3
S11308209307D4F18091EC049091ED048C179D070B
S113083051F1A081B181AA0FBB1FA40FB51FCD93A5
S1130840DC93808191810196918380839E01D901FB
S1130850AA0FBB1FA251BB4F2D913C91A081B18126
S1130860AA0FBB1FA40FB51F2D933C936081718108
S11308706F5F7F4F718360836091EC047091ED042E
S11308802617370721F760817181CA0112DED093E0
S1130890ED04C093EC0438C08091EC049091ED0415
S11308A08017910749F1A081B181AA0FBB1FA40F42
S11308B0B51F0D931C938081918101969183808350
S11308C09801D901AA0FBB1FA251BB4F2D913C9196
S11308D0A081B181AA0FBB1FA40FB51F2D933C9318
S11308E0808191810196918380838091EC04909121
S11308F0ED042817390729F760817181CA01D9DD10
S11309001093ED040093EC04DF91CF911F910F91AC
S11309100895E1E8F0E010828CEF8093850081E097
S11309208093840093E0909389008FEF80938800F4
S113093090938B0080938A0090938D0080938C0019
S113094090938700809386008BEA809380001092B6
S113095082008CE080830895E1E2F1E010828FEF61
S11309608093250191E090932401109229018093B2
S1130970280110922B0180932A0110922D0180935B
S11309802C0189EA809320018BE0808308959B9A4F
S1130990A398089581B18F6081B982B1807F82B9B3
S11309A0EAE0F1E0808188618083EBE0F1E080811E
S11309B0886180830895259A2D9A0895269A2E9AFF
S11309C00895279A2F9A0895E1E0F1E080818FEF4E
S11309D08083E2E0F1E080818E7F8083089510BA05
S11309E011BA10920701109208010895D0DFD2DFE6
S11309F0E2DFE4DFE6DFE8DF97DBF1CF08951F9263
S1130A000F920FB60F9211248F939F93AF93BF93BE
S1130A108091CC049091CD04A091CE04B091CF04E8
S1130A200196A11DB11D8093CC049093CD04A09395
S1130A30CE04B093CF04BF91AF919F918F910F904B
S1130A400FBE0F901F9018951F920F920FB60F9222
S1130A5011248F939F93AF93BF938091D00490916F
S1130A60D104A091D204B091D3040196A11DB11D6B
S1130A708093D0049093D104A093D204B093D30470
S1130A80BF91AF919F918F910F900FBE0F901F90C8
S1130A90189592B1907F8F70982B92B9089586E043
S1130AA0F8CF089589E0F5CF089585E0F2CF089551
S1130AB08AE0EFCF089584E0ECCF089582E0E9CF97
S1130AC0089580E0E6CF0895682FE2E0F1E08081A8
S1130AD08160808326E686EE90E02150804090403D
S1130AE0E1F710928D0070E080E090E00E945E13C8
S1130AF02BE734E14EEE5FE30E94CA1220E030E0BF
S1130B004CE052E40E9466120E94321360938C00FF
S1130B100895682FE2E0F1E080818E7F808326E6ED
S1130B2086EE90E0215080409040E1F710928D00D5
S1130B3070E080E090E00E945E132BE734E14EEE1B
S1130B405FE30E94CA1220E030E04CE052E40E94CD
S1130B5066120E94321360938C00089583E08093A0
S1130B6089008FEF80938800089583E080938B0041
S1130B708FEF80938A00089583E080938D008FEF38
S1130B8080938C00089583E080938D008FEF809391
S1130B908C000895883018F098E090937B0087705B
S1130BA0806280937C00EAE7F0E080818064808347
S1130BB0808184FFFDCF80917900EAE7F0E09081A5
S1130BC09061908310927B000895CF93DF93EC01A2
S1130BD01CDBC330D10509F435C02CF4209751F047
S1130BE0219771F034C0C530D10581F004F1269706
S1130BF099F02DC082E8E4DA83E794E03FDB27C074
S1130C0082E8DEDA81E894E039DB21C082E8D8DAD0
S1130C108FE894E033DB1BC085E8D2DA87E994E0FF
S1130C202DDB80ECCDDA8DE994E028DB10C085E87B
S1130C30C7DA8CEA94E022DB82ECC2DA83EB94E03C
S1130C401DDB05C082E8BCDA81EC94E017DBDF91A0
S1130C50CF9108951092890083E5809388002FEF47
S1130C608FEB91E2215080409040E1F700C00000FA
S1130C7075DF88E729DF2FEF8FEB91E22150804069
S1130C809040E1F700C0000077DF10928B0089E507
S1130C9080938A002FEF8FEF9CE221508040904098
S1130CA0E1F700C0000084E10FDF2FEF8FEB91E24A
S1130CB0215080409040E1F700C0000010928B006A
S1130CC083E280938A002FEF8FEF9CE221508040D3
S1130CD09040E1F700C0000008951092890087E475
S1130CE0809388002FEF8FEB91E221508040904059
S1130CF0E1F700C0000032DF88E20BDF2FEF8FEF57
S1130D009CE2215080409040E1F700C000003BDFAE
S1130D1010928B0088E580938A002FEF8FE793E48D
S1130D20215080409040E1F700C0000080EAF1DEED
S1130D302FEF8FEB91E2215080409040E1F700C00B
S1130D40000010928B0083E280938A002FEF8FEFD4
S1130D509CE2215080409040E1F700C0000005DF94
S1130D601092890083E5809388002FEF8FEB91E246
S1130D70215080409040E1F700C00000EFCE08957C
S1130D802FEF8FE796E1215080409040E1F700C0BB
S1130D9000001092890083E2809388002FEF8FEF88
S1130DA09CE2215080409040E1F700C00000D6DE74
S1130DB08EE18ADE2FEF8FEB91E22150804090404C
S1130DC0E1F700C0000010928B008BE380938A004F
S1130DD02FEF8FEF9CE2215080409040E1F700C05C
S1130DE0000089E671DE2FEF8FEB91E22150804005
S1130DF09040E1F700C00000BFDE10928B0083E258
S1130E0080938A002FEF8FEF9CE221508040904026
S1130E10E1F700C00000A9DE1092890086E5809306
S1130E2088002FEF8FEF9CE2215080409040E1F743
S1130E3000C0000093CE0895FF920F931F93CF93A9
S1130E40DF9383E090E0C1DE22E030E040E050E058
S1130E5067E082E021DAF12C08E211E0CAE2D1E095
S1130E6021DE80914204F8018083888381E092DE50
S1130E7080931C0582E08EDE8093110583E08ADE78
S1130E808093140590911C0540911105242F30E0A6
S1130E90290F311D280F311D2A3431406CF54A3594
S1130EA058F5F11029C02FEF5FE784E0215050403E
S1130EB08040E1F700C0000022E030E041E050E073
S1130EC067E082E0E9D9EBDD9FEFEFE3FBE09150CF
S1130ED0E040F040E1F700C00000F3DD51DFE2DD67
S1130EE02FEF5FE784E0215050408040E1F700C0DD
S1130EF00000FF24F394B4CF953B60F0423850F4E3
S1130F00853B40F080914204F80180838091420443
S1130F108883A6CF903598F4433830F1873998F117
S1130F20CDDD809141048253F80180838091420495
S1130F30888386E69EE00197F1F7000091CF863919
S1130F4098F4433888F0913578F0B5DD8091420407
S1130F50F8018083809141048253888386E69EE071
S1130F600197F1F700007CCF843608F079CF45363D
S1130F7008F476CF943608F073CF61E070E082E035
S1130F8090E00AD003C08639F0F2EECFDF91CF9122
S1130F901F910F91FF900895AF92BF92CF92DF926D
S1130FA0EF92FF920F931F93CF93DF93EC015B01BA
S1130FB0161617060CF0D3C0CC24C394D12C0F2ED4
S1130FC0F8E2EF2EFF24F394F02D0AE211E06ADD3B
S1130FD080914204F7018083F801808381E0DADDA7
S1130FE080931C0582E0D6DD8093110583E0D2DD79
S1130FF080931405C230D105C1F490911C05209151
S1131000110530E0290F311D280F311D29313140E0
S11310100CF445C02FEF8FEB96E0215080409040B8
S1131020E1F700C000004DDD93C0C330D10549F4A1
S113103090911C05993790F2893780F242DDFCDEED
S113104087C0C130D105A1F48BE0A4DD80931B05DA
S1131050873408F4C3CF80911C05803508F0BECFD7
S113106080911105803508F0B9CF2BDD8FD070C089
S11310702097A9F490911C052091110530E0290FC7
S1131080311D280F311D213931404CF0FCEC2CEE80
S113109082E0F15020408040E1F700C059C09091B7
S11310A01C059C3378F4209111052D3758F08C33AE
S11310B048F480914204F701808380914204F8014E
S11310C080838CCF983278F4209111052C3358F416
S11310D08D3848F080914204F70180838091410467
S11310E0F80180837BCF883278F4209111052C336A
S11310F058F49D3848F080914104F7018083809131
S11311004204F80180836ACF40911105242F30E016
S1131110290F311D280F311D283C31050CF05ECFFD
S11311204353413308F05ACF891710F58091400496
S1131130F701808380914204F80180834FCF80912E
S11311404204F701808380914004F801808346CFF4
S1131150FFEFCF1ADF0AAC14BD040CF038CF26E63B
S113116086EE90E0215080409040E1F7AADC03C075
S1131170981728F333CFDF91CF911F910F91FF90F0
S1131180EF90DF90CF90BF90AF900895DF92EF92F1
S1131190FF920F931F93CF93DF9384DC2FEF8FEF96
S11311A098E0215080409040E1F700C00000809119
S11311B042048093280180932A0108E211E00F2E53
S11311C0F8E7DF2EF02DCAE2D1E00F2EF5E7EF2E7F
S11311D0F02D0F2EFCEDFF2EF02D64DC8BE0DADC1D
S11311E080931B0583E0D6DC8093140582E0D2DC77
S11311F08093110590911405913510F4813558F0C0
S113120080911B05843638F45CDC61E070E080E09A
S113121090E0C2DE2FC080911B059DE8980F9031AD
S113122068F4F801F082F882FFEF2FE382E0F150D6
S113123020408040E1F700C00000CFCF833858F051
S11312403ADCF801E082D8828CEC9CE10197F1F75A
S113125000C00000C2CF8155823208F0BECF2EDC20
S1131260F801D082E8828CEC9CE10197F1F700C090
S11312700000B3CFDF91CF911F910F91FF90EF90BA
S1131280DF9008950FDC2FEF8FEF98E0215080401E
S11312909040E1F700C0000008DC2FEF8FEF98E0EA
S11312A0215080409040E1F700C000000ADC2FEF9D
S11312B08FE392E0215080409040E1F700C00000AD
S11312C0F4DB84E68093280180932A0183E062DCC6
S11312D0809314058035D0F312B8F3DB2FEF8FEF32
S11312E098E0215080409040E1F700C000008091D8
S11312F04204809328018091420480932A01089536
S1131300D4DB2FEF8FEF98E0215080409040E1F73D
S113131000C00000D6DB2FEF8FE392E02150804025
S11313209040E1F700C00000C0DB84E68093280110
S113133080932A0183E02EDC809314058035D0F35A
S113134012B8B3DB8FEF97E40197F1F700C0000008
S1131350B8DB9FEF2FEF88E0915020408040E1F709
S113136000C00000809142048093280180914204CF
S113137080932A01089596DB2FEF8FE39BE02150A1
S113138080409040E1F700C0000092DB2FEF8FEF28
S113139098E0215080409040E1F700C0000091DBCC
S11313A02FEF8FE392E0215080409040E1F700C09E
S11313B000007EDB84E68093280180932A0181E08B
S11313C0E9DB809311058035D0F312B87ADB2FEF77
S11313D08FEF98E0215080409040E1F700C000007A
S11313E080914204809328018091420480932A01D1
S11313F00895EAE7F0E0108210927B0080E2809387
S11314007C0080E880BF86E880830895F894EEDA53
S1131410F0DFA2DA7EDA78940E949B000C94050136
S113142008958130910529F48091590490915A04CA
S113143008958230910529F48091570490915804BD
S113144008958330910529F48091550490915604B0
S113145008958430910529F48091530490915404A3
S113146008958530910529F4809151049091520496
S113147008958630910529F480914F049091500489
S113148008958730910529F480914D0490914E047C
S113149008958830910529F480914B0490914C046F
S11314A008958930910529F48091490490914A0462
S11314B008958A30910529F4809147049091480455
S11314C008958B30910529F4809145049091460448
S11314D008950C9729F4809143049091440408954D
S11314E08FEF9FEF08953F924F925F926F927F929A
S11314F08F929F92AF92BF92CF92DF92EF92FF9220
S11315000F931F93CF93DF9300D01F92CDB7DEB715
S1131510B62ED9010D911C91980121503109121652
S113152013060CF070C489839A83EE24E394F12C9F
S1131530AA24A394912C812C712C0F2EF7E76F2EE3
S1131540F02D0F2EF3E75F2EF02D0F2EF5E64F2E24
S1131550F02D0F2EFEE63F2EF02DE981FA81FC835B
S1131560EB8380819181009709F068C18281938126
S11315708130910519F00E9709F0D7C22A2D392D23
S1131580882D972D03C001962F5F3F4FEB81FC817F
S1131590A081B181AA0FBB1FAA0FBB1FA80FB91F3F
S11315A0AA0FBB1FAA5FBD4F0D90BC91A02D6281F5
S11315B07381A617B707B9F4009719F430926F0432
S11315C0E2CF8130910519F440926F04DCCF823070
S11315D0910519F450926F04D6CF8330910519F414
S11315E060926F0403C0243031056CF2FEE6BF1232
S11315F047C080916F048E3671F46A2D792D82E094
S113160090E0CADCB0906F0486EC0E94E0008B2D61
S11316100E941601ECC3853679F434DE6A2D792DE7
S113162082E090E0B9DCB0906F0486EC0E94E000A8
S11316308B2D0E941601DBC3833781F423DE22DE67
S11316406A2D792D82E090E0A7DCB0906F0486ECDF
S11316500E94E0008B2D0E941601C9C3873709F050
S1131660A3C089DE6A2D792D82E090E095DCB090EC
S11316706F0486EC0E94E0008B2D0E941601B7C314
S113168085E6B81247C080916F04853671F46A2DDF
S1131690792D82E090E080DCB0906F0486EC0E94AB
S11316A0E0008B2D0E941601A2C3833779F4EADD92
S11316B06A2D792D82E090E06FDCB0906F0486ECA7
S11316C00E94E0008B2D0E94160191C3873781F49C
S11316D0D9DDD8DD6A2D792D82E090E05DDCB09013
S11316E06F0486EC0E94E0008B2D0E9416017FC3DC
S11316F08E3609F07CC33FDE6A2D792D82E090E0BE
S11317004BDCB0906F0486EC0E94E0008B2D0E94AD
S113171016016DC393E7B91247C080916F048337F4
S113172071F46A2D792D82E090E036DCB0906F047C
S113173086EC0E94E0008B2D0E94160158C3873767
S113174079F4A0DD6A2D792D82E090E025DCB0905B
S11317506F0486EC0E94E0008B2D0E94160147C3A3
S11317608E3681F48FDD8EDD6A2D792D82E090E056
S113177013DCB0906F0486EC0E94E0008B2D0E9475
S1131780160135C3853609F032C3F5DD6A2D792D8E
S113179082E090E001DCB0906F0486EC0E94E000EF
S11317A08B2D0E94160123C3A7E7BA1220C3809190
S11317B06F04873771F46A2D792D82E090E0ECDBB9
S11317C0B0906F0486EC0E94E0008B2D0E941601FD
S11317D00EC38E3679F456DD6A2D792D82E090E0C1
S11317E0DBDBB0906F0486EC0E94E0008B2D0E943E
S11317F01601FDC2853681F445DD44DD6A2D792D5F
S113180082E090E0C9DBB0906F0486EC0E94E000B7
S11318108B2D0E941601EBC2833709F0E8C2ABDDC1
S11318206A2D792D82E090E0B7DBB0906F0486ECEE
S11318300E94E0008B2D0E941601D9C282309105CE
S113184041F4EB81FC81828193810D9709F06DC194
S11318500CC00D9709F069C1AB81BC8112968D91C2
S11318609C911397029709F060C12A2D392D882D78
S1131870972D03C001962F5F3F4FEB81FC81A08120
S1131880B181AA0FBB1FAA0FBB1FA80FB91FAA0FB4
S1131890BB1FAA5FBD4F0D90BC91A02D62817381C7
S11318A0A617B707B9F4009719F430926F04E2CF82
S11318B08130910519F440926F04DCCF8230910598
S11318C019F450926F04D6CF8330910519F46092C5
S11318D06F0403C0243031056CF2FEE6BF1247C02A
S11318E080916F048E3671F46A2D792D8A2D992D8D
S11318F053DBB0906F0486EC0E94E0008B2D0E94B5
S1131900160175C2853679F4BDDC6A2D792D8A2DD0
S1131910992D42DBB0906F0486EC0E94E0008B2D81
S11319200E94160164C2833781F4ACDCABDC6A2DFF
S1131930792D8A2D992D30DBB0906F0486EC0E94AE
S1131940E0008B2D0E94160152C2873709F0A3C014
S113195012DD6A2D792D8A2D992D1EDBB0906F042E
S113196086EC0E94E0008B2D0E94160140C285E6A1
S1131970B81247C080916F04853671F46A2D792DB1
S11319808A2D992D09DBB0906F0486EC0E94E0004B
S11319908B2D0E9416012BC2833779F473DC6A2DD8
S11319A0792D8A2D992DF8DAB0906F0486EC0E9477
S11319B0E0008B2D0E9416011AC2873781F462DC85
S11319C061DC6A2D792D8A2D992DE6DAB0906F04A9
S11319D086EC0E94E0008B2D0E94160108C28E3610
S11319E009F005C2C8DC6A2D792D8A2D992DD4DA27
S11319F0B0906F0486EC0E94E0008B2D0E941601CB
S1131A00F6C193E7B91247C080916F04833771F42C
S1131A106A2D792D8A2D992DBFDAB0906F0486EC4A
S1131A200E94E0008B2D0E941601E1C1873779F4F2
S1131A3029DC6A2D792D8A2D992DAEDAB0906F04A8
S1131A4086EC0E94E0008B2D0E941601D0C18E36D8
S1131A5081F418DC17DC6A2D792D8A2D992D9CDAF6
S1131A60B0906F0486EC0E94E0008B2D0E9416015A
S1131A70BEC1853609F0BBC17EDC6A2D792D8A2D65
S1131A80992D8ADAB0906F0486EC0E94E0008B2DC9
S1131A900E941601ACC1A7E7BA12A9C180916F04D4
S1131AA0873771F46A2D792D8A2D992D75DAB090C6
S1131AB06F0486EC0E94E0008B2D0E94160197C1F2
S1131AC08E3679F4DFDB6A2D792D8A2D992D64DA2F
S1131AD0B0906F0486EC0E94E0008B2D0E941601EA
S1131AE086C1853681F4CEDBCDDB6A2D792D8A2D36
S1131AF0992D52DAB0906F0486EC0E94E0008B2D91
S1131B000E94160174C1833709F071C134DC6A2D57
S1131B10792D8A2D992D40DAB0906F0486EC0E94BD
S1131B20E0008B2D0E94160162C14A2D592D282DEB
S1131B30372D04C02F5F3F4F4F5F5F4FD901EB81BB
S1131B40FC8180819181880F991F880F991F820FD2
S1131B50931F880F991F8A5F9D4FFC01808191819B
S1131B60EB81FC81C280D3808C159D05B9F410975C
S1131B7019F430926F04DECF2130310519F440920C
S1131B806F04D8CF2230310519F450926F04D2CFAC
S1131B902330310519F460926F0403C044305105B9
S1131BA04CF2FEE6BF1247C080916F048E3671F48A
S1131BB06A2D792D882D972DEFD9B0906F0486EC7E
S1131BC00E94E0008B2D0E94160111C1853679F424
S1131BD059DB6A2D792D882D972DDED9B0906F04AD
S1131BE086EC0E94E0008B2D0E94160100C1833711
S1131BF081F448DB47DB6A2D792D882D972DCCD9CC
S1131C00B0906F0486EC0E94E0008B2D0E941601B8
S1131C10EEC0873709F0A3C0AEDB6A2D792D882D7D
S1131C20972DBAD9B0906F0486EC0E94E0008B2DFA
S1131C300E941601DCC085E6B81247C080916F048B
S1131C40853671F46A2D792D882D972DA5D9B090FC
S1131C506F0486EC0E94E0008B2D0E941601C7C021
S1131C60833779F40FDB6A2D792D882D972D94D93C
S1131C70B0906F0486EC0E94E0008B2D0E94160148
S1131C80B6C0873781F4FEDAFDDA6A2D792D882D06
S1131C90972D82D9B0906F0486EC0E94E0008B2DC2
S1131CA00E941601A4C08E3609F0A1C064DB6A2D1F
S1131CB0792D882D972D70D9B0906F0486EC0E94F1
S1131CC0E0008B2D0E94160192C093E7B91247C021
S1131CD080916F04833771F46A2D792D882D972DA7
S1131CE05BD9B0906F0486EC0E94E0008B2D0E94BB
S1131CF016017DC0873779F4C5DA6A2D792D882DD0
S1131D00972D4AD9B0906F0486EC0E94E0008B2D89
S1131D100E9416016CC08E3681F4B4DAB3DA6A2DEF
S1131D20792D882D972D38D9B0906F0486EC0E94B8
S1131D30E0008B2D0E9416015AC0853609F057C069
S1131D401ADB6A2D792D882D972D26D9B0906F0432
S1131D5086EC0E94E0008B2D0E94160148C0A7E784
S1131D60BA1245C080916F04873771F46A2D792DBA
S1131D70882D972D11D9B0906F0486EC0E94E00055
S1131D808B2D0E94160133C08E3679F47BDA6A2DCE
S1131D90792D882D972D00D9B0906F0486EC0E9480
S1131DA0E0008B2D0E94160122C0853681F46ADA88
S1131DB069DA6A2D792D882D972DEED8B0906F04AD
S1131DC086EC0E94E0008B2D0E94160110C0833720
S1131DD071F4D1DA6A2D792D882D972DDDD8B09044
S1131DE06F0486EC0E94E0008B2D0E941601BFEF69
S1131DF0EB1AFB0AE981FA813296FA83E983E01649
S1131E00F10609F0AACB0F900F900F900F90DF917D
S1131E10CF911F910F91FF90EF90DF90CF90BF90E3
S1131E20AF909F908F907F906F905F904F903F9076
S1131E3008958E3619F56E3639F486EC0E94E0006A
S1131E408EE60C9416010895653641F41BDA86EC8F
S1131E500E94E00085E60C9416010895633719F496
S1131E6011DA4ECA0895673709F05DC084DA86EC4A
S1131E700E94E00087E70C9416010895853649F521
S1131E80653639F486EC0E94E00085E60C94160170
S1131E900895633741F4F6D986EC0E94E00083E7A5
S1131EA00C9416010895673749F4ECD929DA86ECC5
S1131EB00E94E00087E70C94160108956E3609F03D
S1131EC05BC059DA86EC0E94E0008EE60C941601A1
S1131ED00895833741F5633739F486EC0E94E000B6
S1131EE083E70C9416010895673741F4CBD986EC47
S1131EF00E94E00087E70C94160108956E3649F4B9
S1131F00C1D9FED986EC0E94E0008EE60C9416013D
S1131F100895653689F52FDA86EC0E94E00085E69F
S1131F200C9416010895873739F5673739F486EC30
S1131F300E94E00087E70C94160108956E3641F480
S1131F40A1D986EC0E94E0008EE60C941601089557
S1131F50653649F497D9D4D986EC0E94E00085E629
S1131F600C9416010895633739F405DA86EC0E945F
S1131F70E00083E70C9416010895CF93DF93EB01FF
S1131F808230910599F528813981232BA9F467E7DB
S1131F90842F4FDF81E090E0998388830E944F056E
S1131FA02FEF8FEF98E0215080409040E1F700C080
S1131FB000000E94610525C12A813B81232B09F081
S1131FC020C165E6842F35DF81E090E09B838A831E
S1131FD00E944F052FEF8FEF98E0215080409040F2
S1131FE0E1F700C000000E9461050BC18D3091052E
S1131FF099F52C813D81232BA9F467E7842F19DF00
S113200081E090E09D838C830E944F052FEF8FEF3A
S113201098E0215080409040E1F700C000000E9409
S11320206105EFC02E813F81232B09F0EAC065E6EC
S1132030842FFFDE81E090E09F838E830E944F0512
S11320402FEF8FEF98E0215080409040E1F700C0DF
S113205000000E946105D5C08430910599F528855A
S11320603985232BA9F467E7842FE3DE81E090E030
S1132070998788870E944F052FEF8FEF98E02150B2
S113208080409040E1F700C000000E946105B9C0A3
S11320902A853B85232B09F0B4C065E6842FC9DE6D
S11320A081E090E09B878A870E944F052FEF8FEF96
S11320B098E0215080409040E1F700C000000E9469
S11320C061059FC08B30910599F52C853D85232BA7
S11320D0A9F467E7842FADDE81E090E09D878C87CB
S11320E00E944F052FEF8FEF98E0215080409040E1
S11320F0E1F700C000000E94610583C02E853F8582
S1132100232B09F07EC065E6842F93DE81E090E006
S11321109F878E870E944F052FEF8FEF98E0215005
S113212080409040E1F700C000000E94610569C052
S11321308630910599F528893989232BA9F467E715
S1132140842F77DE81E090E0998B888B0E944F0585
S11321502FEF8FEF98E0215080409040E1F700C0CE
S113216000000E9461054DC02A893B89232B09F098
S113217048C065E6842F5DDE81E090E09B8B8A8B0E
S11321800E944F052FEF8FEF98E021508040904040
S1132190E1F700C000000E94610533C0099789F58A
S11321A02C893D89232BA9F467E7842F42DE81E043
S11321B090E09D8B8C8B0E944F052FEF8FEF98E062
S11321C0215080409040E1F700C000000E9461056A
S11321D018C02E893F89232BA1F465E6842F29DEBC
S11321E081E090E09F8B8E8B0E944F052FEF8FEF45
S11321F098E0215080409040E1F700C000000E9428
S11322006105DF91CF910895AF92BF92CF92DF9293
S1132210EF92FF920F931F93CF93DF931F921F921E
S1132220CDB7DEB7F3D81A8219821092ED0410925A
S1132230EC0483E78093700461E070E080E090E058
S11322400E94CC0700916B0410916C040E9405015C
S113225023E030E0A80161E082E00E944C01C80163
S1132260E0D86C0123E030E0AC016EE082E00E9433
S11322704C014091EC045091ED0460917104709113
S113228072048EE792E00E94770280E590E0B3D278
S1132290A82EB92E9E012F5F3F4F482F592FB6010C
S11322A0C6010E94F80389819A8118161906B4F4AC
S11322B0EA2CFB2C00E010E0F701419151917F01E1
S11322C0602F660F22E030E081E00E944C010F5F36
S11322D01F4F89819A810817190774F34091EC0400
S11322E05091ED049E012F5F3F4F609170048A2D41
S11322F09B2DF9D886EC0E94E000809170040E9426
S113230016018A2D9B2D0FD320916F0440917004E8
S113231064ED74E0C60131DE0E942A0686EC0E9458
S1132320E000809170040E9416010E940501EA2CCD
S1132330FB2C00E010E0F701819191917F0101975E
S113234039F422E030E0A80161E081E00E944C0110
S11323500F5F1F4F0D30110571F786EC0E94E000EE
S1132360809170040E94160185E680937004D092D7
S1132370ED04C092EC0486EC0E94E00080917004AD
S11323800E94160100916D0410916E040E940501D3
S113239023E030E0A80161E082E00E944C01C80122
S11323A040D86C0123E030E0AC016EE082E00E9492
S11323B04C014091EC045091ED04609171047091D2
S11323C072048EE792E00E9477029E012F5F3F4FD6
S11323D04A2D5B2DB601C6010E94F80389819A81BA
S11323E018161906B4F4EA2CFB2C00E010E0F701EF
S11323F0419151917F01602F660F22E030E081E02E
S11324000E944C010F5F1F4F89819A810817190799
S113241074F34091EC045091ED049E012F5F3F4F03
S1132420609170048A2D9B2D5ED88A2D9B2D7BD2C2
S113243020916F044091700464ED74E0C6019DDD49
S11324400E946D060E940501EA2CFB2C00E010E0BE
S1132450F701819191917F01019739F422E030E0F5
S1132460A80161E081E00E944C010F5F1F4F0D3015
S1132470110571F76EE680917004DBDCD092ED04F7
S1132480C092EC046091710470917204A6018EE70D
S113249092E00E9477029E012F5F3F4F4A2D5B2DF1
S11324A068E070E087E090E00E94F80380E090E04C
S11324B00F900F90DF91CF911F910F91FF90EF90AC
S11324C0DF90CF90BF90AF9008955058BB27AA27B4
S11324D00ED048C139D130F03ED120F031F49F3FC5
S11324E011F41EF42EC10EF4E095E7FB24C1E92F8C
S11324F04AD180F3BA17620773078407950718F067
S113250071F49EF562C10EF4E0950B2EBA2FA02D46
S11325100B01B90190010C01CA01A0011124FF278C
S1132520591B99F0593F50F4503E68F11A16F04087
S1132530A22F232F342F4427585FF3CF4695379586
S11325402795A795F0405395C9F77EF41F16BA0B4B
S1132550620B730B840BBAF09150A1F0FF0FBB1FF9
S1132560661F771F881FC2F70EC0BA0F621F731F42
S1132570841F48F4879577956795B795F7959E3F9F
S113258008F0B3CF9395880F08F09927EE0F97952D
S1132590879508950CD0E6C0DED040F0D5D030F059
S11325A021F45F3F19F0C7C0511110C1CAC0EBD06C
S11325B098F39923C9F35523B1F3951B550BBB2706
S11325C0AA2762177307840738F09F5F5F4F220FB3
S11325D0331F441FAA1FA9F333D00E2E3AF0E0E8AC
S11325E030D091505040E695001CCAF729D0FE2FF8
S11325F027D0660F771F881FBB1F2617370748078A
S1132600AB07B0E809F0BB0B802DBF01FF2793583F
S11326105F4F2AF09E3F510568F08DC0D7C05F3FE1
S1132620ECF3983EDCF3869577956795B795F79527
S11326309F5FC9F7880F911D9695879597F908951F
S1132640E1E0660F771F881FBB1F621773078407BB
S1132650BA0720F0621B730B840BBA0BEE1F88F7CA
S1132660E095089598D088F09F5790F0B92F992756
S1132670B751A0F0D1F0660F771F881F991F1AF089
S1132680BA95C9F712C0B13081F09FD0B1E0089576
S11326909CC0672F782F8827B85F39F0B93FCCF3F7
S11326A0869577956795B395D9F73EF4909580957F
S11326B0709561957F4F8F4F9F4F0895E89409C09F
S11326C097FB3EF490958095709561957F4F8F4F61
S11326D09F4F9923A9F0F92F96E9BB279395F69577
S11326E0879577956795B795F111F8CFFAF4BB0FF5
S11326F011F460FF1BC06F5F7F4F8F4F9F4F16C059
S1132700882311F096E911C0772321F09EE8872FE2
S1132710762F05C0662371F096E8862F70E060E09E
S11327202AF09A95660F771F881FDAF7880F969517
S1132730879597F9089597F99F6780E870E060E0BE
S113274008959FEF80EC089500240A941616170646
S113275018060906089500240A941216130614068E
S113276005060895092E0394000C11F4882352F0F1
S1132770BB0F40F4BF2B11F460FF04C06F5F7F4FA9
S11327808F4F9F4F089557FD9058440F551F59F090
S11327905F3F71F04795880F97FB991F61F09F3F4A
S11327A079F087950895121613061406551FF2CF73
S11327B04695F1DF08C0161617061806991FF1CFC3
S11327C086957105610508940895E894BB276627EA
S11327D07727CB0197F90895A29FB001B39FC00159
S11327E0A39F700D811D1124911DB29F700D811D39
S11327F01124911D0895CF93DF938230910510F435
S113280082E090E0E0914405F091450520E030E05D
S1132810A0E0B0E0309739F1408151814817590761
S1132820B8F04817590771F482819381109729F001
S113283013969C938E9312972CC090934505809386
S1132840440527C02115310531F04217530718F00C
S1132850A901DB0101C0EF019A01BD01DF01028082
S1132860F381E02DD7CF21153105F9F0281B390B61
S11328702430310580F48A819B816115710521F032
S1132880FB019383828304C09093450580934405A0
S1132890FE01329644C0FE01E20FF31F819391932F
S11328A022503109398328833AC02091420530915E
S11328B04305232B41F4209102023091030230930B
S11328C04305209342052091000230910102211515
S11328D0310541F42DB73EB74091040250910502F1
S11328E0241B350BE0914205F0914305E217F307F1
S11328F0A0F42E1B3F0B2817390778F0AC014E5F6C
S11329005F4F2417350748F04E0F5F1F5093430560
S1132910409342058193919302C0E0E0F0E0CF013F
S1132920DF91CF910895CF93DF93009709F487C087
S1132930FC01329713821282C0914405D09145055F
S1132940209781F420813181280F391F809142051D
S1132950909143058217930779F5F0934305E0932B
S113296042056DC0DE0120E030E0AE17BF0750F431
S113297012964D915C9113979D014115510509F1F2
S1132980DA01F3CFB383A28340815181840F951F71
S11329908A179B0771F48D919C911197840F951F51
S11329A002969183808312968D919C9113979383C1
S11329B082832115310529F4F0934505E0934405FC
S11329C03EC0D9011396FC93EE9312974D915D91FD
S11329D0A40FB51FEA17FB0779F480819181840F56
S11329E0951F0296D90111969C938E9382819381AF
S11329F013969C938E931297E0E0F0E08A819B817A
S1132A00009719F0FE01EC01F9CFCE01029628815E
S1132A103981820F931F2091420530914305281775
S1132A20390769F4309729F410924505109244054A
S1132A3002C013821282D0934305C0934205DF91F2
S10B2A40CF910895F894FFCF33
S1132A4800004605200000000E00000001000200FE
S1132A580000000000000300000001000000040062
S1132A680C0002000000050000000300000006003E
S1132A780A00040000000700000005000000000030
S1132A880800060000000000000009000700080014
S1132A9800000A000000090000000B0005000A00FD
S1132AA800000C0000000B0000000D0003000C00E7
S1132AB800000E0000000D000000000000000000EF
S1132AC802000000000000000000000000000000F8
S1132AD800000000000000000000020002000000E6
S1132AE801000000000000000000000000000000D9
S1132AF800000000000000000000000001000000C9
S1132B0801000000000000000000000000000000B8
S1132B1800000000000000000000000001000000A8
S1132B280100000000000000000000000000000098
S1132B380600000000000000000000000100000082
S1132B480100000000000000000000000000000078
S1132B580000000000000000000000000100000068
S1132B680100000000000000060000000000000052
S1132B780000000000000000000000000100000048
S1132B880100000000000000000000000000000038
S1132B980000000000000000000000000100000028
S1132BA80800000000000000000000000000000011
S1132BB80000000000000000000000000800000001
S1132BC801000000000000000000000000000000F8
S1132BD800000000000000000000000001000000E8
S1132BE801000000000000000000000000000000D8
S1132BF800000000060000000000000001000000C2
S1132C0801000000000000000000000000000000B7
S1132C1800000000000000000000000001000000A7
S1132C280100000000000000000000000600000091
S1132C380000000000000000000000000100000087
S1132C480100000000000000000000000000000077
S1132C580000000000000000000000000100000067
S1132C680100020000000000000000000000000055
S1132C780000000000000000000000000100000047
S1132C88CDB9E609000900060006000B000B000494
S1132C980004000D000D000200020003000B0009EF
S1132CA80005000400070001000000020008006E8F
S1132CB8770F004C696E652D466F6C6C6F77657283
S1132CC80057616C6C2D466F6C6C6F776572005A97
S1132CD869672D5A61670020454E4420002D2D2D2B
S1132CE82D2D2A2A2A2A2D2D2D2D2D005374617459
S1132CF869630052656F7269656E746174696F6E99
S10F2D0800496E76657273696F6E0000FE
S9030000FC
