:100000007BC0000099C0000097C0000095C00000B0
:1000100093C0000091C000008FC000008DC00000A0
:100020008BC0000089C0000087C0000085C00000B0
:1000300083C0000081C000007FC000007DC00000C0
:100040007BC0000079C0000077C0000075C00000D0
:1000500073C0000071C000006FC000006DC00000E0
:100060006BC0000069C0000067C0000065C00000F0
:1000700063C0000061C000005FC000005DC0000000
:100080005BC0000059C0000057C0000055C0000010
:1000900053C0000051C000004FC000004DC0000020
:1000A0004BC0000049C0000047C0000045C0000030
:1000B00043C0000041C000003FC000003DC0000040
:1000C0003BC0000039C0000037C0000035C0000050
:1000D00033C0000031C000002FC000002DC0000060
:1000E0002BC0000044034B03520359036003670312
:1000F0006E03750382038F0311241FBECFEFD1E27D
:10010000DEBFCDBF00E00CBF12E0A0E0B2E0EAEA43
:10011000F2E100E00BBF02C007900D92A83AB107D0
:10012000D9F722E0A8EAB2E001C01D92AE3BB207C7
:10013000E1F7F1D60C94530963CF87B1876F87B984
:1001400088B1887088B9089586E69EE00197F1F736
:1001500000004098419880E388B9429A8FEF97E475
:100160000197F1F700C00000429886E69EE00197F3
:10017000F1F700004098419880E388B9429A8FEFE8
:1001800097E40197F1F700C00000429886E69EE0F0
:100190000197F1F700004098419880E388B9429AAE
:1001A0008FEF97E40197F1F700C00000429886E6D0
:1001B0009EE00197F1F700004098419880E288B9ED
:1001C000429A8FEF97E40197F1F700C00000429840
:1001D000089598B19F7098B998B1282F207F922BDD
:1001E00098B940984198429AEFEFF7E43197F1F7C8
:1001F00000C00000429898B19F7098B998B182955C
:10020000807F892B88B940984198429A8FEF97E474
:100210000197F1F700C000004298089595DF86E647
:100220009EE00197F1F7000088E2D3DF81E0D1DFA3
:1002300086E0CFDF8EE0CDDF80E8CBCF089598B1A8
:100240009F7098B998B1282F207F922B98B9409A27
:100250004198429AEFEFF7E43197F1F700C00000C0
:10026000429898B19F7098B998B18295807F892BF8
:1002700088B9409A4198429A8FEF97E40197F1F735
:1002800000C000004298089580E8A3CF0895CF935E
:10029000DF93EC018881882329F02196D0DF8991B2
:1002A0008111FCCFDF91CF910895823069F018F46D
:1002B000813031F00895833059F0843069F0089529
:1002C0008FE7860F86CF08958FEB860F82CF089534
:1002D00083E9860F7ECF089583ED860F7ACF089548
:1002E0000F931F93CF93DF938A01E901882311F0C5
:1002F000611102C0C9DF01C0D8DFC530D10509F0E6
:10030000CDC09801329522952F7023273F70232767
:10031000A7E4B3E0B9D79695879596958795969576
:100320008795C0969093A9028093A80288DF9801D0
:10033000369527953695279536952795A5ECB0E205
:10034000A3D7AC01529542954F7045275F70452762
:100350005093AD024093AC029A01ADECBCEC94D743
:100360009695879596958795969587959C01220FEA
:10037000331F880F991F880F991F880F991F820FAD
:10038000931F481B590BCA01C0969093BB028093E0
:10039000BA0255DF04C0C330D10509F084C098010A
:1003A0003695279536952795ABE7B4E16DD7AC0127
:1003B000569547955093AD024093AC029A01ADEC2F
:1003C000BCEC62D796958795969587959695879577
:1003D0009C01220F331F880F991F880F991F880FC8
:1003E000991F820F931F481B590BCA01C096909307
:1003F000B4028093B30223DF9801ADECBCEC44D788
:10040000AC01569547955695479556954795509307
:10041000AD024093AC029A0137D796958795969591
:100420008795969587959C01220F331F880F991FFA
:10043000880F991F880F991F820F931F481B590B14
:10044000CA01C0969093B2028093B102F8DE03C055
:10045000C130D105F1F49801ADECBCEC15D79695FF
:10046000879596958795969587959C01220F331FC2
:10047000880F991F880F991F880F991F820F931F4C
:10048000081B190BC801C0969093B9028093B8025B
:10049000D6DE269764F085E4D2DE09C0C430D105EB
:1004A00009F079CF44CFC230D10591F6A5CFDF91C5
:1004B000CF911F910F910895E1E8F0E010828CEF49
:1004C0008093850081E08093840093E0909389007D
:1004D0008FEF8093880090938B0080938A00909395
:1004E0008D0080938C0090938700809386008BEA28
:1004F00080938000109282008CE080830895E1E276
:10050000F1E010828FEF8093250191E09093240118
:10051000109229018093280110922B0180932A01C7
:1005200010922D0180932C0189EA809320018BE0A9
:10053000808308959B9AA398089581B18F6081B9B3
:1005400082B1807F82B9EAE0F1E0808188618083B6
:10055000EBE0F1E08081886180830895259A2D9AEF
:100560000895269A2E9A0895279A2F9A0895E1E0E1
:10057000F1E080818FEF8083E2E0F1E080818E7F87
:100580008083089510BA11BA1092070110920801E1
:100590000895D0DFD2DFE2DFE4DFE6DFE8DFCDDDA4
:1005A000F1CF089592B1907F8F70982B92B90895F2
:1005B00086E0F8CF089589E0F5CF089585E0F2CF81
:1005C00008958AE0EFCF089584E0ECCF089582E0AB
:1005D000E9CF089580E0E6CF0895682FE2E0F1E0EA
:1005E00080818E7F808310928D0070E080E090E0AB
:1005F000B7D52BE734E14EEE5FE31ED520E030E0C7
:100600004CE052E4B5D480D560938C00089583E02B
:10061000809389008FEF80938800089583E0809312
:100620008B008FEF80938A00089583E080938D0084
:100630008FEF80938C000895883018F098E09093A5
:100640007B008770806280937C00EAE7F0E0808125
:1006500080648083808184FFFDCF80917900EAE708
:10066000F0E090819061908310927B000895CF9389
:10067000DF93EC01D3DDFE013197EA30F10508F09C
:1006800054C0EE58FF4FFAC563E081E00EDE83E010
:1006900092E0FDDD4AC063E081E007DE81E192E0A7
:1006A000F6DD43C063E081E000DE8FE192E0EFDD44
:1006B0003CC063E081E0F9DD87E292E0E8DD35C02F
:1006C00063E081E0F2DD8BE392E0E1DD2EC063E0E8
:1006D00081E0EBDD8EE492E0DADD27C063E081E0CB
:1006E000E4DD84E692E0D3DD20C067E081E0DDDD7B
:1006F00089E792E0CCDD63E082E0D7DD8FE792E02E
:10070000C6DD13C066E081E0D0DD89E892E0BFDDA0
:1007100063E082E0CADD80E992E0B9DD06C063E013
:1007200081E0C3DD8EE992E0B2DDDF91CF910895E3
:100730001092890086E5809388002FEF8FEB91E27D
:10074000215080409040E1F700C0000060DF88E762
:1007500044DF2FEF8FEB91E2215080409040E1F792
:1007600000C0000062DF10928B0089E580938A0050
:100770002FEF8FEF9CE2215080409040E1F700C0C6
:10078000000084E12ADF2FEF8FEB91E221508040BF
:100790009040E1F700C0000010928B0083E280934C
:1007A0008A002FEF8FEF9CE2215080409040E1F7CC
:1007B00000C0000008952FEF8FE796E121508040A0
:1007C0009040E1F700C000001092890083E8809318
:1007D00088002FEF8FEF9CE2215080409040E1F79E
:1007E00000C0000014DF8EE1F8DE2FEF8FEB91E206
:1007F000215080409040E1F700C0000010928B0033
:100800008BE380938A002FEF8FEF9CE22150804092
:100810009040E1F700C0000089E6DFDE2FEF8FEBAC
:1008200091E2215080409040E1F700C00000FDDEE1
:1008300010928B0083E280938A002FEF8FEF9CE26F
:10084000215080409040E1F700C00000E7DE1092A8
:10085000890086E5809388002FEF8FEF9CE221507E
:1008600080409040E1F700C00000D1CE0895FF9293
:100870000F931F93CF93DF938AE090E0F8DE22E09E
:1008800030E040E050E067E082E02ADDF12C08E251
:1008900011E0CAE2D1E08FDE80910202F80180838C
:1008A000888381E0C9DE8093B60282E0C5DE809352
:1008B000AB0283E0C1DE8093AE024091B60290911C
:1008C000AB02292F30E0240F311D280F311D2A34AF
:1008D000314054F59A3540F52FEF5FE784E0215021
:1008E00050408040E1F700C00000F3944F2D50E0ED
:1008F00022E030E067E082E0F3DC5ADE9FEFEFE3D6
:10090000FBE09150E040F040E1F700C0000062DE03
:1009100052DF51DE2FEF5FE38BE0215050408040EB
:10092000E1F700C00000B7CF453B60F0923850F4CB
:10093000853B40F080910202F801808380910202A1
:100940008883A9CF403560F49338D0F08D3838F1E2
:1009500080910102F80180838091020288839BCFFD
:10096000803508F098CF933808F495CF4D3858F07B
:1009700080910202F80180838091010288838BCFED
:10098000803580F088CF993708F485CF403508F05E
:1009900082CF61E070E082E090E00DD006C080354B
:1009A00028F379CF9937A8F776CFDF91CF911F91B0
:1009B0000F91FF900895AF92BF92CF92DF92EF9286
:1009C000FF920F931F93CF93DF93EC015B011616F9
:1009D00017060CF0E6C0CC24C394D12C0F2EF8E2FD
:1009E000EF2EFF24F394F02D0AE211E081E090E075
:1009F0003EDEE1DD80910202F7018083F801808311
:100A000081E01ADE8093B60282E016DE8093AB02AC
:100A100083E012DE8093AE02C230D105B1F4909132
:100A2000B6022091AB0230E0290F311D280F311D95
:100A30002D3231400CF455C029E989E993E0215069
:100A400080409040E1F70000A5C0C330D10591F48B
:100A50009091B6029937A0F2893790F2BBDDEFEFA3
:100A6000FFE724E0E150F0402040E1F700C0000043
:100A7000FEDE90C0C130D105E9F48BE0DDDD80936E
:100A8000B5028C3408F4BCCF8091B602803508F0F2
:100A9000B7CF8091AE02803508F0B2CF9BDD8FEFEB
:100AA0009FE7E4E081509040E040E1F700C00000A3
:100AB00089D070C02097A9F49091B6022091AB0222
:100AC00030E0290F311D280F311D213931404CF004
:100AD0002CEC8CEE92E0215080409040E1F700C079
:100AE00059C09091B6029C3378F42091AB022D3717
:100AF00058F08C3348F480910202F7018083809192
:100B00000202F80180837CCF983278F42091AB0206
:100B10002C3358F48D3848F080910202F70180831D
:100B200080910102F80180836BCF883278F42091A4
:100B3000AB022C3358F49D3848F080910102F70144
:100B4000808380910202F80180835ACF4091AB02EA
:100B5000242F30E0290F311D280F311D283C31058D
:100B60000CF04ECF4353413308F04ACF8917E0F4DD
:100B700080910002F701808380910202F801808356
:100B80003FCF80910202F701808380910002F8013B
:100B9000808336CFFFEFCF1ADF0AAC14BD040CF010
:100BA00025CF12B817DD03C0981758F329CFDF916E
:100BB000CF911F910F91FF90EF90DF90CF90BF905A
:100BC000AF900895CF92DF92EF92FF920F931F9311
:100BD000CF93DF9382E090E04ADDEDDC809102026A
:100BE0008093280180932A012FEF8FE796E121500F
:100BF00080409040E1F700C0000008E211E00F2EB5
:100C0000F2E7CF2EF02DCAE2D1E00F2EF5E7EF2E5E
:100C1000F02D0F2EFFE6DF2EF02D0F2EFCEDFF2E18
:100C2000F02D8BE009DD8093B5029DE8980F90319F
:100C300060F4C1DCF801F082F882F6E626E082E09A
:100C4000F15020408040E1F7ECCF833858F0BCDC15
:100C5000F801E082D8828CEC9CE10197F1F700C0AA
:100C60000000DFCF9FEA980F923258F4B0DCF80111
:100C7000C082E8828CEC9CE10197F1F700C0000093
:100C8000D0CF803570F661E070E080E090E093DED8
:100C9000DF91CF911F910F91FF90EF90DF90CF9058
:100CA000089581E0C9DC8093B60282E0C5DC8093C0
:100CB000AB0283E0C1DC8093AE029091B60297391B
:100CC00040F09091AB02973420F4863910F412B8BA
:100CD00008958BE98093280180932A017BDC8FEFB4
:100CE0009FE80197F1F700C0000068DC9FEF2FE359
:100CF0008BE0915020408040E1F700C000006ADCAA
:100D000060DC84E68093280180932A0181E094DCF2
:100D10008093AB028734D0F712B853DC96E626EE08
:100D200080E0915020408040E1F754DC9FEF2FEFAE
:100D300088E0915020408040E1F700C000008091A1
:100D40000202809328018091020280932A01089573
:100D500032DC2FEF8FEF98E0215080409040E1F798
:100D600000C000002BDC2FEF8FEF98E02150804077
:100D70009040E1F700C000002DDC2FEF8FE392E000
:100D8000215080409040E1F700C0000017DC84E66D
:100D90008093280180932A0183E04EDC8093AE0289
:100DA00082E04ADC8093AB0281E046DC8093B602AD
:100DB0008091AE02803580F38091AB02803560F780
:100DC00012B8FCDB2FEF8FEF98E02150804090406D
:100DD000E1F700C00000FEDB2FEF8FEF98E021501D
:100DE00080409040E1F700C00000809102028093B3
:100DF00028018091020280932A0153CF0895DEDBFF
:100E00002FEF8FEF98E0215080409040E1F700C035
:100E10000000E0DB2FEF8FE392E021508040904014
:100E2000E1F700C00000CADB84E6809328018093CC
:100E30002A0183E001DC8093AE028035D0F312B842
:100E4000BDDB8FEF97E40197F1F700C00000C2DB34
:100E50009FEF2FEF88E0915020408040E1F700C0E5
:100E60000000809102028093280180910202809309
:100E70002A010895A6DB2FEF8FEF98E021508040E4
:100E80009040E1F700C00000A5DB2FEF8FE392E078
:100E9000215080409040E1F700C0000092DB84E6E2
:100EA0008093280180932A0181E0C6DB8093AB0206
:100EB0008035D0F312B882DB8FEF9FE80197F1F70E
:100EC00000C0000087DB9FEF2FEF88E091502040AB
:100ED0008040E1F700C00000809102028093280169
:100EE0008091020280932A010895EAE7F0E01082DF
:100EF00010927B0080E280937C0080E880BF86E8CF
:100F000080830895F89445DBF0DFF9DAD5DA789438
:100F10001BD984C90895F6DF61E070E080E090E0BD
:100F20004ADD49DB2FEF8FE39BE02150804090406A
:100F3000E1F700C000009EDF3BDB2FEF8FEF98E072
:100F4000215080409040E1F700C0000043DBF0DB1F
:100F500056DF61E070E082E090E02DDDF9DE61E0D7
:100F600070E083E090E027DD80E090E00895505845
:100F7000BB27AA270ED048C139D130F03ED120F08E
:100F800031F49F3F11F41EF42EC10EF4E095E7FBFF
:100F900024C1E92F4AD180F3BA1762077307840787
:100FA000950718F071F49EF562C10EF4E0950B2ED2
:100FB000BA2FA02D0B01B90190010C01CA01A001AB
:100FC0001124FF27591B99F0593F50F4503E68F106
:100FD0001A16F040A22F232F342F4427585FF3CF47
:100FE000469537952795A795F0405395C9F77EF418
:100FF0001F16BA0B620B730B840BBAF09150A1F061
:10100000FF0FBB1F661F771F881FC2F70EC0BA0FE6
:10101000621F731F841F48F4879577956795B7956E
:10102000F7959E3F08F0B3CF9395880F08F0992766
:10103000EE0F9795879508950CD0E6C0DED040F06E
:10104000D5D030F021F45F3F19F0C7C0511110C165
:10105000CAC0EBD098F39923C9F35523B1F3951B7C
:10106000550BBB27AA2762177307840738F09F5FC9
:101070005F4F220F331F441FAA1FA9F333D00E2E38
:101080003AF0E0E830D091505040E695001CCAF7A5
:1010900029D0FE2F27D0660F771F881FBB1F26176A
:1010A00037074807AB07B0E809F0BB0B802DBF013D
:1010B000FF2793585F4F2AF09E3F510568F08DC07F
:1010C000D7C05F3FECF3983EDCF386957795679544
:1010D000B795F7959F5FC9F7880F911D96958795EE
:1010E00097F90895E1E0660F771F881FBB1F62170D
:1010F00073078407BA0720F0621B730B840BBA0BCB
:10110000EE1F88F7E095089598D088F09F5790F0EB
:10111000B92F9927B751A0F0D1F0660F771F881F1C
:10112000991F1AF0BA95C9F712C0B13081F09FD05B
:10113000B1E008959CC0672F782F8827B85F39F0F9
:10114000B93FCCF3869577956795B395D9F73EF47B
:1011500090958095709561957F4F8F4F9F4F089523
:10116000E89409C097FB3EF4909580957095619541
:101170007F4F8F4F9F4F9923A9F0F92F96E9BB27F7
:101180009395F695879577956795B795F111F8CF73
:10119000FAF4BB0F11F460FF1BC06F5F7F4F8F4FDE
:1011A0009F4F16C0882311F096E911C0772321F0D4
:1011B0009EE8872F762F05C0662371F096E8862F6C
:1011C00070E060E02AF09A95660F771F881FDAF7C3
:1011D000880F9695879597F9089597F99F6780E806
:1011E00070E060E008959FEF80EC089500240A9479
:1011F0001616170618060906089500240A941216F2
:101200001306140605060895092E0394000C11F424
:10121000882352F0BB0F40F4BF2B11F460FF04C0D1
:101220006F5F7F4F8F4F9F4F089557FD9058440F2A
:10123000551F59F05F3F71F04795880F97FB991F35
:1012400061F09F3F79F087950895121613061406F2
:10125000551FF2CF4695F1DF08C01616170618067F
:10126000991FF1CF86957105610508940895E8945A
:10127000BB2766277727CB0197F90895EE0FFF1F4D
:101280000590F491E02D1994A29FB001B39FC00185
:10129000A39F700D811D1124911DB29F700D811DA2
:0A12A0001124911D0895F894FFCF6A
:1012AA00CDB9F64C696E652D466F6C6C6F776572B9
:1012BA000057616C6C2D466F6C6C6F776572005AC3
:1012CA0069672D5A61670020317374205069636B16
:1012DA00202D3E204D61737465720020326E6420A9
:1012EA005069636B202D3E20536C61766500203176
:1012FA00737420506C616365202D3E204D617374B8
:10130A006572200020326E6420506C616365202D66
:10131A003E20536C617665200020454E4420002D06
:10132A002D2D2A2A2A2D2D2D0053746174696300EC
:10133A0052656F7269656E746174696F6E00496E89
:08134A0076657273696F6E0095
:00000001FF
