:100000007AC0000097C0000095C0000093C00000B7
:1000100091C000008FC000008DC000008BC00000A8
:1000200089C0000087C0000085C0000083C00000B8
:1000300081C000007FC000007DC000007BC00000C8
:1000400079C0000077C0000075C0000073C00000D8
:1000500071C000006FC000006DC000006BC00000E8
:1000600069C0000067C0000065C0000063C00000F8
:1000700061C000005FC000005DC000005BC0000008
:1000800059C0000057C0000055C0000053C0000018
:1000900051C000004FC000004DC000004BC0000028
:1000A00049C0000047C0000045C0000043C0000038
:1000B00041C000003FC000003DC000003BC0000048
:1000C00039C0000037C0000035C0000033C0000058
:1000D00031C000002FC000002DC000002BC0000068
:1000E00029C00000210228022F0236023D024402EC
:1000F0004B0252025F0211241FBECFEFD1E2DEBFDE
:10010000CDBF00E00CBF12E0A0E0B2E0E8E5FBE00C
:1001100000E00BBF02C007900D92AE39B107D9F7CE
:1001200022E0AEE9B2E001C01D92A43BB207E1F7C4
:10013000E5D410C565CF87B1876F87B988B188705E
:1001400088B9089586E69EE00197F1F7000040988F
:10015000419880E388B9429A8FEF97E40197F1F7CD
:1001600000C00000429886E69EE00197F1F700008B
:100170004098419880E388B9429A8FEF97E40197BD
:10018000F1F700C00000429886E69EE00197F1F783
:1001900000004098419880E388B9429A8FEF97E435
:1001A0000197F1F700C00000429886E69EE00197B3
:1001B000F1F700004098419880E288B9429A8FEFA9
:1001C00097E40197F1F700C000004298089598B1B4
:1001D0009F7098B998B1282F207F922B98B940989A
:1001E0004198429AEFEFF7E43197F1F700C0000031
:1001F000429898B19F7098B998B18295807F892B69
:1002000088B940984198429A8FEF97E40197F1F7A7
:1002100000C000004298089595DF86E69EE00197B1
:10022000F1F7000088E2D3DF81E0D1DF86E0CFDFA5
:100230008EE0CDDF80E8CBCF089598B19F7098B95C
:1002400098B1282F207F922B98B9409A4198429AD2
:10025000EFEFF7E43197F1F700C00000429898B152
:100260009F7098B998B18295807F892B88B9409A00
:100270004198429A8FEF97E40197F1F700C0000090
:1002800042980895CF93DF93EC018881882329F069
:100290002196D3DF89918111FCCFDF91CF91089511
:1002A000823069F018F4813031F00895833059F0CC
:1002B000843069F008958FE7860F89CF08958FEB1A
:1002C000860F85CF089583E9860F81CF089583ED4A
:1002D000860F7DCF0895E1E8F0E010828CEF8093E7
:1002E000850081E08093840093E0909389008FEFF4
:1002F0008093880090938B0080938A0090938D0068
:1003000080938C0090938700809386008BEA809383
:100310008000109282008CE080830895E1E2F1E099
:1003200010828FEF8093250191E090932401109229
:1003300029018093280110922B0180932A011092A9
:100340002D0180932C0189EA809320018BE080832A
:1003500008959B9AA398089581B18F6081B982B165
:10036000807F82B9EAE0F1E0808188618083EBE000
:10037000F1E08081886180830895259A2D9A0895FF
:10038000269A2E9A0895279A2F9A0895E1E0F1E08F
:1003900080818FEF8083E2E0F1E080818E7F808337
:1003A000089510BA11BA1092070110920801089529
:1003B000D0DFD2DFE2DFE4DFE6DFE8DFBCDEF1CF73
:1003C000089592B1907F8F70982B92B9089589E02B
:1003D000F8CF089585E0F5CF08958AE0F2CF08952B
:1003E00084E0EFCF089582E0ECCF089580E0E9CF7C
:1003F0000895883018F098E090937B0087708062B1
:1004000080937C00EAE7F0E08081806480838081D3
:1004100084FFFDCF80917900EAE7F0E09081906160
:10042000908310927B000895CF93DF93EC01F4DE6C
:10043000FE013197E930F10508F04DC0EE58FF4F4D
:1004400083C363E081E02CDF83E092E01BDF43C0E5
:1004500063E081E025DF81E192E014DF3CC063E0EE
:1004600081E01EDF8FE192E00DDF35C063E081E0C7
:1004700017DF87E292E006DF2EC063E081E010DF45
:100480008BE392E0FFDE27C063E081E009DF8EE4CA
:1004900092E0F8DE20C063E081E002DF84E692E0D3
:1004A000F1DE19C067E081E0FBDE89E792E0EADE79
:1004B00063E082E0F5DE8FE792E0E4DE0CC066E008
:1004C00081E0EEDE89E892E0DDDE63E082E0E8DEF6
:1004D00080E992E0D7DEDF91CF910895AF92BF928D
:1004E000CF92DF92EF92FF920F931F93CF93DF9300
:1004F000EC015B01161617060CF0CDC0CC24C3949A
:10050000D12C0F2EF8E2EF2EFF24F394F02D0AE207
:1005100011E05DDF80910202F7018083F8018083A2
:1005200081E067DF8093AC0282E063DF8093A10209
:1005300083E05FDF8093A402C230D105B1F49091D3
:10054000AC022091A10230E0290F311D280F311D8E
:100550002D3231400CF12FEF8FE794E02150804095
:100560009040E1F700C000008FC02097A9F490915F
:10057000AC022091A10230E0290F311D280F311D5E
:10058000213931404CF0F9E929E983E0F15020406C
:100590008040E1F7000078C09091AC029C3378F481
:1005A0002091A1022D3758F08C3348F4809102023B
:1005B000F701808380910202F8018083B1CF9832E5
:1005C00078F42091A1022C3358F48D3848F08091B2
:1005D0000202F701808380910102F8018083A0CF9D
:1005E000883278F42091A1022C3358F49D3848F0D9
:1005F00080910102F701808380910202F8018083DB
:100600008FCF4091A102242F30E0290F311D280FF8
:10061000311D283C3105C4F443534133A8F48917F4
:1006200008F03CC080910002F701808380910202B3
:10063000F801808375CF80910202F7018083809159
:100640000002F80180836CCFC130D10509F068CF7A
:100650008BE0CFDE8093AB028C3408F461CF8091C5
:10066000AC02803508F05CCF8091A402803508F0A0
:1006700057CFBCDEFFEF2FE784E0F15020408040F1
:10068000E1F700C0000018D09FEFC91AD90AAC14D6
:10069000BD040CF03ECF12B8A9DE03C0981758F283
:1006A000D3CFDF91CF911F910F91FF90EF90DF900B
:1006B000CF90BF90AF900895CF92DF92EF92FF92CC
:1006C0000F931F93CF93DF9382DE8091020280937A
:1006D000280180932A012FEF8FE796E12150804077
:1006E0009040E1F700C0000008E211E00F2EF2E7B1
:1006F000CF2EF02DCAE2D1E00F2EF5E7EF2EF02D30
:100700000F2EFFE6DF2EF02D0F2EFCEDFF2EF02D2D
:100710008BE06FDE8093AB029DE8980F903160F420
:1007200056DEF801F082F882F6E626E082E0F1502B
:1007300020408040E1F7ECCF833858F051DEF801DB
:10074000E082D8828CEC9CE10197F1F700C00000B8
:10075000DFCF9FEA980F923258F445DEF801C0824D
:10076000E8828CEC9CE10197F1F700C00000D0CF4B
:10077000803570F661E070E080E090E0AFDEDF9100
:10078000CF911F910F91FF90EF90DF90CF90089540
:100790001EDE2FEF8FE39BE0215080409040E1F779
:1007A00000C0000017DE2FEF8FEF98E0215080404F
:1007B0009040E1F700C0000019DE2FEF8FE392E0D8
:1007C000215080409040E1F700C0000003DE84E645
:1007D0008093280180932A0183E00BDE8093A4029A
:1007E0008035D0F312B802DE2FEF8FEF98E0215062
:1007F00080409040E1F700C00000809102028093A9
:1008000028018091020280932A010895E6DD2FEFEE
:100810008FEF98E0215080409040E1F700C0000049
:10082000E5DD2FEF8FE392E0215080409040E1F72B
:1008300000C00000D2DD84E68093280180932A0165
:1008400081E0D7DD8093A1028035D0F312B8C2DDFC
:100850008FEF9FE80197F1F700C00000C7DD9FEF21
:100860002FEF88E0915020408040E1F700C0000069
:1008700080910202809328018091020280932A01D4
:10088000089582E0B6DD8093A1029091AC02963487
:1008900040F48E3630F08091A402863410F412B801
:1008A000089586E98093280180932A019FDD92DDD7
:1008B0002FEF8FEB9FE0215080409040E1F700C088
:1008C000000094DDA3CF0895EF92FF920F931F9342
:1008D000CF93DF937CDD82ED8093280180932A0102
:1008E00022E383E991E0215080409040E1F700C08D
:1008F00000C008E211E00F2EF2EDFF2EF02DCAE24B
:10090000D1E00F2EF4EBEF2EF02D81E072DD80931D
:10091000AC0282E06EDD8093A10283E06ADD809309
:10092000A4029091AC029C3350F42091A1022D3787
:1009300030F08C3320F4F801F082F882E6CF983260
:1009400050F42091A1022C3330F48D3820F0F801BE
:10095000F082E882DACF883250F42091A1022C3361
:1009600030F49D3820F0F801E082F882CECF40913B
:10097000A102242F30E0290F311D280F311D283C02
:10098000310574F45DEC540F513350F4891748F578
:10099000F801E082F882B9CFF801F082E882B5CFA1
:1009A0009C38B8F44E31A8F48C3898F41FDD0FDD74
:1009B00082ED8093280180932A01FFEF2FE784E0E6
:1009C000F15020408040E1F700C0000080E090E05E
:1009D0000BC0293631400CF498CF08DD81E090E05F
:1009E00003C09817C8F2DCCFDF91CF911F910F9110
:1009F000FF90EF900895EEDC2FEF8FE794E0215009
:100A000080409040E1F700C00000F0DC2FEF8FE362
:100A100092E0215080409040E1F700C00000DADC15
:100A200084E68093280180932A0183E0E2DC8093AE
:100A3000A4028035D0F312B8D9DC2FEF8FE392E017
:100A4000215080409040E1F700C0000082ED80938B
:100A5000280180932A012FEF8FE593E021508040F9
:100A60009040E1F700C000000895B1DC2FEF8FE760
:100A700094E0215080409040E1F700C0000082EDFA
:100A80008093280180932A0183E090E0CDDC1CDF75
:100A9000019761F0A2DC29E989E99CE021508040BE
:100AA0009040E1F70000A2DCA6DFF1CF90DC80915E
:100AB00002028093280180932A012FEF8FE794E0B0
:100AC000215080409040E1F700C000008FCC089595
:100AD000EAE7F0E0108210927B0080E280937C00D5
:100AE00080E880BF86E880830895F89461DCF0DFB9
:100AF00015DCF1DB789426DB8FCB0895F6DF64E01C
:100B000070E080E090E0EADC43DEBBDEAEDF6EDC6E
:100B10002FEF8FE796E1215080409040E1F700C031
:100B2000000036DE63E070E080E090E0D7DC61E05A
:100B300070E082E090E0D2DC2BDE62E070E082E0E8
:100B400090E0CCDC25DEDBCFEE0FFF1F0590F491AB
:080B5000E02D1994F894FFCF89
:100B5800CDB9F04C696E652D466F6C6C6F77657218
:100B68000057616C6C2D466F6C6C6F776572005A1C
:100B780069672D5A61670020317374205069636B6F
:100B8800202D3E204D61737465720020326E642002
:100B98005069636B202D3E20536C617665002031CF
:100BA800737420506C616365202D3E204D61737411
:100BB8006572200020326E6420506C616365202DC0
:100BC8003E20536C617665200020454E4420002D60
:100BD8002D2D2A2A2A2D2D2D005374617469630046
:0E0BE80052656F7269656E746174696F6E009C
:00000001FF
