S00D00005461736B352E737265634F
S113000071C0000090C000008EC000008CC00000D1
S11300108AC000000C940F110C94E21084C00000FC
S113002082C0000080C000007EC000007CC00000D0
S11300307AC0000078C0000076C0000074C00000E0
S113004072C0000070C000006EC000006CC00000F0
S11300506AC0000068C0000066C0000064C0000000
S113006062C0000060C000005EC000005CC0000010
S11300705AC0000058C0000056C0000054C0000020
S113008052C0000050C000004EC000004CC0000030
S11300904AC0000048C0000046C0000044C0000040
S11300A042C0000040C000003EC000003CC0000050
S11300B03AC0000038C0000036C0000034C0000060
S11300C032C0000030C000002EC000002CC0000070
S11300D02AC0000028C0000026C0000024C0000080
S11300E022C0000011241FBECFEFD1E2DEBFCDBF7E
S11300F000E00CBF14E0A0E0B2E0E2EAF4E500E0C6
S11301000BBF02C007900D92AA3CB107D9F725E0B6
S1130110AAECB4E001C01D92AC32B207E1F70E9430
S1130120B2260C944F2A6CCFCF93DF93CDB7DEB7B2
S113013087E290E027E230E0F9012081276FFC019B
S1130140208388E290E028E230E0F90120812870E1
S1130150FC012083DF91CF9108950F931F93CF93D8
S1130160DF93CDB7DEB7C057D1090FB6F894DEBF21
S11301700FBECDBF80E090E0A0E8BFE389839A83FF
S1130180AB83BC8326E636E646E655E469817A818C
S11301908B819C810E94B628DC01CB018D839E83D8
S11301A0AF83B88720E030E040E85FE36D817E8173
S11301B08F8198850E94682788232CF481E090E041
S11301C09A8789873FC020E03FEF4FE757E46D816E
S11301D07E818F8198850E94B22818164CF520E004
S11301E030E040E251E469817A818B819C810E94F4
S11301F0B628DC01CB01BC01CD010E94D427DC016F
S1130200CB019A8789870FC080E791E09C878B8711
S11302108B859C850197F1F79C878B8789859A85C7
S113022001979A87898789859A85009769F714C009
S11302306D817E818F8198850E94D427DC01CB015A
S11302409A87898789859A859E878D878D859E85DE
S11302500197F1F79E878D8788E290E028E230E0ED
S1130260F90120812E7FFC01208388E290E028E2BE
S113027030E0F90120812D7FFC01208388E290E0A9
S113028020E3FC01208388E290E028E230E0F901D9
S113029020812460FC01208380E090E0A0EAB0E4A7
S11302A08F87988BA98BBA8B26E636E646E655E40B
S11302B06F85788989899A890E94B628DC01CB01E7
S11302C08B8B9C8BAD8BBE8B20E030E040E85FE3F2
S11302D06B897C898D899E890E94682788232CF4E8
S11302E081E090E0988F8F8B3FC020E03FEF4FE795
S11302F057E46B897C898D899E890E94B2281816DF
S11303004CF520E030E040E251E46F85788989893A
S11303109A890E94B628DC01CB01BC01CD010E9460
S1130320D427DC01CB01988F8F8B0FC080E791E03D
S11303309A8F898F898D9A8D0197F1F79A8F898F7A
S11303408F89988D0197988F8F8B8F89988D0097BF
S113035069F714C06B897C898D899E890E94D42792
S1130360DC01CB01988F8F8B8F89988D9C8F8B8F1D
S11303708B8D9C8D0197F1F79C8F8B8F88E290E099
S113038028E230E0F90120812B7FFC01208380E00A
S113039090E0A0E8BFE38D8F9E8FAF8FB8A326E6D1
S11303A036E646E655E46D8D7E8D8F8D98A10E94CC
S11303B0B628DC01CB0189A39AA3ABA3BCA320E09C
S11303C030E040E85FE369A17AA18BA19CA10E947F
S11303D0682788232CF481E090E09EA38DA33FC07E
S11303E020E03FEF4FE757E469A17AA18BA19CA1DC
S11303F00E94B22818164CF520E030E040E251E4A7
S11304006D8D7E8D8F8D98A10E94B628DC01CB0165
S1130410BC01CD010E94D427DC01CB019EA38DA396
S11304200FC080E791E098A78FA38FA198A50197AB
S1130430F1F798A78FA38DA19EA101979EA38DA3E9
S11304408DA19EA1009769F714C069A17AA18BA11F
S11304509CA10E94D427DC01CB019EA38DA38DA176
S11304609EA19AA789A789A59AA50197F1F79AA7AA
S113047089A788E290E028E230E0F90120812E7F0C
S1130480FC01208388E290E028E230E0F901208139
S11304902D7FFC01208388E290E020E3FC0120838F
S11304A088E290E028E230E0F90120812460FC0138
S11304B0208380E090E0A0EAB0E48BA79CA7ADA7DE
S11304C0BEA726E636E646E655E46BA57CA58DA5D3
S11304D09EA50E94B628DC01CB018FA798ABA9ABDF
S11304E0BAAB20E030E040E85FE36FA578A989A9C2
S11304F09AA90E94682788232CF481E090E09CABA1
S11305008BAB3FC020E03FEF4FE757E46FA578A9DE
S113051089A99AA90E94B22818164CF520E030E067
S113052040E251E46BA57CA58DA59EA50E94B6284A
S1130530DC01CB01BC01CD010E94D427DC01CB013D
S11305409CAB8BAB0FC080E791E09EAB8DAB8DA9CC
S11305509EA90197F1F79EAB8DAB8BA99CA901973E
S11305609CAB8BAB8BA99CA9009769F714C06FA5B2
S113057078A989A99AA90E94D427DC01CB019CAB54
S11305808BAB8BA99CA998AF8FAB8FA998AD019722
S1130590F1F798AF8FAB88E290E028E230E0F90100
S11305A020812B7FFC01208380E090E0A0E8BFE362
S11305B089AF9AAFABAFBCAF26E636E646E655E464
S11305C069AD7AAD8BAD9CAD0E94B628DC01CB0140
S11305D09E01235C3F4FF90180839183A283B383FF
S11305E020E030E040E85FE3CE01CD96FC0160817D
S11305F07181828193810E94682788234CF4CE0103
S11306008F5B9F4F21E030E0FC013183208367C082
S113061020E03FEF4FE757E4CE01CD96FC01608127
S11306207181828193810E94B22818160CF046C011
S113063020E030E040E251E469AD7AAD8BAD9CAD91
S11306400E94B628DC01CB018E010F5B1F4FBC0159
S1130650CD010E94D427DC01CB01F8019183808372
S113066024C0CE018D5B9F4F20E731E0FC01318334
S11306702083CE018D5B9F4FFC0180819181019786
S1130680F1F79E012D5B3F4FF90191838083CE01E9
S11306908F5B9F4F9E012F5B3F4FF901208131817A
S11306A021503109FC0131832083CE018F5B9F4FA0
S11306B0FC01808191810097A1F62BC08E010F5B14
S11306C01F4FCE01CD96FC0160817181828193819F
S11306D00E94D427DC01CB01F80191838083CE01F1
S11306E08B5B9F4F9E012F5B3F4FF901208131812E
S11306F0FC0131832083CE018B5B9F4FFC01808101
S113070091810197F1F79E012B5B3F4FF901918392
S1130710808388E290E028E230E0F90120812E7F96
S1130720FC01208388E290E028E230E0F901208196
S11307302D7FFC01208388E290E020E3FC012083EC
S113074088E290E028E230E0F90120812460FC0195
S113075020839E01295B3F4F80E090E0A0EAB0E453
S1130760F90180839183A283B3838E01055B1F4FBC
S1130770CE01895B9F4F26E636E646E655E4FC014A
S113078060817181828193810E94B628DC01CB0152
S1130790F80180839183A283B383CE01855B9F4F4D
S11307A020E030E040E85FE3FC01608171818281F8
S11307B093810E94682788234CF4CE01815B9F4F6C
S11307C021E030E0FC01318320836DC0CE01855BE4
S11307D09F4F20E03FEF4FE757E4FC0160817181B8
S11307E0828193810E94B22818160CF04AC0CE016F
S11307F0895B9F4F20E030E040E251E4FC016081DE
S11308007181828193810E94B628DC01CB018E0123
S1130810015B1F4FBC01CD010E94D427DC01CB0139
S1130820F8019183808324C0CE018F5A9F4F20E723
S113083031E0FC0131832083CE018F5A9F4FFC01AC
S1130840808191810197F1F79E012F5A3F4FF90161
S113085091838083CE01815B9F4F9E01215B3F4F3B
S1130860F9012081318121503109FC013183208338
S1130870CE01815B9F4FFC01808191810097A1F69D
S11308802CC08E01015B1F4FCE01855B9F4FFC0185
S113089060817181828193810E94D427DC01CB0124
S11308A0F80191838083CE018D5A9F4F9E01215B75
S11308B03F4FF90120813181FC0131832083CE0136
S11308C08D5A9F4FFC01808191810197F1F79E0120
S11308D02D5A3F4FF9019183808388E290E028E20A
S11308E030E0F90120812B7FFC0120839E012B5AEB
S11308F03F4F80E090E0A0E8BFE3F901808391835B
S1130900A283B3838E01075A1F4FCE018B5A9F4F88
S113091026E636E646E655E4FC0160817181828173
S113092093810E94B628DC01CB01F8018083918376
S1130930A283B383CE01875A9F4F20E030E040E882
S11309405FE3FC0160817181828193810E94682749
S113095088234CF4CE01835A9F4F21E030E0FC0100
S1130960318320836DC0CE01875A9F4F20E03FEF33
S11309704FE757E4FC0160817181828193810E9479
S1130980B22818160CF04AC0CE018B5A9F4F20E0B3
S113099030E040E251E4FC01608171818281938105
S11309A00E94B628DC01CB018E01035A1F4FBC0103
S11309B0CD010E94D427DC01CB01F801918380830F
S11309C024C0CE01815A9F4F20E731E0FC013183DE
S11309D02083CE01815A9F4FFC0180819181019730
S11309E0F1F79E01215A3F4FF90191838083CE0193
S11309F0835A9F4F9E01235A3F4FF9012081318131
S1130A0021503109FC0131832083CE01835A9F4F49
S1130A10FC01808191810097A1F62CC08E01035ABC
S1130A201F4FCE01875A9F4FFC01608171818281E3
S1130A3093810E94D427DC01CB01F8019183808348
S1130A40CE018F599F4F9E01235A3F4FF9012081B8
S1130A503181FC0131832083CE018F599F4FFC01EA
S1130A60808191810197F1F79E012F593F4FF90140
S1130A709183808388E290E028E230E0F9012081CC
S1130A802E7FFC01208388E290E028E230E0F90127
S1130A9020812D7FFC01208388E290E020E2FC018C
S1130AA0208388E290E028E230E0F901208124608C
S1130AB0FC0120839E012D593F4F80E090E0A0EA85
S1130AC0B0E4F90180839183A283B3838E01095931
S1130AD01F4FCE018D599F4F26E636E646E655E474
S1130AE0FC0160817181828193810E94B628DC01BE
S1130AF0CB01F80180839183A283B383CE0189590A
S1130B009F4F20E030E040E85FE3FC0160817181A9
S1130B10828193810E94682788234CF4CE018559F1
S1130B209F4F21E030E0FC01318320836DC0CE0172
S1130B3089599F4F20E03FEF4FE757E4FC01608164
S1130B407181828193810E94B22818160CF04AC0E8
S1130B50CE018D599F4F20E030E040E251E4FC018A
S1130B6060817181828193810E94B628DC01CB016E
S1130B708E0105591F4FBC01CD010E94D427DC0111
S1130B80CB01F8019183808324C0CE0183599F4F08
S1130B9020E731E0FC0131832083CE0183599F4F4C
S1130BA0FC01808191810197F1F79E0123593F4F08
S1130BB0F90191838083CE0185599F4F9E01255968
S1130BC03F4FF9012081318121503109FC013183EA
S1130BD02083CE0185599F4FFC018081918100972C
S1130BE0A1F62CC08E0105591F4FCE0189599F4F84
S1130BF0FC0160817181828193810E94D427DC0190
S1130C00CB01F80191838083CE0181599F4F9E01CE
S1130C1025593F4FF90120813181FC013183208323
S1130C20CE0181599F4FFC01808191810197F1F799
S1130C309E0121593F4FF9019183808388E290E01E
S1130C4028E230E0F90120812B7FFC012083C05988
S1130C50DF4F0FB6F894DEBF0FBECDBFDF91CF914B
S1130C601F910F910895CF93DF93CDB7DEB72E97E1
S1130C700FB6F894DEBF0FBECDBF6FDA80E090E010
S1130C80A0E8BFE389839A83AB83BC8326E636E678
S1130C9046E655E469817A818B819C810E94B6285D
S1130CA0DC01CB018D839E83AF83B88720E030E0E5
S1130CB040E85FE36D817E818F8198850E9468277B
S1130CC088232CF481E090E09A8789873FC020E054
S1130CD03FEF4FE757E46D817E818F8198850E94B5
S1130CE0B22818164CF520E030E040E251E4698166
S1130CF07A818B819C810E94B628DC01CB01BC01E6
S1130D00CD010E94D427DC01CB019A8789870FC0CB
S1130D1080E791E09C878B878B859C850197F1F711
S1130D209C878B8789859A8501979A878987898586
S1130D309A85009769F714C06D817E818F819885AB
S1130D400E94D427DC01CB019A87898789859A85FB
S1130D509E878D878D859E850197F1F79E878D8768
S1130D6088E211D081E00FD086E00DD08EE00BD068
S1130D7080E809D02E960FB6F894DEBF0FBECDBF23
S1130D80DF91CF910895CF93DF93CDB7DEB76E9700
S1130D900FB6F894DEBF0FBECDBF8E8F8E8D8983C4
S1130DA08981807F898388E290E028E230E0F9013C
S1130DB020812F70FC01208388E290E028E230E05B
S1130DC0F90130812981232BFC01208388E290E002
S1130DD028E230E0F90120812E7FFC01208388E2A3
S1130DE090E028E230E0F90120812D7FFC0120838E
S1130DF088E290E028E230E0F90120812460FC01DF
S1130E00208380E090E0A0EAB0E48A839B83AC83F3
S1130E10BD8326E636E646E655E46A817B818C810D
S1130E209D810E94B628DC01CB018E839F83A88715
S1130E30B98720E030E040E85FE36E817F818885F8
S1130E4099850E94682788232CF481E090E09B8791
S1130E508A873FC020E03FEF4FE757E46E817F81F0
S1130E60888599850E94B22818164CF520E030E058
S1130E7040E251E46A817B818C819D810E94B62885
S1130E80DC01CB01BC01CD010E94D427DC01CB01E4
S1130E909B878A870FC080E791E09D878C878C852C
S1130EA09D850197F1F79D878C878A859B8501979E
S1130EB09B878A878A859B85009769F714C06E8112
S1130EC07F81888599850E94D427DC01CB019B878B
S1130ED08A878A859B859F878E878E859F850197C4
S1130EE0F1F79F878E8788E290E028E230E0F901ED
S1130EF020812B7FFC0120838E8D8F708E8F8E8DB1
S1130F008295807F8E8F88E290E028E230E0F901BC
S1130F1020812F70FC01208388E290E028E230E0F9
S1130F20F90130812E8D232BFC01208388E290E08F
S1130F3028E230E0F90120812E7FFC01208388E241
S1130F4090E028E230E0F90120812D7FFC0120832C
S1130F5088E290E028E230E0F90120812460FC017D
S1130F60208380E090E0A0EAB0E4888B998BAA8B80
S1130F70BB8B26E636E646E655E4688979898A8994
S1130F809B890E94B628DC01CB018C8B9D8BAE8B98
S1130F90BF8B20E030E040E85FE36C897D898E8977
S1130FA09F890E94682788232CF481E090E0998F20
S1130FB0888F3FC020E03FEF4FE757E46C897D897D
S1130FC08E899F890E94B22818164CF520E030E0E3
S1130FD040E251E4688979898A899B890E94B6280C
S1130FE0DC01CB01BC01CD010E94D427DC01CB0183
S1130FF0998F888F0FC080E791E09B8F8A8F8A8DAD
S11310009B8D0197F1F79B8F8A8F888D998D01971E
S1131010998F888F888D998D009769F714C06C8992
S11310207D898E899F890E94D427DC01CB01998F09
S1131030888F888D998D9D8F8C8F8C8D9D8D019738
S1131040F1F79D8F8C8F88E290E028E230E0F9017F
S113105020812B7FFC0120836E960FB6F894DEBFAF
S11310600FBECDBFDF91CF910895CF93DF93CDB75E
S1131070DEB76E970FB6F894DEBF0FBECDBF8E8F6E
S11310808E8D89838981807F898388E290E028E23C
S113109030E0F90120812F70FC01208388E290E088
S11310A028E230E0F90130812981232BFC012083DF
S11310B088E290E028E230E0F90120812160FC011F
S11310C0208388E290E028E230E0F90120812D7F3E
S11310D0FC01208388E290E028E230E0F9012081DD
S11310E02460FC01208380E090E0A0EAB0E48A83DD
S11310F09B83AC83BD8326E636E646E655E46A81E7
S11311007B818C819D810E94B628DC01CB018E837A
S11311109F83A887B98720E030E040E85FE36E81D1
S11311207F81888599850E94682788232CF481E033
S113113090E09B878A873FC020E03FEF4FE757E46A
S11311406E817F81888599850E94B22818164CF596
S113115020E030E040E251E46A817B818C819D8112
S11311600E94B628DC01CB01BC01CD010E94D4272A
S1131170DC01CB019B878A870FC080E791E09D87C4
S11311808C878C859D850197F1F79D878C878A854F
S11311909B8501979B878A878A859B85009769F73A
S11311A014C06E817F81888599850E94D427DC01D3
S11311B0CB019B878A878A859B859F878E878E85AF
S11311C09F850197F1F79F878E8788E290E028E258
S11311D030E0F90120812B7FFC0120838E8D8F70FC
S11311E08E8F8E8D8295807F8E8F88E290E028E2AC
S11311F030E0F90120812F70FC01208388E290E027
S113120028E230E0F90130812E8D232BFC0120836C
S113121088E290E028E230E0F90120812160FC01BD
S1131220208388E290E028E230E0F90120812D7FDC
S1131230FC01208388E290E028E230E0F90120817B
S11312402460FC01208380E090E0A0EAB0E4888B75
S1131250998BAA8BBB8B26E636E646E655E468896D
S113126079898A899B890E94B628DC01CB018C8B01
S11312709D8BAE8BBF8B20E030E040E85FE36C8950
S11312807D898E899F890E94682788232CF481E0B8
S113129090E0998F888F3FC020E03FEF4FE757E4FD
S11312A06C897D898E899F890E94B22818164CF515
S11312B020E030E040E251E4688979898A899B8999
S11312C00E94B628DC01CB01BC01CD010E94D427C9
S11312D0DC01CB01998F888F0FC080E791E09B8F51
S11312E08A8F8A8D9B8D0197F1F79B8F8A8F888DCA
S11312F0998D0197998F888F888D998D009769F7BB
S113130014C06C897D898E899F890E94D427DC0151
S1131310CB01998F888F888D998D9D8F8C8F8C8D23
S11313209D8D0197F1F79D8F8C8F88E290E028E2E4
S113133030E0F90120812B7FFC0120836E960FB6EB
S1131340F894DEBF0FBECDBFDF91CF910895CF9348
S1131350DF93CDB7DEB780E816DDDF91CF91089536
S1131360CF93DF931F921F92CDB7DEB79A83898301
S11313700AC089819A81FC01808177DE89819A8102
S113138001969A83898389819A81FC0180818823CB
S113139081F70F900F90DF91CF910895CF93DF9352
S11313A01F921F92CDB7DEB789836A838981882F04
S11313B090E08230910591F08330910524F48130DE
S11313C0910541F017C08330910561F08430910597
S11313D069F010C08A818158D6DC0CC08A8181549E
S11313E0D2DC08C08A818D56CEDC04C08A818D523D
S11313F0CADC00000F900F90DF91CF910895CF9336
S1131400DF93CDB7DEB727970FB6F894DEBF0FBED4
S1131410CDBF8A836B835D834C833F832E83198284
S11314208A81882319F08B81882311F490DF03C00B
S11314306B818A81B3DF8E819F818530910519F09C
S113144089818130F9F48C819D81929582958F7088
S113145089279F7089279C01A7E4B3E00E9419297A
S1131460969587959695879596958795C09690932A
S1131470F5048093F4048091F4049091F504F5DD6F
S113148081E089838E819F818430910521F0898157
S1131490813009F03FC08C819D8196958795969502
S11314A08795969587959C01A5ECB0E20E94192931
S11314B0929582958F7089279F7089279093F9045C
S11314C08093F8044091F8045091F9049A01ADEC2A
S11314D0BCEC0E94192996958795969587959695C3
S11314E08795880F991F9C01220F331F220F331FEA
S11314F0820F931F9A01281B390BC901C096909340
S11315002505809324058091240590912505ADDD62
S113151081E089838E819F818330910519F08981CF
S11315208130C9F58C819D8196958795969587958F
S11315309C01ABE7B4E10E94192996958795909395
S1131540F9048093F8044091F8045091F9049A0145
S1131550ADECBCEC0E9419299695879596958795D4
S113156096958795880F991F9C01220F331F220F90
S1131570331F820F931F9A01281B390BC901C09690
S1131580909300058093FF048091FF0490910005DF
S11315906CDD81E089838E819F818230910519F011
S11315A089818130C9F58C819D819C01ADECBCECB5
S11315B00E9419299695879596958795969587956E
S11315C09093F9048093F8044091F8045091F9043D
S11315D09A01ADECBCEC0E941929969587959695D5
S11315E0879596958795880F991F9C01220F331F25
S11315F0220F331F820F931F9A01281B390BC90135
S1131600C0969093FE048093FD048091FD04909114
S1131610FE042BDD81E089838E819F8181309105D9
S113162019F08981813021F54C815D819A01ADECFD
S1131630BCEC0E9419299695879596958795969561
S11316408795880F991F9C01220F331F220F331F88
S1131650820F931F9A01281B390BC901C0969093DE
S11316602305809322058091220590912305FDDCBA
S11316708E819F818630910514F085E4F6DC2796EF
S11316800FB6F894DEBF0FBECDBFDF91CF910895A2
S1131690CF93DF93CDB7DEB72A970FB6F894DEBFAA
S11316A00FBECDBF98878F837A87698789859A858E
S11316B001979A8389831C821B823AC08B819C8107
S11316C0880F991F2F813885820F931FFC01808119
S11316D091819E838D838B819C81880F991F2F819B
S11316E03885820F931F29813A81220F331F4F813E
S11316F05885240F351FF90120813181FC01318384
S1131700208389819A81880F991F2F813885820FC0
S1131710931F2D813E81FC01318320838B819C8129
S113172001969C838B8389819A8101979A8389830B
S11317302B813C8189819A81821793070CF0BECF5B
S11317402A960FB6F894DEBF0FBECDBFDF91CF91BE
S11317500895CF93DF93CDB7DEB7CC52D2400FB606
S1131760F894DEBF0FBECDBF9E01295D3D4FF90148
S113177091838083CE01875D9D4FFC0171836083DB
S1131780CE01855D9D4FFC015183408318861F82E5
S11317907EC01A8619866AC02F8138854EE1429F21
S11317A0C001439F900D11249E01295D3D4FF90115
S11317B020813181280F391F89859A85880F991FC7
S11317C0820F931FFC01808191810097D1F48F8156
S11317D098854FE0489F9001499F300D11248985D9
S11317E09A85820F931F880F991F9E012F5F3F4F89
S11317F0820F931F0A962FE037E2FC013183208386
S113180030C02F8138854EE1429FC001439F900D27
S113181011249E01295D3D4FF90120813181280F5A
S1131820391F89859A85880F991F820F931FFC01A0
S1131830208131818F8198856FE0689FA001699F25
S1131840500D112489859A85840F951F880F991F3F
S1131850AE014F5F5F4F840F951F0A96FC013183E1
S1131860208389859A8501969A878987CE01875D29
S11318709D4F29853A85FC0180819181281739077C
S11318800CF48ACF8F819885019698878F83CE0137
S1131890875D9D4F2F813885FC01808191812817B8
S11318A039070CF476CF18861F824AC0CE01855DB5
S11318B09D4FFC01808191814FE0489F9001499F99
S11318C0300D11248F819885820F931F880F991FE3
S11318D09E012F5F3F4F820F931F0A96FC012081C8
S11318E03181AE0143535E4F8F819885880F991FD4
S11318F0840F951FFC01318320839E0125513E4FA7
S11319008F819885880F991F820F931F9E01255DF3
S11319103D4FF90120813181FC01318320839E01F7
S1131920275F3D4F8F819885880F991F820F931FE2
S1131930FC01118210828F819885019698878F838C
S1131940CE01875D9D4F2F813885FC018081918177
S1131950281739070CF4AACF9E0123533E4FCE011A
S1131960855D9D4FFC0180819181880F991F820FB5
S1131970931FFC01118210829E01275F3D4FCE010F
S1131980855D9D4FFC0180819181880F991F820F95
S1131990931F21E030E0FC013183208381E090E05B
S11319A09A838983DEC08FE097E29C838B831886B9
S11319B01F8236C09E0123533E4F8F819885880F26
S11319C0991F820F931FFC01208131818B819C819F
S11319D02817390704F59E01275F3D4F8F819885AD
S11319E0880F991F820F931FFC01808191810097BA
S11319F091F49E0123533E4F8F819885880F991F40
S1131A00820F931FFC01808191819C838B838F8142
S1131A1098859E838D838F819885019698878F837F
S1131A20CE01875D9D4F2F813885FC018081918196
S1131A30281739070CF4BECF9E01275F3D4F8D81D7
S1131A409E81880F991F820F931F21E030E0FC01D3
S1131A503183208318861F8273C09E01275F3D4F08
S1131A608F819885880F991F820F931FFC018081B5
S1131A709181009709F05FC08D819E814FE0489F5E
S1131A809001499F300D11248F819885820F931FF7
S1131A90880F991F9E012F5F3F4F820F931F0A9655
S1131AA0FC01208131818B819C81280F391FAE017B
S1131AB043535E4F8F819885880F991F840F951F1C
S1131AC0FC018081918128173907ACF58D819E81B5
S1131AD04FE0489F9001499F300D11248F819885D4
S1131AE0820F931F880F991F9E012F5F3F4F820F14
S1131AF0931F0A96FC01208131818B819C81280FE0
S1131B00391FAE0143535E4F8F819885880F991F0B
S1131B10840F951FFC01318320839E0125513E4F84
S1131B208F819885880F991F820F931F2D813E8185
S1131B30FC01318320838F819885019698878F8358
S1131B40CE01875D9D4F2F813885FC018081918175
S1131B50281739070CF481CF89819A8101969A83D9
S1131B608983CE01875D9D4FFC01808191819C0119
S1131B702150310989819A81821793070CF413CF7C
S1131B8018861F821AC09E0123533E4F8F81988569
S1131B90880F991F820F931FFC01208131818F814F
S1131BA09885880F991F8C5F9A4FFC01318320839D
S1131BB08F819885019698878F83CE01875D9D4F8D
S1131BC02F813885FC018081918128173907DCF247
S1131BD018861F821AC09E0125513E4F8F81988519
S1131BE0880F991F820F931FFC01208131818F81FF
S1131BF09885880F991F8C529B4FFC013183208359
S1131C008F819885019698878F83CE01875D9D4F3C
S1131C102F813885FC018081918128173907DCF2F6
S1131C20C45DDD4F0FB6F894DEBF0FBECDBFDF91AC
S1131C30CF910895CF93DF93CDB7DEB72C970FB62E
S1131C40F894DEBF0FBECDBF9E838D8378876F83EC
S1131C505A8749873C872B878D819E81880F991FDE
S1131C608C5F9A4FFC01208131818F819885880F88
S1131C70991F8C5F9A4FFC01808191818217930791
S1131C800CF46CC02091CA043091CB048D819E81E8
S1131C902817390709F452C08D819E819A8389835C
S1131CA08B859C85FC0180819181880F991F2985F2
S1131CB03A85820F931F2D813E81FC01318320835D
S1131CC08B859C85FC01808191819C012F5F3F4F16
S1131CD08B859C85FC013183208389819A81880FBF
S1131CE0991F8C529B4FFC01808191819A83898337
S1131CF08B859C85FC0180819181880F991F2985A2
S1131D003A85820F931F29813A81FC013183208314
S1131D108B859C85FC01808191819C012F5F3F4FC5
S1131D208B859C85FC01318320838091CA0490912A
S1131D30CB0429813A812817390779F68B859C854C
S1131D40FC012081318189859A85B901A1DC8D81CD
S1131D509E819093CB048093CA046BC02091CA04E3
S1131D603091CB048F8198852817390709F452C024
S1131D708F8198859C838B838B859C85FC018081D6
S1131D809181880F991F29853A85820F931F2F818E
S1131D903885FC01318320838B859C85FC018081FF
S1131DA091819C012F5F3F4F8B859C85FC01318382
S1131DB020838B819C81880F991F8C529B4FFC013F
S1131DC0808191819C838B838B859C85FC018081A0
S1131DD09181880F991F29853A85820F931F2B8142
S1131DE03C81FC01318320838B859C85FC018081AF
S1131DF091819C012F5F3F4F8B859C85FC01318332
S1131E0020838091CA049091CB042B813C812817B4
S1131E10390779F68B859C85FC0120813181898580
S1131E209A85B90135DC8F8198859093CB04809392
S1131E30CA042C960FB6F894DEBF0FBECDBFDF9157
S1131E40CF910895CF93DF93CDB7DEB781E890E0CB
S1131E50FC01108285E890E02CEFFC01208384E8EB
S1131E6090E021E0FC01208389E890E023E0FC017C
S1131E70208388E890E02FEFFC0120838BE890E03A
S1131E8023E0FC0120838AE890E02FEFFC0120830B
S1131E908DE890E023E0FC0120838CE890E02FEFB4
S1131EA0FC01208387E890E023E0FC01208386E89E
S1131EB090E02FEFFC01208380E890E02BEAFC0106
S1131EC0208382E890E0FC01108281E890E02CE01D
S1131ED0FC012083DF91CF910895CF93DF93CDB799
S1131EE0DEB781E291E0FC01108285E291E02FEF00
S1131EF0FC01208384E291E021E0FC01208389E25B
S1131F0091E0FC01108288E291E02FEFFC01208334
S1131F108BE291E0FC0110828AE291E02FEFFC0158
S1131F2020838DE291E0FC0110828CE291E02FEF9E
S1131F30FC01208380E291E029EAFC01208381E214
S1131F4091E02BE0FC012083DF91CF910895CF93A2
S1131F50DF93CDB7DEB783E390E023E330E0F9010C
S1131F6020812860FC01208384E390E024E330E0B6
S1131F70F9012081277FFC012083DF91CF9108950F
S1131F80CF93DF93CDB7DEB781E290E021E230E07A
S1131F90F90120812F60FC01208382E290E022E29B
S1131FA030E0F9012081207FFC0120838AE091E068
S1131FB02AE031E0F90120812861FC0120838BE0D3
S1131FC091E02BE031E0F90120812861FC012083BC
S1131FD0DF91CF910895CF93DF93CDB7DEB78DE234
S1131FE090E02DE230E0F90120812F7EFC01208376
S1131FF08EE290E02EE230E0F90120812061FC01C4
S11320002083DF91CF910895CF93DF93CDB7DEB7CF
S11320108DE290E02DE230E0F90120812F7DFC017A
S113202020838EE290E02EE230E0F90120812062EC
S1132030FC012083DF91CF910895CF93DF93CDB737
S1132040DEB7F8948AE690E02AE630E0F9012081D0
S11320502260FC0120838DE390E02DE330E0F90160
S113206020812061FC0120837894DF91CF91089531
S1132070CF93DF93CDB7DEB7F8948AE690E02AE6F3
S113208030E0F90120812860FC0120838DE390E099
S11320902DE330E0F90120812062FC012083789453
S11320A0DF91CF910895CF93DF93CDB7DEB784E26C
S11320B090E024E230E0F90120812062FC012083D9
S11320C085E290E025E230E0F90120812062FC0104
S11320D02083DF91CF910895CF93DF93CDB7DEB7FF
S11320E084E290E024E230E0F90120812064FC01E4
S11320F0208385E290E025E230E0F901208120642C
S1132100FC012083DF91CF910895CF93DF93CDB766
S1132110DEB784E290E024E230E0F9012081206817
S1132120FC01208385E290E025E230E0F901208182
S11321302068FC012083DF91CF910895CF93DF9332
S1132140CDB7DEB781E091E0FC01808181E091E0D0
S11321502FEFFC01208382E091E022E031E0F901DD
S113216020812E7FFC012083DF91CF910895CF93AE
S1132170DF93CDB7DEB780E390E0FC01108281E30A
S113218090E0FC01108287E091E0FC01108288E07D
S113219091E0FC011082DF91CF910895CF93DF93FA
S11321A0CDB7DEB7D4DEECDE16DF2EDF46DF60DF30
S11321B07ADF92DFAADFC2DF0E949400D8DFDF91CA
S11321C0CF9108951F920F9200905F000F921124F7
S11321D08F939F93AF93BF93CF93DF93CDB7DEB726
S11321E08091D0049091D104A091D204B091D304F1
S11321F00196A11DB11D8093D0049093D104A093A6
S1132200D204B093D304DF91CF91BF91AF919F914A
S11322108F910F9000925F000F901F9018951F925E
S11322200F9200905F000F9211248F939F93AF93AE
S1132230BF93CF93DF93CDB7DEB78091CC04909159
S1132240CD04A091CE04B091CF040196A11DB11D7F
S11322508093CC049093CD04A093CE04B093CF0488
S1132260DF91CF91BF91AF919F918F910F90009289
S11322705F000F901F901895CF93DF931F921F92CA
S1132280CDB7DEB78A8319828A818F708A8382E20E
S113229090E0FC01808189838981807F8983998191
S11322A08A81892B898382E290E02981FC01208341
S11322B00F900F90DF91CF910895CF93DF93CDB717
S11322C0DEB786E0D9DFDF91CF910895CF93DF9316
S11322D0CDB7DEB789E0D0DFDF91CF910895CF93FA
S11322E0DF93CDB7DEB785E0C7DFDF91CF910895E7
S11322F0CF93DF93CDB7DEB78AE0BEDFDF91CF9116
S11323000895CF93DF93CDB7DEB784E0B5DFDF91D7
S1132310CF910895CF93DF93CDB7DEB782E0ACDFE2
S1132320DF91CF910895CF93DF93CDB7DEB780E0EF
S1132330A3DFDF91CF910895CF93DF931F921F9274
S1132340CDB7DEB789836A8388E291E02981FC01F5
S113235020838AE291E02A81FC0120830F900F9070
S1132360DF91CF9108950F931F93CF93DF9300D004
S11323701F921F92CDB7DEB78D8319821A821B82FA
S11323801C828D81882F90E0A0E0B0E0BC01CD01DB
S11323900E940028DC01CB012BE734E14EEE5FE321
S11323A0BC01CD010E946C27DC01CB0120E030E0B0
S11323B04CE052E4BC01CD010E940427DC01CB01B6
S11323C089839A83AB83BC8389E890E0FC01108203
S11323D008E810E069817A818B819C810E94D4276E
S11323E0DC01CB01F80180830F900F900F900F90C8
S11323F00F90DF91CF911F910F9108950F931F9329
S1132400CF93DF9300D01F921F92CDB7DEB78D8399
S113241019821A821B821C828D81882F90E0A0E091
S1132420B0E0BC01CD010E940028DC01CB012BE708
S113243034E14EEE5FE3BC01CD010E946C27DC0168
S1132440CB0120E030E04CE052E4BC01CD010E941D
S11324500427DC01CB0189839A83AB83BC838BE89B
S113246090E0FC0110820AE810E069817A818B8196
S11324709C810E94D427DC01CB01F80180830F905A
S11324800F900F900F900F90DF91CF911F910F91AC
S113249008950F931F93CF93DF93CDB7DEB7639760
S11324A00FB6F894DEBF0FBECDBF8B8B82E091E0F8
S11324B022E031E0F90120812160FC01208380E0E9
S11324C090E0A0EAB1E48D839E83AF83B88726E6CB
S11324D036E646E655E46D817E818F8198850E94BB
S11324E0B628DC01CB0189879A87AB87BC8720E0BB
S11324F030E040E85FE369857A858B859C850E949E
S1132500682788232CF481E090E09E878D873FC064
S113251020E03FEF4FE757E469857A858B859C85FA
S11325200E94B22818164CF520E030E040E251E455
S11325306D817E818F8198850E94B628DC01CB0154
S1132540BC01CD010E94D427DC01CB019E878D877D
S11325500FC080E791E0988B8F878F8598890197CA
S1132560F1F7988B8F878D859E8501979E878D8740
S11325708D859E85009769F714C069857A858B855A
S11325809C850E94D427DC01CB019E878D878D8595
S11325909E859A8B898B89899A890197F1F79A8B01
S11325A0898B19821A821B821C828B89882F90E066
S11325B0A0E0B0E0BC01CD010E940028DC01CB0109
S11325C02BE734E14EEE5FE3BC01CD010E946C27A2
S11325D0DC01CB0120E030E04CE052E4BC01CD0151
S11325E00E940427DC01CB0189839A83AB83BC83DB
S11325F08DE890E0FC0110820CE810E069817A819A
S11326008B819C810E94D427DC01CB01F80180835B
S113261063960FB6F894DEBF0FBECDBFDF91CF91A6
S11326201F910F910895CF93DF93CDB7DEB789E85B
S113263090E023E0FC01208388E890E02FEFFC0188
S11326402083DF91CF910895CF93DF93CDB7DEB789
S11326508BE890E023E0FC0120838AE890E02FEFF0
S1132660FC012083DF91CF910895CF93DF93CDB701
S1132670DEB78DE890E023E0FC0120838CE890E055
S11326802FEFFC012083DF91CF910895CF93DF9347
S11326901F921F92CDB7DEB78A838A81883028F0D3
S11326A08BE790E028E0FC0120838A8187708A838D
S11326B08CE790E02A812062FC0120838AE790E085
S11326C02AE730E0F90120812064FC012083000026
S11326D08AE790E0FC018081882F90E0807199273F
S11326E00097B1F389E790E0FC01808189838AE750
S11326F090E02AE730E0F90120812061FC01208389
S11327008BE790E0FC01108289810F900F90DF919C
S1132710CF910895CF93DF931F921F92CDB7DEB769
S11327209A8389830E94330689819A818330910533
S113273009F450C08430910534F4009771F081306D
S11327409105A1F050C085309105C9F085309105FF
S113275084F186309105E1F046C063E081E00E9497
S1132760CE0981E794E00E94B0093DC063E081E0B6
S11327700E94CE098FE794E00E94B00934C063E060
S113278081E00E94CE098DE894E00E94B0092BC03C
S113279066E081E00E94CE0985E994E00E94B009D8
S11327A061E082E00E94CE098BE994E00E94B009C6
S11327B01AC066E081E00E94CE098AEA94E00E9491
S11327C0B00963E082E00E94CE0981EB94E00E94AC
S11327D0B00909C063E081E00E94CE098FEB94E068
S11327E00E94B00900000F900F90DF91CF910895DF
S11327F00F931F93CF93DF93CDB7DEB7C256D109A2
S11328000FB6F894DEBF0FBECDBF80E090E0AAEF14
S1132810B3E489839A83AB83BC8326E636E646E633
S113282055E469817A818B819C810E94B628DC0100
S1132830CB018D839E83AF83B88720E030E040E8EE
S11328405FE36D817E818F8198850E94682788234C
S11328502CF481E090E09A8789873FC020E03FEF25
S11328604FE757E46D817E818F8198850E94B2285D
S113287018164CF520E030E040E251E469817A8199
S11328808B819C810E94B628DC01CB01BC01CD0167
S11328900E94D427DC01CB019A8789870FC080E787
S11328A091E09C878B878B859C850197F1F79C87AA
S11328B08B8789859A8501979A87898789859A85DF
S11328C0009769F714C06D817E818F8198850E947D
S11328D0D427DC01CB019A87898789859A859E87CD
S11328E08D878D859E850197F1F79E878D8780E082
S11328F03ADD80E090E0AAE7B4E48F87988BA98B57
S1132900BA8B26E636E646E655E46F8578898989EA
S11329109A890E94B628DC01CB018B8B9C8BAD8BF2
S1132920BE8B20E030E040E85FE36B897C898D89D1
S11329309E890E94682788232CF481E090E0988F78
S11329408F8B3FC020E03FEF4FE757E46B897C89D2
S11329508D899E890E94B22818164CF520E030E03B
S113296040E251E46F85788989899A890E94B62862
S1132970DC01CB01BC01CD010E94D427DC01CB01D9
S1132980988F8F8B0FC080E791E09A8F898F898D04
S11329909A8D0197F1F79A8F898F8F89988D019776
S11329A0988F8F8B8F89988D009769F714C06B89E6
S11329B07C898D899E890E94D427DC01CB01988F64
S11329C08F8B8F89988D9C8F8B8F8B8D9C8D01978E
S11329D0F1F79C8F8B8F27DE8EE15BDD80E090E842
S11329E0ABE3B4E48D8F9E8FAF8FB8A326E636E6B3
S11329F046E655E46D8D7E8D8F8D98A10E94B62894
S1132A00DC01CB0189A39AA3ABA3BCA320E030E0F3
S1132A1040E85FE369A17AA18BA19CA10E94682789
S1132A2088232CF481E090E09EA38DA33FC020E096
S1132A303FEF4FE757E469A17AA18BA19CA10E94C3
S1132A40B22818164CF520E030E040E251E46D8DD8
S1132A507E8D8F8D98A10E94B628DC01CB01BC012C
S1132A60CD010E94D427DC01CB019EA38DA30FC00E
S1132A7080E791E098A78FA38FA198A50197F1F71C
S1132A8098A78FA38DA19EA101979EA38DA38DA12D
S1132A909EA1009769F714C069A17AA18BA19CA19A
S1132AA00E94D427DC01CB019EA38DA38DA19EA1FE
S1132AB09AA789A789A59AA50197F1F79AA789A743
S1132AC08DE29CDC80E090E0AAE7B4E48BA79CA7AD
S1132AD0ADA7BEA726E636E646E655E46BA57CA57B
S1132AE08DA59EA50E94B628DC01CB018FA798ABCB
S1132AF0A9ABBAAB20E030E040E85FE36FA578A96A
S1132B0089A99AA90E94682788232CF481E090E07F
S1132B109CAB8BAB3FC020E03FEF4FE757E46FA582
S1132B2078A989A99AA90E94B22818164CF520E020
S1132B3030E040E251E46BA57CA58DA59EA50E94E2
S1132B40B628DC01CB01BC01CD010E94D427DC01F5
S1132B50CB019CAB8BAB0FC080E791E09EAB8DAB00
S1132B608DA99EA90197F1F79EAB8DAB8BA99CA96A
S1132B7001979CAB8BAB8BA99CA9009769F714C0F8
S1132B806FA578A989A99AA90E94D427DC01CB0151
S1132B909CAB8BAB8BA99CA998AF8FAB8FA998AD3D
S1132BA00197F1F798AF8FAB89E673DC80E090E88A
S1132BB0ABE3B4E489AF9AAFABAFBCAF26E636E67D
S1132BC046E655E469AD7AAD8BAD9CAD0E94B6285E
S1132BD0DC01CB019E01235C3F4FF901808391838B
S1132BE0A283B38320E030E040E85FE3CE01CD96DA
S1132BF0FC0160817181828193810E94682788230E
S1132C004CF4CE018F5B9F4F21E030E0FC01318317
S1132C10208367C020E03FEF4FE757E4CE01CD9615
S1132C20FC0160817181828193810E94B22818160F
S1132C300CF046C020E030E040E251E469AD7AADEA
S1132C408BAD9CAD0E94B628DC01CB018E010F5BDD
S1132C501F4FBC01CD010E94D427DC01CB01F80138
S1132C609183808324C0CE018D5B9F4F20E731E0A8
S1132C70FC0131832083CE018D5B9F4FFC01808159
S1132C8091810197F1F79E012D5B3F4FF9019183EB
S1132C908083CE018F5B9F4F9E012F5B3F4FF901D5
S1132CA02081318121503109FC0131832083CE01FF
S1132CB08F5B9F4FFC01808191810097A1F62BC00F
S1132CC08E010F5B1F4FCE01CD96FC016081718197
S1132CD0828193810E94D427DC01CB01F801918386
S1132CE08083CE018B5B9F4F9E012F5B3F4FF90189
S1132CF020813181FC0131832083CE018B5B9F4F86
S1132D00FC01808191810197F1F79E012B5B3F4F7C
S1132D10F90191838083A9DC80E070DB9E01295B4B
S1132D203F4F80E090E0AAE7B4E4F9018083918307
S1132D30A283B3838E01055B1F4FCE01895B9F4F36
S1132D4026E636E646E655E4FC016081718182811F
S1132D5093810E94B628DC01CB01F8018083918322
S1132D60A283B383CE01855B9F4F20E030E040E82F
S1132D705FE3FC0160817181828193810E946827F5
S1132D8088234CF4CE01815B9F4F21E030E0FC01AD
S1132D90318320836DC0CE01855B9F4F20E03FEFE0
S1132DA04FE757E4FC0160817181828193810E9425
S1132DB0B22818160CF04AC0CE01895B9F4F20E060
S1132DC030E040E251E4FC016081718182819381B1
S1132DD00E94B628DC01CB018E01015B1F4FBC01B0
S1132DE0CD010E94D427DC01CB01F80191838083BB
S1132DF024C0CE018F5A9F4F20E731E0FC0131837C
S1132E002083CE018F5A9F4FFC01808191810197CD
S1132E10F1F79E012F5A3F4FF90191838083CE0130
S1132E20815B9F4F9E01215B3F4FF90120813181DE
S1132E3021503109FC0131832083CE01815B9F4FF6
S1132E40FC01808191810097A1F62CC08E01015B69
S1132E501F4FCE01855B9F4FFC0160817181828190
S1132E6093810E94D427DC01CB01F80191838083F4
S1132E70CE018D5A9F4F9E01215B3F4FF901208166
S1132E803181FC0131832083CE018D5A9F4FFC0197
S1132E90808191810197F1F79E012D5A3F4FF901ED
S1132EA091838083D1DB8FE55EDA9E012B5A3F4FFD
S1132EB080E090E0AAE7B4E4F90180839183A283DF
S1132EC0B3838E01075A1F4FCE018B5A9F4F26E6BC
S1132ED036E646E655E4FC01608171818281938186
S1132EE00E94B628DC01CB01F80180839183A28380
S1132EF0B383CE01875A9F4F20E030E040E85FE380
S1132F00FC0160817181828193810E9468278823FA
S1132F104CF4CE01835A9F4F21E030E0FC01318311
S1132F2020836DC0CE01875A9F4F20E03FEF4FE7CB
S1132F3057E4FC0160817181828193810E94B228EF
S1132F4018160CF04AC0CE018B5A9F4F20E030E097
S1132F5040E251E4FC0160817181828193810E948D
S1132F60B628DC01CB018E01035A1F4FBC01CD01F1
S1132F700E94D427DC01CB01F8019183808324C013
S1132F80CE01815A9F4F20E731E0FC013183208339
S1132F90CE01815A9F4FFC01808191810197F1F705
S1132FA09E01215A3F4FF90191838083CE01835AB8
S1132FB09F4F9E01235A3F4FF901208131812150B7
S1132FC03109FC0131832083CE01835A9F4FFC01D8
S1132FD0808191810097A1F62CC08E01035A1F4F66
S1132FE0CE01875A9F4FFC01608171818281938158
S1132FF00E94D427DC01CB01F80191838083CE01A8
S11330008F599F4F9E01235A3F4FF90120813181EF
S1133010FC0131832083CE018F599F4FFC018081B5
S113302091810197F1F79E012F593F4FF901918347
S11330308083F9DACE59DF4F0FB6F894DEBF0FBEA6
S1133040CDBFDF91CF911F910F910895CF93DF935F
S1133050CDB7DEB7E8970FB6F894DEBF0FBECDBF8D
S113306081E090E057DB32D99091340280913402B0
S1133070692F62D980E090E0AAEFB3E489839A8350
S1133080AB83BC8326E636E646E655E469817A815D
S11330908B819C810E94B628DC01CB018D839E83A9
S11330A0AF83B88720E030E040E85FE36D817E8144
S11330B08F8198850E94682788232CF481E090E012
S11330C09A8789873FC020E03FEF4FE757E46D813F
S11330D07E818F8198850E94B22818164CF520E0D5
S11330E030E040E251E469817A818B819C810E94C5
S11330F0B628DC01CB01BC01CD010E94D427DC0140
S1133100CB019A8789870FC080E791E09C878B87E2
S11331108B859C850197F1F79C878B8789859A8598
S113312001979A87898789859A85009769F714C0DA
S11331306D817E818F8198850E94D427DC01CB012B
S11331409A87898789859A859E878D878D859E85AF
S11331500197F1F79E878D878BE098DA80930105BC
S113316080910105833708F483C080910105833879
S113317008F07EC0ABD888E291E02CEDFC012083FE
S11331808AE291E02CEDFC01208380E090E0A4E34E
S1133190B2E48F87988BA98BBA8B26E636E646E68F
S11331A055E46F85788989899A890E94B628DC015B
S11331B0CB018B8B9C8BAD8BBE8B20E030E040E849
S11331C05FE36B897C898D899E890E9468278823A7
S11331D02CF481E090E0988F8F8B3FC020E03FEF8C
S11331E04FE757E46B897C898D899E890E94B228B8
S11331F018164CF520E030E040E251E46F85788900
S113320089899A890E94B628DC01CB01BC01CD01D1
S11332100E94D427DC01CB01988F8F8B0FC080E7ED
S113322091E09A8F898F898D9A8D0197F1F79A8F02
S1133230898F8F89988D0197988F8F8B8F89988D1F
S1133240009769F728C16B897C898D899E890E94C2
S1133250D427DC01CB01988F8F8B8F89988D9C8F1D
S11332608B8F8B8D9C8D0197F1F79C8F8B8F13C166
S113327080910105833808F47EC043D888E291E048
S113328025E7FC0120838AE291E02FE6FC012083FC
S113329080E090E0A0E0B0E48D8F9E8FAF8FB8A364
S11332A026E636E646E655E46D8D7E8D8F8D98A133
S11332B00E94B628DC01CB0189A39AA3ABA3BCA3CB
S11332C020E030E040E85FE369A17AA18BA19CA1F2
S11332D00E94682788232CF481E090E09EA38DA3AC
S11332E03FC020E03FEF4FE757E469A17AA18BA1EB
S11332F09CA10E94B22818164CF520E030E040E270
S113330051E46D8D7E8D8F8D98A10E94B628DC01CD
S1133310CB01BC01CD010E94D427DC01CB019EA3CB
S11333208DA30FC080E791E098A78FA38FA198A5E4
S11333300197F1F798A78FA38DA19EA101979EA352
S11333408DA38DA19EA1009769F7A5C069A17AA15B
S11333508BA19CA10E94D427DC01CB019EA38DA349
S11333608DA19EA19AA789A789A59AA50197F1F78E
S11333709AA789A7F1CE80910105833708F084C00C
S113338080910105813508F47FC00E948A1188E28A
S113339091E022E7FC0120838AE291E025E7FC0129
S11333A0208380E090E0A0E0B0E48BA79CA7ADA7C9
S11333B0BEA726E636E646E655E46BA57CA58DA5B4
S11333C09EA50E94B628DC01CB018FA798ABA9ABC0
S11333D0BAAB20E030E040E85FE36FA578A989A9A3
S11333E09AA90E94682788232CF481E090E09CAB82
S11333F08BAB3FC020E03FEF4FE757E46FA578A9C0
S113340089A99AA90E94B22818164CF520E030E048
S113341040E251E46BA57CA58DA59EA50E94B6282B
S1133420DC01CB01BC01CD010E94D427DC01CB011E
S11334309CAB8BAB0FC080E791E09EAB8DAB8DA9AD
S11334409EA90197F1F79EAB8DAB8BA99CA901971F
S11334509CAB8BAB8BA99CA9009769F71CC06FA58B
S113346078A989A99AA90E94D427DC01CB019CAB35
S11334708BAB8BA99CA998AF8FAB8FA998AD019703
S1133480F1F798AF8FAB07C080910105803518F430
S11334900E94931101C060CE61E070E080E090E092
S11334A009D0E8960FB6F894DEBF0FBECDBFDF910A
S11334B0CF910895CF93DF93CDB7DEB7E0970FB6E2
S11334C0F894DEBF0FBECDBF9EA78DA778AB6FA7C4
S11334D081E090E09A8389838CC280E090E01AD9DD
S11334E00E9466119091340280913402692F0E94E7
S11334F09C1181E0CBD88093020582E0C7D88093E9
S1133500F70483E0C3D88093FA048DA59EA5823086
S1133510910509F088C080910205282F30E0809140
S1133520F704882F90E0280F391F8091FA04882F20
S113353090E0820F931F893121E092070CF473C04D
S113354080E090E0A0EAB2E48B839C83AD83BE83E9
S113355026E636E646E655E46B817C818D819E81C4
S11335600E94B628DC01CB018F839887A987BA878C
S113357020E030E040E85FE36F81788589859A85B3
S11335800E94682788232CF481E090E09C878B8735
S11335903FC020E03FEF4FE757E46F81788589858E
S11335A09A850E94B22818164CF520E030E040E2DB
S11335B051E46B817C818D819E810E94B628DC015F
S11335C0CB01BC01CD010E94D427DC01CB019C8737
S11335D08B870FC080E791E09E878D878D859E85C0
S11335E00197F1F79E878D878B859C8501979C8732
S11335F08B878B859C85009769F7EAC16F817885F5
S113360089859A850E94D427DC01CB019C878B870E
S11336108B859C85988B8F878F8598890197F1F787
S1133620988B8F87D5C18DA59EA58330910509F010
S11336307FC080910205893708F4C9C18091FA04DA
S1133640893708F4C4C10E94931180E090E0A8EC8B
S1133650B2E4898B9A8BAB8BBC8B26E636E646E6C6
S113366055E469897A898B899C890E94B628DC0192
S1133670CB018D8B9E8BAF8BB88F20E030E040E880
S11336805FE36D897E898F89988D0E9468278823DE
S11336902CF481E090E09A8F898F3FC020E03FEFC7
S11336A04FE757E46D897E898F89988D0E94B228EF
S11336B018164CF520E030E040E251E469897A893B
S11336C08B899C890E94B628DC01CB01BC01CD0109
S11336D00E94D427DC01CB019A8F898F0FC080E729
S11336E091E09C8F8B8F8B8D9C8D0197F1F79C8F34
S11336F08B8F898D9A8D01979A8F898F898D9A8D59
S1133700009769F765C16D897E898F89988D0E94BC
S1133710D427DC01CB019A8F898F898D9A8D9E8F56
S11337208D8F8D8D9E8D0197F1F79E8F8D8F50C15A
S11337308DA59EA58130910509F089C08BE00E947A
S1133740461380930105809101058C3408F43FC130
S113375080910205803508F03AC18091FA048035E1
S113376008F035C10E94931180E090E0A8ECB2E427
S11337708F8F98A3A9A3BAA326E636E646E655E4B6
S11337806F8D78A189A19AA10E94B628DC01CB0192
S11337908BA39CA3ADA3BEA320E030E040E85FE38D
S11337A06BA17CA18DA19EA10E94682788232CF483
S11337B081E090E098A78FA33FC020E03FEF4FE760
S11337C057E46BA17CA18DA19EA10E94B22818167A
S11337D04CF520E030E040E251E46F8D78A189A1FE
S11337E09AA10E94B628DC01CB01BC01CD010E9444
S11337F0D427DC01CB0198A78FA30FC080E791E009
S11338009AA789A789A59AA50197F1F79AA789A7E5
S11338108FA198A5019798A78FA38FA198A500972A
S113382069F7D6C06BA17CA18DA19EA10E94D4276B
S1133830DC01CB0198A78FA38FA198A59CA78BA788
S11338408BA59CA50197F1F79CA78BA7C1C08DA55B
S11338509EA50097A9F480910205282F30E080915D
S1133860F704882F90E0280F391F8091FA04882FDD
S113387090E0820F931F8139E1E09E070CF0A8C00D
S1133880809102058C33A8F48091F7048D3788F079
S11338908091FA048C3368F488E291E02091340238
S11338A0FC0120838AE291E020913402FC01208310
S11338B08EC0809102058832A8F48091F7048C337D
S11338C088F48091FA048D3868F088E291E02091C0
S11338D03402FC0120838AE291E020913502FC014C
S11338E0208375C08091FA048832A8F48091F7048B
S11338F08C3388F4809102058D3868F088E291E079
S113390020913502FC0120838AE291E02091340267
S1133910FC0120835CC080910205282F30E0809157
S1133920F704882F90E0280F391F8091FA04882F1C
S113393090E0820F931F883C9105DCF48091F7049A
S11339408333B8F08091F704843698F4909102059B
S11339508091FA04891768F488E291E02091360294
S1133960FC0120838AE291E020913402FC0120834F
S11339702EC080910205282F30E08091F704882F13
S113398090E0280F391F8091FA04882F90E0820F6D
S1133990931F883C9105DCF48091F7048333B8F0DD
S11339A08091F704843698F4909102058091FA048A
S11339B0981768F488E291E020913402FC01208396
S11339C08AE291E020913602FC01208392CD91CDD0
S11339D08DA59EA58130910509F438DB8DA59EA5A2
S11339E08330910509F41CD089819A8101969A83C8
S11339F0898329813A818FA598A9821793070CF0AE
S1133A006CCD82E290E0FC0110820E949311E0965A
S1133A100FB6F894DEBF0FBECDBFDF91CF910895EE
S1133A200F931F93CF93DF93CDB7DEB7C754D1095C
S1133A300FB6F894DEBF0FBECDBF198283E090E0CD
S1133A400E948A138981882F90E022E030E0AC0143
S1133A5067E082E00E94FF090E946611909134029F
S1133A6080913402692F0E949C1181E00E944613C8
S1133A708093020582E00E9446138093F70483E05A
S1133A800E9446138093FA0480910205282F30E0A7
S1133A908091F704882F90E0280F391F8091FA0451
S1133AA0882F90E0820F931F8A3421E092070CF054
S1133AB075C18091F7048A3508F070C18981882323
S1133AC009F06CC180E090E0A8ECB2E48A839B83A7
S1133AD0AC83BD8326E636E646E655E46A817B81FF
S1133AE08C819D810E94B628DC01CB018E839F834B
S1133AF0A887B98720E030E040E85FE36E817F81EA
S1133B00888599850E94682788232CF481E090E0B9
S1133B109B878A873FC020E03FEF4FE757E46E81E1
S1133B207F81888599850E94B22818164CF520E07B
S1133B3030E040E251E46A817B818C819D810E9466
S1133B40B628DC01CB01BC01CD010E94D427DC01E5
S1133B50CB019B878A870FC080E791E09D878C8784
S1133B608C859D850197F1F79D878C878A859B8538
S1133B7001979B878A878A859B85009769F714C07C
S1133B806E817F81888599850E94D427DC01CB01D1
S1133B909B878A878A859B859F878E878E859F854D
S1133BA00197F1F79F878E8789818F5F8983898148
S1133BB0882F90E022E030E0AC0167E082E00E94D0
S1133BC0FF090E945D1180E090E0AAE7B3E4888BCE
S1133BD0998BAA8BBB8B26E636E646E655E46889C4
S1133BE079898A899B890E94B628DC01CB018C8B58
S1133BF09D8BAE8BBF8B20E030E040E85FE36C89A7
S1133C007D898E899F890E94682788232CF481E00E
S1133C1090E0998F888F3FC020E03FEF4FE757E453
S1133C206C897D898E899F890E94B22818164CF56B
S1133C3020E030E040E251E4688979898A899B89EF
S1133C400E94B628DC01CB01BC01CD010E94D4271F
S1133C50DC01CB01998F888F0FC080E791E09B8FA7
S1133C608A8F8A8D9B8D0197F1F79B8F8A8F888D20
S1133C70998D0197998F888F888D998D009769F711
S1133C8014C06C897D898E899F890E94D427DC01A8
S1133C90CB01998F888F888D998D9D8F8C8F8C8D7A
S1133CA09D8D0197F1F79D8F8C8F0E9493110E9437
S1133CB0F8130E94661180E090E0A8ECB2E48E8FC5
S1133CC09F8FA8A3B9A326E636E646E655E46E8D93
S1133CD07F8D88A199A10E94B628DC01CB018AA31B
S1133CE09BA3ACA3BDA320E030E040E85FE36AA15E
S1133CF07BA18CA19DA10E94682788232CF481E0DC
S1133D0090E09FA38EA33FC020E03FEF4FE757E42E
S1133D106AA17BA18CA19DA10E94B22818164CF522
S1133D2020E030E040E251E46E8D7F8D88A199A1BE
S1133D300E94B628DC01CB01BC01CD010E94D4272E
S1133D40DC01CB019FA38EA30FC080E791E099A76C
S1133D5088A788A599A50197F1F799A788A78EA1A7
S1133D609FA101979FA38EA38EA19FA1009769F79E
S1133D709DC16AA17BA18CA19DA10E94D427DC01D5
S1133D80CB019FA38EA38EA19FA19BA78AA78AA5DF
S1133D909BA50197F1F79BA78AA788C1809102058B
S1133DA0853BA8F08091F704823888F48091FA0466
S1133DB0853B68F088E291E020913402FC01208385
S1133DC08AE291E020913402FC0120836FC180914A
S1133DD00205803508F08CC08091F704833808F41C
S1133DE087C08091FA04873908F482C00E948A113E
S1133DF088E291E0209135022253FC0120838AE27B
S1133E0091E020913402FC01208380E090E0A0E85E
S1133E10BFE38CA79DA7AEA7BFA726E636E646E676
S1133E2055E46CA57DA58EA59FA50E94B628DC014E
S1133E30CB0188AB99ABAAABBBAB20E030E040E848
S1133E405FE368A979A98AA99BA90E9468278823A6
S1133E502CF481E090E09DAB8CAB3FC020E03FEFC1
S1133E604FE757E468A979A98AA99BA90E94B228B7
S1133E7018164CF520E030E040E251E46CA57DA535
S1133E808EA59FA50E94B628DC01CB01BC01CD0103
S1133E900E94D427DC01CB019DAB8CAB0FC080E723
S1133EA091E09FAB8EAB8EA99FA90197F1F79FABD1
S1133EB08EAB8CA99DA901979DAB8CAB8CA99DA9B8
S1133EC0009769F7F3C068A979A98AA99BA90E94F8
S1133ED0D427DC01CB019DAB8CAB8CA99DA999AFF8
S1133EE088AF88AD99AD0197F1F799AF88AFDEC07F
S1133EF08091FA04863908F0CCC08091F7048338A5
S1133F0008F4C7C080910205813508F4C2C00E943C
S1133F10811188E291E020913402FC0120838AE23D
S1133F2091E0209135022253FC01208380E090E04F
S1133F30A0E8BFE38AAF9BAFACAFBDAF8E01025C1C
S1133F401F4F26E636E646E655E46AAD7BAD8CADFA
S1133F509DAD0E94B628DC01CB01F80180839183DA
S1133F60A283B383CE01CE9620E030E040E85FE345
S1133F70FC016081718182819381AAD788234CF4EA
S1133F80CE018E5B9F4F21E030E0FC013183208322
S1133F9065C0CE01CE9620E03FEF4FE757E4FC0129
S1133FA060817181828193810E94B22818160CF07D
S1133FB045C020E030E040E251E46AAD7BAD8CAD19
S1133FC09DAD0E94B628DC01CB018E010E5B1F4F14
S1133FD0BC01CD01E9D7DC01CB01F80191838083D9
S1133FE024C0CE018C5B9F4F20E731E0FC0131837C
S1133FF02083CE018C5B9F4FFC01808191810197CE
S1134000F1F79E012C5B3F4FF90191838083CE0130
S11340108E5B9F4F9E012E5B3F4FF90120813181C2
S113402021503109FC0131832083CE018E5B9F4FE7
S1134030FC01808191810097A1F638C08E010E5B4E
S11340401F4FCE01CE96FC016081718182819381E4
S1134050ABD7DC01CB01F80191838083CE018A5B6D
S11340609F4F9E012E5B3F4FF90120813181FC015E
S113407031832083CE018A5B9F4FFC018081918133
S11340800197F1F79E012A5B3F4FF90191838083E9
S11340900DC08091FA04843648F48091F704853683
S11340A028F080910205843608F401C0D5CC61E083
S11340B070E082E090E0FED9C95BDF4F0FB6F89460
S11340C0DEBF0FBECDBFDF91CF911F910F91089539
S11340D0CF93DF93CDB7DEB7E8970FB6F894DEBF82
S11340E00FBECDBF0E94661180E090E0AAE7B3E462
S11340F089839A83AB83BC8326E636E646E655E499
S113410069817A818B819C810E94B628DC01CB0174
S11341108D839E83AF83B88720E030E040E85FE37F
S11341206D817E818F819885D3D688232CF481E09C
S113413090E09A8789873DC020E03FEF4FE757E43E
S11341406D817E818F8198850E94B228181644F56E
S113415020E030E040E251E469817A818B819C81E6
S11341600E94B628DC01CB01BC01CD011DD7DC01C6
S1134170CB019A8789870FC080E791E09C878B8762
S11341808B859C850197F1F79C878B8789859A8518
S113419001979A87898789859A85009769F713C05B
S11341A06D817E818F819885FFD6DC01CB019A8752
S11341B0898789859A859E878D878D859E850197B8
S11341C0F1F79E878D870E946F1180E090E0A8E44C
S11341D0B3E48F87988BA98BBA8B26E636E646E63E
S11341E055E46F85788989899A89C0D7DC01CB0128
S11341F08B8B9C8BAD8BBE8B20E030E040E85FE383
S11342006B897C898D899E8963D688232CF481E00F
S113421090E0988F8F8B3BC020E03FEF4FE757E44F
S11342206B897C898D899E899DD718163CF520E081
S113423030E040E251E46F85788989899A8996D77C
S1134240DC01CB01BC01CD01AFD6DC01CB01988FE1
S11342508F8B0FC080E791E09A8F898F898D9A8D1B
S11342600197F1F79A8F898F8F89988D0197988F8D
S11342708F8B8F89988D009769F713C06B897C8920
S11342808D899E8991D6DC01CB01988F8F8B8F8984
S1134290988D9C8F8B8F8B8D9C8D0197F1F79C8FC4
S11342A08B8F0E94931180E090E0A8E4B2E48D8F9C
S11342B09E8FAF8FB8A326E636E646E655E46D8DAD
S11342C07E8D8F8D98A152D7DC01CB0189A39AA34F
S11342D0ABA3BCA320E030E040E85FE369A17AA18E
S11342E08BA19CA1F5D588232CF481E090E09EA3BA
S11342F08DA33BC020E03FEF4FE757E469A17AA1CB
S11343008BA19CA12FD718163CF520E030E040E2A9
S113431051E46D8D7E8D8F8D98A128D7DC01CB0162
S1134320BC01CD0141D6DC01CB019EA38DA30FC0FE
S113433080E791E098A78FA38FA198A50197F1F743
S113434098A78FA38DA19EA101979EA38DA38DA154
S11343509EA1009769F713C069A17AA18BA19CA1C2
S113436023D6DC01CB019EA38DA38DA19EA19AA788
S113437089A789A59AA50197F1F79AA789A70E9409
S11343806F1188E291E024E6FC0120838AE291E047
S113439024E6FC01208383E00E9446138093FA0400
S11343A08091FA04803550F182E290E0FC011082A1
S11343B000000E94931180E090E0A8E4B3E48BA78E
S11343C09CA7ADA7BEA726E636E646E655E46BA550
S11343D07CA58DA59EA5CAD6DC01CB018FA798AB81
S11343E0A9ABBAAB20E030E040E85FE36FA578A961
S11343F089A99AA96DD5882314F006C0CCCF81E091
S113440090E09CAB8BAB3BC020E03FEF4FE757E421
S11344106FA578A989A99AA9A5D618163CF520E014
S113442030E040E251E46BA57CA58DA59EA59ED607
S1134430DC01CB01BC01CD01B7D5DC01CB019CABC8
S11344408BAB0FC080E791E09EAB8DAB8DA99EA98D
S11344500197F1F79EAB8DAB8BA99CA901979CABFF
S11344608BAB8BA99CA9009769F713C06FA578A99A
S113447089A99AA999D5DC01CB019CAB8BAB8BA9FB
S11344809CA998AF8FAB8FA998AD0197F1F798AF1E
S11344908FAB88E291E020913402FC0120838AE210
S11344A091E020913402FC012083E8960FB6F89441
S11344B0DEBF0FBECDBFDF91CF910895CF93DF93C1
S11344C0CDB7DEB7E8970FB6F894DEBF0FBECDBF09
S11344D00E94661180E090E0AAE7B3E489839A839E
S11344E0AB83BC8326E636E646E655E469817A81E9
S11344F08B819C813BD6DC01CB018D839E83AF8372
S1134500B88720E030E040E85FE36D817E818F81F1
S11345109885DED488232CF481E090E09A878987FB
S11345203BC020E03FEF4FE757E46D817E818F81F0
S1134530988518D618163CF520E030E040E251E4A6
S113454069817A818B819C8111D6DC01CB01BC010C
S1134550CD012AD5DC01CB019A8789870FC080E77A
S113456091E09C878B878B859C850197F1F79C87CD
S11345708B8789859A8501979A87898789859A8502
S1134580009769F713C06D817E818F8198850CD562
S1134590DC01CB019A87898789859A859E878D87D7
S11345A08D859E850197F1F79E878D870E947811EE
S11345B080E090E0A8E4B3E48F87988BA98BBA8B52
S11345C026E636E646E655E46F85788989899A8930
S11345D0CDD5DC01CB018B8B9C8BAD8BBE8B20E0CE
S11345E030E040E85FE36B897C898D899E8970D4D3
S11345F088232CF481E090E0988F8F8B3BC020E0DF
S11346003FEF4FE757E46B897C898D899E89AAD552
S113461018163CF520E030E040E251E46F857889DB
S113462089899A89A3D5DC01CB01BC01CD01BCD415
S1134630DC01CB01988F8F8B0FC080E791E09A8FBC
S1134640898F898D9A8D0197F1F79A8F898F8F8938
S1134650988D0197988F8F8B8F89988D009769F724
S113466013C06B897C898D899E899ED4DC01CB0122
S1134670988F8F8B8F89988D9C8F8B8F8B8D9C8D32
S11346800197F1F79C8F8B8F0E94931180E090E04B
S1134690A8E4B2E48D8F9E8FAF8FB8A326E636E6EA
S11346A046E655E46D8D7E8D8F8D98A15FD5DC0136
S11346B0CB0189A39AA3ABA3BCA320E030E040E8DC
S11346C05FE369A17AA18BA19CA102D488232CF475
S11346D081E090E09EA38DA33BC020E03FEF4FE735
S11346E057E469A17AA18BA19CA13CD518163CF58D
S11346F020E030E040E251E46D8D7E8D8F8D98A1F5
S113470035D5DC01CB01BC01CD014ED4DC01CB019C
S11347109EA38DA30FC080E791E098A78FA38FA1DC
S113472098A50197F1F798A78FA38DA19EA1019752
S11347309EA38DA38DA19EA1009769F713C069A1C3
S11347407AA18BA19CA130D4DC01CB019EA38DA3C3
S11347508DA19EA19AA789A789A59AA50197F1F78A
S11347609AA789A70E94781188E291E024E6FC01C7
S113477020838AE291E024E6FC01208381E00E9408
S113478046138093F7048091F704803550F182E258
S113479090E0FC01108200000E94931180E090E000
S11347A0A8E4B3E48BA79CA7ADA7BEA726E636E68C
S11347B046E655E46BA57CA58DA59EA5D7D4DC0162
S11347C0CB018FA798ABA9ABBAAB20E030E040E8AF
S11347D05FE36FA578A989A99AA97AD3882314F0ED
S11347E006C0CCCF81E090E09CAB8BAB3BC020E01B
S11347F03FEF4FE757E46FA578A989A99AA9B2D4E6
S113480018163CF520E030E040E251E46BA57CA5AD
S11348108DA59EA5ABD4DC01CB01BC01CD01C4D3D5
S1134820DC01CB019CAB8BAB0FC080E791E09EAB6E
S11348308DAB8DA99EA90197F1F79EAB8DAB8BA98A
S11348409CA901979CAB8BAB8BA99CA9009769F79A
S113485013C06FA578A989A99AA9A6D3DC01CB01B5
S11348609CAB8BAB8BA99CA998AF8FAB8FA998AD50
S11348700197F1F798AF8FAB88E291E02091340271
S1134880FC0120838AE291E020913402FC01208320
S1134890E8960FB6F894DEBF0FBECDBFDF91CF917F
S11348A00895CF93DF93CDB7DEB78AE790E0FC019C
S11348B010828BE790E0FC0110828CE790E020E20C
S11348C0FC01208380E590E020E8FC0120838AE756
S11348D090E026E8FC012083DF91CF910895CF93E7
S11348E0DF93CDB7DEB7F8940E94CE10DADF0E94D2
S11348F06D0F0E94220F78940E94AD000E9433062F
S1134900DF91CF910895CF93DF931F921F92CDB77C
S1134910DEB79A83898389819A818130910529F44C
S113492080911C0290911D026EC089819A8182300F
S1134930910529F480911E0290911F0264C089811F
S11349409A818330910529F480912002909121026B
S11349505AC089819A818430910529F48091220278
S11349609091230250C089819A818530910529F460
S1134970809124029091250246C089819A818630D3
S1134980910529F480912602909127023CC08981E7
S11349909A818730910529F4809128029091290207
S11349A032C089819A818830910529F480912A0244
S11349B090912B0228C089819A818930910529F42C
S11349C080912C0290912D021EC089819A818A3097
S11349D0910529F480912E0290912F0214C08981AF
S11349E09A818B30910529F48091300290913102A3
S11349F00AC089819A818C30910529F48091320210
S1134A009091330200C00F900F90DF91CF910895E1
S1134A10CF93DF93CDB7DEB72D970FB6F894DEBFF3
S1134A200FBECDBF98878F8369875B874A873D8791
S1134A302C878C859D85FC01808191819E838D834B
S1134A401A8219827BC11C821B8251C089819A817E
S1134A50880F991F2F813885820F931FFC01808155
S1134A6091819C01220F331F220F331F8B819C8164
S1134A70820F931F880F991F87509C4FFC01208140
S1134A80318189819A810196880F991F4F815885B8
S1134A90840F951FFC01808191812817390711F536
S1134AA08B819C81009721F48EE6809307021AC0C3
S1134AB08B819C818130910521F485E680930702E6
S1134AC011C08B819C818230910521F483E780930E
S1134AD0070208C08B819C818330910519F487E714
S1134AE0809307028B819C8101969C838B838B81AD
S1134AF09C81843091050CF4A9CF89858E3671F49C
S1134B00809107028E3651F461E070E080E090E01D
S1134B100E945A1A8091070289870BC189858E36B3
S1134B2079F480910702853659F4D2DA61E070E0B5
S1134B3080E090E00E945A1A809107028987F9C0A8
S1134B4089858E3669F480910702833749F4C0DA87
S1134B50BFDA61E070E080E090E00E945A1AE9C098
S1134B6089858E3679F480910702873759F4A6DC5B
S1134B7061E070E080E090E00E945A1A80910702A0
S1134B808987D7C08985853671F480910702853677
S1134B9051F461E070E080E090E00E945A1A809144
S1134BA007028987C6C08985853679F48091070212
S1134BB0833759F48DDA61E070E080E090E00E9480
S1134BC05A1A809107028987B4C08985853681F491
S1134BD080910702873761F47BDA7ADA61E070E06A
S1134BE080E090E00E945A1A809107028987A1C050
S1134BF08985853679F4809107028E3659F45EDC16
S1134C0061E070E080E090E00E945A1A809107020F
S1134C1089878FC08985833771F480910702833730
S1134C2051F461E070E080E090E00E945A1A8091B3
S1134C30070289877EC08985833779F480910702CA
S1134C40873759F445DA61E070E080E090E00E9433
S1134C505A1A8091070289876CC08985833781F449
S1134C60809107028E3661F433DA32DA61E070E063
S1134C7080E090E00E945A1A80910702898759C007
S1134C808985833779F480910702853659F416DCD7
S1134C9061E070E080E090E00E945A1A809107027F
S1134CA0898747C08985873771F4809107028737E0
S1134CB051F461E070E080E090E00E945A1A809123
S1134CC00702898736C08985873779F4809107027E
S1134CD08E3659F4FDD961E070E080E090E00E94E6
S1134CE05A1A80910702898724C08985873781F4FD
S1134CF080910702853661F4EBD9EAD961E070E06E
S1134D0080E090E00E945A1A80910702898711C0BE
S1134D108985873771F480910702833751F4CEDB9C
S1134D2061E070E080E090E00E945A1A80910702EE
S1134D30898789819A8101969A8389838D819E814D
S1134D409C012150310989819A81821793070CF4BF
S1134D507ACE2D960FB6F894DEBF0FBECDBFDF918D
S1134D60CF910895CF93DF93CDB7DEB7AE970FB64B
S1134D70F894DEBF0FBECDBFB2DD1E821D8210923D
S1134D80CB041092CA0483E7809306028091180230
S1134D90909119029A83898389819A81B4DD9C83D5
S1134DA08B832091CA043091CB048B819C81A9010F
S1134DB0BC0187E392E00E94A90B9E012B5F3F4F49
S1134DC0AE01495F5F4F6B817C818B819C810E9426
S1134DD01A0E4091CA045091CB04609106029E01C0
S1134DE02B5F3F4FCE01079613DECE010796C8D244
S1134DF080E090E0AE960FB6F894DEBF0FBECDBF54
S1134E00DF91CF9108955058BB27AA270ED070C1C7
S1134E1061D130F066D120F031F49F3F11F41EF4DB
S1134E2056C10EF4E095E7FB4CC1E92F72D180F333
S1134E30BA17620773078407950718F071F49EF593
S1134E408AC10EF4E0950B2EBA2FA02D0B01B901E7
S1134E5090010C01CA01A0011124FF27591B99F0EC
S1134E60593F50F4503E68F11A16F040A22F232FF8
S1134E70342F4427585FF3CF469537952795A79548
S1134E80F0405395C9F77EF41F16BA0B620B730BEF
S1134E90840BBAF09150A1F0FF0FBB1F661F771F60
S1134EA0881FC2F70EC0BA0F621F731F841F48F415
S1134EB0879577956795B795F7959E3F08F0B3CF9B
S1134EC09395880F08F09927EE0F97958795089585
S1134ED0D4D008F481E008950CD00AC102D140F086
S1134EE0F9D030F021F45F3F19F0EBC0511134C117
S1134EF0EEC00FD198F39923C9F35523B1F3951B51
S1134F00550BBB27AA2762177307840738F09F5FE6
S1134F105F4F220F331F441FAA1FA9F333D00E2E55
S1134F203AF0E0E830D091505040E695001CCAF7C2
S1134F3029D0FE2F27D0660F771F881FBB1F261787
S1134F4037074807AB07B0E809F0BB0B802DBF015A
S1134F50FF2793585F4F2AF09E3F510568F0B1C078
S1134F60FBC05F3FECF3983EDCF38695779567953D
S1134F70B795F7959F5FC9F7880F911D969587950B
S1134F8097F90895E1E0660F771F881FBB1F62172A
S1134F9073078407BA0720F0621B730B840BBA0BE8
S1134FA0EE1F88F7E0950895BCD088F09F5790F0E5
S1134FB0B92F9927B751A0F0D1F0660F771F881F3A
S1134FC0991F1AF0BA95C9F712C0B13081F0C3D055
S1134FD0B1E00895C0C0672F782F8827B85F39F0F3
S1134FE0B93FCCF3869577956795B395D9F73EF499
S1134FF090958095709561957F4F8F4F9F4F089541
S1135000E89409C097FB3EF490958095709561955E
S11350107F4F8F4F9F4F9923A9F0F92F96E9BB2714
S11350209395F695879577956795B795F111F8CF90
S1135030FAF4BB0F11F460FF1BC06F5F7F4F8F4FFB
S11350409F4F16C0882311F096E911C0772321F0F1
S11350509EE8872F762F05C0662371F096E8862F89
S113506070E060E02AF09A95660F771F881FDAF7E0
S1135070880F9695879597F90895990F0008550F0D
S1135080AA0BE0E8FEEF16161706E807F907C0F0CA
S113509012161306E407F50798F0621B730B840BD2
S11350A0950B39F40A2661F0232B242B252B21F4AC
S11350B008950A2609F4A140A6958FEF811D811D4C
S11350C0089597F99F6780E870E060E008959FEF86
S11350D080EC089500240A9416161706180609068B
S11350E0089500240A94121613061406050608955A
S11350F0092E0394000C11F4882352F0BB0F40F4E2
S1135100BF2B11F460FF04C06F5F7F4F8F4F9F4F21
S1135110089557FD9058440F551F59F05F3F71F0A3
S11351204795880F97FB991F61F09F3F79F087950A
S11351300895121613061406551FF2CF4695F1DF93
S113514008C0161617061806991FF1CF8695710523
S1135150610508940895E894BB2766277727CB0157
S113516097F908958ADF08F48FEF08950BD0C0CF24
S1135170B1DF28F0B6DF18F0952309F0A2CFA7CF4E
S11351801124EACFC6DFA0F3959FD1F3950F50E029
S1135190551F629FF001729FBB27F00DB11D639FE5
S11351A0AA27F00DB11DAA1F649F6627B00DA11D8B
S11351B0661F829F2227B00DA11D621F739FB00D31
S11351C0A11D621F839FA00D611D221F749F3327A1
S11351D0A00D611D231F849F600D211D822F762F3A
S11351E06A2F11249F5750408AF0E1F088234AF037
S11351F0EE0FFF1FBB1F661F771F881F9150504083
S1135200A9F79E3F510570F05CCFA6CF5F3FECF34A
S1135210983EDCF3869577956795B795F795E7956E
S11352209F5FC1F7FE2B880F911D9695879597F97F
S11352300895A29FB001B39FC001A39F700D811D6B
S11352401124911DB29F700D811D1124911D08958B
S1135250CF93DF938230910510F482E090E0E091E7
S11352602A05F0912B0520E030E0A0E0B0E0309773
S113527039F14081518148175907B8F04817590747
S113528071F482819381109729F013969C938E93E5
S113529012972CC090932B0580932A0527C02115C3
S11352A0310531F04217530718F0A901DB0101C0A1
S11352B0EF019A01BD01DF010280F381E02DD7CF18
S11352C021153105F9F0281B390B2430310580F400
S11352D08A819B816115710521F0FB01938382838F
S11352E004C090932B0580932A05FE01329644C096
S11352F0FE01E20FF31F8193919322503109398308
S113530028833AC02091280530912905232B41F4A4
S1135310209102023091030230932905209328053D
S113532020910002309101022115310541F42DB77D
S11353303EB74091040250910502241B350BE091C5
S11353402805F0912905E217F307A0F42E1B3F0B63
S11353502817390778F0AC014E5F5F4F24173507E3
S113536048F04E0F5F1F5093290540932805819301
S1135370919302C0E0E0F0E0CF01DF91CF91089576
S1135380CF93DF93009709F487C0FC01329713820F
S11353901282C0912A05D0912B05209781F4208197
S11353A03181280F391F8091280590912905821792
S11353B0930779F5F0932905E09328056DC0DE0184
S11353C020E030E0AE17BF0750F412964D915C9187
S11353D013979D014115510509F1DA01F3CFB38308
S11353E0A28340815181840F951F8A179B0771F412
S11353F08D919C911197840F951F029691838083C0
S113540012968D919C911397938382832115310574
S113541029F4F0932B05E0932A053EC0D901139695
S1135420FC93EE9312974D915D91A40FB51FEA176B
S1135430FB0779F480819181840F951F0296D9012D
S113544011969C938E938281938113969C938E9351
S11354501297E0E0F0E08A819B81009719F0FE0149
S1135460EC01F9CFCE01029628813981820F931F76
S113547020912805309129052817390769F43097B8
S113548029F410922B0510922A0502C0138212826D
S1135490D0932905C0932805DF91CF910895F894FE
S10554A0FFCF38
S11354A200002C052000776E03000B0009000500A4
S11354B204000700010000000200080001000100CE
S11354C20D000D00040004000B000B000600060092
S11354D209000900FFB9CD0000020000000000002D
S11354E200000000000000000000000000000000B6
S11354F200000002000200000001000000000000A1
S11355020000000000000000000000000000000095
S11355120000000000010000000100000000000083
S11355220000000000000000000000000000000075
S11355320000000000010000000100000000000063
S1135542000000000000000000060000000000004F
S11355520000000000010000000100000000000043
S11355620000000000000000000000000000000035
S11355720000000000010000000100000000000023
S1135582000800000000000000000000000000000D
S11355920000000000010000000100000000000003
S11355A200000000000000000000000000000000F5
S11355B200000000000100000008000000000000DC
S11355C200000000000000000000000000000000D5
S11355D200000000000800000001000000000000BC
S11355E200000000000000000000000000000000B5
S11355F200000000000100000001000000000000A3
S1135602000000000000000000000000000800008C
S11356120000000000010000000100000000000082
S11356220000000000000000000000000000000074
S11356320000000000010000000100000000000062
S1135642000000000006000000000000000000004E
S11356520000000000010000000100000000000042
S11356620000000000000000000000000000000034
S11356720000000000010000000100020000000020
S11356820000000000000000000000000000000014
S113569200000000000100000000000E00000001F4
S11356A200020000000000000003000000010000EE
S11356B20004000C000200000005000000030000CA
S11356C20006000A000400000007000000050000B4
S11356D200000008000600000000000000090007A6
S11356E200080000000A000000090000000B000589
S11356F2000A0000000C0000000B0000000D000373
S1135702000C0000000E0000000D0000000000006C
S1135712004C696E652D466F6C6C6F77657200572D
S1135722616C6C2D466F6C6C6F776572005A696799
S11357322D5A61670020454E4420002D2D2D2D2D1C
S11357422A2A2A2A2D2D2D2D2D0053746174696362
S11357520052656F7269656E746174696F6E004997
S10D57626E76657273696F6E0000C5
S9030000FC
