:1000000071C0000090C000008EC000008CC00000D5
:100010008AC000000C94F6090C94C90984C0000041
:1000200082C0000080C000007EC000007CC00000D4
:100030007AC0000078C0000076C0000074C00000E4
:1000400072C0000070C000006EC000006CC00000F4
:100050006AC0000068C0000066C0000064C0000004
:1000600062C0000060C000005EC000005CC0000014
:100070005AC0000058C0000056C0000054C0000024
:1000800052C0000050C000004EC000004CC0000034
:100090004AC0000048C0000046C0000044C0000044
:1000A00042C0000040C000003EC000003CC0000054
:1000B0003AC0000038C0000036C0000034C0000064
:1000C00032C0000030C000002EC000002CC0000074
:1000D0002AC0000028C0000026C0000024C0000084
:1000E00022C0000011241FBECFEFD1E2DEBFCDBF82
:1000F00000E00CBF12E0A0E0B2E0E2EDF6E100E0CB
:100100000BBF02C007900D92A030B107D9F722E0D3
:10011000A0E0B2E001C01D92A830B207E1F70E9452
:10012000510A0C94670B6CCFCF93DF93CDB7DEB73A
:1001300087E290E027E230E0F9012081276FFC019F
:10014000208388E290E028E230E0F90120812870E5
:10015000FC012083DF91CF9108950F931F93CF93DC
:10016000DF93CDB7DEB7C057D1090FB6F894DEBF25
:100170000FBECDBF80E090E0A0E8BFE389839A8303
:10018000AB83BC8326E636E646E655E469817A8190
:100190008B819C810E94040BDC01CB018D839E83AB
:1001A000AF83B88720E030E040E85FE36D817E8177
:1001B0008F8198850E945B0A88232CF481E090E06F
:1001C0009A8789873FC020E03FEF4FE757E46D8172
:1001D0007E818F8198850E94000B18164CF520E0D7
:1001E00030E040E251E469817A818B819C810E94F8
:1001F000040BDC01CB01BC01CD010E945F0ADC01D4
:10020000CB019A8789870FC080E791E09C878B8715
:100210008B859C850197F1F79C878B8789859A85CB
:1002200001979A87898789859A85009769F714C00D
:100230006D817E818F8198850E945F0ADC01CB01F0
:100240009A87898789859A859E878D878D859E85E2
:100250000197F1F79E878D8788E290E028E230E0F1
:10026000F90120812E7FFC01208388E290E028E2C2
:1002700030E0F90120812D7FFC01208388E290E0AD
:1002800020E3FC01208388E290E028E230E0F901DD
:1002900020812460FC01208380E090E0A0EAB0E4AB
:1002A0008F87988BA98BBA8B26E636E646E655E40F
:1002B0006F85788989899A890E94040BDC01CB01BA
:1002C0008B8B9C8BAD8BBE8B20E030E040E85FE3F6
:1002D0006B897C898D899E890E945B0A88232CF416
:1002E00081E090E0988F8F8B3FC020E03FEF4FE799
:1002F00057E46B897C898D899E890E94000B1816B2
:100300004CF520E030E040E251E46F85788989893E
:100310009A890E94040BDC01CB01BC01CD010E9433
:100320005F0ADC01CB01988F8F8B0FC080E791E0D3
:100330009A8F898F898D9A8D0197F1F79A8F898F7E
:100340008F89988D0197988F8F8B8F89988D0097C3
:1003500069F714C06B897C898D899E890E945F0A28
:10036000DC01CB01988F8F8B8F89988D9C8F8B8F21
:100370008B8D9C8D0197F1F79C8F8B8F88E290E09D
:1003800028E230E0F90120812B7FFC01208380E00E
:1003900090E0A0E8BFE38D8F9E8FAF8FB8A326E6D5
:1003A00036E646E655E46D8D7E8D8F8D98A10E94D0
:1003B000040BDC01CB0189A39AA3ABA3BCA320E06F
:1003C00030E040E85FE369A17AA18BA19CA10E9483
:1003D0005B0A88232CF481E090E09EA38DA33FC0AC
:1003E00020E03FEF4FE757E469A17AA18BA19CA1E0
:1003F0000E94000B18164CF520E030E040E251E47A
:100400006D8D7E8D8F8D98A10E94040BDC01CB0138
:10041000BC01CD010E945F0ADC01CB019EA38DA32C
:100420000FC080E791E098A78FA38FA198A50197AF
:10043000F1F798A78FA38DA19EA101979EA38DA3ED
:100440008DA19EA1009769F714C069A17AA18BA123
:100450009CA10E945F0ADC01CB019EA38DA38DA10C
:100460009EA19AA789A789A59AA50197F1F79AA7AE
:1004700089A788E290E028E230E0F90120812E7F10
:10048000FC01208388E290E028E230E0F90120813D
:100490002D7FFC01208388E290E020E3FC01208393
:1004A00088E290E028E230E0F90120812460FC013C
:1004B000208380E090E0A0EAB0E48BA79CA7ADA7E2
:1004C000BEA726E636E646E655E46BA57CA58DA5D7
:1004D0009EA50E94040BDC01CB018FA798ABA9ABB2
:1004E000BAAB20E030E040E85FE36FA578A989A9C6
:1004F0009AA9E1D788232CF481E090E09CAB8BABE8
:100500003DC020E03FEF4FE757E46FA578A989A9E8
:100510009AA90E94000B181644F520E030E040E252
:1005200051E46BA57CA58DA59EA50E94040BDC0162
:10053000CB01BC01CD01C3D7DC01CB019CAB8BABA4
:100540000FC080E791E09EAB8DAB8DA99EA901976E
:10055000F1F79EAB8DAB8BA99CA901979CAB8BABA4
:100560008BA99CA9009769F713C06FA578A989A9E1
:100570009AA9A5D7DC01CB019CAB8BAB8BA99CA91D
:1005800098AF8FAB8FA998AD0197F1F798AF8FAB6C
:1005900088E290E028E230E0F90120812B7FFC0125
:1005A000208380E090E0A0E8BFE389AF9AAFABAFD3
:1005B000BCAF26E636E646E655E469AD7AAD8BADCE
:1005C0009CAD0E94040BDC01CB019E01235C3F4FDC
:1005D000F90180839183A283B38320E030E040E877
:1005E0005FE3CE01CD96FC016081718182819381B0
:1005F00062D788234CF4CE018F5B9F4F21E030E01F
:10060000FC013183208363C020E03FEF4FE757E4D4
:10061000CE01CD96FC016081718182819381F0D7FA
:1006200018160CF044C020E030E040E251E469AD1F
:100630007AAD8BAD9CADE8D7DC01CB018E010F5BB1
:100640001F4FBC01CD013BD7DC01CB01F8019183E9
:10065000808324C0CE018D5B9F4F20E731E0FC01F9
:1006600031832083CE018D5B9F4FFC01808191817E
:100670000197F1F79E012D5B3F4FF9019183808334
:10068000CE018F5B9F4F9E012F5B3F4FF901208171
:10069000318121503109FC0131832083CE018F5BF0
:1006A0009F4FFC01808191810097A1F62AC08E01A5
:1006B0000F5B1F4FCE01CD96FC016081718182815D
:1006C0009381FDD6DC01CB01F80191838083CE01BB
:1006D0008B5B9F4F9E012F5B3F4FF9012081318142
:1006E000FC0131832083CE018B5B9F4FFC01808115
:1006F00091810197F1F79E012B5B3F4FF9019183A7
:10070000808388E290E028E230E0F90120812E7FAA
:10071000FC01208388E290E028E230E0F9012081AA
:100720002D7FFC01208388E290E020E3FC01208300
:1007300088E290E028E230E0F90120812460FC01A9
:1007400020839E01295B3F4F80E090E0A0EAB0E467
:10075000F90180839183A283B3838E01055B1F4FD0
:10076000CE01895B9F4F26E636E646E655E4FC015E
:10077000608171818281938147D7DC01CB01F801CF
:1007800080839183A283B383CE01855B9F4F20E05A
:1007900030E040E85FE3FC016081718182819381F8
:1007A0008AD688234CF4CE01815B9F4F21E030E054
:1007B000FC013183208369C0CE01855B9F4F20E01F
:1007C0003FEF4FE757E4FC016081718182819381A3
:1007D00017D718160CF048C0CE01895B9F4F20E058
:1007E00030E040E251E4FC016081718182819381BB
:1007F0000BD7DC01CB018E01015B1F4FBC01CD018A
:100800005ED6DC01CB01F8019183808324C0CE0148
:100810008F5A9F4F20E731E0FC0131832083CE01C6
:100820008F5A9F4FFC01808191810197F1F79E01C2
:100830002F5A3F4FF90191838083CE01815B9F4FF7
:100840009E01215B3F4FF901208131812150310907
:10085000FC0131832083CE01815B9F4FFC018081AD
:1008600091810097A1F62BC08E01015B1F4FCE0135
:10087000855B9F4FFC0160817181828193811FD6CE
:10088000DC01CB01F80191838083CE018D5A9F4F0B
:100890009E01215B3F4FF90120813181FC013183B1
:1008A0002083CE018D5A9F4FFC0180819181019759
:1008B000F1F79E012D5A3F4FF9019183808388E221
:1008C00090E028E230E0F90120812B7FFC012083B9
:1008D0009E012B5A3F4F80E090E0A0E8BFE3F90172
:1008E00080839183A283B3838E01075A1F4FCE0169
:1008F0008B5A9F4F26E636E646E655E4FC016081BA
:1009000071818281938180D6DC01CB01F8018083E3
:100910009183A283B383CE01875A9F4F20E030E0BA
:1009200040E85FE3FC016081718182819381C3D5DE
:1009300088234CF4CE01835A9F4F21E030E0FC0124
:100940003183208369C0CE01875A9F4F20E03FEF5B
:100950004FE757E4FC01608171818281938150D619
:1009600018160CF048C0CE018B5A9F4F20E030E0A3
:1009700040E251E4FC01608171818281938144D61F
:10098000DC01CB018E01035A1F4FBC01CD0197D56D
:10099000DC01CB01F8019183808324C0CE01815A10
:1009A0009F4F20E731E0FC0131832083CE01815A43
:1009B0009F4FFC01808191810197F1F79E01215A9F
:1009C0003F4FF90191838083CE01835A9F4F9E014F
:1009D000235A3F4FF9012081318121503109FC0117
:1009E00031832083CE01835A9F4FFC018081918106
:1009F0000097A1F62BC08E01035A1F4FCE01875AD4
:100A00009F4FFC01608171818281938158D5DC0107
:100A1000CB01F80191838083CE018F599F4F9E01B6
:100A2000235A3F4FF90120813181FC01318320831A
:100A3000CE018F599F4FFC01808191810197F1F781
:100A40009E012F593F4FF9019183808388E290E006
:100A500028E230E0F90120812E7FFC01208388E22A
:100A600090E028E230E0F90120812D7FFC01208315
:100A700088E290E020E2FC01208388E290E028E216
:100A800030E0F90120812460FC0120839E012D5972
:100A90003F4F80E090E0A0EAB0E4F90180839183C9
:100AA000A283B3838E0109591F4FCE018D599F4FE9
:100AB00026E636E646E655E4FC01608171818281D6
:100AC0009381A2D5DC01CB01F80180839183A283BD
:100AD000B383CE0189599F4F20E030E040E85FE3C7
:100AE000FC016081718182819381E5D488234CF47B
:100AF000CE0185599F4F21E030E0FC0131832083F6
:100B000069C0CE0189599F4F20E03FEF4FE757E47E
:100B1000FC01608171818281938172D518160CF07D
:100B200048C0CE018D599F4F20E030E040E251E4B3
:100B3000FC01608171818281938166D5DC01CB01EA
:100B40008E0105591F4FBC01CD01B9D4DC01CB0189
:100B5000F8019183808324C0CE0183599F4F20E701
:100B600031E0FC0131832083CE0183599F4FFC018A
:100B7000808191810197F1F79E0123593F4FF9013F
:100B800091838083CE0185599F4F9E0125593F4F08
:100B9000F9012081318121503109FC013183208309
:100BA000CE0185599F4FFC01808191810097A1F66C
:100BB0002BC08E0105591F4FCE0189599F4FFC0153
:100BC00060817181828193817AD4DC01CB01F8014B
:100BD00091838083CE0181599F4F9E0125593F4FBC
:100BE000F90120813181FC0131832083CE018159BB
:100BF0009F4FFC01808191810197F1F79E0121595E
:100C00003F4FF9019183808388E290E028E230E051
:100C1000F90120812B7FFC012083C059DF4F0FB6E3
:100C2000F894DEBF0FBECDBFDF91CF911F910F9122
:100C30000895CF93DF93CDB7DEB72E970FB6F89414
:100C4000DEBF0FBECDBF89DA80E090E0A0E8BFE351
:100C500089839A83AB83BC8326E636E646E655E471
:100C600069817A818B819C81CFD4DC01CB018D831A
:100C70009E83AF83B88720E030E040E85FE36D817A
:100C80007E818F81988517D488232CF481E090E0B1
:100C90009A8789873BC020E03FEF4FE757E46D819B
:100CA0007E818F819885ACD418163CF520E030E029
:100CB00040E251E469817A818B819C81A5D4DC0179
:100CC000CB01BC01CD01FBD3DC01CB019A87898725
:100CD0000FC080E791E09C878B878B859C8501976F
:100CE000F1F79C878B8789859A8501979A878987F1
:100CF00089859A85009769F713C06D817E818F8100
:100D00009885DDD3DC01CB019A87898789859A850F
:100D10009E878D878D859E850197F1F79E878D87AC
:100D200088E211D081E00FD086E00DD08EE00BD0AC
:100D300080E809D02E960FB6F894DEBF0FBECDBF67
:100D4000DF91CF910895CF93DF93CDB7DEB76E9744
:100D50000FB6F894DEBF0FBECDBF8E8F8E8D898308
:100D60008981807F898388E290E028E230E0F90180
:100D700020812F70FC01208388E290E028E230E09F
:100D8000F90130812981232BFC01208388E290E046
:100D900028E230E0F90120812E7FFC01208388E2E7
:100DA00090E028E230E0F90120812D7FFC012083D2
:100DB00088E290E028E230E0F90120812460FC0123
:100DC000208380E090E0A0EAB0E48A839B83AC8338
:100DD000BD8326E636E646E655E46A817B818C8152
:100DE0009D8112D4DC01CB018E839F83A887B987B4
:100DF00020E030E040E85FE36E817F81888599855F
:100E00005AD388232CF481E090E09B878A873BC0EB
:100E100020E03FEF4FE757E46E817F818885998519
:100E2000EFD318163CF520E030E040E251E46A814F
:100E30007B818C819D81E8D3DC01CB01BC01CD019C
:100E40003ED3DC01CB019B878A870FC080E791E00E
:100E50009D878C878C859D850197F1F79D878C8771
:100E60008A859B8501979B878A878A859B850097C2
:100E700069F713C06E817F818885998520D3DC0155
:100E8000CB019B878A878A859B859F878E878E85E6
:100E90009F850197F1F79F878E8788E290E028E28F
:100EA00030E0F90120812B7FFC0120838E8D8F7033
:100EB0008E8F8E8D8295807F8E8F88E290E028E2E3
:100EC00030E0F90120812F70FC01208388E290E05E
:100ED00028E230E0F90130812E8D232BFC012083A4
:100EE00088E290E028E230E0F90120812E7FFC01C9
:100EF000208388E290E028E230E0F90120812D7F14
:100F0000FC01208388E290E028E230E0F9012081B2
:100F10002460FC01208380E090E0A0EAB0E4888BAC
:100F2000998BAA8BBB8B26E636E646E655E46889A4
:100F300079898A899B8968D3DC01CB018C8B9D8B55
:100F4000AE8BBF8B20E030E040E85FE36C897D89A9
:100F50008E899F89B0D288232CF481E090E0998F0C
:100F6000888F3BC020E03FEF4FE757E46C897D89D5
:100F70008E899F8945D318163CF520E030E040E289
:100F800051E4688979898A899B893ED3DC01CB0148
:100F9000BC01CD0194D2DC01CB01998F888F0FC0A9
:100FA00080E791E09B8F8A8F8A8D9B8D0197F1F767
:100FB0009B8F8A8F888D998D0197998F888F888DC7
:100FC000998D009769F713C06C897D898E899F89F7
:100FD00076D2DC01CB01998F888F888D998D9D8F7A
:100FE0008C8F8C8D9D8D0197F1F79D8F8C8F88E272
:100FF00090E028E230E0F90120812B7FFC01208382
:101000006E960FB6F894DEBF0FBECDBFDF91CF91C5
:101010000895CF93DF93CDB7DEB781E890E0FC0170
:10102000108285E890E02CEFFC01208384E890E0BA
:1010300021E0FC01208389E890E023E0FC0120838B
:1010400088E890E02FEFFC0120838BE890E023E01C
:10105000FC0120838AE890E02FEFFC0120838DE8DB
:1010600090E023E0FC0120838CE890E02FEFFC016E
:10107000208387E890E023E0FC01208386E890E06D
:101080002FEFFC01208380E890E02BEAFC01208315
:1010900082E890E0FC01108281E890E02CE0FC0105
:1010A0002083DF91CF910895CF93DF93CDB7DEB743
:1010B00081E291E0FC01108285E291E02FEFFC01DA
:1010C000208384E291E021E0FC01208389E291E029
:1010D000FC01108288E291E02FEFFC0120838BE27B
:1010E00091E0FC0110828AE291E02FEFFC01208365
:1010F0008DE291E0FC0110828CE291E02FEFFC0187
:10110000208380E291E029EAFC01208381E291E0E2
:101110002BE0FC012083DF91CF910895CF93DF93E3
:10112000CDB7DEB783E390E023E330E0F90120811F
:101130002860FC01208384E390E024E330E0F9019F
:101140002081277FFC012083DF91CF910895CF93E9
:10115000DF93CDB7DEB781E290E021E230E0F90124
:1011600020812F60FC01208382E290E022E230E0C7
:10117000F9012081207FFC0120838AE091E02AE0B0
:1011800031E0F90120812861FC0120838BE091E0AE
:101190002BE031E0F90120812861FC012083DF91FF
:1011A000CF910895CF93DF93CDB7DEB78DE290E076
:1011B0002DE230E0F90120812F7EFC0120838EE2B8
:1011C00090E02EE230E0F90120812061FC012083D3
:1011D000DF91CF910895CF93DF93CDB7DEB78DE246
:1011E00090E02DE230E0F90120812F7DFC01208389
:1011F0008EE290E02EE230E0F90120812062FC01D5
:101200002083DF91CF910895CF93DF93CDB7DEB7E1
:10121000F8948AE690E02AE630E0F9012081226025
:10122000FC0120838DE390E02DE330E0F901208183
:101230002061FC0120837894DF91CF910895CF93B2
:10124000DF93CDB7DEB7F8948AE690E02AE630E087
:10125000F90120812860FC0120838DE390E02DE3DB
:1012600030E0F90120812062FC0120837894DF9135
:10127000CF910895CF93DF93CDB7DEB784E290E0AE
:1012800024E230E0F90120812062FC01208385E224
:1012900090E025E230E0F90120812062FC0120830A
:1012A000DF91CF910895CF93DF93CDB7DEB784E27E
:1012B00090E024E230E0F90120812064FC012083E9
:1012C00085E290E025E230E0F90120812064FC0114
:1012D0002083DF91CF910895CF93DF93CDB7DEB711
:1012E00084E290E024E230E0F90120812068FC01F2
:1012F000208385E290E025E230E0F901208120683A
:10130000FC012083DF91CF910895CF93DF93CDB778
:10131000DEB781E091E0FC01808181E091E02FEF78
:10132000FC01208382E091E022E031E0F90120819C
:101330002E7FFC012083DF91CF910895CF93DF931F
:10134000CDB7DEB780E390E0FC01108281E390E04E
:10135000FC01108287E091E0FC01108288E091E0BE
:10136000FC011082DF91CF910895CF93DF93CDB729
:10137000DEB7D4DEECDE16DF2EDF46DF60DF7ADF9D
:1013800092DFAADFC2DF0E949400D8DFDF91CF9105
:1013900008951F920F9200905F000F9211248F9377
:1013A0009F93AF93BF93CF93DF93CDB7DEB7809179
:1013B000040290910502A0910602B09107020196E5
:1013C000A11DB11D8093040290930502A093060213
:1013D000B0930702DF91CF91BF91AF919F918F9111
:1013E0000F9000925F000F901F9018951F920F9220
:1013F00000905F000F9211248F939F93AF93BF9340
:10140000CF93DF93CDB7DEB78091000290910102B8
:10141000A0910202B09103020196A11DB11D80931B
:10142000000290930102A0930202B0930302DF91A5
:10143000CF91BF91AF919F918F910F9000925F00DC
:101440000F901F901895CF93DF93CDB7DEB78AE743
:1014500090E0FC0110828BE790E0FC0110828CE7A9
:1014600090E020E2FC01208380E590E020E8FC0190
:1014700020838AE790E026E8FC012083DF91CF916A
:101480000895CF93DF93CDB7DEB7F8946EDFDBDF3F
:101490000BDEBFDD78940E94AD00CBDBDF91CF91F6
:1014A0000895CF93DF93CDB7DEB7EBDF80E090E018
:1014B000DF91CF9108952FD008F481E008957FD077
:1014C00088F09F5790F0B92F9927B751A0F0D1F02D
:1014D000660F771F881F991F1AF0BA95C9F712C0B7
:1014E000B13081F086D0B1E0089583C0672F782FA6
:1014F0008827B85F39F0B93FCCF386957795679523
:10150000B395D9F73EF490958095709561957F4F8E
:101510008F4F9F4F0895990F0008550FAA0BE0E8D1
:10152000FEEF16161706E807F907C0F012161306A5
:10153000E407F50798F0621B730B840B950B39F4E5
:101540000A2661F0232B242B252B21F408950A264B
:1015500009F4A140A6958FEF811D811D089597F98B
:101560009F6780E870E060E008959FEF80EC089549
:1015700000240A9416161706180609060895002472
:101580000A9412161306140605060895092E0394EC
:10159000000C11F4882352F0BB0F40F4BF2B11F460
:1015A00060FF04C06F5F7F4F8F4F9F4F089557FDBF
:1015B0009058440F551F59F05F3F71F04795880FC1
:1015C00097FB991F61F09F3F79F087950895121658
:1015D00013061406551FF2CF4695F1DF08C0161604
:1015E00017061806991FF1CF8695710561050894B5
:1015F0000895E894BB2766277727CB0197F90895CC
:101600008ADF08F48FEF08950BD0C0CFB1DF28F048
:10161000B6DF18F0952309F0A2CFA7CF1124EACFA7
:10162000C6DFA0F3959FD1F3950F50E0551F629F41
:10163000F001729FBB27F00DB11D639FAA27F00D2B
:10164000B11DAA1F649F6627B00DA11D661F829F52
:101650002227B00DA11D621F739FB00DA11D621F37
:10166000839FA00D611D221F749F3327A00D611D54
:10167000231F849F600D211D822F762F6A2F112436
:101680009F5750408AF0E1F088234AF0EE0FFF1F89
:10169000BB1F661F771F881F91505040A9F79E3FC0
:1016A000510570F05CCFA6CF5F3FECF3983EDCF3C2
:1016B000869577956795B795F795E7959F5FC1F7FD
:1016C000FE2B880F911D9695879597F90895F894AC
:0216D000FFCF4A
:00000001FF
