:1000000071C000008EC000008CC000008AC00000DB
:1000100088C0000086C0000084C0000082C00000CC
:1000200080C000007EC000007CC000007AC00000DC
:1000300078C0000076C0000074C0000072C00000EC
:1000400070C000006EC000006CC000006AC00000FC
:1000500068C0000066C0000064C0000062C000000C
:1000600060C000005EC000005CC000005AC000001C
:1000700058C0000056C0000054C0000052C000002C
:1000800050C000004EC000004CC000004AC000003C
:1000900048C0000046C0000044C0000042C000004C
:1000A00040C000003EC000003CC000003AC000005C
:1000B00038C0000036C0000034C0000032C000006C
:1000C00030C000002EC000002CC000002AC000007C
:1000D00028C0000026C0000024C0000022C000008C
:1000E00020C0000011241FBECFEFD1E2DEBFCDBF84
:1000F00000E00CBF12E0A0E0B2E0ECE8F8E000E0C5
:100100000BBF02C007900D92A030B107D9F722E0D3
:10011000A0E0B2E001C01D92A030B207E1F71ED20C
:10012000B3C36ECF87B1876F87B988B1887088B93C
:10013000089586E69EE00197F1F700004098419807
:1001400080E388B9429A8FEF97E40197F1F700C0F6
:100150000000429886E69EE00197F1F70000409883
:10016000419880E388B9429A8FEF97E40197F1F7BD
:1001700000C00000429886E69EE00197F1F700007B
:100180004098419880E388B9429A8FEF97E40197AD
:10019000F1F700C00000429886E69EE00197F1F773
:1001A00000004098419880E288B9429A8FEF97E426
:1001B0000197F1F700C000004298089598B19F7030
:1001C00098B998B1282F207F922B98B940984198E0
:1001D000429AEFEFF7E43197F1F700C00000429840
:1001E00098B19F7098B998B18295807F892B88B912
:1001F00040984198429A8FEF97E40197F1F700C039
:1002000000004298089595DF86E69EE00197F1F799
:10021000000088E2D3DF81E0D1DF86E0CFDF8EE02F
:10022000CDDF80E8CBCF0895E1E8F0E010828CEFDD
:100230008093850081E08093840093E0909389000F
:100240008FEF8093880090938B0080938A00909327
:100250008D0080938C0090938700809386008BEABA
:1002600080938000109282008CE080830895E1E208
:10027000F1E010828FEF8093250191E090932401AB
:10028000109229018093280110922B0180932A015A
:1002900010922D0180932C0189EA809320018BE03C
:1002A000808308959B9AA398089581B18F6081B946
:1002B00082B1807F82B9EAE0F1E080818861808349
:1002C000EBE0F1E08081886180830895259A2D9A82
:1002D0000895269A2E9A0895279A2F9A0895E1E074
:1002E000F1E080818FEF8083E2E0F1E080818E7F1A
:1002F0008083089510BA11BA109207011092080174
:100300000895D0DFD2DFE2DFE4DFE6DFE8DF0ADFF7
:10031000F1CF089510928B00682F70E080E090E09C
:1003200025D22BE734E14EEE5FE38CD120E030E0C4
:100330004CE052E423D1EED160938A00089583E02B
:10034000809389008FEF80938800089583E08093E5
:100350008B008FEF80938A000895CF93E2E0F1E065
:100360008081816080832FEF8FE794E0215080406F
:100370009040E1F700C000002FEF8FE794E021509C
:1003800080409040E1F700C000001092890086E5AF
:10039000809388002FEF8FEF91E1215080409040B3
:1003A000E1F700C00000CBDF2FEF8FE794E0215092
:1003B00080409040E1F700C0000010928D008EE672
:1003C00080938C002FEF8FEB91E221508040904082
:1003D000E1F700C00000C0E08C2F9CDF86E696E5C8
:1003E0000197F1F70000CF5FC938B1F79FEF2FE712
:1003F00084E0915020408040E1F700C0000010925E
:100400008D0083E280938C009FEF2FEB81E291506F
:1004100020408040E1F700C000008FE07BDF9FEFCD
:100420002FEF8CE2915020408040E1F700C00000A7
:100430008DDFCF910895CF93E2E0F1E08081886075
:1004400080832FEF8FE794E0215080409040E1F7C8
:1004500000C000002FEF8FE794E0215080409040D3
:10046000E1F700C000001092890085E480938800C5
:100470002FEF8FEF91E1215080409040E1F700C0D5
:1004800000005DDF2FEF8FE794E021508040904027
:10049000E1F700C0000010928D0088E280938C008C
:1004A0002FEF8FEB91E2215080409040E1F700C0A8
:1004B0000000C0E08C2F2EDF86E696E50197F1F76D
:1004C0000000CF5FC938B1F79FEF2FE784E091506C
:1004D00020408040E1F700C0000010928D008BE7C3
:1004E00080938C009FEF2FEB81E291502040804061
:1004F000E1F700C000008FE00DDF9FEF2FEF8CE2EF
:10050000915020408040E1F700C000001FDF1092B2
:10051000890083E5809388009FEF2FEB81E2915063
:1005200020408040E1F700C0000009DFCF9108952E
:10053000EAE7F0E0108210927B0080E280937C007A
:1005400080E880BF86E880830895F894DADEF0DFE3
:100550008EDE6ADE7894EDDD56CE0895F6DFFDDEA0
:100560002FEF8FE794E0215080409040E1F700C0EA
:10057000000061DF80E090E008955058BB27AA2773
:100580000ED048C139D130F03ED120F031F49F3F38
:1005900011F41EF42EC10EF4E095E7FB24C1E92FFF
:1005A0004AD180F3BA17620773078407950718F0DA
:1005B00071F49EF562C10EF4E0950B2EBA2FA02DBA
:1005C0000B01B90190010C01CA01A0011124FF2700
:1005D000591B99F0593F50F4503E68F11A16F040FB
:1005E000A22F232F342F4427585FF3CF46953795FA
:1005F0002795A795F0405395C9F77EF41F16BA0BBF
:10060000620B730B840BBAF09150A1F0FF0FBB1F6C
:10061000661F771F881FC2F70EC0BA0F621F731FB5
:10062000841F48F4879577956795B795F7959E3F12
:1006300008F0B3CF9395880F08F09927EE0F9795A0
:10064000879508950CD0E6C0DED040F0D5D030F0CC
:1006500021F45F3F19F0C7C0511110C1CAC0EBD0DF
:1006600098F39923C9F35523B1F3951B550BBB2779
:10067000AA2762177307840738F09F5F5F4F220F26
:10068000331F441FAA1FA9F333D00E2E3AF0E0E81F
:1006900030D091505040E695001CCAF729D0FE2F6B
:1006A00027D0660F771F881FBB1F261737074807FD
:1006B000AB07B0E809F0BB0B802DBF01FF279358B3
:1006C0005F4F2AF09E3F510568F08DC0D7C05F3F55
:1006D000ECF3983EDCF3869577956795B795F7959B
:1006E0009F5FC9F7880F911D9695879597F9089593
:1006F000E1E0660F771F881FBB1F6217730784072F
:10070000BA0720F0621B730B840BBA0BEE1F88F73D
:10071000E095089598D088F09F5790F0B92F9927C9
:10072000B751A0F0D1F0660F771F881F991F1AF0FC
:10073000BA95C9F712C0B13081F09FD0B1E00895E9
:100740009CC0672F782F8827B85F39F0B93FCCF36A
:10075000869577956795B395D9F73EF490958095F2
:10076000709561957F4F8F4F9F4F0895E89409C012
:1007700097FB3EF490958095709561957F4F8F4FD4
:100780009F4F9923A9F0F92F96E9BB279395F695EA
:10079000879577956795B795F111F8CFFAF4BB0F68
:1007A00011F460FF1BC06F5F7F4F8F4F9F4F16C0CC
:1007B000882311F096E911C0772321F09EE8872F56
:1007C000762F05C0662371F096E8862F70E060E012
:1007D0002AF09A95660F771F881FDAF7880F96958B
:1007E000879597F9089597F99F6780E870E060E032
:1007F00008959FEF80EC089500240A9416161706BA
:1008000018060906089500240A9412161306140601
:1008100005060895092E0394000C11F4882352F064
:10082000BB0F40F4BF2B11F460FF04C06F5F7F4F1C
:100830008F4F9F4F089557FD9058440F551F59F003
:100840005F3F71F04795880F97FB991F61F09F3FBD
:1008500079F087950895121613061406551FF2CFE6
:100860004695F1DF08C0161617061806991FF1CF36
:1008700086957105610508940895E894BB2766275D
:0C0880007727CB0197F90895F894FFCF7B
:00000001FF
