:1000000071C0000090C000008EC000008CC00000D5
:100010008AC000000C94A3100C94761084C00000D9
:1000200082C0000080C000007EC000007CC00000D4
:100030007AC0000078C0000076C0000074C00000E4
:1000400072C0000070C000006EC000006CC00000F4
:100050006AC0000068C0000066C0000064C0000004
:1000600062C0000060C000005EC000005CC0000014
:100070005AC0000058C0000056C0000054C0000024
:1000800052C0000050C000004EC000004CC0000034
:100090004AC0000048C0000046C0000044C0000044
:1000A00042C0000040C000003EC000003CC0000054
:1000B0003AC0000038C0000036C0000034C0000064
:1000C00032C0000030C000002EC000002CC0000074
:1000D0002AC0000028C0000026C0000024C0000084
:1000E00022C0000011241FBECFEFD1E2DEBFCDBF82
:1000F00000E00CBF14E0A0E0B2E0E0ECF7E700E0C5
:100100000BBF02C007900D92AC3CB107D9F725E0B8
:10011000ACECB4E001C01D92A634B207E1F70E9436
:10012000B1370C94DE3B6CCFCF93DF93CDB7DEB706
:1001300087E290E027E230E0F9012081276FFC019F
:10014000208388E290E028E230E0F90120812870E5
:10015000FC012083DF91CF9108950F931F93CF93DC
:10016000DF93CDB7DEB7C057D1090FB6F894DEBF25
:100170000FBECDBF80E090E0A0E8BFE389839A8303
:10018000AB83BC8326E636E646E655E469817A8190
:100190008B819C810E94453ADC01CB018D839E833B
:1001A000AF83B88720E030E040E85FE36D817E8177
:1001B0008F8198850E94F73888232CF481E090E0A5
:1001C0009A8789873FC020E03FEF4FE757E46D8172
:1001D0007E818F8198850E94413A18164CF520E067
:1001E00030E040E251E469817A818B819C810E94F8
:1001F000453ADC01CB01BC01CD010E946339DC0131
:10020000CB019A8789870FC080E791E09C878B8715
:100210008B859C850197F1F79C878B8789859A85CB
:1002200001979A87898789859A85009769F714C00D
:100230006D817E818F8198850E946339DC01CB01BD
:100240009A87898789859A859E878D878D859E85E2
:100250000197F1F79E878D8788E290E028E230E0F1
:10026000F90120812E7FFC01208388E290E028E2C2
:1002700030E0F90120812D7FFC01208388E290E0AD
:1002800020E3FC01208388E290E028E230E0F901DD
:1002900020812460FC01208380E090E0A0EAB0E4AB
:1002A0008F87988BA98BBA8B26E636E646E655E40F
:1002B0006F85788989899A890E94453ADC01CB014A
:1002C0008B8B9C8BAD8BBE8B20E030E040E85FE3F6
:1002D0006B897C898D899E890E94F73888232CF44C
:1002E00081E090E0988F8F8B3FC020E03FEF4FE799
:1002F00057E46B897C898D899E890E94413A181642
:100300004CF520E030E040E251E46F85788989893E
:100310009A890E94453ADC01CB01BC01CD010E94C3
:100320006339DC01CB01988F8F8B0FC080E791E0A0
:100330009A8F898F898D9A8D0197F1F79A8F898F7E
:100340008F89988D0197988F8F8B8F89988D0097C3
:1003500069F714C06B897C898D899E890E946339F5
:10036000DC01CB01988F8F8B8F89988D9C8F8B8F21
:100370008B8D9C8D0197F1F79C8F8B8F88E290E09D
:1003800028E230E0F90120812B7FFC01208380E00E
:1003900090E0A0E8BFE38D8F9E8FAF8FB8A326E6D5
:1003A00036E646E655E46D8D7E8D8F8D98A10E94D0
:1003B000453ADC01CB0189A39AA3ABA3BCA320E0FF
:1003C00030E040E85FE369A17AA18BA19CA10E9483
:1003D000F73888232CF481E090E09EA38DA33FC0E2
:1003E00020E03FEF4FE757E469A17AA18BA19CA1E0
:1003F0000E94413A18164CF520E030E040E251E40A
:100400006D8D7E8D8F8D98A10E94453ADC01CB01C8
:10041000BC01CD010E946339DC01CB019EA38DA3F9
:100420000FC080E791E098A78FA38FA198A50197AF
:10043000F1F798A78FA38DA19EA101979EA38DA3ED
:100440008DA19EA1009769F714C069A17AA18BA123
:100450009CA10E946339DC01CB019EA38DA38DA1D9
:100460009EA19AA789A789A59AA50197F1F79AA7AE
:1004700089A788E290E028E230E0F90120812E7F10
:10048000FC01208388E290E028E230E0F90120813D
:100490002D7FFC01208388E290E020E3FC01208393
:1004A00088E290E028E230E0F90120812460FC013C
:1004B000208380E090E0A0EAB0E48BA79CA7ADA7E2
:1004C000BEA726E636E646E655E46BA57CA58DA5D7
:1004D0009EA50E94453ADC01CB018FA798ABA9AB42
:1004E000BAAB20E030E040E85FE36FA578A989A9C6
:1004F0009AA90E94F73888232CF481E090E09CAB05
:100500008BAB3FC020E03FEF4FE757E46FA578A9E2
:1005100089A99AA90E94413A18164CF520E030E0CA
:1005200040E251E46BA57CA58DA59EA50E94453AAD
:10053000DC01CB01BC01CD010E946339DC01CB01A0
:100540009CAB8BAB0FC080E791E09EAB8DAB8DA9D0
:100550009EA90197F1F79EAB8DAB8BA99CA9019742
:100560009CAB8BAB8BA99CA9009769F714C06FA5B6
:1005700078A989A99AA90E946339DC01CB019CABB7
:100580008BAB8BA99CA998AF8FAB8FA998AD019726
:10059000F1F798AF8FAB88E290E028E230E0F90104
:1005A00020812B7FFC01208380E090E0A0E8BFE366
:1005B00089AF9AAFABAFBCAF26E636E646E655E468
:1005C00069AD7AAD8BAD9CAD0E94453ADC01CB01A3
:1005D0009E01235C3F4FF90180839183A283B38303
:1005E00020E030E040E85FE3CE01CD96FC01608181
:1005F0007181828193810E94F73888234CF4CE0167
:100600008F5B9F4F21E030E0FC013183208367C086
:1006100020E03FEF4FE757E4CE01CD96FC0160812B
:100620007181828193810E94413A18160CF046C074
:1006300020E030E040E251E469AD7AAD8BAD9CAD95
:100640000E94453ADC01CB018E010F5B1F4FBC01BC
:10065000CD010E946339DC01CB01F80191838083D5
:1006600024C0CE018D5B9F4F20E731E0FC01318338
:100670002083CE018D5B9F4FFC018081918101978A
:10068000F1F79E012D5B3F4FF90191838083CE01ED
:100690008F5B9F4F9E012F5B3F4FF901208131817E
:1006A00021503109FC0131832083CE018F5B9F4FA4
:1006B000FC01808191810097A1F62BC08E010F5B18
:1006C0001F4FCE01CD96FC016081718182819381A3
:1006D0000E946339DC01CB01F80191838083CE0154
:1006E0008B5B9F4F9E012F5B3F4FF9012081318132
:1006F000FC0131832083CE018B5B9F4FFC01808105
:1007000091810197F1F79E012B5B3F4FF901918396
:10071000808388E290E028E230E0F90120812E7F9A
:10072000FC01208388E290E028E230E0F90120819A
:100730002D7FFC01208388E290E020E3FC012083F0
:1007400088E290E028E230E0F90120812460FC0199
:1007500020839E01295B3F4F80E090E0A0EAB0E457
:10076000F90180839183A283B3838E01055B1F4FC0
:10077000CE01895B9F4F26E636E646E655E4FC014E
:1007800060817181828193810E94453ADC01CB01B5
:10079000F80180839183A283B383CE01855B9F4F51
:1007A00020E030E040E85FE3FC01608171818281FC
:1007B00093810E94F73888234CF4CE01815B9F4FD0
:1007C00021E030E0FC01318320836DC0CE01855BE8
:1007D0009F4F20E03FEF4FE757E4FC0160817181BC
:1007E000828193810E94413A18160CF04AC0CE01D2
:1007F000895B9F4F20E030E040E251E4FC016081E2
:100800007181828193810E94453ADC01CB018E0186
:10081000015B1F4FBC01CD010E946339DC01CB019C
:10082000F8019183808324C0CE018F5A9F4F20E727
:1008300031E0FC0131832083CE018F5A9F4FFC01B0
:10084000808191810197F1F79E012F5A3F4FF90165
:1008500091838083CE01815B9F4F9E01215B3F4F3F
:10086000F9012081318121503109FC01318320833C
:10087000CE01815B9F4FFC01808191810097A1F6A1
:100880002CC08E01015B1F4FCE01855B9F4FFC0189
:1008900060817181828193810E946339DC01CB0187
:1008A000F80191838083CE018D5A9F4F9E01215B79
:1008B0003F4FF90120813181FC0131832083CE013A
:1008C0008D5A9F4FFC01808191810197F1F79E0124
:1008D0002D5A3F4FF9019183808388E290E028E20E
:1008E00030E0F90120812B7FFC0120839E012B5AEF
:1008F0003F4F80E090E0A0E8BFE3F901808391835F
:10090000A283B3838E01075A1F4FCE018B5A9F4F8C
:1009100026E636E646E655E4FC0160817181828177
:1009200093810E94453ADC01CB01F80180839183D9
:10093000A283B383CE01875A9F4F20E030E040E886
:100940005FE3FC0160817181828193810E94F738AD
:1009500088234CF4CE01835A9F4F21E030E0FC0104
:10096000318320836DC0CE01875A9F4F20E03FEF37
:100970004FE757E4FC0160817181828193810E947D
:10098000413A18160CF04AC0CE018B5A9F4F20E016
:1009900030E040E251E4FC01608171818281938109
:1009A0000E94453ADC01CB018E01035A1F4FBC0166
:1009B000CD010E946339DC01CB01F8019183808372
:1009C00024C0CE01815A9F4F20E731E0FC013183E2
:1009D0002083CE01815A9F4FFC0180819181019734
:1009E000F1F79E01215A3F4FF90191838083CE0197
:1009F000835A9F4F9E01235A3F4FF9012081318135
:100A000021503109FC0131832083CE01835A9F4F4D
:100A1000FC01808191810097A1F62CC08E01035AC0
:100A20001F4FCE01875A9F4FFC01608171818281E7
:100A300093810E946339DC01CB01F80191838083AB
:100A4000CE018F599F4F9E01235A3F4FF9012081BC
:100A50003181FC0131832083CE018F599F4FFC01EE
:100A6000808191810197F1F79E012F593F4FF90144
:100A70009183808388E290E028E230E0F9012081D0
:100A80002E7FFC01208388E290E028E230E0F9012B
:100A900020812D7FFC01208388E290E020E2FC0190
:100AA000208388E290E028E230E0F9012081246090
:100AB000FC0120839E012D593F4F80E090E0A0EA89
:100AC000B0E4F90180839183A283B3838E01095935
:100AD0001F4FCE018D599F4F26E636E646E655E478
:100AE000FC0160817181828193810E94453ADC0121
:100AF000CB01F80180839183A283B383CE0189590E
:100B00009F4F20E030E040E85FE3FC0160817181AD
:100B1000828193810E94F73888234CF4CE01855955
:100B20009F4F21E030E0FC01318320836DC0CE0176
:100B300089599F4F20E03FEF4FE757E4FC01608168
:100B40007181828193810E94413A18160CF04AC04B
:100B5000CE018D599F4F20E030E040E251E4FC018E
:100B600060817181828193810E94453ADC01CB01D1
:100B70008E0105591F4FBC01CD010E946339DC0174
:100B8000CB01F8019183808324C0CE0183599F4F0C
:100B900020E731E0FC0131832083CE0183599F4F50
:100BA000FC01808191810197F1F79E0123593F4F0C
:100BB000F90191838083CE0185599F4F9E0125596C
:100BC0003F4FF9012081318121503109FC013183EE
:100BD0002083CE0185599F4FFC0180819181009730
:100BE000A1F62CC08E0105591F4FCE0189599F4F88
:100BF000FC0160817181828193810E946339DC01F3
:100C0000CB01F80191838083CE0181599F4F9E01D2
:100C100025593F4FF90120813181FC013183208327
:100C2000CE0181599F4FFC01808191810197F1F79D
:100C30009E0121593F4FF9019183808388E290E022
:100C400028E230E0F90120812B7FFC012083C0598C
:100C5000DF4F0FB6F894DEBF0FBECDBFDF91CF914F
:100C60001F910F910895CF93DF93CDB7DEB72E97E5
:100C70000FB6F894DEBF0FBECDBF6FDA80E090E014
:100C8000A0E8BFE389839A83AB83BC8326E636E67C
:100C900046E655E469817A818B819C810E94453AC0
:100CA000DC01CB018D839E83AF83B88720E030E0E9
:100CB00040E85FE36D817E818F8198850E94F738DF
:100CC00088232CF481E090E09A8789873FC020E058
:100CD0003FEF4FE757E46D817E818F8198850E94B9
:100CE000413A18164CF520E030E040E251E46981C9
:100CF0007A818B819C810E94453ADC01CB01BC0149
:100D0000CD010E946339DC01CB019A8789870FC02E
:100D100080E791E09C878B878B859C850197F1F715
:100D20009C878B8789859A8501979A87898789858A
:100D30009A85009769F714C06D817E818F819885AF
:100D40000E946339DC01CB019A87898789859A855E
:100D50009E878D878D859E850197F1F79E878D876C
:100D600088E211D081E00FD086E00DD08EE00BD06C
:100D700080E809D02E960FB6F894DEBF0FBECDBF27
:100D8000DF91CF910895CF93DF93CDB7DEB76E9704
:100D90000FB6F894DEBF0FBECDBF8E8F8E8D8983C8
:100DA0008981807F898388E290E028E230E0F90140
:100DB00020812F70FC01208388E290E028E230E05F
:100DC000F90130812981232BFC01208388E290E006
:100DD00028E230E0F90120812E7FFC01208388E2A7
:100DE00090E028E230E0F90120812D7FFC01208392
:100DF00088E290E028E230E0F90120812460FC01E3
:100E0000208380E090E0A0EAB0E48A839B83AC83F7
:100E1000BD8326E636E646E655E46A817B818C8111
:100E20009D810E94453ADC01CB018E839F83A88778
:100E3000B98720E030E040E85FE36E817F818885FC
:100E400099850E94F73888232CF481E090E09B87F5
:100E50008A873FC020E03FEF4FE757E46E817F81F4
:100E6000888599850E94413A18164CF520E030E0BB
:100E700040E251E46A817B818C819D810E94453AE8
:100E8000DC01CB01BC01CD010E946339DC01CB0147
:100E90009B878A870FC080E791E09D878C878C8530
:100EA0009D850197F1F79D878C878A859B850197A2
:100EB0009B878A878A859B85009769F714C06E8116
:100EC0007F81888599850E946339DC01CB019B87EE
:100ED0008A878A859B859F878E878E859F850197C8
:100EE000F1F79F878E8788E290E028E230E0F901F1
:100EF00020812B7FFC0120838E8D8F708E8F8E8DB5
:100F00008295807F8E8F88E290E028E230E0F901C0
:100F100020812F70FC01208388E290E028E230E0FD
:100F2000F90130812E8D232BFC01208388E290E093
:100F300028E230E0F90120812E7FFC01208388E245
:100F400090E028E230E0F90120812D7FFC01208330
:100F500088E290E028E230E0F90120812460FC0181
:100F6000208380E090E0A0EAB0E4888B998BAA8B84
:100F7000BB8B26E636E646E655E4688979898A8998
:100F80009B890E94453ADC01CB018C8B9D8BAE8BFB
:100F9000BF8B20E030E040E85FE36C897D898E897B
:100FA0009F890E94F73888232CF481E090E0998F84
:100FB000888F3FC020E03FEF4FE757E46C897D8981
:100FC0008E899F890E94413A18164CF520E030E046
:100FD00040E251E4688979898A899B890E94453A6F
:100FE000DC01CB01BC01CD010E946339DC01CB01E6
:100FF000998F888F0FC080E791E09B8F8A8F8A8DB1
:101000009B8D0197F1F79B8F8A8F888D998D019722
:10101000998F888F888D998D009769F714C06C8996
:101020007D898E899F890E946339DC01CB01998F6C
:10103000888F888D998D9D8F8C8F8C8D9D8D01973C
:10104000F1F79D8F8C8F88E290E028E230E0F90183
:1010500020812B7FFC0120836E960FB6F894DEBFB3
:101060000FBECDBFDF91CF910895CF93DF93CDB762
:10107000DEB76E970FB6F894DEBF0FBECDBF8E8F72
:101080008E8D89838981807F898388E290E028E240
:1010900030E0F90120812F70FC01208388E290E08C
:1010A00028E230E0F90130812981232BFC012083E3
:1010B00088E290E028E230E0F90120812160FC0123
:1010C000208388E290E028E230E0F90120812D7F42
:1010D000FC01208388E290E028E230E0F9012081E1
:1010E0002460FC01208380E090E0A0EAB0E48A83E1
:1010F0009B83AC83BD8326E636E646E655E46A81EB
:101100007B818C819D810E94453ADC01CB018E83DD
:101110009F83A887B98720E030E040E85FE36E81D5
:101120007F81888599850E94F73888232CF481E097
:1011300090E09B878A873FC020E03FEF4FE757E46E
:101140006E817F81888599850E94413A18164CF5F9
:1011500020E030E040E251E46A817B818C819D8116
:101160000E94453ADC01CB01BC01CD010E946339EC
:10117000DC01CB019B878A870FC080E791E09D87C8
:101180008C878C859D850197F1F79D878C878A8553
:101190009B8501979B878A878A859B85009769F73E
:1011A00014C06E817F81888599850E946339DC0136
:1011B000CB019B878A878A859B859F878E878E85B3
:1011C0009F850197F1F79F878E8788E290E028E25C
:1011D00030E0F90120812B7FFC0120838E8D8F7000
:1011E0008E8F8E8D8295807F8E8F88E290E028E2B0
:1011F00030E0F90120812F70FC01208388E290E02B
:1012000028E230E0F90130812E8D232BFC01208370
:1012100088E290E028E230E0F90120812160FC01C1
:10122000208388E290E028E230E0F90120812D7FE0
:10123000FC01208388E290E028E230E0F90120817F
:101240002460FC01208380E090E0A0EAB0E4888B79
:10125000998BAA8BBB8B26E636E646E655E4688971
:1012600079898A899B890E94453ADC01CB018C8B64
:101270009D8BAE8BBF8B20E030E040E85FE36C8954
:101280007D898E899F890E94F73888232CF481E01C
:1012900090E0998F888F3FC020E03FEF4FE757E401
:1012A0006C897D898E899F890E94413A18164CF578
:1012B00020E030E040E251E4688979898A899B899D
:1012C0000E94453ADC01CB01BC01CD010E9463398B
:1012D000DC01CB01998F888F0FC080E791E09B8F55
:1012E0008A8F8A8D9B8D0197F1F79B8F8A8F888DCE
:1012F000998D0197998F888F888D998D009769F7BF
:1013000014C06C897D898E899F890E946339DC01B4
:10131000CB01998F888F888D998D9D8F8C8F8C8D27
:101320009D8D0197F1F79D8F8C8F88E290E028E2E8
:1013300030E0F90120812B7FFC0120836E960FB6EF
:10134000F894DEBF0FBECDBFDF91CF910895CF934C
:10135000DF93CDB7DEB780E816DDDF91CF9108953A
:10136000CF93DF931F921F92CDB7DEB79A83898305
:101370000AC089819A81FC01808177DE89819A8106
:1013800001969A83898389819A81FC0180818823CF
:1013900081F70F900F90DF91CF910895CF93DF9356
:1013A0001F921F92CDB7DEB789836A838981882F08
:1013B00090E08230910591F08330910524F48130E2
:1013C000910541F017C08330910561F0843091059B
:1013D00069F010C08A818158D6DC0CC08A818154A2
:1013E000D2DC08C08A818D56CEDC04C08A818D5241
:1013F000CADC00000F900F90DF91CF910895CF933A
:10140000DF93CDB7DEB727970FB6F894DEBF0FBED8
:10141000CDBF8A836B835D834C833F832E83198288
:101420008A81882319F08B81882311F490DF03C00F
:101430006B818A81B3DF8E819F818530910519F0A0
:1014400089818130F9F48C819D81929582958F708C
:1014500089279F7089279C01A7E4B3E00E94A83ADE
:10146000969587959695879596958795C09690932E
:101470000F0580930E0580910E0590910F05F5DD07
:1014800081E089838E819F818430910521F089815B
:10149000813009F03FC08C819D8196958795969506
:1014A0008795969587959C01A5ECB0E20E94A83A95
:1014B000929582958F7089279F7089279093130545
:1014C0008093120540911205509113059A01ADECDD
:1014D000BCEC0E94A83A9695879596958795969527
:1014E0008795880F991F9C01220F331F220F331FEE
:1014F000820F931F9A01281B390BC901C096909344
:101500003F0580933E0580913E0590913F05ADDDFE
:1015100081E089838E819F818330910519F08981D3
:101520008130C9F58C819D81969587959695879593
:101530009C01ABE7B4E10E94A83A969587959093F9
:1015400013058093120540911205509113059A01DD
:10155000ADECBCEC0E94A83A969587959695879538
:1015600096958795880F991F9C01220F331F220F94
:10157000331F820F931F9A01281B390BC901C09694
:1015800090931A05809319058091190590911A0579
:101590006CDD81E089838E819F818230910519F015
:1015A00089818130C9F58C819D819C01ADECBCECB9
:1015B0000E94A83A969587959695879596958795D2
:1015C00090931305809312054091120550911305D5
:1015D0009A01ADECBCEC0E94A83A96958795969539
:1015E000879596958795880F991F9C01220F331F29
:1015F000220F331F820F931F9A01281B390BC90139
:10160000C0969093180580931705809117059091C7
:1016100018052BDD81E089838E819F8181309105C2
:1016200019F08981813021F54C815D819A01ADEC01
:10163000BCEC0E94A83A96958795969587959695C5
:101640008795880F991F9C01220F331F220F331F8C
:10165000820F931F9A01281B390BC901C0969093E2
:101660003D0580933C0580913C0590913D05FDDC56
:101670008E819F818630910514F085E4F6DC2796F3
:101680000FB6F894DEBF0FBECDBFDF91CF910895A6
:10169000CF93DF93CDB7DEB72A970FB6F894DEBFAE
:1016A0000FBECDBF98878F837A87698789859A8592
:1016B00001979A8389831C821B823AC08B819C810B
:1016C000880F991F2F813885820F931FFC0180811D
:1016D00091819E838D838B819C81880F991F2F819F
:1016E0003885820F931F29813A81220F331F4F8142
:1016F0005885240F351FF90120813181FC01318388
:10170000208389819A81880F991F2F813885820FC4
:10171000931F2D813E81FC01318320838B819C812D
:1017200001969C838B8389819A8101979A8389830F
:101730002B813C8189819A81821793070CF0BECF5F
:101740002A960FB6F894DEBF0FBECDBFDF91CF91C2
:101750000895CF93DF93CDB7DEB7CC52D2400FB60A
:10176000F894DEBF0FBECDBF9E01295D3D4FF9014C
:1017700091838083CE01875D9D4FFC0171836083DF
:10178000CE01855D9D4FFC015183408318861F82E9
:101790007EC01A8619866AC02F8138854EE1429F25
:1017A000C001439F900D11249E01295D3D4FF90119
:1017B00020813181280F391F89859A85880F991FCB
:1017C000820F931FFC01808191810097D1F48F815A
:1017D00098854FE0489F9001499F300D11248985DD
:1017E0009A85820F931F880F991F9E012F5F3F4F8D
:1017F000820F931F0A962FE037E2FC01318320838A
:1018000030C02F8138854EE1429FC001439F900D2B
:1018100011249E01295D3D4FF90120813181280F5E
:10182000391F89859A85880F991F820F931FFC01A4
:10183000208131818F8198856FE0689FA001699F29
:10184000500D112489859A85840F951F880F991F43
:10185000AE014F5F5F4F840F951F0A96FC013183E5
:10186000208389859A8501969A878987CE01875D2D
:101870009D4F29853A85FC01808191812817390780
:101880000CF48ACF8F819885019698878F83CE013B
:10189000875D9D4F2F813885FC01808191812817BC
:1018A00039070CF476CF18861F824AC0CE01855DB9
:1018B0009D4FFC01808191814FE0489F9001499F9D
:1018C000300D11248F819885820F931F880F991FE7
:1018D0009E012F5F3F4F820F931F0A96FC012081CC
:1018E0003181AE0143535E4F8F819885880F991FD8
:1018F000840F951FFC01318320839E0125513E4FAB
:101900008F819885880F991F820F931F9E01255DF7
:101910003D4FF90120813181FC01318320839E01FB
:10192000275F3D4F8F819885880F991F820F931FE6
:10193000FC01118210828F819885019698878F8390
:10194000CE01875D9D4F2F813885FC01808191817B
:10195000281739070CF4AACF9E0123533E4FCE011E
:10196000855D9D4FFC0180819181880F991F820FB9
:10197000931FFC01118210829E01275F3D4FCE0113
:10198000855D9D4FFC0180819181880F991F820F99
:10199000931F21E030E0FC013183208381E090E05F
:1019A0009A838983DEC08FE097E29C838B831886BD
:1019B0001F8236C09E0123533E4F8F819885880F2A
:1019C000991F820F931FFC01208131818B819C81A3
:1019D0002817390704F59E01275F3D4F8F819885B1
:1019E000880F991F820F931FFC01808191810097BE
:1019F00091F49E0123533E4F8F819885880F991F44
:101A0000820F931FFC01808191819C838B838F8146
:101A100098859E838D838F819885019698878F8383
:101A2000CE01875D9D4F2F813885FC01808191819A
:101A3000281739070CF4BECF9E01275F3D4F8D81DB
:101A40009E81880F991F820F931F21E030E0FC01D7
:101A50003183208318861F8273C09E01275F3D4F0C
:101A60008F819885880F991F820F931FFC018081B9
:101A70009181009709F05FC08D819E814FE0489F62
:101A80009001499F300D11248F819885820F931FFB
:101A9000880F991F9E012F5F3F4F820F931F0A9659
:101AA000FC01208131818B819C81280F391FAE017F
:101AB00043535E4F8F819885880F991F840F951F20
:101AC000FC018081918128173907ACF58D819E81B9
:101AD0004FE0489F9001499F300D11248F819885D8
:101AE000820F931F880F991F9E012F5F3F4F820F18
:101AF000931F0A96FC01208131818B819C81280FE4
:101B0000391FAE0143535E4F8F819885880F991F0F
:101B1000840F951FFC01318320839E0125513E4F88
:101B20008F819885880F991F820F931F2D813E8189
:101B3000FC01318320838F819885019698878F835C
:101B4000CE01875D9D4F2F813885FC018081918179
:101B5000281739070CF481CF89819A8101969A83DD
:101B60008983CE01875D9D4FFC01808191819C011D
:101B70002150310989819A81821793070CF413CF80
:101B800018861F821AC09E0123533E4F8F8198856D
:101B9000880F991F820F931FFC01208131818F8153
:101BA0009885880F991F825E9A4FFC0131832083AC
:101BB0008F819885019698878F83CE01875D9D4F91
:101BC0002F813885FC018081918128173907DCF24B
:101BD00018861F821AC09E0125513E4F8F8198851D
:101BE000880F991F820F931FFC01208131818F8103
:101BF0009885880F991F82519B4FFC013183208368
:101C00008F819885019698878F83CE01875D9D4F40
:101C10002F813885FC018081918128173907DCF2FA
:101C2000C45DDD4F0FB6F894DEBF0FBECDBFDF91B0
:101C3000CF910895CF93DF93CDB7DEB72C970FB632
:101C4000F894DEBF0FBECDBF9E838D8378876F83F0
:101C50005A8749873C872B878D819E81880F991FE2
:101C6000825E9A4FFC01208131818F819885880F97
:101C7000991F825E9A4FFC018081918182179307A0
:101C80000CF46CC02091CC043091CD048D819E81E8
:101C90002817390709F452C08D819E819A83898360
:101CA0008B859C85FC0180819181880F991F2985F6
:101CB0003A85820F931F2D813E81FC013183208361
:101CC0008B859C85FC01808191819C012F5F3F4F1A
:101CD0008B859C85FC013183208389819A81880FC3
:101CE000991F82519B4FFC01808191819A83898346
:101CF0008B859C85FC0180819181880F991F2985A6
:101D00003A85820F931F29813A81FC013183208318
:101D10008B859C85FC01808191819C012F5F3F4FC9
:101D20008B859C85FC01318320838091CC0490912C
:101D3000CD0429813A812817390779F68B859C854E
:101D4000FC012081318189859A85B901A1DC8D81D1
:101D50009E819093CD048093CC046BC02091CC04E1
:101D60003091CD048F8198852817390709F452C026
:101D70008F8198859C838B838B859C85FC018081DA
:101D80009181880F991F29853A85820F931F2F8192
:101D90003885FC01318320838B859C85FC01808103
:101DA00091819C012F5F3F4F8B859C85FC01318386
:101DB00020838B819C81880F991F82519B4FFC014E
:101DC000808191819C838B838B859C85FC018081A4
:101DD0009181880F991F29853A85820F931F2B8146
:101DE0003C81FC01318320838B859C85FC018081B3
:101DF00091819C012F5F3F4F8B859C85FC01318336
:101E000020838091CC049091CD042B813C812817B4
:101E1000390779F68B859C85FC0120813181898584
:101E20009A85B90135DC8F8198859093CD04809394
:101E3000CC042C960FB6F894DEBF0FBECDBFDF9159
:101E4000CF910895CF93DF93CDB7DEB781E890E0CF
:101E5000FC01108285E890E02CEFFC01208384E8EF
:101E600090E021E0FC01208389E890E023E0FC0180
:101E7000208388E890E02FEFFC0120838BE890E03E
:101E800023E0FC0120838AE890E02FEFFC0120830F
:101E90008DE890E023E0FC0120838CE890E02FEFB8
:101EA000FC01208387E890E023E0FC01208386E8A2
:101EB00090E02FEFFC01208380E890E02BEAFC010A
:101EC000208382E890E0FC01108281E890E02CE021
:101ED000FC012083DF91CF910895CF93DF93CDB79D
:101EE000DEB781E291E0FC01108285E291E02FEF04
:101EF000FC01208384E291E021E0FC01208389E25F
:101F000091E0FC01108288E291E02FEFFC01208338
:101F10008BE291E0FC0110828AE291E02FEFFC015C
:101F200020838DE291E0FC0110828CE291E02FEFA2
:101F3000FC01208380E291E029EAFC01208381E218
:101F400091E02BE0FC012083DF91CF910895CF93A6
:101F5000DF93CDB7DEB783E390E023E330E0F90110
:101F600020812860FC01208384E390E024E330E0BA
:101F7000F9012081277FFC012083DF91CF91089513
:101F8000CF93DF93CDB7DEB781E290E021E230E07E
:101F9000F90120812F60FC01208382E290E022E29F
:101FA00030E0F9012081207FFC0120838AE091E06C
:101FB0002AE031E0F90120812861FC0120838BE0D7
:101FC00091E02BE031E0F90120812861FC012083C0
:101FD000DF91CF910895CF93DF93CDB7DEB784E241
:101FE00090E024E230E0F90120812062FC012083AE
:101FF00085E290E025E230E0F90120812062FC01D9
:102000002083DF91CF910895CF93DF93CDB7DEB7D3
:1020100084E290E024E230E0F90120812064FC01B8
:10202000208385E290E025E230E0F9012081206400
:10203000FC012083DF91CF910895CF93DF93CDB73B
:10204000DEB784E290E024E230E0F90120812068EC
:10205000FC01208385E290E025E230E0F901208157
:102060002068FC012083DF91CF910895CF93DF9307
:10207000CDB7DEB781E091E0FC01808181E091E0A5
:102080002FEFFC01208382E091E022E031E0F901B2
:1020900020812E7FFC012083DF91CF910895CF9383
:1020A000DF93CDB7DEB780E390E0FC01108281E3DF
:1020B00090E0FC01108287E091E0FC01108288E052
:1020C00091E0FC011082DF91CF910895CF93DF93CF
:1020D000CDB7DEB73CDF54DF7EDF96DFAEDFC6DF95
:1020E0000E949400DCDFDF91CF9108951F920F9240
:1020F00000905F000F9211248F939F93AF93BF9333
:10210000CF93DF93CDB7DEB78091EA049091EB04D3
:10211000A091EC04B091ED040196A11DB11D809336
:10212000EA049093EB04A093EC04B093ED04DF91E8
:10213000CF91BF91AF919F918F910F9000925F00CF
:102140000F901F9018951F920F9200905F000F92B2
:1021500011248F939F93AF93BF93CF93DF93CDB70A
:10216000DEB78091E6049091E704A091E804B09175
:10217000E9040196A11DB11D8093E6049093E70444
:10218000A093E804B093E904DF91CF91BF91AF91A0
:102190009F918F910F9000925F000F901F90189564
:1021A000CF93DF931F921F92CDB7DEB78A83198238
:1021B0008A818F708A8382E290E0FC01808189832A
:1021C0008981807F898399818A81892B898382E2B1
:1021D00090E02981FC0120830F900F90DF91CF9137
:1021E0000895CF93DF93CDB7DEB786E0D9DFDF91D7
:1021F000CF910895CF93DF93CDB7DEB789E0D0DFDD
:10220000DF91CF910895CF93DF93CDB7DEB785E00F
:10221000C7DFDF91CF910895CF93DF93CDB7DEB7BE
:102220008AE0BEDFDF91CF910895CF93DF93CDB7E2
:10223000DEB784E0B5DFDF91CF910895CF93DF93D0
:10224000CDB7DEB782E0ACDFDF91CF910895CF93B9
:10225000DF93CDB7DEB780E0A3DFDF91CF910895A4
:10226000CF93DF931F921F92CDB7DEB789836A8326
:1022700088E291E02981FC0120838AE291E02A81B1
:10228000FC0120830F900F90DF91CF9108950F9361
:102290001F93CF93DF9300D01F921F92CDB7DEB76D
:1022A0008D8319821A821B821C828D81882F90E077
:1022B000A0E0B0E0BC01CD010E948F39DC01CB0170
:1022C0002BE734E14EEE5FE3BC01CD010E94FB3809
:1022D000DC01CB0120E030E04CE052E4BC01CD0158
:1022E0000E949338DC01CB0189839A83AB83BC8342
:1022F00089E890E0FC01108208E810E069817A81A9
:102300008B819C810E946339DC01CB01F8018083C1
:102310000F900F900F900F900F90DF91CF911F9122
:102320000F9108950F931F93CF93DF9300D01F92C7
:102330001F92CDB7DEB78D8319821A821B821C8251
:102340008D81882F90E0A0E0B0E0BC01CD010E941B
:102350008F39DC01CB012BE734E14EEE5FE3BC01AA
:10236000CD010E94FB38DC01CB0120E030E04CE0E5
:1023700052E4BC01CD010E949338DC01CB0189837A
:102380009A83AB83BC838BE890E0FC0110820AE85F
:1023900010E069817A818B819C810E946339DC0124
:1023A000CB01F80180830F900F900F900F900F904A
:1023B000DF91CF911F910F9108950F931F93CF93AA
:1023C000DF93CDB7DEB763970FB6F894DEBF0FBECD
:1023D000CDBF8B8B82E091E022E031E0F9012081DA
:1023E0002160FC01208380E090E0A0EAB1E48D83CD
:1023F0009E83AF83B88726E636E646E655E46D81D0
:102400007E818F8198850E94453ADC01CB018987C6
:102410009A87AB87BC8720E030E040E85FE36985BE
:102420007A858B859C850E94F73888232CF481E07F
:1024300090E09E878D873FC020E03FEF4FE757E455
:1024400069857A858B859C850E94413A18164CF5E2
:1024500020E030E040E251E46D817E818F819885FB
:102460000E94453ADC01CB01BC01CD010E946339D9
:10247000DC01CB019E878D870FC080E791E0988BB0
:102480008F878F8598890197F1F7988B8F878D8536
:102490009E8501979E878D878D859E85009769F71C
:1024A00014C069857A858B859C850E946339DC011F
:1024B000CB019E878D878D859E859A8B898B898997
:1024C0009A890197F1F79A8B898B19821A821B825C
:1024D0001C828B89882F90E0A0E0B0E0BC01CD0188
:1024E0000E948F39DC01CB012BE734E14EEE5FE334
:1024F000BC01CD010E94FB38DC01CB0120E030E0C3
:102500004CE052E4BC01CD010E949338DC01CB01C8
:1025100089839A83AB83BC838DE890E0FC011082B1
:102520000CE810E069817A818B819C810E9463397B
:10253000DC01CB01F801808363960FB6F894DEBF0F
:102540000FBECDBFDF91CF911F910F910895CF9313
:10255000DF93CDB7DEB789E890E023E0FC0120836C
:1025600088E890E02FEFFC012083DF91CF91089560
:10257000CF93DF93CDB7DEB78BE890E023E0FC018B
:1025800020838AE890E02FEFFC012083DF91CF9138
:102590000895CF93DF93CDB7DEB78DE890E023E0C9
:1025A000FC0120838CE890E02FEFFC012083DF9179
:1025B000CF910895CF93DF931F921F92CDB7DEB7CF
:1025C0008A838A81883028F08BE790E028E0FC013C
:1025D00020838A8187708A838CE790E02A81206239
:1025E000FC0120838AE790E02AE730E0F9012081AE
:1025F0002064FC01208300008AE790E0FC018081D8
:10260000882F90E0807199270097B1F389E790E0D7
:10261000FC01808189838AE790E02AE730E0F901B4
:1026200020812061FC0120838BE790E0FC01108277
:1026300089810F900F90DF91CF910895CF93DF9311
:102640001F921F92CDB7DEB79A8389830E9433060B
:1026500089819A818330910509F450C084309105B5
:1026600034F4009771F081309105A1F050C08530AD
:102670009105C9F08530910584F186309105E1F02E
:1026800046C063E081E00E94CE0983E794E00E94A7
:10269000B0093DC063E081E00E94CE0981E894E08A
:1026A0000E94B00934C063E081E00E94CE098FE847
:1026B00094E00E94B0092BC066E081E00E94CE0940
:1026C00087E994E00E94B00961E082E00E94CE09AF
:1026D0008DE994E00E94B0091AC066E081E00E9492
:1026E000CE098CEA94E00E94B00963E082E00E9487
:1026F000CE0983EB94E00E94B00909C063E081E059
:102700000E94CE0981EC94E00E94B00900000F9075
:102710000F90DF91CF9108950F931F93CF93DF9385
:10272000CDB7DEB7C654D1090FB6F894DEBF0FBEE1
:10273000CDBF8AE5ACDD80E090E8ABE3B4E489830B
:102740009A83AB83BC8326E636E646E655E4698188
:102750007A818B819C810E94453ADC01CB018D837B
:102760009E83AF83B88720E030E040E85FE36D816F
:102770007E818F8198850E94F73888232CF481E030
:1027800090E09A8789873FC020E03FEF4FE757E40A
:102790006D817E818F8198850E94413A18164CF593
:1027A00020E030E040E251E469817A818B819C81B4
:1027B0000E94453ADC01CB01BC01CD010E94633986
:1027C000DC01CB019A8789870FC080E791E09C8765
:1027D0008B878B859C850197F1F79C878B878985F3
:1027E0009A8501979A87898789859A85009769F7DD
:1027F00014C06D817E818F8198850E946339DC01D0
:10280000CB019A87898789859A859E878D878D8553
:102810009E850197F1F79E878D8799DE88E7CDDD4C
:1028200080E090E8ABE3B4E48F87988BA98BBA8BF8
:1028300026E636E646E655E46F85788989899A89E1
:102840000E94453ADC01CB018B8B9C8BAD8BBE8B00
:1028500020E030E040E85FE36B897C898D899E89C8
:102860000E94F73888232CF481E090E0988F8F8BBA
:102870003FC020E03FEF4FE757E46B897C898D89AB
:102880009E890E94413A18164CF520E030E040E263
:1028900051E46F85788989899A890E94453ADC01DB
:1028A000CB01BC01CD010E946339DC01CB01988FC3
:1028B0008F8B0FC080E791E09A8F898F898D9A8DD9
:1028C0000197F1F79A8F898F8F89988D0197988F4B
:1028D0008F8B8F89988D009769F714C06B897C89DD
:1028E0008D899E890E946339DC01CB01988F8F8B83
:1028F0008F89988D9C8F8B8F8B8D9C8D0197F1F795
:102900009C8F8B8F46DE86E60DDD80E090E0AAE7A7
:10291000B4E48D8F9E8FAF8FB8A326E636E646E6E9
:1029200055E46D8D7E8D8F8D98A10E94453ADC0116
:10293000CB0189A39AA3ABA3BCA320E030E040E87D
:102940005FE369A17AA18BA19CA10E94F73888233B
:102950002CF481E090E09EA38DA33FC020E03FEFE8
:102960004FE757E469A17AA18BA19CA10E94413A4B
:1029700018164CF520E030E040E251E46D8D7E8D7C
:102980008F8D98A10E94453ADC01CB01BC01CD019D
:102990000E946339DC01CB019EA38DA30FC080E7A9
:1029A00091E098A78FA38FA198A50197F1F798A719
:1029B0008FA38DA19EA101979EA38DA38DA19EA102
:1029C000009769F714C069A17AA18BA19CA10E940C
:1029D0006339DC01CB019EA38DA38DA19EA19AA793
:1029E00089A789A59AA50197F1F79AA789A784E1F4
:1029F000E4DC80E090E8ABE3B4E48BA79CA7ADA750
:102A0000BEA726E636E646E655E46BA57CA58DA571
:102A10009EA50E94453ADC01CB018FA798ABA9ABDC
:102A2000BAAB20E030E040E85FE36FA578A989A960
:102A30009AA90E94F73888232CF481E090E09CAB9F
:102A40008BAB3FC020E03FEF4FE757E46FA578A97D
:102A500089A99AA90E94413A18164CF520E030E065
:102A600040E251E46BA57CA58DA59EA50E94453A48
:102A7000DC01CB01BC01CD010E946339DC01CB013B
:102A80009CAB8BAB0FC080E791E09EAB8DAB8DA96B
:102A90009EA90197F1F79EAB8DAB8BA99CA90197DD
:102AA0009CAB8BAB8BA99CA9009769F714C06FA551
:102AB00078A989A99AA90E946339DC01CB019CAB52
:102AC0008BAB8BA99CA998AF8FAB8FA998AD0197C1
:102AD000F1F798AF8FAB80E025DC80E090E0AAE7CB
:102AE000B4E489AF9AAFABAFBCAF26E636E646E6B4
:102AF00055E469AD7AAD8BAD9CAD0E94453ADC01E1
:102B0000CB019E01235C3F4FF90180839183A28317
:102B1000B38320E030E040E85FE3CE01CD96FC01D6
:102B200060817181828193810E94F73888234CF4FF
:102B3000CE018F5B9F4F21E030E0FC013183208389
:102B400067C020E03FEF4FE757E4CE01CD96FC0190
:102B500060817181828193810E94413A18160CF044
:102B600046C020E030E040E251E469AD7AAD8BAD83
:102B70009CAD0E94453ADC01CB018E010F5B1F4FDB
:102B8000BC01CD010E946339DC01CB01F8019183C6
:102B9000808324C0CE018D5B9F4F20E731E0FC0194
:102BA00031832083CE018D5B9F4FFC018081918119
:102BB0000197F1F79E012D5B3F4FF90191838083CF
:102BC000CE018F5B9F4F9E012F5B3F4FF90120810C
:102BD000318121503109FC0131832083CE018F5B8B
:102BE0009F4FFC01808191810097A1F62BC08E013F
:102BF0000F5B1F4FCE01CD96FC01608171818281F8
:102C000093810E946339DC01CB01F80191838083B9
:102C1000CE018B5B9F4F9E012F5B3F4FF9012081BF
:102C20003181FC0131832083CE018B5B9F4FFC01FE
:102C3000808191810197F1F79E012B5B3F4FF90154
:102C400091838083CA5BDF4F0FB6F894DEBF0FBE5F
:102C5000CDBFDF91CF911F910F9108950F931F93D7
:102C6000CF93DF93CDB7DEB7C256D1090FB6F89434
:102C7000DEBF0FBECDBF80E090E0AAEFB3E4898352
:102C80009A83AB83BC8326E636E646E655E4698143
:102C90007A818B819C810E94453ADC01CB018D8336
:102CA0009E83AF83B88720E030E040E85FE36D812A
:102CB0007E818F8198850E94F73888232CF481E0EB
:102CC00090E09A8789873FC020E03FEF4FE757E4C5
:102CD0006D817E818F8198850E94413A18164CF54E
:102CE00020E030E040E251E469817A818B819C816F
:102CF0000E94453ADC01CB01BC01CD010E94633941
:102D0000DC01CB019A8789870FC080E791E09C871F
:102D10008B878B859C850197F1F79C878B878985AD
:102D20009A8501979A87898789859A85009769F797
:102D300014C06D817E818F8198850E946339DC018A
:102D4000CB019A87898789859A859E878D878D850E
:102D50009E850197F1F79E878D8780E098DA80E065
:102D600090E0AAE7B4E48F87988BA98BBA8B26E60C
:102D700036E646E655E46F85788989899A890E9406
:102D8000453ADC01CB018B8B9C8BAD8BBE8B20E05D
:102D900030E040E85FE36B897C898D899E890E94E1
:102DA000F73888232CF481E090E0988F8F8B3FC018
:102DB00020E03FEF4FE757E46B897C898D899E893E
:102DC0000E94413A18164CF520E030E040E251E410
:102DD0006F85788989899A890E94453ADC01CB01FF
:102DE000BC01CD010E946339DC01CB01988F8F8B30
:102DF0000FC080E791E09A8F898F898D9A8D019716
:102E0000F1F79A8F898F8F89988D0197988F8F8B83
:102E10008F89988D009769F714C06B897C898D899B
:102E20009E890E946339DC01CB01988F8F8B8F893B
:102E3000988D9C8F8B8F8B8D9C8D0197F1F79C8F3C
:102E40008B8F85DB8EE1B9DA80E090E8ABE3B4E408
:102E50008D8F9E8FAF8FB8A326E636E646E655E403
:102E60006D8D7E8D8F8D98A10E94453ADC01CB013E
:102E700089A39AA3ABA3BCA320E030E040E85FE3C2
:102E800069A17AA18BA19CA10E94F73888232CF418
:102E900081E090E09EA38DA33FC020E03FEF4FE78D
:102EA00057E469A17AA18BA19CA10E94413A18160E
:102EB0004CF520E030E040E251E46D8D7E8D8F8D49
:102EC00098A10E94453ADC01CB01BC01CD010E94D2
:102ED0006339DC01CB019EA38DA30FC080E791E095
:102EE00098A78FA38FA198A50197F1F798A78FA313
:102EF0008DA19EA101979EA38DA38DA19EA1009758
:102F000069F714C069A17AA18BA19CA10E946339C1
:102F1000DC01CB019EA38DA38DA19EA19AA789A7B9
:102F200089A59AA50197F1F79AA789A78DE2FAD901
:102F300080E090E0AAE7B4E48BA79CA7ADA7BEA76A
:102F400026E636E646E655E46BA57CA58DA59EA54E
:102F50000E94453ADC01CB018FA798ABA9ABBAAB75
:102F600020E030E040E85FE36FA578A989A99AA93D
:102F70000E94F73888232CF481E090E09CAB8BAB67
:102F80003FC020E03FEF4FE757E46FA578A989A93C
:102F90009AA90E94413A18164CF520E030E040E230
:102FA00051E46BA57CA58DA59EA50E94453ADC0148
:102FB000CB01BC01CD010E946339DC01CB019CAB8C
:102FC0008BAB0FC080E791E09EAB8DAB8DA99EA926
:102FD0000197F1F79EAB8DAB8BA99CA901979CAB98
:102FE0008BAB8BA99CA9009769F714C06FA578A932
:102FF00089A99AA90E946339DC01CB019CAB8BABF8
:103000008BA99CA998AF8FAB8FA998AD0197F1F7C9
:1030100098AF8FAB89E6D1D980E090E8ABE3B4E418
:1030200089AF9AAFABAFBCAF26E636E646E655E4CD
:1030300069AD7AAD8BAD9CAD0E94453ADC01CB0108
:103040009E01235C3F4FF90180839183A283B38368
:1030500020E030E040E85FE3CE01CD96FC016081E6
:103060007181828193810E94F73888234CF4CE01CC
:103070008F5B9F4F21E030E0FC013183208367C0EC
:1030800020E03FEF4FE757E4CE01CD96FC01608191
:103090007181828193810E94413A18160CF046C0DA
:1030A00020E030E040E251E469AD7AAD8BAD9CADFB
:1030B0000E94453ADC01CB018E010F5B1F4FBC0122
:1030C000CD010E946339DC01CB01F801918380833B
:1030D00024C0CE018D5B9F4F20E731E0FC0131839E
:1030E0002083CE018D5B9F4FFC01808191810197F0
:1030F000F1F79E012D5B3F4FF90191838083CE0153
:103100008F5B9F4F9E012F5B3F4FF90120813181E3
:1031100021503109FC0131832083CE018F5B9F4F09
:10312000FC01808191810097A1F62BC08E010F5B7D
:103130001F4FCE01CD96FC01608171818281938108
:103140000E946339DC01CB01F80191838083CE01B9
:103150008B5B9F4F9E012F5B3F4FF9012081318197
:10316000FC0131832083CE018B5B9F4FFC0180816A
:1031700091810197F1F79E012B5B3F4FF9019183FC
:10318000808307DA80E0CED89E01295B3F4F80E044
:1031900090E0AAE7B4E4F90180839183A283B3832A
:1031A0008E01055B1F4FCE01895B9F4F26E636E6F9
:1031B00046E655E4FC0160817181828193810E9421
:1031C000453ADC01CB01F80180839183A283B3836C
:1031D000CE01855B9F4F20E030E040E85FE3FC01DB
:1031E00060817181828193810E94F73888234CF439
:1031F000CE01815B9F4F21E030E0FC0131832083D1
:103200006DC0CE01855B9F4F20E03FEF4FE757E455
:10321000FC0160817181828193810E94413A18167C
:103220000CF04AC0CE01895B9F4F20E030E040E2C5
:1032300051E4FC0160817181828193810E94453A51
:10324000DC01CB018E01015B1F4FBC01CD010E944F
:103250006339DC01CB01F8019183808324C0CE0166
:103260008F5A9F4F20E731E0FC0131832083CE014C
:103270008F5A9F4FFC01808191810197F1F79E0148
:103280002F5A3F4FF90191838083CE01815B9F4F7D
:103290009E01215B3F4FF90120813181215031098D
:1032A000FC0131832083CE01815B9F4FFC01808133
:1032B00091810097A1F62CC08E01015B1F4FCE01BA
:1032C000855B9F4FFC0160817181828193810E94A7
:1032D0006339DC01CB01F80191838083CE018D5AE3
:1032E0009F4F9E01215B3F4FF90120813181FC01FD
:1032F00031832083CE018D5A9F4FFC0180819181C3
:103300000197F1F79E012D5A3F4FF9019183808378
:103310002FD98FE50E9447119E012B5A3F4F80E025
:1033200090E0AAE7B4E4F90180839183A283B38398
:103330008E01075A1F4FCE018B5A9F4F26E636E665
:1033400046E655E4FC0160817181828193810E948F
:10335000453ADC01CB01F80180839183A283B383DA
:10336000CE01875A9F4F20E030E040E85FE3FC0148
:1033700060817181828193810E94F73888234CF4A7
:10338000CE01835A9F4F21E030E0FC01318320833E
:103390006DC0CE01875A9F4F20E03FEF4FE757E4C3
:1033A000FC0160817181828193810E94413A1816EB
:1033B0000CF04AC0CE018B5A9F4F20E030E040E233
:1033C00051E4FC0160817181828193810E94453AC0
:1033D000DC01CB018E01035A1F4FBC01CD010E94BD
:1033E0006339DC01CB01F8019183808324C0CE01D5
:1033F000815A9F4F20E731E0FC0131832083CE01C9
:10340000815A9F4FFC01808191810197F1F79E01C4
:10341000215A3F4FF90191838083CE01835A9F4FF8
:103420009E01235A3F4FF9012081318121503109FA
:10343000FC0131832083CE01835A9F4FFC018081A0
:1034400091810097A1F62CC08E01035A1F4FCE0127
:10345000875A9F4FFC0160817181828193810E9414
:103460006339DC01CB01F80191838083CE018F5950
:103470009F4F9E01235A3F4FF90120813181FC016A
:1034800031832083CE018F599F4FFC018081918130
:103490000197F1F79E012F593F4FF90191838083E6
:1034A00056D8CE59DF4F0FB6F894DEBF0FBECDBF52
:1034B000DF91CF911F910F910895CF93DF93CDB7F7
:1034C000DEB7E8970FB6F894DEBF0FBECDBF0E94FF
:1034D000FA1080E090E0A8E4B3E489839A83AB8398
:1034E000BC8326E636E646E655E469817A818B811F
:1034F0009C810E94453ADC01CB018D839E83AF8382
:10350000B88720E030E040E85FE36D817E818F8105
:1035100098850E94F73888232CF481E090E09A8700
:1035200089873FC020E03FEF4FE757E46D817E8100
:103530008F8198850E94413A18164CF520E030E0C2
:1035400040E251E469817A818B819C810E94453AF5
:10355000DC01CB01BC01CD010E946339DC01CB0150
:103560009A8789870FC080E791E09C878B878B853E
:103570009C850197F1F79C878B8789859A850197B0
:103580009A87898789859A85009769F714C06D8124
:103590007E818F8198850E946339DC01CB019A87F7
:1035A000898789859A859E878D878D859E850197D8
:1035B000F1F79E878D879091360280913602692FB0
:1035C0000E9430110E94FA108BE00E94DA12809360
:1035D0001B0583E00E94DA128093140582E00E94AA
:1035E000DA128093110580911405813520F48091C1
:1035F0001105813538F080911B05843618F40E943E
:1036000027119AC180911B05833708F482C08091ED
:103610001B05833808F07DC088E291E02CEDFC01A9
:1036200020838AE291E02CEDFC01208380E090E091
:10363000A8E4B2E48F87988BA98BBA8B26E636E68E
:1036400046E655E46F85788989899A890E94453ACA
:10365000DC01CB018B8B9C8BAD8BBE8B20E030E0F3
:1036600040E85FE36B897C898D899E890E94F738E9
:1036700088232CF481E090E0988F8F8B3FC020E06E
:103680003FEF4FE757E46B897C898D899E890E94C3
:10369000413A18164CF520E030E040E251E46F85E5
:1036A000788989899A890E94453ADC01CB01BC015D
:1036B000CD010E946339DC01CB01988F8F8B0FC045
:1036C00080E791E09A8F898F898D9A8D0197F1F724
:1036D0009A8F898F8F89988D0197988F8F8B8F897B
:1036E000988D009769F727C16B897C898D899E89A0
:1036F0000E946339DC01CB01988F8F8B8F89988D65
:103700009C8F8B8F8B8D9C8D0197F1F79C8F8B8F6E
:1037100012C180911B05833808F47FC00E941511E7
:1037200088E291E025E7FC0120838AE291E028E726
:10373000FC01208380E090E0A0E0B0E48D8F9E8FBC
:10374000AF8FB8A326E636E646E655E46D8D7E8D4E
:103750008F8D98A10E94453ADC01CB0189A39AA3E1
:10376000ABA3BCA320E030E040E85FE369A17AA10D
:103770008BA19CA10E94F73888232CF481E090E073
:103780009EA38DA33FC020E03FEF4FE757E469A120
:103790007AA18BA19CA10E94413A18164CF520E019
:1037A00030E040E251E46D8D7E8D8F8D98A10E94B6
:1037B000453ADC01CB01BC01CD010E946339DC013B
:1037C000CB019EA38DA30FC080E791E098A78FA3A4
:1037D0008FA198A50197F1F798A78FA38DA19EA11E
:1037E00001979EA38DA38DA19EA1009769F7A3C009
:1037F00069A17AA18BA19CA10E946339DC01CB0154
:103800009EA38DA38DA19EA19AA789A789A59AA5FC
:103810000197F1F79AA789A7D5CE80911B05833729
:1038200008F084C080911B05813508F47FC00E9498
:103830001E1188E291E028E7FC0120838AE291E0F2
:1038400025E7FC01208380E090E0A0E0B0E48BA7B6
:103850009CA7ADA7BEA726E636E646E655E46BA5CF
:103860007CA58DA59EA50E94453ADC01CB018FA7C2
:1038700098ABA9ABBAAB20E030E040E85FE36FA5BE
:1038800078A989A99AA90E94F73888232CF481E0A5
:1038900090E09CAB8BAB3FC020E03FEF4FE757E49D
:1038A0006FA578A989A99AA90E94413A18164CF5E2
:1038B00020E030E040E251E46BA57CA58DA59EA5FB
:1038C0000E94453ADC01CB01BC01CD010E94633965
:1038D000DC01CB019CAB8BAB0FC080E791E09EABD2
:1038E0008DAB8DA99EA90197F1F79EAB8DAB8BA9EE
:1038F0009CA901979CAB8BAB8BA99CA9009769F7FE
:103900001AC06FA578A989A99AA90E946339DC0118
:10391000CB019CAB8BAB8BA99CA998AF8FAB8FA92C
:1039200098AD0197F1F798AF8FAB05C080911B055B
:10393000803508F4000046CE61E070E080E090E061
:1039400009D0E8960FB6F894DEBF0FBECDBFDF9169
:10395000CF910895CF93DF93CDB7DEB7E0970FB641
:10396000F894DEBF0FBECDBF9EA78DA778AB6FA723
:1039700081E090E09A8389831CC20E94FA109091A2
:10398000360280913602692F0E94301181E00E9438
:10399000DA1280931C0582E00E94DA1280931105EE
:1039A00083E00E94DA12809314058DA59EA58230D3
:1039B000910509F08AC080911C05282F30E0809184
:1039C0001105882F90E0280F391F80911405882F4A
:1039D00090E0820F931F893121E092070CF475C0AB
:1039E00080E090E0A6E1B3E48B839C83AD83BE834B
:1039F00026E636E646E655E46B817C818D819E8124
:103A00000E94453ADC01CB018F839887A987BA874A
:103A100020E030E040E85FE36F81788589859A8512
:103A20000E94F73888232CF481E090E09C878B87F4
:103A30003FC020E03FEF4FE757E46F8178858985ED
:103A40009A850E94413A18164CF520E030E040E299
:103A500051E46B817C818D819E810E94453ADC011D
:103A6000CB01BC01CD010E946339DC01CB019C87F5
:103A70008B870FC080E791E09E878D878D859E851F
:103A80000197F1F79E878D878B859C8501979C8791
:103A90008B878B859C85009769F714C06F8178852B
:103AA00089859A850E946339DC01CB019C878B87CD
:103AB0008B859C85988B8F878F8598890197F1F7E7
:103AC000988B8F870E94271163C18DA59EA5833097
:103AD000910569F480911C05893708F458C18091DB
:103AE0001405893708F453C10E94271151C18DA5CF
:103AF0009EA581309105B9F48BE00E94DA12809383
:103B00001B0580911B05873408F441C180911C0579
:103B1000803508F03CC180911105803508F037C12F
:103B20000E94271135C18DA59EA5009709F088C078
:103B300080911C05282F30E080911105882F90E09E
:103B4000280F391F80911405882F90E0820F931F52
:103B50008139E1E09E070CF473C080E090E0A2E8B8
:103B6000B2E4898B9A8BAB8BBC8B26E636E646E6B5
:103B700055E469897A898B899C890E94453ADC01E0
:103B8000CB018D8B9E8BAF8BB88F20E030E040E86F
:103B90005FE36D897E898F89988D0E94F73888232D
:103BA0002CF481E090E09A8F898F3FC020E03FEFB6
:103BB0004FE757E46D897E898F89988D0E94413A3D
:103BC00018164CF520E030E040E251E469897A892A
:103BD0008B899C890E94453ADC01CB01BC01CD0157
:103BE0000E946339DC01CB019A8F898F0FC080E777
:103BF00091E09C8F8B8F8B8D9C8D0197F1F79C8F23
:103C00008B8F898D9A8D01979A8F898F898D9A8D47
:103C1000009769F7BDC06D897E898F89988D0E9454
:103C20006339DC01CB019A8F898F898D9A8D9E8FA4
:103C30008D8F8D8D9E8D0197F1F79E8F8D8FA8C0F2
:103C400080911C058C33A8F4809111058D3788F084
:103C5000809114058C3368F488E291E0209136025B
:103C6000FC0120838AE291E020913602FC0120834E
:103C70008EC080911C058832A8F4809111058C3388
:103C800088F4809114058D3868F088E291E02091E5
:103C90003602FC0120838AE291E020913702FC0188
:103CA000208375C0809114058832A8F48091110595
:103CB0008C3388F480911C058D3868F088E291E09F
:103CC00020913702FC0120838AE291E020913602A4
:103CD000FC0120835CC080911C05282F30E080917E
:103CE0001105882F90E0280F391F80911405882F27
:103CF00090E0820F931F883C9105DCF480911105C0
:103D00008333B8F080911105843698F490911C05A6
:103D100080911405891768F488E291E020913802B7
:103D2000FC0120838AE291E020913602FC0120838D
:103D30002EC080911C05282F30E080911105882F1E
:103D400090E0280F391F80911405882F90E0820F92
:103D5000931F883C9105DCF4809111058333B8F002
:103D600080911105843698F490911C05809114057A
:103D7000981768F488E291E020913602FC012083D4
:103D80008AE291E020913802FC012083FFCDFECD34
:103D90008DA59EA58130910509F48FDB8DA59EA58B
:103DA0008330910509F48AD089819A8101969A839A
:103DB000898329813A818FA598A9821793070CF0EE
:103DC000DCCD80E090E0A0EAB1E48F8F98A3A9A3B6
:103DD000BAA326E636E646E655E46F8D78A189A1BA
:103DE0009AA10E94453ADC01CB018BA39CA3ADA311
:103DF000BEA320E030E040E85FE36BA17CA18DA191
:103E00009EA10E94F73888232CF481E090E098A7C7
:103E10008FA33FC020E03FEF4FE757E46BA17CA1A9
:103E20008DA19EA10E94413A18164CF520E030E089
:103E300040E251E46F8D78A189A19AA10E94453A90
:103E4000DC01CB01BC01CD010E946339DC01CB0157
:103E500098A78FA30FC080E791E09AA789A789A5AB
:103E60009AA50197F1F79AA789A78FA198A501971D
:103E700098A78FA38FA198A5009769F714C06BA18D
:103E80007CA18DA19EA10E946339DC01CB0198A782
:103E90008FA38FA198A59CA78BA78BA59CA5019705
:103EA000F1F79CA78BA70E942711E0960FB6F89414
:103EB000DEBF0FBECDBFDF91CF9108950F931F934B
:103EC000CF93DF93CDB7DEB7C754D1090FB6F894BF
:103ED000DEBF0FBECDBF198283E090E00E941E13AB
:103EE0008981882F90E022E030E0AC0167E082E039
:103EF0000E94FF090E94FA109091360280913602CA
:103F0000692F0E94301181E00E94DA1280931C0513
:103F100082E00E94DA128093110583E00E94DA1297
:103F20008093140580911C05282F30E080911105A5
:103F3000882F90E0280F391F80911405882F90E07A
:103F4000820F931F8A3421E092070CF075C1809193
:103F500011058A3508F070C18981882309F06CC188
:103F600080E090E0A8ECB2E48A839B83AC83BD83BD
:103F700026E636E646E655E46A817B818C819D81A2
:103F80000E94453ADC01CB018E839F83A887B987C5
:103F900020E030E040E85FE36E817F81888599858D
:103FA0000E94F73888232CF481E090E09B878A8771
:103FB0003FC020E03FEF4FE757E46E817F81888567
:103FC00099850E94413A18164CF520E030E040E215
:103FD00051E46A817B818C819D810E94453ADC019C
:103FE000CB01BC01CD010E946339DC01CB019B8771
:103FF0008A870FC080E791E09D878C878C859D859F
:104000000197F1F79D878C878A859B8501979B8710
:104010008A878A859B85009769F714C06E817F81A6
:10402000888599850E946339DC01CB019B878A874B
:104030008A859B859F878E878E859F850197F1F75F
:104040009F878E8789818F5F89838981882F90E000
:1040500022E030E0AC0167E082E00E94FF090E94AC
:10406000F11080E090E0AAE7B3E4888B998BAA8BEB
:10407000BB8B26E636E646E655E4688979898A8967
:104080009B890E94453ADC01CB018C8B9D8BAE8BCA
:10409000BF8B20E030E040E85FE36C897D898E894A
:1040A0009F890E94F73888232CF481E090E0998F53
:1040B000888F3FC020E03FEF4FE757E46C897D8950
:1040C0008E899F890E94413A18164CF520E030E015
:1040D00040E251E4688979898A899B890E94453A3E
:1040E000DC01CB01BC01CD010E946339DC01CB01B5
:1040F000998F888F0FC080E791E09B8F8A8F8A8D80
:104100009B8D0197F1F79B8F8A8F888D998D0197F1
:10411000998F888F888D998D009769F714C06C8965
:104120007D898E899F890E946339DC01CB01998F3B
:10413000888F888D998D9D8F8C8F8C8D9D8D01970B
:10414000F1F79D8F8C8F0E9427110E942E160E94DE
:10415000FA1080E090E0A8ECB2E48E8F9F8FA8A3C5
:10416000B9A326E636E646E655E46E8D7F8D88A136
:1041700099A10E94453ADC01CB018AA39BA3ACA381
:10418000BDA320E030E040E85FE36AA17BA18CA101
:104190009DA10E94F73888232CF481E090E09FA332
:1041A0008EA33FC020E03FEF4FE757E46AA17BA119
:1041B0008CA19DA10E94413A18164CF520E030E0F8
:1041C00040E251E46E8D7F8D88A199A10E94453A0D
:1041D000DC01CB01BC01CD010E946339DC01CB01C4
:1041E0009FA38EA30FC080E791E099A788A788A519
:1041F00099A50197F1F799A788A78EA19FA101978B
:104200009FA38EA38EA19FA1009769F7A0C16AA169
:104210007BA18CA19DA10E946339DC01CB019FA3EE
:104220008EA38EA19FA19BA78AA78AA59BA5019774
:10423000F1F79BA78AA78BC180911C05853BA8F04D
:1042400080911105823888F480911405853B68F0CF
:1042500088E291E020913602FC0120838AE291E01D
:1042600020913602FC01208372C180911C058035AB
:1042700008F08CC080911105833808F487C08091C4
:104280001405873908F482C00E941E1188E291E06B
:10429000209137022253FC0120838AE291E0209191
:1042A0003602FC01208380E090E0A0E8BFE38CA709
:1042B0009DA7AEA7BFA726E636E646E655E46CA561
:1042C0007DA58EA59FA50E94453ADC01CB0188AB58
:1042D00099ABAAABBBAB20E030E040E85FE368A954
:1042E00079A98AA99BA90E94F73888232CF481E038
:1042F00090E09DAB8CAB3FC020E03FEF4FE757E431
:1043000068A979A98AA99BA90E94413A18164CF577
:1043100020E030E040E251E46CA57DA58EA59FA58C
:104320000E94453ADC01CB01BC01CD010E946339FA
:10433000DC01CB019DAB8CAB0FC080E791E09FAB64
:104340008EAB8EA99FA90197F1F79FAB8EAB8CA97D
:104350009DA901979DAB8CAB8CA99DA9009769F78E
:10436000F6C068A979A98AA99BA90E946339DC01D2
:10437000CB019DAB8CAB8CA99DA999AF88AF88ADC3
:1043800099AD0197F1F799AF88AFE1C0809114051D
:10439000863908F0CFC080911105833808F4CAC06F
:1043A00080911C05813508F4C5C00E94151188E272
:1043B00091E020913602FC0120838AE291E0209175
:1043C00037022253FC01208380E090E0A0E8BFE3A5
:1043D0008AAF9BAFACAFBDAF8E01025C1F4F26E62C
:1043E00036E646E655E46AAD7BAD8CAD9DAD0E94E8
:1043F000453ADC01CB01F80180839183A283B3832A
:10440000CE01CE9620E030E040E85FE3FC01608121
:104410007181828193810E94F73888234CF4CE0108
:104420008E5B9F4F21E030E0FC013183208367C029
:10443000CE01CE9620E03FEF4FE757E4FC016081CC
:104440007181828193810E94413A18160CF046C016
:1044500020E030E040E251E46AAD7BAD8CAD9DAD33
:104460000E94453ADC01CB018E010E5B1F4FBC015F
:10447000CD010E946339DC01CB01F8019183808377
:1044800024C0CE018C5B9F4F20E731E0FC013183DB
:104490002083CE018C5B9F4FFC018081918101972D
:1044A000F1F79E012C5B3F4FF90191838083CE0190
:1044B0008E5B9F4F9E012E5B3F4FF9012081318122
:1044C00021503109FC0131832083CE018E5B9F4F47
:1044D000FC01808191810097A1F639C08E010E5BAD
:1044E0001F4FCE01CE96FC01608171818281938144
:1044F0000E946339DC01CB01F80191838083CE01F6
:104500008A5B9F4F9E012E5B3F4FF90120813181D5
:10451000FC0131832083CE018A5B9F4FFC018081A7
:1045200091810197F1F79E012A5B3F4FF901918339
:1045300080830DC080911405843648F48091110564
:10454000853628F080911C05843608F401C0D2CC51
:1045500061E070E082E090E0FDD9C95BDF4F0FB60B
:10456000F894DEBF0FBECDBFDF91CF911F910F91A9
:104570000895CF93DF93CDB7DEB7E8970FB6F894E1
:10458000DEBF0FBECDBF0E94FA1080E090E0A8E42D
:10459000B3E489839A83AB83BC8326E636E646E69A
:1045A00055E469817A818B819C810E94453ADC01C6
:1045B000CB018D839E83AF83B88720E030E040E855
:1045C0005FE36D817E818F8198850E94F738882313
:1045D0002CF481E090E09A8789873FC020E03FEF8C
:1045E0004FE757E46D817E818F8198850E94413A23
:1045F00018164CF520E030E040E251E469817A8100
:104600008B819C810E94453ADC01CB01BC01CD012C
:104610000E946339DC01CB019A8789870FC080E74C
:1046200091E09C878B878B859C850197F1F79C8710
:104630008B8789859A8501979A87898789859A8545
:10464000009769F714C06D817E818F8198850E94E3
:104650006339DC01CB019A87898789859A859E8792
:104660008D878D859E850197F1F79E878D870E94A6
:10467000031180E090E0A8E4B3E48F87988BA98BC6
:10468000BA8B26E636E646E655E46F857889898951
:104690009A890E94453ADC01CB018B8B9C8BAD8BB8
:1046A000BE8B20E030E040E85FE36B897C898D8938
:1046B0009E890E94F73888232CF481E090E0988F3F
:1046C0008F8B3FC020E03FEF4FE757E46B897C8939
:1046D0008D899E890E94413A18164CF520E030E001
:1046E00040E251E46F85788989899A890E94453A28
:1046F000DC01CB01BC01CD010E946339DC01CB019F
:10470000988F8F8B0FC080E791E09A8F898F898D6A
:104710009A8D0197F1F79A8F898F8F89988D0197DC
:10472000988F8F8B8F89988D009769F714C06B894C
:104730007C898D899E890E946339DC01CB01988F29
:104740008F8B8F89988D9C8F8B8F8B8D9C8D0197F4
:10475000F1F79C8F8B8F0E94271180E090E0A8E4F6
:10476000B2E48D8F9E8FAF8FB8A326E636E646E67D
:1047700055E46D8D7E8D8F8D98A10E94453ADC01A8
:10478000CB0189A39AA3ABA3BCA320E030E040E80F
:104790005FE369A17AA18BA19CA10E94F7388823CD
:1047A0002CF481E090E09EA38DA33FC020E03FEF7A
:1047B0004FE757E469A17AA18BA19CA10E94413ADD
:1047C00018164CF520E030E040E251E46D8D7E8D0E
:1047D0008F8D98A10E94453ADC01CB01BC01CD012F
:1047E0000E946339DC01CB019EA38DA30FC080E73B
:1047F00091E098A78FA38FA198A50197F1F798A7AB
:104800008FA38DA19EA101979EA38DA38DA19EA193
:10481000009769F714C069A17AA18BA19CA10E949D
:104820006339DC01CB019EA38DA38DA19EA19AA724
:1048300089A789A59AA50197F1F79AA789A70E9448
:10484000031188E291E024E6FC0120838AE291E0F2
:1048500024E6FC01208383E00E94DA128093140591
:1048600080911405803560F182E290E0FC011082B5
:1048700000000E94271180E090E0A8E4B3E48BA739
:104880009CA7ADA7BEA726E636E646E655E46BA58F
:104890007CA58DA59EA50E94453ADC01CB018FA782
:1048A00098ABA9ABBAAB20E030E040E85FE36FA57E
:1048B00078A989A99AA90E94F738882314F006C01C
:1048C000CACF81E090E09CAB8BAB3FC020E03FEFD4
:1048D0004FE757E46FA578A989A99AA90E94413AA0
:1048E00018164CF520E030E040E251E46BA57CA5C1
:1048F0008DA59EA50E94453ADC01CB01BC01CD01EE
:104900000E946339DC01CB019CAB8BAB0FC080E70D
:1049100091E09EAB8DAB8DA99EA90197F1F79EAB5F
:104920008DAB8BA99CA901979CAB8BAB8BA99CA948
:10493000009769F714C06FA578A989A99AA90E9460
:104940006339DC01CB019CAB8BAB8BA99CA998AFE5
:104950008FAB8FA998AD0197F1F798AF8FAB88E235
:1049600091E020913602FC0120838AE291E02091BF
:104970003602FC012083E8960FB6F894DEBF0FBE26
:10498000CDBFDF91CF910895CF93DF93CDB7DEB741
:10499000E8970FB6F894DEBF0FBECDBF0E9403119B
:1049A00080E090E0A8E4B3E489839A83AB83BC837E
:1049B00026E636E646E655E469817A818B819C815C
:1049C0000E94453ADC01CB018D839E83AF83B8877B
:1049D00020E030E040E85FE36D817E818F81988543
:1049E0000E94F73888232CF481E090E09A87898729
:1049F0003FC020E03FEF4FE757E46D817E818F811C
:104A000098850E94413A18164CF520E030E040E2CB
:104A100051E469817A818B819C810E94453ADC0155
:104A2000CB01BC01CD010E946339DC01CB019A8727
:104A300089870FC080E791E09C878B878B859C8559
:104A40000197F1F79C878B8789859A8501979A87CB
:104A5000898789859A85009769F714C06D817E8161
:104A60008F8198850E946339DC01CB019A87898701
:104A700089859A859E878D878D859E850197F1F71B
:104A80009E878D870E94271180E090E0A8E4B2E421
:104A90008F87988BA98BBA8B26E636E646E655E4D7
:104AA0006F85788989899A890E94453ADC01CB0112
:104AB0008B8B9C8BAD8BBE8B20E030E040E85FE3BE
:104AC0006B897C898D899E890E94F73888232CF414
:104AD00081E090E0988F8F8B3FC020E03FEF4FE761
:104AE00057E46B897C898D899E890E94413A18160A
:104AF0004CF520E030E040E251E46F857889898907
:104B00009A890E94453ADC01CB01BC01CD010E948B
:104B10006339DC01CB01988F8F8B0FC080E791E068
:104B20009A8F898F898D9A8D0197F1F79A8F898F46
:104B30008F89988D0197988F8F8B8F89988D00978B
:104B400069F714C06B897C898D899E890E946339BD
:104B5000DC01CB01988F8F8B8F89988D9C8F8B8FE9
:104B60008B8D9C8D0197F1F79C8F8B8F0E94031189
:104B700088E291E024E6FC0120838AE291E024E6C9
:104B8000FC01208383E00E94DA1280931405809157
:104B90001405803560F182E290E0FC011082000093
:104BA0000E94031180E090E0A0EAB0E48D8F9E8F18
:104BB000AF8FB8A326E636E646E655E46D8D7E8DCA
:104BC0008F8D98A10E94453ADC01CB0189A39AA35D
:104BD000ABA3BCA320E030E040E85FE369A17AA189
:104BE0008BA19CA10E94F738882314F006C0CACF7D
:104BF00081E090E09EA38DA33FC020E03FEF4FE710
:104C000057E469A17AA18BA19CA10E94413A181690
:104C10004CF520E030E040E251E46D8D7E8D8F8DCB
:104C200098A10E94453ADC01CB01BC01CD010E9454
:104C30006339DC01CB019EA38DA30FC080E791E017
:104C400098A78FA38FA198A50197F1F798A78FA395
:104C50008DA19EA101979EA38DA38DA19EA10097DA
:104C600069F714C069A17AA18BA19CA10E94633944
:104C7000DC01CB019EA38DA38DA19EA19AA789A73C
:104C800089A59AA50197F1F79AA789A70E942711EC
:104C900080E090E0A8E4B3E48BA79CA7ADA7BEA7F3
:104CA00026E636E646E655E46BA57CA58DA59EA5D1
:104CB0000E94453ADC01CB018FA798ABA9ABBAABF8
:104CC00020E030E040E85FE36FA578A989A99AA9C0
:104CD0000E94F73888232CF481E090E09CAB8BABEA
:104CE0003FC020E03FEF4FE757E46FA578A989A9BF
:104CF0009AA90E94413A18164CF520E030E040E2B3
:104D000051E46BA57CA58DA59EA50E94453ADC01CA
:104D1000CB01BC01CD010E946339DC01CB019CAB0E
:104D20008BAB0FC080E791E09EAB8DAB8DA99EA9A8
:104D30000197F1F79EAB8DAB8BA99CA901979CAB1A
:104D40008BAB8BA99CA9009769F714C06FA578A9B4
:104D500089A99AA90E946339DC01CB019CAB8BAB7A
:104D60008BA99CA998AF8FAB8FA998AD0197F1F74C
:104D700098AF8FAB88E291E020913602FC0120834E
:104D80008AE291E020913602FC012083E8960FB67A
:104D9000F894DEBF0FBECDBFDF91CF910895CF93C2
:104DA000DF93CDB7DEB7E8970FB6F894DEBF0FBE3E
:104DB000CDBF0E94FA1080E090E0AAE7B3E48983B7
:104DC0009A83AB83BC8326E636E646E655E46981E2
:104DD0007A818B819C810E94453ADC01CB018D83D5
:104DE0009E83AF83B88720E030E040E85FE36D81C9
:104DF0007E818F8198850E94F73888232CF481E08A
:104E000090E09A8789873FC020E03FEF4FE757E463
:104E10006D817E818F8198850E94413A18164CF5EC
:104E200020E030E040E251E469817A818B819C810D
:104E30000E94453ADC01CB01BC01CD010E946339DF
:104E4000DC01CB019A8789870FC080E791E09C87BE
:104E50008B878B859C850197F1F79C878B8789854C
:104E60009A8501979A87898789859A85009769F736
:104E700014C06D817E818F8198850E946339DC0129
:104E8000CB019A87898789859A859E878D878D85AD
:104E90009E850197F1F79E878D870E940C1180E017
:104EA00090E0A8E4B3E48F87988BA98BBA8B26E6B1
:104EB00036E646E655E46F85788989899A890E94A5
:104EC000453ADC01CB018B8B9C8BAD8BBE8B20E0FC
:104ED00030E040E85FE36B897C898D899E890E9480
:104EE000F73888232CF481E090E0988F8F8B3FC0B7
:104EF00020E03FEF4FE757E46B897C898D899E89DD
:104F00000E94413A18164CF520E030E040E251E4AE
:104F10006F85788989899A890E94453ADC01CB019D
:104F2000BC01CD010E946339DC01CB01988F8F8BCE
:104F30000FC080E791E09A8F898F898D9A8D0197B4
:104F4000F1F79A8F898F8F89988D0197988F8F8B22
:104F50008F89988D009769F714C06B897C898D893A
:104F60009E890E946339DC01CB01988F8F8B8F89DA
:104F7000988D9C8F8B8F8B8D9C8D0197F1F79C8FDB
:104F80008B8F0E94271180E090E0A8E4B2E48D8F1F
:104F90009E8FAF8FB8A326E636E646E655E46D8DC4
:104FA0007E8D8F8D98A10E94453ADC01CB0189A3AB
:104FB0009AA3ABA3BCA320E030E040E85FE369A183
:104FC0007AA18BA19CA10E94F73888232CF481E060
:104FD00090E09EA38DA33FC020E03FEF4FE757E452
:104FE00069A17AA18BA19CA10E94413A18164CF5A7
:104FF00020E030E040E251E46D8D7E8D8F8D98A1F0
:105000000E94453ADC01CB01BC01CD010E9463390D
:10501000DC01CB019EA38DA30FC080E791E098A790
:105020008FA38FA198A50197F1F798A78FA38DA1C2
:105030009EA101979EA38DA38DA19EA1009769F7C4
:1050400014C069A17AA18BA19CA10E946339DC01E3
:10505000CB019EA38DA38DA19EA19AA789A789A507
:105060009AA50197F1F79AA789A70E940C1188E2E7
:1050700091E024E6FC0120838AE291E024E6FC0131
:10508000208381E00E94DA1280931105809111053E
:10509000803560F182E290E0FC01108200000E9405
:1050A000271180E090E0A8E4B3E48BA79CA7ADA70C
:1050B000BEA726E636E646E655E46BA57CA58DA59B
:1050C0009EA50E94453ADC01CB018FA798ABA9AB06
:1050D000BAAB20E030E040E85FE36FA578A989A98A
:1050E0009AA90E94F738882314F006C0CACF81E03D
:1050F00090E09CAB8BAB3FC020E03FEF4FE757E425
:105100006FA578A989A99AA90E94413A18164CF569
:1051100020E030E040E251E46BA57CA58DA59EA582
:105120000E94453ADC01CB01BC01CD010E946339EC
:10513000DC01CB019CAB8BAB0FC080E791E09EAB59
:105140008DAB8DA99EA90197F1F79EAB8DAB8BA975
:105150009CA901979CAB8BAB8BA99CA9009769F785
:1051600014C06FA578A989A99AA90E946339DC01A6
:10517000CB019CAB8BAB8BA99CA998AF8FAB8FA9B4
:1051800098AD0197F1F798AF8FAB88E291E020914D
:105190003602FC0120838AE291E020913602FC0174
:1051A0002083E8960FB6F894DEBF0FBECDBFDF9127
:1051B000CF910895CF93DF93CDB7DEB78AE790E024
:1051C000FC0110828BE790E0FC0110828CE790E0FC
:1051D00020E2FC01208380E590E020E8FC012083B0
:1051E0008AE790E026E8FC012083DF91CF910895C3
:1051F000CF93DF93CDB7DEB7F8940E946610DADF65
:105200000E946D0F0E94220F78940E94AD000E94B0
:105210003306DF91CF910895CF93DF931F921F92B2
:10522000CDB7DEB79A83898389819A8181309105D0
:1052300029F480911E0290911F0270C089819A8189
:105240008230910529F4809120029091210266C05C
:1052500089819A818330910529F48091220290916D
:1052600023025CC089819A818430910529F4809160
:1052700024029091250252C089819A81853091053E
:1052800029F4809126029091270248C089819A8151
:105290008630910529F480912802909129023EC020
:1052A00089819A818730910529F480912A02909111
:1052B0002B0234C089819A818830910529F480912C
:1052C0002C0290912D022AC089819A818930910502
:1052D00029F480912E0290912F0220C089819A8119
:1052E0008A30910529F4809130029091310216C0E4
:1052F00089819A818B30910529F4809132029091B5
:1053000033020CC089819A818C30910529F48091F7
:1053100034029091350202C08FEF9FEF0F900F90F3
:10532000DF91CF910895CF93DF93CDB7DEB72F975D
:105330000FB6F894DEBF0FBECDBF9A8789876B8703
:105340005D874C873F872E878E859F85FC018081F6
:10535000918198878F831A82198245C389819A81A6
:10536000880F991F29853A85820F931FFC01808140
:105370009181009779F489819A810196880F991F0C
:1053800029853A85820F931FFC01808191818130AC
:105390009105F1F089819A81880F991F29853A85B5
:1053A000820F931FFC0180819181009709F091C1C8
:1053B00089819A810196880F991F29853A85820FE4
:1053C000931FFC01808191818E30910509F081C18C
:1053D0001C821B8251C089819A81880F991F29855F
:1053E0003A85820F931FFC01808191819C01220FDD
:1053F000331F220F331F8B819C81820F931F880FD5
:10540000991F85509C4FFC012081318189819A81AF
:105410000196880F991F49855A85840F951FFC01B5
:10542000808191812817390711F58B819C81009724
:1054300021F48EE6809309021AC08B819C81813011
:10544000910521F485E68093090211C08B819C812E
:105450008230910521F483E78093090208C08B8193
:105460009C818330910519F487E7809309028B8131
:105470009C8101969C838B838B819C8184309105D8
:105480000CF4A9CF8B858E3671F4809109028E368B
:1054900051F461E070E082E090E00E94AA1C8091EB
:1054A00009028B8715C18B858E3679F480910902AC
:1054B000853659F45ED861E070E082E090E00E94A9
:1054C000AA1C809109028B8703C18B858E3681F4DB
:1054D00080910902833761F44CD84BD861E070E0C9
:1054E00082E090E00E94AA1C809109028B87F0C0A4
:1054F0008B858E3679F480910902873759F44FDC19
:1055000061E070E082E090E00E94AA1C80910902B4
:105510008B87DEC08B85853671F4809109028536D4
:1055200051F461E070E082E090E00E94AA1C80915A
:1055300009028B87CDC08B85853679F4809109026D
:10554000833759F416D861E070E082E090E00E9461
:10555000AA1C809109028B87BBC08B85853681F49C
:1055600080910902873761F404D803D861E070E0C4
:1055700082E090E00E94AA1C809109028B87A8C05B
:105580008B85853679F4809109028E3659F407DCD3
:1055900061E070E082E090E00E94AA1C8091090224
:1055A0008B8796C08B85833771F48091090283378E
:1055B00051F461E070E082E090E00E94AA1C8091CA
:1055C00009028B8785C08B85833781F4809109021E
:1055D000873761F40E94B92261E070E082E090E0D8
:1055E0000E94AA1C809109028B8772C08B85833729
:1055F00091F4809109028E3671F40E94B9220E94C2
:10560000B92261E070E082E090E00E94AA1C8091E3
:1056100009028B875DC08B85833779F480910902FD
:10562000853659F4BCDB61E070E082E090E00E94D6
:10563000AA1C809109028B874BC08B85873771F438
:1056400080910902873751F461E070E082E090E0D8
:105650000E94AA1C809109028B873AC08B858737EC
:1056600081F4809109028E3661F40E94B92261E0D2
:1056700070E082E090E00E94AA1C809109028B8772
:1056800027C08B85873791F480910902853671F4A4
:105690000E94B9220E94B92261E070E082E090E0AD
:1056A0000E94AA1C809109028B8712C08B858737C4
:1056B00079F480910902833759F471DB61E070E07D
:1056C00082E090E00E94AA1C809109028B8786C12B
:1056D00085C11E821D8251C089819A81880F991FC0
:1056E00029853A85820F931FFC01808191819C015D
:1056F000220F331F220F331F8D819E81820F931F34
:10570000880F991F85509C4FFC0120813181898130
:105710009A810196880F991F49855A85840F951F94
:10572000FC01808191812817390711F58D819E81B7
:10573000009721F48EE6809309021AC08D819E8124
:105740008130910521F485E68093090211C08D8195
:105750009E818230910521F483E78093090208C07D
:105760008D819E818330910519F487E7809309022A
:105770008D819E8101969E838D838D819E81843053
:1057800091050CF4A9CF8B858E3671F480910902B6
:105790008E3651F461E070E080E090E00E94AA1C37
:1057A000809109028B871AC18B858E3681F4809196
:1057B0000902853661F40E94B92261E070E080E060
:1057C00090E00E94AA1C809109028B8707C18B85FB
:1057D0008E3691F480910902833771F40E94B922C8
:1057E0000E94B92261E070E080E090E00E94AA1C73
:1057F000809109028B87F2C08B858E3679F4809177
:105800000902873759F4CBDA61E070E080E090E07C
:105810000E94AA1C809109028B87E0C08B85853687
:1058200071F480910902853651F461E070E080E006
:1058300090E00E94AA1C809109028B87CFC08B85C3
:10584000853681F480910902833761F40E94B92280
:1058500061E070E080E090E00E94AA1C8091090263
:105860008B87BCC08B85853691F480910902873780
:1058700071F40E94B9220E94B92261E070E080E0D8
:1058800090E00E94AA1C809109028B87A7C08B859B
:10589000853679F4809109028E3659F480DA61E018
:1058A00070E080E090E00E94AA1C809109028B8742
:1058B00095C08B85833771F480910902833751F449
:1058C00061E070E080E090E00E94AA1C80910902F3
:1058D0008B8784C08B85833781F480910902873759
:1058E00061F40E94B92261E070E080E090E00E94E3
:1058F000AA1C809109028B8771C08B85833791F434
:10590000809109028E3671F40E94B9220E94B92258
:1059100061E070E080E090E00E94AA1C80910902A2
:105920008B875CC08B85833779F48091090285363B
:1059300059F435DA61E070E080E090E00E94AA1C42
:10594000809109028B874AC08B85873771F48091DB
:105950000902873751F461E070E080E090E00E9436
:10596000AA1C809109028B8739C08B85873781F407
:10597000809109028E3661F40E94B92261E070E0E4
:1059800080E090E00E94AA1C809109028B8726C0CB
:105990008B85873791F480910902853671F40E94D6
:1059A000B9220E94B92261E070E080E090E00E949C
:1059B000AA1C809109028B8711C08B85873771F4EF
:1059C00080910902833751F4EAD961E070E080E008
:1059D00090E00E94AA1C809109028B8789819A819C
:1059E00001969A8389838F8198859C012150310982
:1059F00089819A81821793070CF4B0CC2F960FB649
:105A0000F894DEBF0FBECDBFDF91CF910895CF9345
:105A1000DF931F921F92CDB7DEB789836A83898196
:105A20008E3631F48A818E3619F48A818983A2C038
:105A300089818E3641F48A81853629F40E94B92203
:105A40008A81898397C089818E3651F48A81833710
:105A500039F40E94B9220E94C4248A8189838AC0B1
:105A600089818E3639F48A81873721F498D98A81E1
:105A7000898380C08981853631F48A81853619F41D
:105A80008A81898377C08981853641F48A81833709
:105A900029F40E94B9228A8189836CC08981853664
:105AA00051F48A81873739F40E94B9220E94C424B4
:105AB0008A8189835FC08981853639F48A818E36EF
:105AC00021F46DD98A81898355C08981833731F466
:105AD0008A81833719F48A8189834CC0898183370D
