S00D00005461736B352E737265634F
S1130000B2C00000D1C00000CFC00000CDC00000CD
S1130010CBC00000FBC50000D4C50000C5C0000073
S1130020C3C00000C1C00000BFC00000BDC00000CC
S1130030BBC00000B9C00000B7C00000B5C00000DC
S1130040B3C00000B1C00000AFC00000ADC00000EC
S1130050ABC00000A9C00000A7C00000A5C00000FC
S1130060A3C00000A1C000009FC000009DC000000C
S11300709BC0000099C0000097C0000095C000001C
S113008093C0000091C000008FC000008DC000002C
S11300908BC0000089C0000087C0000085C000003C
S11300A083C0000081C000007FC000007DC000004C
S11300B07BC0000079C0000077C0000075C000005C
S11300C073C0000071C000006FC000006DC000006C
S11300D06BC0000069C0000067C0000065C000007C
S11300E063C0000007634236B79BD8A71A39685625
S11300F018AEBAAB558C1D3CB7CC5763BD6DEDFD46
S1130100753EF6177231BF000000803F0800000002
S1130110BE922449123EABAAAA2ABECDCCCC4C3EF8
S113012000000080BEABAAAAAA3E00000000BF00E7
S11301300000803F0000000000084178D3BB4387E3
S1130140D1133D190E3CC3BD4282AD2B3E68EC82F7
S113015076BED98FE1A93E4C80EFFFBE01C4FF7F7C
S11301603F000000000011241FBECFEFD1E2DEBF2C
S1130170CDBF00E00CBF14E0A0E0B2E0EEEAF5E58C
S113018000E00BBF02C007900D92A23EB107D9F761
S113019025E0A2EEB4E001C01D92A036B207E1F75B
S11301A00E9401180C94D52A2BCF87B1876F87B989
S11301B088B1887088B9089586E69EE00197F1F7C2
S11301C000004098419880E388B9429A8FEF97E401
S11301D00197F1F700C00000429886E69EE001977F
S11301E0F1F700004098419880E388B9429A8FEF74
S11301F097E40197F1F700C00000429886E69EE07C
S11302000197F1F700004098419880E388B9429A39
S11302108FEF97E40197F1F700C00000429886E65B
S11302209EE00197F1F700004098419880E288B978
S1130230429A8FEF97E40197F1F700C000004298CB
S1130240089598B19F7098B998B1282F207F922B68
S113025098B940984198429AEFEFF7E43197F1F753
S113026000C00000429898B19F7098B998B18295E7
S1130270807F892B88B940984198429A8FEF97E400
S11302800197F1F700C000004298089595DF86E6D3
S11302909EE00197F1F7000088E2D3DF81E0D1DF2F
S11302A086E0CFDF8EE0CDDF80E8CBCF089598B134
S11302B09F7098B998B1282F207F922B98B9409AB3
S11302C04198429AEFEFF7E43197F1F700C000004C
S11302D0429898B19F7098B998B18295807F892B84
S11302E088B9409A4198429A8FEF97E40197F1F7C1
S11302F000C000004298089580E8A3CF0895CF93EA
S1130300DF93EC018881882329F02196D0DF89913D
S11303108111FCCFDF91CF9108950F931F93CF9359
S1130320DF938A01E901882311F0611102C0E4DF3F
S11303301AC0823069F018F4813031F014C083306F
S113034059F0843069F00FC08FE7860F7ADF0BC055
S11303508FEB860F76DF07C083E9860F72DF03C059
S113036083ED860F6EDFC530D10509F0D5C0980145
S1130370329522952F7023273F702327A7E4B3E0FB
S11303800E949F299695879596958795969587952A
S1130390C096909329058093280589DF98013695A6
S11303A027953695279536952795A5ECB0E20E94BA
S11303B09F29AC01529542954F7045275F704527A0
S11303C050932D0540932C059A01ADECBCEC0E9492
S11303D09F299695879596958795969587959C01DF
S11303E0220F331F880F991F880F991F880F991F99
S11303F0820F931F481B590BCA01C096909359054D
S11304008093580554DF04C0C330D10509F089C076
S113041098013695279536952795ABE7B4E10E9468
S11304209F29AC015695479550932D0540932C0573
S11304309A01ADECBCEC0E949F2996958795969500
S11304408795969587959C01220F331F880F991FD6
S1130450880F991F880F991F820F931F481B590BF0
S1130460CA01C096909334058093330520DF980128
S1130470ADECBCEC0E949F29AC015695479556956E
S113048047955695479550932D0540932C059A0111
S11304900E949F2996958795969587959695879519
S11304A09C01220F331F880F991F880F991F880FF3
S11304B0991F820F931F481B590BCA01C096909332
S11304C0320580933105F3DE03C0C130D105F9F460
S11304D09801ADECBCEC0E949F2996958795969562
S11304E08795969587959C01220F331F880F991F36
S11304F0880F991F880F991F820F931F081B190BD0
S1130500C801C0969093570580935605D0DE269770
S113051064F085E4CCDE09C0C430D10509F074CFA1
S11305203DCFC230D10589F6A2CFDF91CF911F9183
S11305300F9108959B01215031093323C4F0DB014D
S1130540AA0FBB1FA80FB91FFC0140E050E0808137
S113055091817E916E916193719311969C938E9388
S11305604F5F5F4F215031092417350784F70895F1
S113057020916704309168042817390769F0E9E687
S1130580F4E04BE754E0219131912817390739F011
S1130590E417F507C1F706C081E090E0089581E013
S11305A090E0089580E090E008952F923F924F925A
S11305B05F926F927F928F929F92AF92BF92CF92EF
S11305C0DF92EF92FF920F931F93CF93DF93CDB7F8
S11305D0DEB7C252D2400FB6F894DEBF0FBECDBF15
S11305E04B01161617060CF05AC0082F192FCE010E
S11305F001967C018EE1869F5001879FB00C1124E7
S1130600AE0CBF1C6B01CC0CDD1C6FE077E217C095
S113061081919191009721F411967C936E9303C07C
S113062011969C938E931296E217F30789F7025E54
S11306301F4F9EE1E90EF11CEA14FB0431F098010E
S11306402C0D3D1DD701F801E3CF8EE1849F90016D
S1130650859F300D1124A1E0B0E0AC0FBD1F2A0F1F
S11306603B1FFE01ED53FE4FCE018F519E4FDE0125
S1130670A150BE4FCE0EDF1E89019D01D8016D91A0
S11306807D918D0161937193DC014D935D93CD0157
S1130690D9011D921D929D01EC15FD0579F7440FBA
S11306A0551FE3ECF1E0EC0FFD1FE40FF51F118281
S11306B01082EFEFF1E0EC0FFD1FE40FF51F81E076
S11306C090E091838083C4010197C15EDD4F9983DB
S11306D08883CF51D24002970CF49DC0B401660FB9
S11306E0771FAA24A394B12CDE01A150BE4FC35E90
S11306F0DD4FB983A883CD51D240C35EDD4F58800E
S1130700CD51D240C25EDD4F4880CE51D240312C13
S1130710212C73C02D913D912417350734F4608149
S11307207181672B11F43C01A90101963296881559
S1130730990581F7B801E62CF72CF301EE0FFF1FA2
S11307408FEF91E08C0F9D1FE80FF91FA1E0B0E03F
S1130750B183A083BEE1B69D6001B79DD00C112486
S113076081E090E08C0F9D1FC80ED91EFE01ED5351
S1130770FE4FA52DB42D832D922DCF5DDD4FB98372
S1130780A883C152D240CF5DDD4FA881B981C15247
S1130790D2402D913D91CF5DDD4FB983A883C152E5
S11307A0D240232BC9F49601280F391FD9012D916A
S11307B03C91240F351F008111812017310764F407
S11307C03183208321EE31E02C0F3D1F280F391F88
S11307D0D901EC921196FC920296329686179707ED
S11307E091F6BFEFAB1ABB0AC15EDD4F88819981D8
S11307F0CF51D240A816B90674F41814190474F52C
S1130800E52DF42DDE01AD53BE4F832D922D4FE027
S113081057E28B017FCF1814190474F5FE01ED53D0
S1130820FE4FA8E3B5E0880C991C94012E0F3F1FDE
S1130830819191918D939D93E217F307C9F7FE017E
S1130840EF51FE4FA8E0B5E08E0E9F1E819191916D
S11308508D939D93E815F905C9F70EC0F301EE0FCA
S1130860FF1FAFEFB1E0AC0FBD1FEA0FFB1F81E02C
S113087090E091838083B5CFCE5DDD4F0FB6F894C1
S1130880DEBF0FBECDBFDF91CF911F910F91FF90BF
S1130890EF90DF90CF90BF90AF909F908F907F901C
S11308A06F905F904F903F902F9008950F931F93F8
S11308B0CF93DF93EC018B01F901880F991F885CBA
S11308C09A4FDB01AA0FBB1FBD01685C7A4FDC01A4
S11308D02D913C91DB018D919C9182179307D4F16A
S11308E080910605909107058C179D0751F1A08111
S11308F0B181AA0FBB1FA40FB51FCD93DC938081D8
S113090091810196918380839E01D901AA0FBB1F17
S1130910A85FBA4F2D913C91A081B181AA0FBB1F52
S1130920A40FB51F2D933C93608171816F5F7F4F3E
S11309307183608360910605709107052617370758
S113094021F760817181CA01F5DDD0930705C09359
S1130950060538C080910605909107058017910718
S113096049F1A081B181AA0FBB1FA40FB51F0D933C
S11309701C93808191810196918380839801D90190
S1130980AA0FBB1FA85FBA4F2D913C91A081B181E2
S1130990AA0FBB1FA40FB51F2D933C938081918197
S11309A0019691838083809106059091070528170D
S11309B0390729F760817181CA01BCDD10930705ED
S11309C000930605DF91CF911F910F910895813017
S11309D0910529F48091650490916604089582300C
S11309E0910529F4809163049091640408958330FF
S11309F0910529F4809161049091620408958430F2
S1130A00910529F480915F049091600408958530E4
S1130A10910529F480915D0490915E0408958630D7
S1130A20910529F480915B0490915C0408958730CA
S1130A30910529F48091590490915A0408958830BD
S1130A40910529F4809157049091580408958930B0
S1130A50910529F4809155049091560408958A30A3
S1130A60910529F4809153049091540408958B3096
S1130A70910529F4809151049091520408950C97A2
S1130A8029F480914F049091500408958FEF9FEFC3
S1130A9008958130910529F480914D0490914E047C
S1130AA008958230910529F480914B0490914C046F
S1130AB008958330910529F48091490490914A0462
S1130AC00895049729F48091470490914804089567
S1130AD08FEF9FEF0895E1E8F0E010828CEF8093B0
S1130AE0850081E08093840093E0909389008FEFE8
S1130AF08093880090938B0080938A0090938D005C
S1130B0080938C0090938700809386008BEA809377
S1130B108000109282008CE080830895E1E2F1E08D
S1130B2010828FEF8093250191E09093240110921D
S1130B3029018093280110922B0180932A0110929D
S1130B402D0180932C0189EA809320018BE080831E
S1130B5008959B9AA398089581B18F6081B982B159
S1130B60807F82B9EAE0F1E0808188618083EBE0F4
S1130B70F1E08081886180830895259A2D9A0895F3
S1130B80269A2E9A0895279A2F9A0895E1E0F1E083
S1130B9080818FEF8083E2E0F1E080818E7F80832B
S1130BA0089510BA11BA109207011092080108951D
S1130BB0D0DFD2DFE2DFE4DFE6DFE8DFF6DAF1CF31
S1130BC008951F920F920FB60F9211248F939F9343
S1130BD0AF93BF938091E6049091E704A091E80459
S1130BE0B091E9040196A11DB11D8093E604909390
S1130BF0E704A093E804B093E904BF91AF919F91F7
S1130C008F910F900FBE0F901F9018951F920F9207
S1130C100FB60F9211248F939F93AF93BF9380913C
S1130C20EA049091EB04A091EC04B091ED040196D8
S1130C30A11DB11D8093EA049093EB04A093EC04EE
S1130C40B093ED04BF91AF919F918F910F900FBE20
S1130C500F901F90189592B1907F8F70982B92B936
S1130C60089586E0F8CF089589E0F5CF089585E0EA
S1130C70F2CF08958AE0EFCF089584E0ECCF089591
S1130C8082E0E9CF089580E0E6CF089583E0809381
S1130C9089008FEF80938800089583E080938B0010
S1130CA08FEF80938A00089583E080938D008FEF07
S1130CB080938C00089583E080938D008FEF809360
S1130CC08C000895883018F098E090937B0087702A
S1130CD0806280937C00EAE7F0E080818064808316
S1130CE0808184FFFDCF80917900EAE7F0E0908174
S1130CF09061908310927B000895682F70E080E0EB
S1130D0090E00E9449272FEE39EC43E95FE30E940B
S1130D103A289B01AC0160E070E080E89FE30E9408
S1130D20B0262AE939EF4EE255E40E94D72720E0A5
S1130D3030E040E251E40E94D7270E941827CB01FB
S1130D40613223E0720710F080E293E00895CF93BC
S1130D50DF93EC019BDAC330D10509F435C02CF4E0
S1130D60209751F0219771F034C0C530D10581F03E
S1130D7004F1269799F02DC082E863DA89E894E0BB
S1130D80BEDA27C082E85DDA87E994E0B8DA21C0E8
S1130D9082E857DA85EA94E0B2DA1BC085E851DAD2
S1130DA08DEA94E0ACDA80EC4CDA83EB94E0A7DAD9
S1130DB010C085E846DA82EC94E0A1DA82EC41DAEC
S1130DC089EC94E09CDA05C082E83BDA87ED94E094
S1130DD096DADF91CF9108951F93CF93DF9353DF7A
S1130DE02FEF8FE79DE0215080409040E1F700C055
S1130DF0000086E98093280180932A0180910605EA
S1130E00909107058130910511F00B97D9F42FDFEC
S1130E102FEF8FEF98E0215080409040E1F700C021
S1130E20000031DF2FEF8FE794E0215080409040A5
S1130E30E1F700C0000084E68093280180932A0132
S1130E4019DF1AC017DF2FEF8FEF98E02150804091
S1130E509040E1F700C0000016DF2FEF8FE794E029
S1130E60215080409040E1F700C0000084E6809368
S1130E70280180932A01FBDEC0E2D3E001C0EC012B
S1130E808DE020DF182F39DFC817D907C0F7893C58
S1130E909105A8F3133398F312B8F5DEDF91CF91DF
S1130EA01F910895E2E0F1E08081816080832FEF5B
S1130EB08FE794E0215080409040E1F700C00000AB
S1130EC01092890086E5809388002FEF8FEB91E2E2
S1130ED0215080409040E1F700C00000D7DE10921E
S1130EE08D008EE680938C002FEF8FEB91E22150E2
S1130EF080409040E1F700C00000D6DE10928B00E5
S1130F0089E580938A002FEF8FEF9CE22150804087
S1130F109040E1F700C0000010928D008DE28093B4
S1130F208C002FEF8FEF9CE2215080409040E1F73E
S1130F3000C0000010928B0083E280938A002FEFA0
S1130F408FEF9CE2215080409040E1F700C0000008
S1130F500895E2E0F1E080818E7F80832FEF8FE7B8
S1130F6094E0215080409040E1F700C000001092CE
S1130F70890085E4809388002FEF8FEB91E2215064
S1130F8080409040E1F700C0000080DE10928D00A8
S1130F908DE280938C002FEF8FEF9CE221508040F4
S1130FA09040E1F700C0000086DE10928B0088E5D7
S1130FB080938A002FEF8FE793E421508040904084
S1130FC0E1F700C0000010928D0089E780938C0047
S1130FD02FEF8FEF9CE2215080409040E1F700C05A
S1130FE0000010928B0083E280938A002FEF8FEF32
S1130FF09CE2215080409040E1F700C000004DDEAB
S11310001092890083E5809388002FEF8FEB91E2A3
S1131010215080409040E1F700C0000037CE089591
S11310201092890085E2809388002FEF8FEF9CE275
S1131030215080409040E1F700C0000027DEE2E04C
S1131040F1E08081816080832FEF8FE794E021506D
S113105080409040E1F700C0000010928D0080E3D2
S113106080938C002FEF8FEF9CE2215080409040C2
S1131070E1F700C0000080818E7F80832FEF8FE72F
S113108094E0215080409040E1F700C000001092AD
S11310908D0083E780938C002FEF8FEF9CE221502B
S11310A080409040E1F700C0000010928B0088E37C
S11310B080938A002FEF8FEF9CE221508040904074
S11310C0E1F700C000008081816080832FEF8FE70B
S11310D094E0215080409040E1F700C0000010925D
S11310E08D008BE580938C002FEF8FEF9CE22150D5
S11310F080409040E1F700C00000D6DDE2E0F1E07E
S113110080818E7F80832FEF8FE794E02150804091
S11311109040E1F700C0000010928D0088E38093B6
S11311208C002FEF8FEF9CE2215080409040E1F73C
S113113000C00000B9DD10928B0083E280938A0026
S11311402FEF8FEF9CE2215080409040E1F700C0E8
S11311500000A3DD1092890086E5809388002FEFBC
S11311608FEF9CE2215080409040E1F700C00000E6
S11311708DCD08951092890083E8809388002FEF25
S11311808FEF9CE2215080409040E1F700C00000C6
S11311907DDDE2E0F1E08081816080832FEF8FE7E5
S11311A094E0215080409040E1F700C0000010928C
S11311B08D0080E380938C002FEF8FEF9CE2215011
S11311C080409040E1F700C0000080818E7F8083E2
S11311D02FEF8FE794E0215080409040E1F700C06A
S11311E0000010928D0083E780938C002FEF8FEF27
S11311F09CE2215080409040E1F700C00000109232
S11312008B0088E380938A002FEF8FEF9CE22150BC
S113121080409040E1F700C00000808181608083BD
S11312202FEF8FE794E0215080409040E1F700C019
S1131230000010928D008BE580938C002FEF8FEFD0
S11312409CE2215080409040E1F700C000002CDD7A
S1131250E2E0F1E080818E7F80832FEF8FE794E0DE
S1131260215080409040E1F700C0000010928D00B2
S113127088E380938C002FEF8FEF9CE22150804015
S11312809040E1F700C000000FDD10928B0083E274
S113129080938A002FEF8FEF9CE221508040904092
S11312A0E1F700C00000F9DC1092890086E5809324
S11312B088002FEF8FEF9CE2215080409040E1F7AF
S11312C000C00000E3CC0895E2E0F1E08081816099
S11312D080832FEF8FE794E0215080409040E1F726
S11312E000C000001092890086E5809388002FEFEB
S11312F08FEB91E2215080409040E1F700C0000064
S1131300C5DC10928D0083E380938C002FEF8FEB6C
S113131091E2215080409040E1F700C0000010921B
S11313208B0085E480938A002FEF8FEB91E22150AC
S113133080409040E1F700C0000010928D008BE5E2
S113134080938C002FEF8FEB91E2215080409040EE
S1131350E1F700C00000E2E0F1E080818E7F80834D
S11313602FEF8FE794E0215080409040E1F700C0D8
S113137000001092890089E4809388002FEF8FEB9E
S113138091E2215080409040E1F700C000001092AB
S11313908D0083E780938C002FEF8FEB91E2215037
S11313A080409040E1F700C0000010928B0085E47B
S11313B080938A002FEF8FEF9CE221508040904071
S11313C0E1F700C0000010928D0088E380938C0048
S11313D02FEF8FEB91E2215080409040E1F700C065
S11313E0000010928B0083E280938A002FEF8FEF2E
S11313F09CE2215080409040E1F700C00000109230
S1131400890086E5809388000895E2E0F1E0808118
S1131410816080832FEF8FE794E0215080409040DB
S1131420E1F700C000001092890086E580938800EF
S11314302FEF8FEB91E2215080409040E1F700C004
S1131440000024DC10928D0083E380938C002FEF46
S11314508FEB91E2215080409040E1F700C0000002
S113146010928B0085E380938A002FEF8FEB91E23B
S1131470215080409040E1F700C0000010928D00A0
S11314808BE580938C002FEF8FEB91E2215080400D
S11314909040E1F700C00000E2E0F1E080818E7F3F
S11314A080832FEF8FE794E0215080409040E1F754
S11314B000C000001092890089E4809388002FEF17
S11314C08FEB91E2215080409040E1F700C0000092
S11314D010928D0083E780938C002FEF8FEB91E2C5
S11314E0215080409040E1F700C0000010928B0032
S11314F085E380938A002FEF8FEF9CE22150804098
S11315009040E1F700C0000010928D0088E38093C2
S11315108C002FEF8FEB91E2215080409040E1F757
S113152000C0000010928B0083E280938A002FEFAA
S11315308FEF9CE2215080409040E1F700C0000012
S11315401092890086E58093880008959CDB82E0F0
S1131550B9DB80932B058E3630F586E9809328011C
S113156080932A0184DB2FEF8FE79DE02150804098
S11315709040E1F700C0000086DB8EE680932801EE
S113158080932A0177DB82E09DDB80932B058035F5
S1131590D0F312B878DB80914204809328018091C3
S11315A0420480932A010895AF92BF92CF92DF92B2
S11315B0EF92FF920F931F93CF93DF93EC0180E0A0
S11315C090E0C5DBC12CD12C0F2EF8E2EF2EFF24C6
S11315D0F394F02D0AE211E00F2EF6E9AF2EF02D70
S11315E00F2EF8E7BF2EF02D81E06CDB80933605DB
S11315F082E068DB80932B0583E064DB80932E0517
S11316008BE060DB809335052FDB80914204F7018A
S1131610808380914204F8018083C230D10549F56A
S11316202091360580912B0590E0820F911D209129
S11316302E05820F911D8D3291400CF464C023DB82
S11316402FEF8FE392E0215080409040E1F700C0FB
S11316500000809142048093280180932A0104DBD6
S1131660E6E6F6EE29E0E150F0402040E1F70BDB3E
S113167008C1C330D10569F480913605893708F46F
S113168042C080912E05893708F43DC0FCDA04D1AC
S1131690F8C0C130D10559F480912B05843698F5F2
S11316A080913505853578F1EEDABED1EAC0209710
S11316B051F52091360580912B0590E0820F911D04
S11316C020912E05820F911D81399140E4F0DBDADF
S11316D0FFEF2FE382E0F15020408040E1F700C0AB
S11316E00000809142048093280180932A01BCDA8F
S11316F09FEFEFEFF8E09150E040F040E1F700C0D9
S11317000000C1DABEC0209136052C33B0F48091BC
S11317102B058D3790F080912E058C3370F48091D9
S11317204204F701808380914204F801808386E6B5
S11317309EE00197F1F7000054C040912B053091D1
S11317402E05842F90E0820F911D830F911D883CFC
S113175091052CF58DEC840F813308F5321708F0D0
S11317608CC080914004F701808380914204F80189
S113177080838CEC9CE10197F1F700C0000031C03C
S113178080914204F701808380914004F8018083B2
S11317908CEC9CE10197F1F700C0000022C02832D4
S11317A080F44C3308F020CF3D3808F462C065DA89
S11317B0F701B082F801B08283E39BE20197F1F76D
S11317C010C0383270F44C3308F00ECF2D3870F05E
S11317D057DAF701B082F801B08283E39BE2019704
S11317E0F1F780912B058C3308F0FECE209136055D
S11317F080912E0590E0820F911D803591050CF0AB
S1131800F3CE209709F0F0CE8091E4049091E504A2
S113181001969093E5048093E404EFEFCE1ADE0A78
S1131820F6E9CF16D10420F4843F914008F4DCCECD
S113183012B829DA8FEF9FE7E4E081509040E0404E
S1131840E1F700C00000F701A082F801A08209DAE4
S1131850FFEF2FEB86E0F15020408040E1F700C01D
S1131860000074DE1092E5041092E404C12CD12C23
S1131870BBCE383208F4AACFB9CF231708F08FCFE4
S11318807FCFDF91CF911F910F91FF90EF90DF9069
S1131890CF90BF90AF900895FF920F931F93CF9373
S11318A0DF9383E090E053DA22E030E040E050E060
S11318B067E082E00E948D01F12C08E211E0CAE2A7
S11318C0D1E0D2D980914204F8018083888381E0F9
S11318D0F9D98093360582E0F5D980932B0583E00E
S11318E0F1D980932E059091360540912B05242F34
S11318F030E0290F311D280F311D2A343140CCF539
S11319004A35B8F5F11035C02FEF5FE784E0215078
S113191050408040E1F700C0000022E030E041E0A8
S113192050E067E082E00E948D019BD99FEFEFE3D6
S1131930FBE09150E040F040E1F700C00000A3D983
S11319408091E2049091E3048130910511F468DB05
S113195003C0892B09F40EDC87D92FEF5FE784E0FD
S1131960215050408040E1F700C00000FF24F39470
S1131970A8CF8436A0F4943690F412B884D99FEF9B
S1131980EFE7F4E09150E040F040E1F700C00000E0
S1131990DDDD61E070E082E090E006DE3FC0953B73
S11319A060F0423850F4853B40F080914204F801E5
S11319B0808380914204888384CF9035A0F4433897
S11319C008F47FCF873938F15BD980914104825381
S11319D0F801808380914204888386E69EE0019723
S11319E0F1F700006ECF863908F06BCF433808F466
S11319F068CF913508F465CF40D980914204F8014D
S1131A008083809141048253888386E69EE0019717
S1131A10F1F7000056CF863960F353CFDF91CF91B1
S1131A201F910F91FF9008958F929F92AF92BF9252
S1131A30CF92DF92EF92FF920F931F93CF93DF9396
S1131A4081E090E084D910D98091420480932801E8
S1131A5080932A012FEF8FE796E121508040904038
S1131A60E1F700C00000C0E0D0E00F2EF8E2EF2E56
S1131A70FF24F394F02D0F2EF8E7AF2EF02D0AE299
S1131A8011E06894882487F8B12CC12C0F2EF5E757
S1131A909F2EF02D0F2EFCEDDF2EF02DE5D88BE0E0
S1131AA011D98093350583E00DD980932E0582E00A
S1131AB009D980932B0590912E05913510F4813529
S1131AC058F080913505803538F4DDD861E070E058
S1131AD080E090E069DD42C0809135059DE8980F73
S1131AE09031E0F42196C430D1056CF08091420429
S1131AF0F701808380914204F801808383E39BE2B1
S1131B000197F1F7CBCFF701D082F801D0828FEFA4
S1131B1097E40197F1F700C00000C0CF833868F064
S1131B20A6D8F7019082F801A08286E69EE001978C
S1131B30F1F70000CB2DDC2DB1CF8353803408F0B6
S1131B40ADCF98D8F701A082F801808286E69EE0A6
S1131B500197F1F70000CB2DDC2DA0CFDF91CF91C1
S1131B601F910F91FF90EF90DF90CF90BF90AF90B7
S1131B709F908F90089587D881E0A4D880933605EC
S1131B8082E0A0D880932B0583E09CD880932E0517
S1131B9080912B058F3608F441C086E98093280193
S1131BA080932A0164D82FEF8FEF91E12150804078
S1131BB09040E1F700C0000066D88EE680932801CB
S1131BC080932A0157D82FEF8FE392E02150804071
S1131BD09040E1F700C0000081E074D8809336059E
S1131BE082E070D880932B0583E06CD880932E0517
S1131BF09091360520912B0530E0290F311D2B3FA4
S1131C00310554F7823840F312B83DD8809142042C
S1131C10809328018091420480932A0108959F9221
S1131C20AF92BF92CF92DF92EF92FF920F931F93E6
S1131C30CF93DF9385E090E08AD8E12CF12C08E281
S1131C4011E00F2EFAEFDF2EF02DCAE2D1E0912C35
S1131C50A12C0F2EF0EABF2EF02D0F2EF4EBCF2E79
S1131C60F02D81E02FD88093360582E02BD8809325
S1131C702B0583E027D880932E050E943406F801B3
S1131C80D082D88220912B0530913605822F90E0A6
S1131C90830F911D30912E05830F911D8139914041
S1131CA004F10E9443060E9443062FEF3FE784E0BD
S1131CB0215030408040E1F700C000008091420490
S1131CC08093280180932A010E94340699E9E9E966
S1131CD0F3E09150E040F040E1F700000E94430639
S1131CE044C0253658F00E943406F801D082D882C8
S1131CF08FEF97E40197F1F700C00000809136055B
S1131D00843190F480912B05843170F480912E05F8
S1131D10843150F49FEFE91AF90AE2E8EE16F1046F
S1131D201CF014DCE92CFA2C80912B0590913605DB
S1131D30891758F40E943A06F801C082B88286E6F0
S1131D409EE00197F1F700008CCF90912E05891742
S1131D5008F087CF0E943706F801B082C88286E671
S1131D609EE00197F1F700007CCFDF91CF911F91A6
S1131D700F91FF90EF90DF90CF90BF90AF909F9026
S1131D80089586E98093280180932A010E943706EA
S1131D902FEF8FEF98E0215080409040E1F700C092
S1131DA0000084E68093280180932A0183E00E9446
S1131DB0620680932E058135C8F312B80E9443064B
S1131DC080914204809328018091420480932A01E7
S1131DD0089586E98093280180932A010E9437069A
S1131DE02FEF4FEF58E0215040405040E1F700C042
S1131DF000008EE68093280180932A0182E00E94ED
S1131E00620680932B0581E00E946206809336056A
S1131E1083E00E94620680932E0520912B0530E01A
S1131E20A901480F511D4B3F510544F780913605D8
S1131E30823820F312B80E9443069DCE089586E9A5
S1131E408093280180932A010E9437062FEF8FEF99
S1131E5098E0215080409040E1F700C0000084E603
S1131E608093280180932A0183E00E946206809374
S1131E702E058135C8F312B80E94430680914204AE
S1131E80809328018091420480932A01089586E971
S1131E908093280180932A010E943A062FEF8FEF46
S1131EA091E1215080409040E1F700C000008EE6AF
S1131EB08093280180932A0181E00E946206809326
S1131EC036058035C8F312B80E9443068091420457
S1131ED0809328018091420480932A0108952F92CF
S1131EE03F924F925F926F927F928F929F92AF92A6
S1131EF0BF92CF92DF92EF92FF920F931F93CF93F3
S1131F00DF93DA010D911C919801215031091216C9
S1131F1013060CF09AC6282E392EEE24E394F12CE5
S1131F20CC24C394D12CB12CA12C0F2EF7E77F2EF7
S1131F30F02D0F2EF3E76F2EF02D0F2EF5E65F2E0A
S1131F40F02D0F2EFEE64F2EF02DF10180819181B0
S1131F50009749F42281338121303105B1F12E30CB
S1131F60310599F432C08930910531F422813381ED
S1131F7028303105A1F429C08630910531F422813D
S1131F80338127303105A9F420C08D30910539F40F
S1131F90228133812E30310509F0A9C116C0823067
S1131FA0910539F4228133812130310509F044C38C
S1131FB00CC08E30910521F08130910509F097C154
S1131FC022813381232B09F092C14C2D5D2D2B2DC1
S1131FD03A2D04C02F5F3F4F4F5F5F4FD90180817F
S1131FE09181880F991F880F991F820F931F880F63
S1131FF0991F8A5F9D4FEC01688179818281938169
S113200068177907B9F4109719F440928504E2CF60
S11320102130310519F450928504DCCF223031058A
S113202019F460928504D6CF2330310519F47092E7
S1132030850403C0443051056CF2809186048E36C9
S113204009F053C0909185049E3689F46C2D7D2D42
S113205082E090E0A9DA809185048093860486EC7E
S11320600E942101809186040E945701E4C595369F
S113207091F487DE6C2D7D2D82E090E095DA8091DD
S113208085048093860486EC0E9421018091860455
S11320900E945701D0C5933799F473DE72DE6C2D1C
S11320A07D2D82E090E080DA80918504809386041F
S11320B086EC0E942101809186040E945701BBC5D1
S11320C0973709F0BEC0E3DE6C2D7D2D82E090E0F1
S11320D06BDA809185048093860486EC0E9421014A
S11320E0809186040E945701A6C5853609F053C025
S11320F080918504853689F46C2D7D2D82E090E0F5
S113210053DA809185048093860486EC0E94210131
S1132110809186040E9457018EC5833791F431DE85
S11321206C2D7D2D82E090E03FDA809185048093D0
S1132130860486EC0E942101809186040E94570146
S11321407AC5873799F41DDE1CDE6C2D7D2D82E067
S113215090E02ADA809185048093860486EC0E94BC
S11321602101809186040E94570165C58E3609F0CD
S113217062C58DDE6C2D7D2D82E090E015DA8091B4
S113218085048093860486EC0E9421018091860454
S11321900E94570150C5833709F053C080918504CC
S11321A0833789F46C2D7D2D82E090E0FDD98091F8
S11321B085048093860486EC0E9421018091860424
S11321C00E94570138C5873791F4DBDD6C2D7D2DD6
S11321D082E090E0E9D9809185048093860486ECBE
S11321E00E942101809186040E94570124C58E36E5
S11321F099F4C7DDC6DD6C2D7D2D82E090E0D4D945
S1132200809185048093860486EC0E94210180914C
S113221086040E9457010FC5853609F00CC537DEC8
S11322206C2D7D2D82E090E0BFD980918504809350
S1132230860486EC0E942101809186040E94570145
S1132240FAC4873709F0F7C480918504873789F485
S11322506C2D7D2D82E090E0A7D980918504809338
S1132260860486EC0E942101809186040E94570115
S1132270E2C48E3691F485DD6C2D7D2D82E090E0F4
S113228093D9809185048093860486EC0E94210171
S1132290809186040E945701CEC4853699F471DD7D
S11322A070DD6C2D7D2D82E090E07ED980918504D7
S11322B08093860486EC0E942101809186040E940A
S11322C05701B9C4833709F0B6C4E1DD6C2D7D2D07
S11322D082E090E069D9809185048093860486EC3D
S11322E00E942101809186040E945701A4C4833076
S11322F0910539F4228133812C30310509F0A5C1CF
S113230009C08C30910509F097C1828193810397AC
S113231009F0F2C22C2D3D2D8B2D9A2D03C0019670
S11323202F5F3F4FA081B181AA0FBB1FAA0FBB1F14
S1132330A80FB91FAA0FBB1FAA5FBD4F6D917C9157
S11323404281538164177507B9F4009719F44092D8
S11323508504E5CF8130910519F450928504DFCFCF
S11323608230910519F460928504D9CF83309105A8
S113237019F47092850403C02430310584F28091ED
S113238086048E3609F053C0909185049E3689F4F4
S11323906C2D7D2D8C2D9D2D07D9809185048093E6
S11323A0860486EC0E942101809186040E945701D4
S11323B042C4953691F4E5DC6C2D7D2D8C2D9D2D3C
S11323C0F3D8809185048093860486EC0E942101D1
S11323D0809186040E9457012EC4933799F4D1DC6E
S11323E0D0DC6C2D7D2D8C2D9D2DDED88091850427
S11323F08093860486EC0E942101809186040E94C9
S1132400570119C4973709F0BEC041DD6C2D7D2DED
S11324108C2D9D2DC9D8809185048093860486ECEB
S11324200E942101809186040E94570104C48536CC
S113243009F053C080918504853689F46C2D7D2D77
S11324408C2D9D2DB1D8809185048093860486ECD3
S11324500E942101809186040E945701ECC38337B6
S113246091F48FDC6C2D7D2D8C2D9D2D9DD880912C
S113247085048093860486EC0E9421018091860461
S11324800E945701D8C3873799F47BDC7ADC6C2D22
S11324907D2D8C2D9D2D88D8809185048093860474
S11324A086EC0E942101809186040E945701C3C3D7
S11324B08E3609F0C0C3EBDC6C2D7D2D8C2D9D2D4B
S11324C073D8809185048093860486EC0E94210150
S11324D0809186040E945701AEC3833709F053C02C
S11324E080918504833789F46C2D7D2D8C2D9D2D51
S11324F05BD8809185048093860486EC0E94210138
S1132500809186040E94570196C3873791F439DC81
S11325106C2D7D2D8C2D9D2D47D880918504809325
S1132520860486EC0E942101809186040E94570152
S113253082C38E3699F425DC24DC6C2D7D2D8C2D04
S11325409D2D32D8809185048093860486EC0E9468
S11325502101809186040E9457016DC3853609F0DC
S11325606AC395DC6C2D7D2D8C2D9D2D1DD88091FD
S113257085048093860486EC0E9421018091860460
S11325800E94570158C3873709F055C380918504C9
S1132590873789F46C2D7D2D8C2D9D2D05D8809148
S11325A085048093860486EC0E9421018091860430
S11325B00E94570140C38E3699F4E3DB6C2D7D2DC8
S11325C08C2D9D2D0E94D40A8091850480938604CD
S11325D086EC0E942101809186040E9457012BC33E
S11325E08536A1F4CEDBCDDB6C2D7D2D8C2D9D2D80
S11325F00E94D40A809185048093860486EC0E940C
S11326002101809186040E94570115C3833709F084
S113261012C33DDC6C2D7D2D8C2D9D2D0E94D40A82
S1132620809185048093860486EC0E942101809128
S113263086040E945701FFC28A30910531F48281D9
S11326409381059709F058C108C0059709F054C152
S1132650828193810A9709F04FC16C2D7D2D8B2DBA
S11326609A2D03C001966F5F7F4FA081B181AA0F9D
S1132670BB1FAA0FBB1FA80FB91FAA0FBB1FAA5FBE
S1132680BD4F4D915C912281338142175307B9F4B8
S1132690009719F440928504E5CF8130910519F42F
S11326A050928504DFCF8230910519F4609285043D
S11326B0D9CF8330910519F47092850403C0643036
S11326C0710584F2809186048E3609F043C090919E
S11326D085049E3669F4A3DA809185048093860488
S11326E086EC0E942101809186040E945701A3C2B6
S11326F0953671F446DB93DA8091850480938604E1
S113270086EC0E942101809186040E94570193C2A5
S1132710933779F436DB35DB82DA80918504809354
S1132720860486EC0E942101809186040E94570150
S113273082C2973709F09AC0AADB71DA80918504C6
S11327408093860486EC0E942101809186040E9475
S1132750570171C2853609F043C0809185048536DE
S113276069F45DDA809185048093860486EC0E9486
S11327702101809186040E9457015DC2833771F460
S113278000DB4DDA809185048093860486EC0E94F8
S11327902101809186040E9457014DC2873779F444
S11327A0F0DAEFDA3CDA809185048093860486ECD3
S11327B00E942101809186040E9457013CC28E36FA
S11327C009F039C264DB2BDA809185048093860496
S11327D086EC0E942101809186040E9457012BC23D
S11327E0833709F043C080918504833769F417DA8D
S11327F0809185048093860486EC0E942101809157
S113280086040E94570117C2873771F4BADA07DACF
S1132810809185048093860486EC0E942101809136
S113282086040E94570107C28E3679F4AADAA9DA1F
S1132830F6D9809185048093860486EC0E94210158
S1132840809186040E945701F6C1853609F0F3C1D0
S11328501EDBE5D9809185048093860486EC0E9472
S11328602101809186040E945701E5C1873709F050
S1132870E2C180918504873769F4D1D980918504B8
S11328808093860486EC0E942101809186040E9434
S11328905701D1C18E3671F474DAC1D9809185049F
S11328A08093860486EC0E942101809186040E9414
S11328B05701C1C1853679F464DA63DAB0D98091FD
S11328C085048093860486EC0E942101809186040D
S11328D00E945701B0C1833709F0ADC1D8DA9FD93E
S11328E0809185048093860486EC0E942101809166
S11328F086040E9457019FC18C2D9D2D2B2D3A2DAE
S113290003C02F5F3F4F0196A081B181AA0FBB1F67
S1132910AA0FBB1FA20FB31FAA0FBB1FAA5FBD4FF5
S11329200D90BC91A02D62817381A617B707C1F4E5
S11329302115310519F440928504E3CF2130310586
S113294019F450928504DDCF2230310519F46092D8
S11329508504D7CF2330310519F47092850403C060
S11329608430910574F2809186048E3609F057C044
S1132970909185049E3691F46C2D7D2D8B2D9A2D8E
S11329800E94D40A809185048093860486EC0E9478
S11329902101809186040E9457014DC1953699F416
S11329A0F0D96C2D7D2D8B2D9A2D0E94D40A809107
S11329B085048093860486EC0E942101809186041C
S11329C00E94570138C19337A1F4DBD9DAD96C2DB1
S11329D07D2D8B2D9A2D0E94D40A8091850480939D
S11329E0860486EC0E942101809186040E9457018E
S11329F022C1973709F0C7C04ADA6C2D7D2D8B2D83
S1132A009A2D0E94D40A809185048093860486ECD2
S1132A100E942101809186040E9457010CC18536D1
S1132A2009F057C080918504853691F46C2D7D2D75
S1132A308B2D9A2D0E94D40A80918504809386045C
S1132A4086EC0E942101809186040E945701F3C004
S1132A50833799F496D96C2D7D2D8B2D9A2D0E9458
S1132A60D40A809185048093860486EC0E94210117
S1132A70809186040E945701DEC08737A1F481D972
S1132A8080D96C2D7D2D8B2D9A2D0E94D40A809196
S1132A9085048093860486EC0E942101809186043B
S1132AA00E945701C8C08E3609F0C5C0F0D96C2DFC
S1132AB07D2D8B2D9A2D0E94D40A809185048093BC
S1132AC0860486EC0E942101809186040E945701AD
S1132AD0B2C0833709F057C080918504833791F4DD
S1132AE06C2D7D2D8B2D9A2D0E94D40A8091850406
S1132AF08093860486EC0E942101809186040E94C2
S1132B00570199C0873799F43CD96C2D7D2D8B2DB5
S1132B109A2D0E94D40A809185048093860486ECC1
S1132B200E942101809186040E94570184C08E3640
S1132B30A1F427D926D96C2D7D2D8B2D9A2D0E9499
S1132B40D40A809185048093860486EC0E94210136
S1132B50809186040E9457016EC0853609F06BC0CF
S1132B6096D96C2D7D2D8B2D9A2D0E94D40A80919F
S1132B7085048093860486EC0E942101809186045A
S1132B800E94570158C0873709F055C080918504C9
S1132B90873791F46C2D7D2D8B2D9A2D0E94D40AAC
S1132BA0809185048093860486EC0E9421018091A3
S1132BB086040E9457013FC08E3699F4E2D86C2DEA
S1132BC07D2D8B2D9A2D0E94D40A809185048093AB
S1132BD0860486EC0E942101809186040E9457019C
S1132BE02AC08536A1F4CDD8CCD86C2D7D2D8B2D63
S1132BF09A2D0E94D40A809185048093860486ECE1
S1132C000E942101809186040E94570114C08337D9
S1132C1091F43DD96C2D7D2D8B2D9A2D0E94D40AD3
S1132C20809185048093860486EC0E942101809122
S1132C3086040E945701EFEFEE1AFE0AF2E02F0E0F
S1132C40311CE016F10609F080C9DF91CF911F9184
S1132C500F91FF90EF90DF90CF90BF90AF909F9037
S1132C608F907F906F905F904F903F902F9008953A
S1132C70809186048E36A1F5909185049E3641F4A8
S1132C8086EC0E942101809186040E945701E2C0D3
S1132C90953669F476D8809185048093860486EC11
S1132CA00E942101809186040E945701D3C093376A
S1132CB039F467D8C4D88091850480938604CAC047
S1132CC0973709F08AC0E3D88091850480938604FD
S1132CD086EC0E942101809186040E945701BAC0AB
S1132CE0853609F03BC080918504853641F486EC35
S1132CF00E942101809186040E945701ABC0833752
S1132D0069F43FD8809185048093860486EC0E9400
S1132D102101809186040E9457019CC0873771F479
S1132D2030D88DD8809185048093860486EC0E94E7
S1132D302101809186040E9457018CC08E3609F0CF
S1132D4089C0A5D8809185048093860486EC0E946E
S1132D502101809186040E9457017CC0833709F0C9
S1132D603CC080918504833741F486EC0E942101A4
S1132D70809186040E9457016DC0873769F401D899
S1132D80809185048093860486EC0E9421018091C1
S1132D9086040E9457015EC08E3679F40E94C10EEB
S1132DA04ED8809185048093860486EC0E9421018C
S1132DB0809186040E9457014DC0853609F04AC0AF
S1132DC066D8809185048093860486EC0E94210154
S1132DD0809186040E9457013DC08737D9F58091C0
S1132DE08504873741F486EC0E9421018091860492
S1132DF00E9457012FC08E3671F40E94C10E80913B
S1132E0085048093860486EC0E94210180918604C7
S1132E100E9457011FC0853679F40E94C10E0FD855
S1132E20809185048093860486EC0E942101809120
S1132E3086040E9457010EC0833761F428D880911C
S1132E4085048093860486EC0E9421018091860487
S1132E500E9457010E9443062FEF8FE392E0215016
S1132E6080409040E1F700C0000008950F931F9345
S1132E70CF93DF93EC018B0180FD28C085E680931E
S1132E808504F6DEC150D048CC0FDD1FF801EC0FED
S1132E90FD1F81E090E0918380830E9431068FEFD3
S1132EA09FEF28E0815090402040E1F700C00000EF
S1132EB00E9443068FEF9FE724E08150904020401A
S1132EC0E1F700C000000E94EC0645C09C0121709F
S1132ED03078332334F4215031092E6F3F6F2F5F44
S1132EE03F4F21303105B9F587E780938504C0DE73
S1132EF0CE0181509048880F991FF801E80FF91FFF
S1132F0081E090E0918380830E9431068FEF9FEFF0
S1132F1028E0815090402040E1F700C000000E946A
S1132F2043068FEF9FE724E0815090402040E1F773
S1132F3000C00000219769F40E9431068FEF9FE7DB
S1132F4024E0815090402040E1F700C000000E943E
S1132F5043060E94EC06DF91CF911F910F910895D3
S1132F6086E98093280180932A010E943A062FEF74
S1132F708FEF98E0215080409040E1F700C00000BE
S1132F808EE68093280180932A0182E00E946206E3
S1132F9080932B0581E00E9462068093360583E0CE
S1132FA00E94620680932E059091360520912B0590
S1132FB030E0290F311D2B3F31053CF7823828F3CF
S1132FC012B80E9443060C94BB0D0895EAE7F0E0A2
S1132FD0108210927B0080E280937C0080E880BFA6
S1132FE086E880830895F8940E94D805EFDF0E9454
S1132FF08E050E946B0578940E94DC000C944601B7
S113300008952F923F924F925F926F927F928F9288
S11330109F92AF92BF92CF92DF92EF92FF920F9363
S11330201F93CF93DF931F921F92CDB7DEB7DBDFE1
S11330301A82198280E590E00E94AE297C011092E8
S113304007051092060583E78093860461E070E02B
S113305080E090E00E94D40A0091770410917804F3
S11330600115110509F09AC0A0907904B0907A0472
S11330700E944601C5010E94E7046C0140910605C7
S11330805091070560918704709188048EE792E05F
S11330900E94D5029E012F5F3F4FA701B601C601D2
S11330A00E94560489819A81181619063CF420E07E
S11330B030E02F5F3F4F28173907D9F76091060595
S11330C070910705AE014F5F5F4FC7010E946F0FFC
S11330D0C7010E94462A1A8219826EEE74E0C50165
S11330E0C5DE0E94A9070E944601470100E010E0E6
S11330F0F401819191914F01019739F422E030E07C
S1133100A80161E081E00E948D010F5F1F4F0D3027
S1133110110571F7D0920705C092060560918704E6
S113312070918804A6018EE792E00E94D502609116
S11331304304709144049E012F5F3F4FA701809187
S11331404504909146040E94560429813A8112163E
S1133150130634F480E090E0019682179307E1F7B8
S11331606091060570910705AE014F5F5F4FC7017F
S11331700E946F0FE981FA81E150F048EE0FFF1FC2
S1133180EE0DFF1D808191819093070580930605C4
S1133190C7010E94462A1A821982DAC00E94460197
S11331A0C8010E94E7046C0140910605509107058F
S11331B060918704709188048EE792E00E94D502A2
S11331C09E012F5F3F4FA701B601C6010E9456041E
S11331D049815A81141615063CF420E030E02F5F33
S11331E03F4F24173507D9F76091060570910705FD
S11331F0AE014F5F5F4FC7010E946F0FC7010E946E
S1133200462A1A8219826EEE74E0C8012FDE0E94EB
S113321052070E944601D0920705C0920605A0906D
S11332207904B0907A040E944601C5010E94E70423
S11332306C014091060550910705609187047091D7
S113324088048EE792E00E94D5029E012F5F3F4FD3
S1133250A701B601C6010E94560489819A811816F5
S113326019063CF420E030E02F5F3F4F2817390760
S1133270D9F76091060570910705AE014F5F5F4F66
S1133280C7010E946F0FC7010E94462A1A82198241
S11332906EEE74E0C501EADD0E94A9070E944601B2
S11332A0470100E010E0F401819191914F010197F1
S11332B039F422E030E0A80161E081E00E948D0150
S11332C00F5F1F4F0D30110571F7D0920705C092A3
S11332D006056091870470918804A6018EE792E048
S11332E00E94D50260914304709144049E012F5FB3
S11332F03F4FA70180914504909146040E945604D3
S113330029813A811216130634F480E090E0019684
S113331082179307E1F76091060570910705AE01E6
S11333204F5F5F4FC7010E946F0FE981FA81E1503F
S1133330F048EE0FFF1FEE0DFF1D808191819093E9
S1133340070580930605C7010E94462A1A8219823E
S113335080910605909107058730910509F051C0C9
S11333601092E3041092E2040E94E90E61E070E01E
S113337083E090E00E94D40A85E68093860488E086
S113338090E090930705809306058BE090E00E94FF
S1133390B8028C018CE090E00E94B8026C0187E0D6
S11333A090E00E94B8024C0188E090E00E94B802CC
S11333B02091020530910305232B21F401301105DE
S11333C009F46FC02091040530910505232B21F4E5
S11333D0CA94CD2809F46BC02091FA043091FB04FF
S11333E0232B21F48A94892809F467C02091FC04D2
S11333F03091FD04232B09F082C0019709F07FC0AE
S113340062C0089709F07BC081E090E09093E304E8
S11334108093E204A5DD61E070E083E090E00E9427
S1133420D40A87E78093860487E090E090930705A9
S11334308093060589E090E00E94B8028C018AE03E
S113344090E00E94B8024C0185E090E00E94B8022E
S11334506C0186E090E00E94B8022091FE04309155
S1133460FF04232B19F40130110591F1209100057B
S113347030910105232B19F48A94892879F120913C
S1133480FA043091FB04232B19F4CA94CD2861F17A
S11334902091FC043091FD04232B89F5019779F5E3
S11334A029C00F2EFBE0AF2EB12CF02D28C00F2E1B
S11334B0FCE0AF2EB12CF02D22C00F2EF7E0AF2E82
S11334C0B12CF02D1CC06894AA24A3F8B12C17C009
S11334D00F2EF9E0AF2EB12CF02D11C00F2EFAE013
S11334E0AF2EB12CF02D0BC00F2EF5E0AF2EB12C6A
S11334F0F02D05C00F2EF6E0AF2EB12CF02DC50136
S11335000E94E7048C0140910605509107056091E3
S11335108704709188048EE792E00E94D5029E0190
S11335202F5F3F4FA701B801C8010E94560449818B
S11335305A81141615063CF420E030E02F5F3F4F0B
S113354024173507D9F76091060570910705AE0178
S11335504F5F5F4FC7010E946F0FC7010E94462A49
S11335601A8219826EEE74E0C50180DC109307059F
S113357000930605E7E6F4E080E090E000E010E068
S11335807FEF6FEF219131912A153B05E1F49C0106
S11335908230910510F40C940026AC01425051097C
S11335A04230510510F40C94042642505109423023
S11335B0510510F40C9408262650310922303105A7
S11335C020F40C940C26072F162F01968A309105AF
S11335D0C9F60F3F2FEF120711F00E945207C801DE
S11335E0880F991FFC01EE0FFF1FEB59FB4FC080A2
S11335F0D180CA14DB0439F4FC01EE0FFF1FED592E
S1133600FB4FC080D180C114D104B1F140910605B3
S11336105091070560918704709188048EE792E0C9
S11336200E94D502C6010E94E7049E012F5F3F4F0E
S1133630A701BC010E94560429813A81121613067F
S113364034F480E090E0019682179307E1F76091EB
S1133650060570910705AE014F5F5F4FC7010E94D9
S11336606F0FC7010E94462A1A8219826EEE74E017
S1133670C601FCDB0E94A90740910605509107058D
S113368060918704709188048EE792E00E94D502CD
S1133690C8010E9449059E012F5F3F4FA701BC014D
S11336A00E94560429813A811216130634F480E0EC
S11336B090E0019682179307E1F7609106057091F7
S11336C00705AE014F5F5F4FC7010E946F0FC7012F
S11336D00E94462A1A8219820130110509F076C027
S11336E087E780938504C4DA0E9431068FEF9FE751
S11336F0E4E081509040E040E1F700C000000E9407
S1133700430680917B0490917C04892B19F40E94D8
S1133710640902C00E94050A81E090E00E94B80298
S11337205C0182E090E00E94B8024C0185E090E0E8
S11337300E94B8023C0186E090E00E94B8022C018D
S113374089E090E00E94B8021C018AE090E00E94A7
S1133750B8022091EE043091EF04232B21F4AA94B3
S1133760AB2809F4A1C12091F0043091F104232B7A
S113377021F48A94892809F49BC12091F60430919C
S1133780F704232B21F46A94672809F496C1209145
S1133790F8043091F904232B21F44A94452809F4C0
S11337A092C12091FE043091FF04232B21F42A942A
S11337B0232809F48EC12091000530910105232BA3
S11337C009F0F7C1019709F0F4C189C1023011056C
S11337D009F076C085E6809385044ADA0E943106B2
S11337E08FEF9FE7E4E081509040E040E1F700C0B4
S11337F000000E94430680917D0490917E04892BF1
S113380019F40E94640902C00E94050A83E090E052
S11338100E94B8025C0184E090E00E94B8024C016E
S113382087E090E00E94B8023C0188E090E00E94AA
S1133830B8022C018BE090E00E94B8021C018CE0DD
S113384090E00E94B8022091F2043091F304232BFB
S113385021F4AA94AB2809F448C12091F4043091CE
S1133860F504232B21F48A94892809F444C1209176
S1133870FA043091FB04232B21F46A94672809F499
S11338803FC12091FC043091FD04232B21F44A9480
S1133890452809F43BC12091020530910305232BEF
S11338A021F42A94232809F436C120910405309187
S11338B00505232B09F07DC1019709F07AC131C1B7
S11338C00330110509F076C087E780938504D0D9C9
S11338D00E9431068FEF9FE7E4E081509040E04082
S11338E0E1F700C000000E94430680917F0490919C
S11338F08004892B19F40E94640902C00E94050AFD
S113390085E090E00E94B8024C0186E090E00E94BD
S1133910B8025C0189E090E00E94B8023C018AE0B0
S113392090E00E94B8022C0181E090E00E94B8026D
S11339301C0182E090E00E94B8022091F6043091CC
S1133940F704232B21F48A94892809F4F0C02091E8
S1133950F8043091F904232B21F4AA94AB2809F438
S1133960ECC02091FE043091FF04232B21F46A94CF
S1133970672809F4E8C02091000530910105232B44
S113398021F44A94452809F4E4C02091EE043091CE
S1133990EF04232B21F42A94232809F4E0C0209176
S11339A0F0043091F104232B09F003C1019709F0CD
S11339B000C1D9C00430110509F0FBC085E680932D
S11339C0850456D90E9431068FEF9FE7E4E08150C9
S11339D09040E040E1F700C000000E94430680915F
S11339E0810490918204892B19F40E94640902C015
S11339F00E94050A87E090E00E94B8025C0188E01A
S1133A0090E00E94B8024C018BE090E00E94B80262
S1133A103C018CE090E00E94B8022C0183E090E02D
S1133A200E94B8021C0184E090E00E94B802209138
S1133A30FA043091FB04232B21F4AA94AB2809F453
S1133A4097C02091FC043091FD04232B21F48A9427
S1133A50892809F493C02091020530910305232B92
S1133A6021F46A94672809F48EC0209104053091EA
S1133A700505232B21F44A94452809F48AC0209192
S1133A80F2043091F304232B21F42A94232809F41B
S1133A9086C02091F4043091F504232B09F089C0E9
S1133AA0019709F086C081C0CC24C394D12C81C075
S1133AB06894CC24C1F8D12C7CC00F2EF5E0CF2E15
S1133AC0D12CF02D76C00F2EF6E0CF2ED12CF02D78
S1133AD070C00F2EF9E0CF2ED12CF02D6AC00F2E1E
S1133AE0FAE0CF2ED12CF02D64C00F2EF3E0CF2EB0
S1133AF0D12CF02D5EC06894CC24C2F8D12C59C0CE
S1133B000F2EF7E0CF2ED12CF02D53C06894CC2487
S1133B10C3F8D12C4EC00F2EFBE0CF2ED12CF02DAC
S1133B2048C00F2EFCE0CF2ED12CF02D42C00F2E1A
S1133B30F5E0CF2ED12CF02D3CC00F2EF6E0CF2E89
S1133B40D12CF02D36C00F2EF9E0CF2ED12CF02D34
S1133B5030C00F2EFAE0CF2ED12CF02D2AC0CC2469
S1133B60C394D12C26C06894CC24C1F8D12C21C094
S1133B700F2EF7E0CF2ED12CF02D1BC06894CC244F
S1133B80C3F8D12C16C00F2EFBE0CF2ED12CF02D74
S1133B9010C00F2EFCE0CF2ED12CF02D0AC00F2E1A
S1133BA0F3E0CF2ED12CF02D04C06894CC24C2F8BD
S1133BB0D12CC6010E94E7045C0140910605509196
S1133BC0070560918704709188048EE792E00E9453
S1133BD0D5029E012F5F3F4FA701B501C5010E9489
S1133BE0560489819A81181619063CF420E030E0C5
S1133BF02F5F3F4F28173907D9F760910605709159
S1133C000705AE014F5F5F4FC7010E946F0FC701E9
S1133C100E94462A1A8219826EEE74E0C60126D9E1
S1133C20B0920705A0920605E7E6F4E080E090E094
S1133C307FEF6FEF219131912C153D05C1F49C016B
S1133C408230910508F4ECC7AC014250510942306E
S1133C50510508F4E8C7425051094230510508F4AF
S1133C60E5C7265031092230310518F4E2C7072F81
S1133C70162F01968A309105E9F60F3F8FEF18074A
S1133C8011F00E945207C801880F991FFC01EE0F22
S1133C90FF1FEB59FB4FA080B180AC14BD0439F475
S1133CA0FC01EE0FFF1FED59FB4FA080B180A11462
S1133CB0B104B1F140910605509107056091870464
S1133CC0709188048EE792E00E94D502C5010E949B
S1133CD0E7049E012F5F3F4FA701BC010E945604D9
S1133CE029813A811216130634F480E090E001969B
S1133CF082179307E1F76091060570910705AE01FD
S1133D004F5F5F4FC7010E946F0FC7010E94462A91
S1133D101A8219826EEE74E0C501A8D80E94A90720
S1133D2040910605509107056091870470918804BD
S1133D308EE792E00E94D502C8010E9449059E01C7
S1133D402F5F3F4FA701BC010E94560429813A818D
S1133D501216130634F480E090E00196821793075C
S1133D60E1F76091060570910705AE014F5F5F4F63
S1133D70C7010E946F0FC7010E94462A1A82198246
S1133D800130110509F077C087E7809385040E940C
S1133D9038160E9431069FEFEFE7F4E09150E040BF
S1133DA0F040E1F700C000000E94430680917B04CC
S1133DB090917C04892B19F40E94640902C00E942A
S1133DC0050A81E090E00E94B8026C0182E090E074
S1133DD00E94B8024C0185E090E00E94B8023C01C8
S1133DE086E090E00E94B8022C0189E090E00E94F5
S1133DF0B8021C018AE090E00E94B8022091EE040F
S1133E003091EF04232B21F4CA94CD2809F4A4C1E2
S1133E102091F0043091F104232B21F48A94892811
S1133E2009F49EC12091F6043091F704232B21F468
S1133E306A94672809F499C12091F8043091F9042F
S1133E40232B21F44A94452809F495C12091FE04BA
S1133E503091FF04232B21F42A94232809F491C1DF
S1133E602091000530910105232B09F0FAC1019737
S1133E7009F0F7C18CC10230110509F077C085E65D
S1133E80809385040E9438160E943106FFEF2FE7C5
S1133E9084E0F15020408040E1F700C000000E941F
S1133EA0430680917D0490917E04892B19F40E942D
S1133EB0640902C00E94050A83E090E00E94B802EF
S1133EC06C0184E090E00E94B8024C0187E090E02D
S1133ED00E94B8023C0188E090E00E94B8022C01E4
S1133EE08BE090E00E94B8021C018CE090E00E94FC
S1133EF0B8022091F2043091F304232B21F4CA94E4
S1133F00CD2809F44AC12091F4043091F504232BFF
S1133F1021F48A94892809F446C12091FA04309145
S1133F20FB04232B21F46A94672809F441C12091EE
S1133F30FC043091FD04232B21F44A94452809F410
S1133F403DC12091020530910305232B21F42A94CD
S1133F50232809F438C12091040530910505232B49
S1133F6009F07FC1019709F07CC133C10330110509
S1133F7009F077C087E7809385040E9438160E9471
S1133F8031062FEF8FE794E0215080409040E1F715
S1133F9000C000000E94430680917F049091800439
S1133FA0892B19F40E94640902C00E94050A85E065
S1133FB090E00E94B8024C0186E090E00E94B802B2
S1133FC06C0189E090E00E94B8023C018AE090E034
S1133FD00E94B8022C0181E090E00E94B8021C010A
S1133FE082E090E00E94B8022091F6043091F70438
S1133FF0232B21F48A94892809F4F1C02091F80430
S11340003091F904232B21F4CA94CD2809F4EDC08E
S11340102091FE043091FF04232B21F46A94672835
S113402009F4E9C02091000530910105232B21F406
S11340304A94452809F4E5C02091EE043091EF0438
S1134040232B21F42A94232809F4E1C02091F004BD
S11340503091F104232B09F004C1019709F001C147
S1134060DAC00430110509F0FCC085E680938504AC
S11340700E9438160E9431062FEF8FE794E02150FA
S113408080409040E1F700C000000E944306809108
S1134090810490918204892B19F40E94640902C05E
S11340A00E94050A87E090E00E94B8026C0188E053
S11340B090E00E94B8024C018BE090E00E94B802AC
S11340C03C018CE090E00E94B8022C0183E090E077
S11340D00E94B8021C0184E090E00E94B802209182
S11340E0FA043091FB04232B21F4CA94CD2809F45B
S11340F097C02091FC043091FD04232B21F48A9471
S1134100892809F493C02091020530910305232BDB
S113411021F46A94672809F48EC020910405309133
S11341200505232B21F44A94452809F48AC02091DB
S1134130F2043091F304232B21F42A94232809F464
S113414086C02091F4043091F504232B09F089C032
S1134150019709F086C081C0AA24A394B12C81C020
S11341606894AA24A1F8B12C7CC00F2EF5E0AF2EE0
S1134170B12CF02D76C00F2EF6E0AF2EB12CF02D21
S113418070C00F2EF9E0AF2EB12CF02D6AC00F2EA7
S1134190FAE0AF2EB12CF02D64C00F2EF3E0AF2E59
S11341A0B12CF02D5EC06894AA24A2F8B12C59C099
S11341B00F2EF7E0AF2EB12CF02D53C06894AA2433
S11341C0A3F8B12C4EC00F2EFBE0AF2EB12CF02D76
S11341D048C00F2EFCE0AF2EB12CF02D42C00F2EA4
S11341E0F5E0AF2EB12CF02D3CC00F2EF6E0AF2E33
S11341F0B12CF02D36C00F2EF9E0AF2EB12CF02DDE
S113420030C00F2EFAE0AF2EB12CF02D2AC0AA2414
S1134210A394B12C26C06894AA24A1F8B12C21C07F
S11342200F2EF7E0AF2EB12CF02D1BC06894AA24FA
S1134230A3F8B12C16C00F2EFBE0AF2EB12CF02D3D
S113424010C00F2EFCE0AF2EB12CF02D0AC00F2EA3
S1134250F3E0AF2EB12CF02D04C06894AA24A2F888
S1134260B12CC7010E94462A1A821982C5010E94F4
S1134270E7046C014091060550910705609187049D
S1134280709188048EE792E00E94D5029E012F5F10
S11342903F4FA701B601C6010E94560489819A8145
S11342A0181619063CF420E030E02F5F3F4F281722
S11342B03907D9F76091060570910705AE014F5F84
S11342C05F4FC7010E946F0FC7010E94462A1A82DE
S11342D019826EEE74E0C5010E943617D09207056C
S11342E0C0920605E7E6F4E080E090E07FEF6FEF30
S11342F0219131912A153B05C1F49C01823091052D
S113430008F49AC4AC01425051094230510508F4F2
S113431096C4425051094230510508F493C42650C2
S113432031092230310518F490C4072F162F019655
S11343308A309105E9F60F3F2FEF120711F00E9422
S11343405207C801880F991FFC01EE0FFF1FEB599C
S1134350FB4FC080D180CA14DB0439F4FC01EE0F9A
S1134360FF1FED59FB4FC080D180C114D104B9F1B6
S11343704091060550910705609187047091880467
S11343808EE792E00E94D502C6010E94E7049E01D6
S11343902F5F3F4FA701BC010E94560429813A8137
S11343A01216130634F480E090E001968217930706
S11343B0E1F76091060570910705AE014F5F5F4F0D
S11343C0C7010E946F0FC7010E94462A1A821982F0
S11343D06EEE74E0C6010E9436170E94A907409150
S11343E006055091070560918704709188048EE753
S11343F092E00E94D502C8010E9449059E012F5FE8
S11344003F4FA701BC010E94560429813A8112162C
S1134410130634F480E090E0019682179307E1F7E5
S11344206091060570910705AE014F5F5F4FC701AC
S11344300E946F0FC7010E94462A1A821982013016
S1134440110509F077C087E7809385040E94381628
S11344500E9431068FEF9FE7E4E081509040E040F6
S1134460E1F700C000000E94430680917B04909114
S11344707C04892B19F40E94640902C00E94050A75
S113448081E090E00E94B8025C0182E090E00E942A
S1134490B8024C0185E090E00E94B8023C0186E03D
S11344A090E00E94B8022C0189E090E00E94B802DA
S11344B01C018AE090E00E94B8022091EE04309141
S11344C0EF04232B21F4AA94AB2809F4A4C120916E
S11344D0F0043091F104232B21F48A94892809F4FF
S11344E09EC12091F6043091F704232B21F46A94A1
S11344F0672809F499C12091F8043091F904232B19
S113450021F44A94452809F495C12091FE04309180
S1134510FF04232B21F42A94232809F491C1209128
S1134520000530910105232B09F0FAC1019709F028
S1134530F7C18CC10230110509F077C085E680937C
S113454085040E9438160E9431068FEF9FE7E4E04D
S113455081509040E040E1F700C000000E94430613
S113456080917D0490917E04892B19F40E94640942
S113457002C00E94050A83E090E00E94B8025C0138
S113458084E090E00E94B8024C0187E090E00E9431
S1134590B8023C0188E090E00E94B8022C018BE054
S11345A090E00E94B8021C018CE090E00E94B802E6
S11345B02091F2043091F304232B21F4AA94AB2824
S11345C009F44AC12091F4043091F504232B21F419
S11345D08A94892809F446C12091FA043091FB0495
S11345E0232B21F46A94672809F441C12091FC0427
S11345F03091FD04232B21F44A94452809F43DC14C
S11346002091020530910305232B21F42A942328B9
S113461009F438C12091040530910505232B09F0D4
S11346207FC1019709F07CC133C10330110509F042
S113463077C087E7809385040E9438160E9431066C
S11346408FEF9FE7E4E081509040E040E1F700C045
S113465000000E94430680917F0490918004892B7E
S113466019F40E94640902C00E94050A85E090E0E2
S11346700E94B8024C0186E090E00E94B8025C01FE
S113468089E090E00E94B8023C018AE090E00E9438
S1134690B8022C0181E090E00E94B8021C0182E083
S11346A090E00E94B8022091F6043091F704232B85
S11346B021F48A94892809F4F1C02091F8043091F6
S11346C0F904232B21F4AA94AB2809F4EDC020911A
S11346D0FE043091FF04232B21F46A94672809F423
S11346E0E9C02091000530910105232B21F44A945F
S11346F0452809F4E5C02091EE043091EF04232B02
S113470021F42A94232809F4E1C02091F004309183
S1134710F104232B09F004C1019709F001C1DAC0A7
S11347200430110509F0FCC085E6809385040E94DD
S113473038160E9431068FEF9FE7E4E081509040E5
S1134740E040E1F700C000000E944306809181042C
S113475090918204892B19F40E94640902C00E947A
S1134760050A87E090E00E94B8025C0188E090E0CE
S11347700E94B8024C018BE090E00E94B8023C0118
S11347808CE090E00E94B8022C0183E090E00E944B
S1134790B8021C0184E090E00E94B8022091FA045F
S11347A03091FB04232B21F4AA94AB2809F497C07D
S11347B02091FC043091FD04232B21F48A94892850
S11347C009F493C02091020530910305232B21F4B1
S11347D06A94672809F48EC0209104053091050578
S11347E0232B21F44A94452809F48AC02091F20429
S11347F03091F304232B21F42A94232809F486C04E
S11348002091F4043091F504232B09F089C0019719
S113481009F086C081C0CC24C394D12C81C0689493
S1134820CC24C1F8D12C7CC00F2EF5E0CF2ED12C96
S1134830F02D76C00F2EF6E0CF2ED12CF02D70C0C7
S11348400F2EF9E0CF2ED12CF02D6AC00F2EFAE0F6
S1134850CF2ED12CF02D64C00F2EF3E0CF2ED12C0F
S1134860F02D5EC06894CC24C2F8D12C59C00F2E10
S1134870F7E0CF2ED12CF02D53C06894CC24C3F88C
S1134880D12C4EC00F2EFBE0CF2ED12CF02D48C0E2
S11348900F2EFCE0CF2ED12CF02D42C00F2EF5E0D0
S11348A0CF2ED12CF02D3CC00F2EF6E0CF2ED12CE4
S11348B0F02D36C00F2EF9E0CF2ED12CF02D30C0C4
S11348C00F2EFAE0CF2ED12CF02D2AC0CC24C39485
S11348D0D12C26C06894CC24C1F8D12C21C00F2E31
S11348E0F7E0CF2ED12CF02D1BC06894CC24C3F854
S11348F0D12C16C00F2EFBE0CF2ED12CF02D10C0E2
S11349000F2EFCE0CF2ED12CF02D0AC00F2EF3E099
S1134910CF2ED12CF02D04C06894CC24C2F8D12C15
S1134920C701B4D51A821982C6010E94E7045C014A
S113493040910605509107056091870470918804A1
S11349408EE792E00E94D5029E012F5F3F4FA701A0
S1134950B501C5010E94560489819A811816190669
S11349603CF420E030E02F5F3F4F28173907D9F798
S11349706091060570910705AE014F5F5F4FC70157
S11349800E946F0FC70182D51A8219826EEE74E0FD
S1134990C6010E943617B0920705A0920605E7E605
S11349A0F4E080E090E07FEF6FEF219131912C15DE
S11349B03D05C1F49C018230910508F449C1AC0164
S11349C0425051094230510508F445C14250510941
S11349D04230510508F442C12650310922303105D4
S11349E018F43FC1072F162F01968A309105E9F676
S11349F00F3F8FEF180711F00E945207C801880F6C
S1134A00991FFC01EE0FFF1FEB59FB4FA080B180F3
S1134A10AC14BD0439F4FC01EE0FFF1FED59FB4F3C
S1134A20A080B180A114B104B9F140910605509160
S1134A30070560918704709188048EE792E00E94D4
S1134A40D502C5010E94E7049E012F5F3F4FA701D5
S1134A50BC010E94560489819A81181619063CF4F7
S1134A6020E030E02F5F3F4F28173907D9F76091D6
S1134A70060570910705AE014F5F5F4FC7010E94A5
S1134A806F0FC70103D51A8219826EEE74E0C50157
S1134A900E9436170E94A907409106055091070508
S1134AA060918704709188048EE792E00E94D50299
S1134AB0C8010E9449059E012F5F3F4FA701BC0119
S1134AC00E94560429813A811216130634F480E0B8
S1134AD090E0019682179307E1F7609106057091C3
S1134AE00705AE014F5F5F4FC7010E946F0FC701FB
S1134AF0CDD41A82198201301105F1F487E780932D
S1134B0085040E9438160E9431069FEFEFE7F4E017
S1134B109150E040F040E1F700C000000E944306DD
S1134B2080917B0490917C04892B19F40E94640980
S1134B309BC00E94050A98C002301105F1F485E675
S1134B40809385040E9438160E9431062FEF8FE768
S1134B5094E0215080409040E1F700C000000E94A2
S1134B60430680917D0490917E04892B19F40E9460
S1134B7064097AC00E94050A77C003301105F1F474
S1134B8087E7809385040E9438160E943106EFEF70
S1134B90FFE724E0E150F0402040E1F700C00000CE
S1134BA00E94430680917F0490918004892B19F41C
S1134BB00E94640959C00E94050A56C004301105B8
S1134BC009F052C085E6809385040E9438160E943D
S1134BD031068FEF9FE7E4E081509040E040E1F739
S1134BE000C000000E9443068091810490918204D9
S1134BF0892B19F40E94640937C00E94050A34C045
S1134C0001E010E00C94ED1A02E010E00C94ED1AAF
S1134C1003E010E00C94ED1A04E010E00C94ED1A9B
S1134C2001E010E02EC802E010E02BC803E010E021
S1134C3028C804E010E025C801E010E080CB02E0C1
S1134C4010E07DCB03E010E07ACB04E010E077CBFA
S1134C5001E010E0D1CE02E010E0CECE03E010E09F
S1134C60CBCE04E010E0C8CE80E090E00F900F902F
S1134C70DF91CF911F910F91FF90EF90DF90CF9034
S1134C80BF90AF909F908F907F906F905F904F9068
S1134C903F902F9008955058BB27AA270ED04DC19E
S1134CA03ED130F043D120F031F49F3F11F41EF493
S1134CB033C10EF4E095E7FB29C1E92F4FD180F30E
S1134CC0BA17620773078407950718F071F49EF505
S1134CD067C10EF4E0950B2EBA2FA02D0B01B9017C
S1134CE090010C01CA01A0011124FF27591B99F05E
S1134CF0593F50F4503E68F11A16F040A22F232F6A
S1134D00342F4427585FF3CF469537952795A795B9
S1134D10F0405395C9F77EF41F16BA0B620B730B60
S1134D20840BBAF09150A1F0FF0FBB1F661F771FD1
S1134D30881FC2F70EC0BA0F621F731F841F48F486
S1134D40879577956795B795F7959E3F08F0B3CF0C
S1134D509395880F08F09927EE0F979587950895F6
S1134D600CD0EBC0E3D040F0DAD030F021F45F3F58
S1134D7019F0CCC0511115C1CFC0F0D098F39923CC
S1134D80C9F35523B1F3951B550BBB27AA2762170B
S1134D907307840738F09F5F5F4F220F331F441F50
S1134DA0AA1FA9F333D00E2E3AF0E0E830D0915088
S1134DB05040E695001CCAF729D0FE2F27D0660F75
S1134DC0771F881FBB1F261737074807AB07B0E8B4
S1134DD009F0BB0B802DBF01FF2793585F4F2AF0CA
S1134DE09E3F510568F092C0DCC05F3FECF3983EF3
S1134DF0DCF3869577956795B795F7959F5FC9F727
S1134E00880F911D9695879597F90895E1E0660FAF
S1134E10771F881FBB1F621773078407BA0720F028
S1134E20621B730B840BBA0BEE1F88F7E095089591
S1134E3004D06894B111B5C0089598D088F09F57F4
S1134E4090F0B92F9927B751A0F0D1F0660F771FD2
S1134E50881F991F1AF0BA95C9F712C0B13081F0B2
S1134E609FD0B1E008959CC0672F782F8827B85F42
S1134E7039F0B93FCCF3869577956795B395D9F713
S1134E803EF490958095709561957F4F8F4F9F4F1D
S1134E900895E89409C097FB3EF490958095709529
S1134EA061957F4F8F4F9F4F9923A9F0F92F96E972
S1134EB0BB279395F695879577956795B795F111E7
S1134EC0F8CFFAF4BB0F11F460FF1BC06F5F7F4F84
S1134ED08F4F9F4F16C0882311F096E911C0772396
S1134EE021F09EE8872F762F05C0662371F096E89F
S1134EF0862F70E060E02AF09A95660F771F881F6E
S1134F00DAF7880F9695879597F9089597F99F672B
S1134F1080E870E060E008959FEF80EC089500243D
S1134F200A941616170618060906089500240A940A
S1134F3012161306140605060895092E0394000C90
S1134F4011F4882352F0BB0F40F4BF2B11F460FF1F
S1134F5004C06F5F7F4F8F4F9F4F089557FD905848
S1134F60440F551F59F05F3F71F04795880F97FB29
S1134F70991F61F09F3F79F08795089512161306E3
S1134F801406551FF2CF4695F1DF08C01616170612
S1134F901806991FF1CF8695710561050894089547
S1134FA0E894BB2766277727CB0197F908950BD0A0
S1134FB0C4CFB5DF28F0BADF18F0952309F0A6CFE7
S1134FC0ABCF1124EECFCADFA0F3959FD1F3950F99
S1134FD050E0551F629FF001729FBB27F00DB11D79
S1134FE0639FAA27F00DB11DAA1F649F6627B00D09
S1134FF0A11D661F829F2227B00DA11D621F739FF2
S1135000B00DA11D621F839FA00D611D221F749FFF
S11350103327A00D611D231F849F600D211D822F46
S1135020762F6A2F11249F5750408AF0E1F088238D
S11350304AF0EE0FFF1FBB1F661F771F881F91509A
S11350405040A9F79E3F510570F060CFAACF5F3F53
S1135050ECF3983EDCF3869577956795B795F795CD
S1135060E7959F5FC1F7FE2B880F911D9695879555
S113507097F90895FA01EE0FFF1F309621053105C7
S113508099F16115710561F48038BFE39B0749F11B
S113509068949038810561F08038BFEF9B0741F038
S11350A0992342F5FF3FE1053105210511F1E8940B
S11350B00894E795D901AA2329F4AB2FBE2FF85FF2
S11350C0D0F310C0FF5F70F4A695E0F7F73950F005
S11350D019F0FF3A38F49F779F930CD00F9007FC98
S11350E0905808953EF018CF60E070E080E89FE3A8
S11350F008954FE79F775F934F933F932F939ED0ED
S11351002F913F914F915F9152DF05C019F40EF03A
S1135110FDCE46CF01CF2ADFC8F39638C0F707F893
S11351200F92E8942BE33AEA48EB5FE74EDF0F92E5
S11351300F920F924DB75EB70F92C0D0E4EEF0E03D
S113514016D04F915F91EF91FF91E595EE1FFF1FF0
S113515049F0FE57E0684427EE0F441FFA95E1F743
S11351604195550B32D00F9007FE26C00895DF936A
S1135170CF931F930F93FF92EF92DF927B018C01E9
S1135180689405C0DA2EEF011EDFFE01E894A591B4
S11351902591359145915591AEF3EF018EDDFE01D8
S11351A09701A801DA9479F7DF90EF90FF900F91BF
S11351B01F91CF91DF9108959B01AC0160E070E0F5
S11351C080E89FE3CDCDA2CEACC0D0DEE8F3992336
S11351D0D9F3940F511DBBF39150504094F059F002
S11351E0882332F0660F771F881F91505040C1F713
S11351F09E3F510544F7880F911D9695879597F921
S113520008955F3FACF0983E9CF0BB278695779558
S11352106795B79508F4B1609395C1F7BB0F58F73C
S113522011F460FFE8CF6F5F7F4F8F4F9F4FE3CF45
S1135230B8CE0EF076C070CE689468CE97DEC8F310
S11352409923D1F3C6F3DF93CF931F930F93FF9268
S1135250C92FDD2788232AF02197660F771F881F1F
S1135260DAF720E030E040E85FEB9FE3883920F094
S1135270803E30F021968F770FDDECE0F1E003C043
S11352800BDDE9E3F1E073DF8B01BE01EC01FB2EE2
S11352906F5771097595771F880B990BFCDD28E111
S11352A032E741E35FE38FDEAF2D9801AE01FF905B
S11352B00F911F91CF91DF9100DD3FCEFA01DC0108
S11352C0AA0FBB1F9B01AC01BF5728F42227332729
S11352D0442750781FC0B75188F4AB2F002446955B
S11352E037952795011CA395D2F3002069F0220F6E
S11352F0331F441FB395DAF30DD0CDCC6130710563
S1135300A0E88A07B94630F49B01AC0166277727E9
S113531088279078309621F0208331834283538309
S113532008959F3F31F0915020F4879577956795C4
S1135330B795880F911D9695879597F90895A29F23
S1135340B001B39FC001A39F700D811D1124911D55
S1135350B29F700D811D1124911D0895CF93DF9389
S11353608230910510F482E090E0E0915E05F091C6
S11353705F0520E030E0A0E0B0E0309739F14081F3
S1135380518148175907B8F04817590771F48281B9
S11353909381109729F013969C938E9312972CC0A7
S11353A090935F0580935E0527C02115310531F088
S11353B04217530718F0A901DB0101C0EF019A015C
S11353C0BD01DF010280F381E02DD7CF2115310526
S11353D0F9F0281B390B2430310580F48A819B8134
S11353E06115710521F0FB019383828304C09093BE
S11353F05F0580935E05FE01329644C0FE01E20F14
S1135400F31F8193919322503109398328833AC041
S113541020915C0530915D05232B41F4209102021B
S11354203091030230935D0520935C0520910002C6
S1135430309101022115310541F42DB73EB7409159
S1135440040250910502241B350BE0915C05F09198
S11354505D05E217F307A0F42E1B3F0B281739074D
S113546078F0AC014E5F5F4F2417350748F04E0FBC
S11354705F1F50935D0540935C058193919302C037
S1135480E0E0F0E0CF01DF91CF910895CF93DF9377
S1135490009709F487C0FC01329713821282C091ED
S11354A05E05D0915F05209781F420813181280F1A
S11354B0391F80915C0590915D058217930779F5FA
S11354C0F0935D05E0935C056DC0DE0120E030E003
S11354D0AE17BF0750F412964D915C9113979D013E
S11354E04115510509F1DA01F3CFB383A283408159
S11354F05181840F951F8A179B0771F48D919C919C
S11355001197840F951F02969183808312968D9133
S11355109C911397938382832115310529F4F09389
S11355205F05E0935E053EC0D9011396FC93EE93AC
S113553012974D915D91A40FB51FEA17FB0779F4FB
S113554080819181840F951F0296D90111969C93B5
S11355508E938281938113969C938E931297E0E0AD
S1135560F0E08A819B81009719F0FE01EC01F9CFEC
S1135570CE01029628813981820F931F20915C0508
S113558030915D052817390769F4309729F4109292
S11355905F0510925E0502C013821282D0935D05EE
S11155A0C0935C05DF91CF910895F894FFCF7E
S11355AE00006005200000000E0000000100020053
S11355BE00000000000003000000010000000400D1
S11355CE0C000200000005000000030000000600AD
S11355DE0A0004000000070000000500000000009F
S11355EE0800060000000000000009000700080083
S11355FE00000A000000090000000B0005000A006C
S113560E00000C0000000B0000000D0003000C0055
S113561E00000E0000000D0000000000000000005D
S113562E0400000000000000000000000000000064
S113563E0000000000000000000004000400000050
S113564E0100000000000000000000000000000047
S113565E0000000000000000000000000100000037
S113566E0100000000000000000000000000000027
S113567E0000000000000000000000000100000017
S113568E0100000000000000000000000000000007
S113569E06000000000000000000000001000000F1
S11356AE01000000000000000000000000000000E7
S11356BE00000000000000000000000001000000D7
S11356CE01000000000000000600000000000000C1
S11356DE00000000000000000000000001000000B7
S11356EE01000000000000000000000000000000A7
S11356FE0000000000000000000000000100000097
S113570E080000000000000000000000000000007F
S113571E000000000000000000000000080000006F
S113572E0100000000000000000000000000000066
S113573E0000000000000000000000000100000056
S113574E0100000000000000000000000000000046
S113575E0000000006000000000000000100000030
S113576E0100000000000000000000000000000026
S113577E0000000000000000000000000100000016
S113578E0100000000000000000000000600000000
S113579E00000000000000000000000001000000F6
S11357AE01000000000000000000000000000000E6
S11357BE00000000000000000000000001000000D6
S11357CE01000400000000000000000000000000C2
S11357DE00000000000000000000000001000000B6
S11357EECDB9FA080007000A0005000C00030009F1
S11357FE000900060006000B000B00040004000D57
S113580E000D00020002000B00040009000C000150
S113581E000000060008000700020001000000005E
S113582E00010000006E770F004C696E652D466F07
S113583E6C6C6F7765720057616C6C2D466F6C6C77
S113584E6F776572005A69672D5A61670020454E5D
S113585E4420002D2D2D2D2D2A2A2A2A2D2D2D2D95
S113586E2D005374617469630052656F7269656EBD
S113587E746174696F6E00496E76657273696F6ECA
S105588E000014
S9030000FC
